:10000000802A00208DD900009DDA00009DDA0000D2
:1000100000000000000000000000000000000000E0
:100020000000000000000000000000009DDA000059
:1000300000000000000000009DDA00009DDA0000D2
:100040009DDA0000712000009DDA000009570000D1
:10005000F16D00009DDA00009DDA000081BF000014
:100060009DDA0000456C00005D6C0000756C0000BE
:100070008D6C0000A56C0000BD6C00009DDA0000D6
:100080009DDA00009DDA00009DDA00009DDA000094
:100090009DDA000000000000000000009DDA000072
:1000A0009DDA00009DDA00009DDA00009DDA000074
:1000B0000000000010B5064C2378002B07D1054B3B
:1000C000002B02D0044800E000BF0123237010BDC4
:1000D0008401002000000000D41D0100084B10B571
:1000E000002B03D00749084800E000BF0748036819
:1000F000002B00D110BD064B002BFBD09847F9E731
:100100000000000088010020D41D0100D41D010062
:100110000000000090B587B000AFF8600C00100040
:1001200019000A23FB18221C1A800823FB18021C42
:100130001A80FB1D0A1C1A700A23FB181A88082350
:10014000FB181B88D31A0733002B00DA0733DB10A8
:10015000013BFA68D3181B7819000823FB181B8889
:100160000722134019410B007B610823FB181B88F1
:1001700007221A40FB1D1B78D318082B1CDD0A230D
:10018000FB181A880823FB181B88D31A0733002B87
:1001900000DA0733DB10023BFA68D3181B7819002A
:1001A0000823FB181B88072213400822D31A994002
:1001B0000B007A6913437B610823FB181B88072215
:1001C0001A40FB1D1B78D318102B1CDD0A23FB18CB
:1001D0001A880823FB181B88D31A0733002B00DA70
:1001E0000733DB10033BFA68D3181B781900082388
:1001F000FB181B88072213401022D31A99400B00CA
:100200007A6913437B610823FB181B8807221A4075
:10021000FB1D1B78D318102B1CDD0A23FB181A8832
:100220000823FB181B88D31A0733002B00DA073387
:10023000DB10033BFA68D3181B7819000823FB185E
:100240001B88072213401022D31A99400B007A69A9
:1002500013437B61FB1D1B7801229A4013005A1E39
:100260007B6913407B617B691800BD4607B090BD78
:1002700090B583B000AF274C7C44274B7B60274B65
:1002800000211800264BE358984703001A00012369
:100290005340DBB2002B01D0002336E0214BE35862
:1002A000984703003B603B680122134006D07B68FF
:1002B0005A1E7A60002BE2D1002326E0C0461A4B7A
:1002C00000211800164BE358984703001A00012339
:1002D0005340DBB2002B01D0002316E0114BE35852
:1002E00098470200C023DB051A408023DB059A42B1
:1002F0000AD10E4B7B441A680D4B7B441B68DB7A9A
:1003000008210B43DBB2D37201231800BD4603B0B2
:1003100090BDC046581B0100EE1B000001110000FB
:100320005C020000900200003A050000CCFEFF1FB6
:10033000C6FEFF1F90B587B000AF0200FB1D1A700C
:10034000324C7C44324B3B61324B00211800324B23
:10035000E358984703001A0001235340DBB2002BF7
:1003600001D000234EE000237B61FB1D1B78002B96
:1003700004D07B698022D20513437B617B69274AC5
:1003800019001000244BE358984703001A0001237A
:100390005340DBB2002B01D0002333E0204BE35865
:1003A00098470300FB60FB680122134006D03B69BD
:1003B0005A1E3A61002BC7D1002323E0C046194BD7
:1003C00000211800144BE358984703001A0001233A
:1003D0005340DBB2002B01D0002313E0104BE35855
:1003E000984702008023DB0513400AD00E4B7B4464
:1003F0001A680E4B7B441B68DB7A08210B43DBB287
:10040000D37201231800BD4607B090BD8E1A0100BB
:10041000EE1B0000371100005C02000029110000F3
:10042000900200003A050000D2FDFF1FCCFDFF1F27
:1004300080B500AF01231800BD4680BD90B585B0E2
:1004400000AF7860184C7C447B6800221A70D5237A
:100450005B00164A19001000154BE358984703003B
:100460001A0001235340DBB2002B01D0012316E018
:10047000104BE35898470300FB60FB68013301D140
:1004800001230CE0FB681B051A0DD5235B009A4283
:1004900001D0002303E07B6801221A7001231800B9
:1004A000BD4605B090BDC0468A1901000855000040
:1004B0005C02000090020000B0B588B002AF786026
:1004C000464C7C4480239A00454800230093012336
:1004D0000021444D6559A84703001A0001235340E9
:1004E000DBB2002B01D0002374E01623FB1800229E
:1004F0001A8015E01023FB1818003B4BE35898476F
:1005000003001A0001235340DBB2002B01D000236B
:1005100060E01623FB181A881623FB1801321A8094
:100520001623FB181B88312BE4D93B69DBB202226E
:100530001340DAB27B681A702C4B7B441B680E3375
:1005400018000C233E228021294D7D44A84702003B
:10055000284B9A4238D115E00C23FB181800224B87
:10056000E358984703001A0001235340DBB2002BE5
:1005700001D000232EE01623FB181A881623FB183F
:1005800001321A801623FB181B88352BE4D91A4B2D
:100590007B441B68FA6852085A6015E00C23FB186C
:1005A0001800114BE358984703001A0001235340E9
:1005B000DBB2002B01D000230CE01623FB181A88B5
:1005C0001623FB1801321A801623FB181B887F2B79
:1005D000E4D901231800BD4606B0B0BD0E190100D4
:1005E00008110800300100000001000086FCFF1F18
:1005F000C7FBFFFFFF0F000030FCFF1FB0B582B04C
:1006000002AF184C7C44184B7B441B681B891904AF
:1006100016480123009301231022154D6559A84760
:1006200003001A0001235340DBB2002B01D000234A
:1006300015E0104B7B441B680E33012118000E4B54
:10064000E358984703001A0001235340DBB2002B04
:1006500001D0002303E0094BE3589847030018003A
:10066000BD46B0BDCC170100B8FBFF1F0911080043
:10067000300100008CFBFF1F080200008401000015
:10068000B0B584B000AF534C7C44534B7B441B68E3
:100690000E33180004237A228021504D7D44A84750
:1006A0000300013B032B0BD818000FF0E1FFC046FD
:1006B0001C00000028000000340000004000000082
:1006C000474B7B441B6812221A7317E0454B7B444F
:1006D0001B6814221A7311E0434B7B441B682222CF
:1006E0001A730BE0414B7B441B6830221A7305E000
:1006F0003F4B7B441B6840221A73C0463D4B7B44F2
:100700001B680E3318000823602280213A4D7D4477
:10071000A8470300FB60FB6807221A40374BE358E9
:100720009200D358BB60FB68DB080F221A40344BA1
:10073000E3589200D3587B60324B7B441B68BA6805
:1007400079684A43FA2189004A431A602E4B7B4458
:100750001B680E3318000C233E2280212B4C7C4456
:10076000A04702002A4B9A422FD02A4B7B441B6899
:100770000E3318000C233E228021274C7C44A047D6
:1007800003005C1C254B7B441B680E3318000323BD
:100790002F228021224D7D44A847030002339C4034
:1007A00023003B601F4B7B441C681F4B7B441B6832
:1007B0000E3318000423502280211C4D7D44A8478D
:1007C00002003B6893409B0A6360C046BD4604B08C
:1007D000B0BDC0464817010034FBFF1F75FAFFFF8C
:1007E000FEFAFF1FF2FAFF1FE6FAFF1FDAFAFF1FF9
:1007F000CEFAFF1FC2FAFF1F03FAFFFFC401000079
:100800009400000086FAFF1F72FAFF1FB3F9FFFF82
:10081000FF0F000054FAFF1F95F9FFFF3AFAFF1F80
:100820007BF9FFFF1AFAFF1F14FAFF1F55F9FFFFAC
:10083000B0B584B000AF3F4C7C443F4B7B441B6859
:100840000E3318000823602280213C4D7D44A847C8
:100850000300FB60FB6807221A40394BE358920003
:10086000D358BB60FB68DB080F221A40354BE358B6
:100870009200D3587B60344B7B441B68BA6879681C
:100880004A43FA2189004A431A60304B7B441B6873
:100890000E33180002237E2280212D4C7C44A04779
:1008A000031E12D02B4B7B441C682B4B7B441B68D4
:1008B0000E331800162330228021284D7D44A8478E
:1008C000030001335B0263602FE0254B7B441B6810
:1008D0000E3318000C233E228021224C7C44A0477A
:1008E00003005C1C204B7B441B680E331800032361
:1008F0002F2280211D4D7D44A847030002339C40D8
:1009000023003B601A4B7B441C681A4B7B441B68DA
:100910000E331800042350228021174D7D44A84730
:1009200002003B6893409B0A6360C046BD4604B02A
:10093000B0BDC0469815010084F9FF1FC5F8FFFF40
:10094000C4010000A801000048F9FF1F34F9FF1F8F
:1009500075F8FFFF1AF9FF1F14F9FF1F55F8FFFF85
:10096000F4F8FF1F35F8FFFFDAF8FF1F1BF8FFFF51
:10097000BAF8FF1FB4F8FF1FF5F7FFFF90B583B07B
:1009800000AF134C7C44134B7B60134B00211800C9
:10099000124BE358984703001A0001235340DBB27F
:1009A000002B01D000230FE00D4BE35898470200C5
:1009B000FF23134006D07B685A1E7A60002BE4D1D7
:1009C000002301E0C04601231800BD4603B090BDDE
:1009D0004C140100400D03000D1B00005C020000E0
:1009E00090020000B0B584B002AF3F4C7C443F4B56
:1009F0007B441B681B891B043D4A190010003D4BBA
:100A0000E358984703001A0001235340DBB2002B40
:100A100001D0002363E0384801230093012308221A
:100A20000021364D6559A84703001A0001235340A1
:100A3000DBB2002B01D0002351E03B000121180064
:100A40002F4BE358984703001A0001235340DBB2B1
:100A5000002B01D0002342E02A4BE35898470300C3
:100A60001A0001235340DBB2002B01D0002336E0F3
:100A70003800042338224021234C7C44A047030043
:100A8000012B09D002D3022B0CD021E01F4B7B4459
:100A90001B6810221A7321E01D4B7B441B681A222D
:100AA0001A731BE0380001232F224021194C7C448B
:100AB000A0470300012B05D1174B7B441B68302254
:100AC0001A730BE0154B7B441B6820221A7305E058
:100AD000134B7B441B6810221A73C0460123180075
:100AE000BD4602B0B0BDC046E4130100D0F7FF1F01
:100AF000371100005C0200003311080030010000D3
:100B0000080200008401000097F6FFFF32F7FF1F84
:100B100026F7FF1F63F6FFFF06F7FF1FFAF6FF1F1A
:100B2000EEF6FF1F80B582B000AF0200FB1D1A7009
:100B3000FB1D1B78002B01D0042352E0FB1D1B780A
:100B40002A4A7A445B01D3180A331B78042B09D054
:100B5000FB1D1B78264A7A445B01D3180A331B78A5
:100B6000032B21D1FB1D1B78224A7A445B01D31849
:100B70000A3302221A70FB1D1A781F4B7B44520164
:100B80001E49D150FB1D1B781D4A7A445B01D318C6
:100B90000D3301221A70FB1D1B781A4A7A445B013F
:100BA000D3181E3300221A70174B7B44FA1D12789B
:100BB0001A70FB1D1B785B01144A7A449A18144B77
:100BC0007B441A60134B7B449847FB1D1B78124AE9
:100BD0007A445B01D3180A331B78023B5A425341D3
:100BE000DBB21800BD4602B080BDC0465AF6FF1FFA
:100BF00046F6FF1F32F6FF1F20F6FF1F801A060081
:100C000012F6FF1F00F6FF1F12F6FF1FE2F5FF1F8F
:100C100000F6FF1F53000000CCF5FF1FB0B500AF7A
:100C20000C4D7D440C4B7B4418780C4B7B441B686B
:100C300019680B4B7B441B685A7B0A4B7B441B682F
:100C40009B7F5C1EA341DBB2074C2C59A047C046DA
:100C5000BD46B0BDAE11010096F5FF1F94F5FF1F14
:100C60008CF5FF1F84F5FF1F2C00000080B500AF3E
:100C7000084A7A44084B7B441B78002B06D1074B6B
:100C80007B441B781800064BD3589847C046BD4696
:100C900080BDC0465E11010046F5FF1F3CF5FF1FF9
:100CA000D802000090B583B000AF674C7C44FB1DB8
:100CB00000221A70654B7B441B680122DA72644B78
:100CC0007B441B6800221A73624B7B441B68002222
:100CD0001A81614BE358984788235B010021180073
:100CE0005E4BE358984703001A0001235340DBB2E0
:100CF000002B01D00023A3E0FB1D1800584B7B44C0
:100D0000984703001A0001235340DBB2002B01D0A7
:100D1000002395E0534B7B44984703001A000123BE
:100D20005340DBB2002B01D0002389E04E4B7B44C3
:100D30001B68DB7A1A000123134025D0FB1D1B78AA
:100D400018004A4B7B44984703001A000123534084
:100D5000DBB2002B09D0464B7B441B680222DA72BF
:100D6000444B7B44984703006AE0434B0021180042
:100D70003A4BE358984703001A0001235340DBB273
:100D8000002B01D000235BE03C4B7B441B68DB7AEB
:100D90001A00012313401AD0394B7B4498470300B3
:100DA0001A0001235340DBB2002B01D0002347E09F
:100DB000344B7B449847344B7B44984703001A00DC
:100DC00001235340DBB2002B01D0002338E02F4B2E
:100DD0007B441B68DB7A1A000123134018D02C4B8C
:100DE0007B441B68DB7A1A000823134010D1802350
:100DF0009B00284A19001000184BE358984703003D
:100E00001A0001235340DBB2002B01D0002317E06E
:100E1000214B7B441B68DB7A1A00012313400BD063
:100E20001E4B7B44984703001A0001235340DBB25A
:100E3000002B01D0002303E0194B7B44984701238A
:100E40001800BD4603B090BD241101000AF5FF1F34
:100E500000F5FF1FF6F4FF1FEC0200005C0200002B
:100E60003BF7FFFF17F7FFFF92F4FF1FEDF5FFFFC2
:100E700068F4FF1F3F0100003B11000036F4FF1F24
:100E80005FF8FFFF7BFAFFFF29FCFFFFF0F3FF1F76
:100E9000E0F3FF1F10110000AEF3FF1F57FBFFFF31
:100EA000DFFDFFFF90B583B000AF3A4C7C44882350
:100EB0005B0100211800384BE358984703001A00E3
:100EC00001235340DBB2002B01D000235EE0334B03
:100ED0007B44984703001A0001235340DBB2002BE8
:100EE00001D0002352E02E4B002118002A4BE3587A
:100EF000984703001A0001235340DBB2002B01D0B6
:100F0000002343E0274B7B44984703001A0001234A
:100F10005340DBB2002B01D0002337E0224B7B444F
:100F20009847224B7B441B681B7B3F2B0DD9FB1D35
:100F300018001F4B7B44984703001A0001235340BD
:100F4000DBB2002B01D0002320E080239B00194A54
:100F500019001000104BE358984703001A000123B2
:100F60005340DBB2002B01D000230FE0124B7B4437
:100F7000984703001A0001235340DBB2002B01D035
:100F8000002303E00D4B7B44984701231800BD4626
:100F900003B090BD240F01005C0200009DF3FFFF31
:100FA0003B110000F3F6FFFF5FF7FFFF9CF2FF1F0E
:100FB00081F5FFFF101100000BFAFFFF93FCFFFF0C
:100FC00080B582B000AF114A7A44FB1D0021197030
:100FD0000DE0FB1D1B780E4979445B01CB180A33E9
:100FE00004211970FB1D1978FB1D01311970FB1DBF
:100FF0001B78002BEDD0074B7B44FF211970064B6B
:10100000D3589847C046BD4602B080BD080E0100C7
:10101000C4F1FF1FC4F1FF1F7801000090B585B037
:1010200000AF0200FB1D1A700F23FC18FB1D1B787C
:101030001800164B7B449847030023700F23FB18BE
:101040001B78012B06D0124B7B4498470F23FB18CB
:101050001B7817E00F4B7B449847031E09D00E4BBB
:101060007B441B6800229A720C4B7B4498470123F7
:1010700008E00B4B7B441B6803229A72094B7B44AC
:10108000984703231800BD4605B090BDEDFAFFFF59
:1010900021FCFFFF4BFCFFFF60F1FF1FFFFBFFFF89
:1010A0004CF1FF1FEBFBFFFF80B582B000AF0200E9
:1010B000FB1D1A70FB1D1B781800094B7B449847D9
:1010C000031E01D0002306E0064B7B449847064BE5
:1010D0007B441B68DB7A1800BD4602B080BDC04669
:1010E00065FAFFFF9FFBFFFFF0F0FF1F80B582B0A6
:1010F00000AF0200FB1D1A70FB1D1B781800094B86
:101100007B449847031E01D0002306E0064B7B4436
:101110009847064B7B441B685B681800BD4602B0CD
:1011200080BDC04621FAFFFF5BFBFFFFACF0FF1F55
:1011300080B582B000AF0200FB1D1A7000231800BA
:10114000BD4602B080BD0000B0B588B002AF3960C6
:101150001100FB1D021C1A703B1D0A1C1A80314D28
:101160007D440F23FC18FB1D1B7818002E4B7B447D
:101170009847030023700F23FB181B78002B03D024
:101180000F23FB181B7848E0284B7B44984703004B
:101190001A0001235340DBB2002B04D0244B7B44C4
:1011A0009847052339E03B1D1B88012B02D9214BB1
:1011B0007B6101E0204B7B61204B7B441B68DB7A29
:1011C0001A000823134002D03B683B6102E03B68F1
:1011D0005B023B613B1D1C8880239A00396978695A
:1011E000012300932300164C2C59A04703001A003A
:1011F00001235340DBB2002B04D0124B7B449847B1
:1012000005230AE0104B7B443A1D12881A800F4BCD
:101210007B443A1D12881A8000231800BD4606B090
:10122000B0BDC046700C0100B3F9FFFFEFF7FFFF40
:10123000CBFAFFFF121110001111080006F0FF1F7A
:10124000300100006DFAFFFFC0EFFF1FB4EFFF1F7A
:1012500080B582B000AF78600A00BB1C1A80124AC9
:101260007A44BB1C19887B681800104BD3589847E8
:1012700003001A0001235340DBB2002B05D00C4BB6
:101280007B4400221A8005230AE00A4B7B441A881B
:10129000BB1C1B88D31A9AB2074B7B441A800023CD
:1012A0001800BD4602B080BD700B010008020000AE
:1012B00046EFFF1F3AEFFF1F2CEFFF1F90B583B0E3
:1012C00000AF0200FB1D1A70214C7C44214BE358F7
:1012D000984703001A0001235340DBB2002B01D0D2
:1012E000052330E0FB1D1B78002B04D01A4B7B44F8
:1012F00000221A8006E0194B7B441B88002B01D08A
:10130000002320E0164B7B441B88012B04D1154B96
:101310007B449847002316E0134B00211800134B21
:10132000E358984703001A0001235340DBB2002B17
:1013300005D00D4B002118000C4BE35898470C4B7F
:101340007B44984700231800BD4603B090BDC046BB
:10135000060B010084010000D8EEFF1FCEEEFF1F38
:10136000BEEEFF1F59F9FFFF0C3100005C020000C8
:1013700029F9FFFFB0B588B002AF39601100FB1D3D
:10138000021C1A703B1D0A1C1A80304C7C440F232F
:10139000FD18FB1D1B7818002D4B7B44984703005C
:1013A0002B700F23FB181B78002B03D00F23FB1887
:1013B0001B7846E0FB1D1B781800264BE358984726
:1013C000031E04D0244B7B449847072339E03B1D80
:1013D0001B88012B02D9214B7B6101E0204B7B61F3
:1013E000204B7B441B68DB7A1A000823134002D091
:1013F0003B683B6102E03B685B023B613B1D1D8833
:1014000080239A0039697869012300932B00164DD7
:101410006459A04703001A0001235340DBB2002B9C
:1014200004D0124B7B44984705230AE0104B7B44C1
:101430003A1D12881A800F4B7B443A1D12881A807D
:1014400000231800BD4606B0B0BDC046440A0100E6
:1014500087F7FFFF48010000A3F8FFFF1991100074
:1014600018910800DEEDFF1F3001000045F8FFFF76
:1014700098EDFF1F8CEDFF1F80B582B000AF786044
:101480000A00BB1C1A80124A7A44BB1C19887B686C
:101490001800104BD358984703001A0001235340FB
:1014A000DBB2002B05D00C4B7B4400221A800523B5
:1014B0000AE00A4B7B441A88BB1C1B88D31A9AB2D9
:1014C000074B7B441A8000231800BD4602B080BD44
:1014D00048090100D40100001EEDFF1F12EDFF1F9F
:1014E00004EDFF1F80B582B000AF0200FB1D1A7033
:1014F000174A7A44174BD358984703001A00012320
:101500005340DBB2002B01D005231DE0FB1D1B78EF
:10151000002B04D0104B7B4400221A8006E00F4BB6
:101520007B441B88002B01D000230DE00C4B7B4437
:101530001B88012B04D10B4B7B449847002303E00D
:10154000094B7B44984700231800BD4602B080BD7C
:10155000DE08010034020000B0ECFF1FA6ECFF1F04
:1015600096ECFF1F31F7FFFF27F7FFFF90B583B021
:1015700000AF0200FB1D1A701A4C7C44FB1D1B7847
:101580001800194BE35898470300012B1BD0022B7E
:101590001BD0002B21D1FB1D1B78144A7A44D35C4D
:1015A000002B01D0022319E0FB1D1B781800104B03
:1015B000E358984703001A000323134001D0002387
:1015C0000CE002230AE0032308E0FB1D1B78094A14
:1015D0007A440021D154022300E001231800BD46C3
:1015E00003B090BD56080100680000002CECFF1FFE
:1015F000E8000000F8EBFF1F80B500AF044A7A4412
:101600000020044BD358984703001800BD4680BD06
:10161000D20701004800000090B583B000AF02007F
:101620003960FB1D1A700C4C7C44FB1D1B781800A4
:101630000A4BE358984703005B005A1E3B681A6048
:10164000FB1D1B781800064BE35898470300180051
:10165000BD4603B090BDC046A8070100F4020000DB
:101660004800000080B582B000AF7860064A7A4436
:101670007B6819000020054BD358984703001800D9
:10168000BD4602B080BDC0466207010050010000A7
:1016900080B582B000AF0200FB1D1A70BB1D0A1C92
:1016A0001A70FB1D1B78054A7A44B91D0978D1547C
:1016B00001231800BD4602B080BDC04620EBFF1FCD
:1016C00080B582B000AF0200FB1D1A70064A7A4452
:1016D000FB1D1B7819000020044BD35898470300CA
:1016E0001800BD4602B080BD02070100B80100002D
:1016F00080B582B000AF0200FB1D1A70064A7A4422
:10170000FB1D1B781800054BD358984703001800A1
:10171000BD4602B080BDC046D206010048010000AF
:1017200080B500AF044A7A440020044BD358984750
:1017300003001800BD4680BDAA060100C8010000D4
:1017400080B582B000AF0200FB1D1A7001231800A3
:10175000BD4602B080BD000080B500AF044A7A44A7
:101760000020044BD358984703001800BD4680BDA5
:10177000720601000002000090B585B000AFB960AC
:101780007A600F23FB18021C1A70154C7C44B96850
:101790000F23FB181B7801221800124BE3589847BF
:1017A000031E05D0022B01D1022315E0012313E013
:1017B000C0467B68012118000B4BE3589847031E75
:1017C00001D0012308E00020084BE3589847031E8E
:1017D00001D0012300E000231800BD4605B090BDF4
:1017E00044060100700100000C0100002C01000003
:1017F00090B583B000AF78603960074C7C443A689C
:101800007B6819000020054BE35898470300180037
:10181000BD4603B090BDC046D4050100840200005F
:1018200090B585B000AFB9607A600F23FB18021C39
:101830001A70154C7C44B9680F23FB181B780122E1
:101840001800124BE3589847031E05D0022B01D114
:10185000022315E0012313E0C0467B680121180034
:101860000B4BE3589847031E01D0012308E00020EA
:10187000084BE3589847031E01D0012300E00023E2
:101880001800BD4605B090BD9C050100E8020000AF
:10189000000000006000000090B583B000AF7860E9
:1018A0003960074C7C443A687B6819000020054B7E
:1018B000E358984703001800BD4603B090BDC046EA
:1018C0002C0501008001000080B500AFBFF34F8FF1
:1018D000024B034ADA60BFF34F8FFEE700ED00E0F2
:1018E0000400FA0580B582B000AF78607B68002202
:1018F0001A807B6800225A807B6808221A717B68F4
:1019000027225A717B6801229A717B680122DA7161
:10191000C046BD4602B080BD80B582B000AF0200B7
:10192000FB1D1A70FB1D1B78002B08D1064B064AC5
:10193000526B02210A435A63C046002300E017237A
:101940001800BD4602B080BD0008004080B582B0DE
:1019500000AF78607B6800221A70C046BD4602B0B6
:1019600080BD000080B584B000AF0200FB1D1A707E
:101970000F23FB18FA1D1278D2091A700E23FB18D8
:10198000FA1D127852091A700D4BBB600F23FB1819
:101990001B78002B0FD10F23FB181B789B00102204
:1019A0009446BC446344083B1A680E23FB181B781A
:1019B000DB01D31800E000231800BD4604B080BD51
:1019C0000044004180B582B000AF78607B6800229F
:1019D0001A707B6801225A70084B5B68DB061B0F8C
:1019E000DBB21A007B689A707B680022DA707B6831
:1019F00000221A71C046BD4602B080BD00400041C1
:101A000080B582B000AF0200FB1D1A70FB1D1B7871
:101A10001800044B7B44984703001800BD4602B0F1
:101A200080BDC0464DFFFFFF80B582B000AF78603B
:101A30007B6800221A707B6801225A707B68002242
:101A40009A70C046BD4602B080BD000080B584B02B
:101A500000AF0200FB1D1A70FB1D1B7818000C4B19
:101A60007B4498470300FB60FB1D1B781F2213403B
:101A700001229A401300BB60FB681B6ABA681340DE
:101A80005A1E9341DBB21800BD4604B080BDC0466B
:101A90009DFFFFFF80B584B000AF0200FB1D1A70F0
:101AA000BB1D0A1C1A70FB1D1B7818000D4B7B44D4
:101AB00098470300FB60FB1D1B781F221340012287
:101AC0009A401300BB60BB1D1B78002B03D0FB6842
:101AD000BA689A6102E0FB68BA685A61C046BD46BE
:101AE00004B080BD4FFFFFFF80B500AF054A7A44C8
:101AF000054BD35801221A70BFF35F8F62B6C04600
:101B0000BD4680BDE2020100EC00000080B500AFE0
:101B1000054A7A4472B6BFF35F8F044BD358002254
:101B20001A70C046BD4680BDBE020100EC00000038
:101B300080B582B000AF0200FB1D1A70064BFA1D83
:101B4000127811001F220A40012191400A001A60F8
:101B5000C046BD4602B080BD00E100E080B582B065
:101B600000AF0200FB1D1A70074AFB1D1B7819000D
:101B70001F230B40012199400B0019008023D150F5
:101B8000C046BD4602B080BD00E100E080B582B035
:101B900000AF78607B6800221A707B6800225A7060
:101BA0007B6800229A707B680022DA707B680122D1
:101BB0001A717B6801225A717B68FA22D200DA809E
:101BC000C046BD4602B080BD90B587B000AF78601A
:101BD000264C7C440C23FB181800254B7B4498476B
:101BE0007B68A02212011A807B6800229A707B68B1
:101BF0000022DA707B6800221A717B68FA22D20018
:101C0000DA801723FB1800221A7026E01723FB182E
:101C10001A787968082013009B009B185B00CB188A
:101C20001A180C23FB181000190008231A00114B76
:101C3000E35898471723FB181A78796813009B001C
:101C40009B185B00CB18103306221A701723FB1861
:101C50001A781723FB1801321A701723FB181B7808
:101C6000002BD3D0C046BD4607B090BDFE01010099
:101C7000ADFFFFFF8C00000080B584B000AF020014
:101C8000FB1D1A701A4B9B69FB60FA68F0231B015D
:101C90001340FB60FB681B0AFB60FB68022B05D846
:101CA000144A5368C02189000B435360FB1D1B7805
:101CB000002B16DB022B02DD032B0BD011E00E4BA9
:101CC0000D4A126904218A431A610C4AFB1D1B78D4
:101CD000537008E0084B084A126904210A431A614C
:101CE00001E0172300E000231800BD4604B080BDCA
:101CF000002000410040004100ED00E000040040F1
:101D000080B500AFBFF34F8F30BFC046BD4680BD2A
:101D100080B500AF024B7B449847C046BD4680BDAE
:101D2000AFFBFFFF80B584B000AF78607B681B68B5
:101D3000FB60FB68DB695A1E9341DBB21800BD46AD
:101D400004B080BD80B584B000AF7860144A7A4496
:101D50007B681B68FB607B681B681800114BD358BD
:101D6000984703001800104B7B449847C0467B6897
:101D700018000E4B7B449847031EF8D1FB688F2256
:101D80001A75FB688F221A76FB681B680222934340
:101D90001A00FB681A60C046BD4604B080BDC0464C
:101DA00082000100A8000000F1FDFFFFADFFFFFF72
:101DB000B0B584B000AF2A4C7C443B001800294BDE
:101DC000E35898473B000222DA723B0001229A72E4
:101DD0003B0001225A723B0003221A603B000022A2
:101DE0005A603B0001221A723B00190003201E4B6F
:101DF000E35898470F23FD18002103201B4BE3589D
:101E0000984703002B703B001F221A603B00002202
:101E10005A603B0019000B20134BE35898470E23E0
:101E2000FD1800210B20114BE358984703002B703D
:101E30000F23FB181B78002B03D00F23FB181B78F4
:101E400009E00E23FB181B78002B03D00E23FB1890
:101E50001B7800E000231800BD4604B0B0BDC046AA
:101E6000180001002400000024010000A40100006B
:101E700080B584B000AF154B7B44391D144A9A5885
:101E80001000144A9B5898470023FB603B1D1B78A9
:101E90005B08DBB21A003B1D5B785B011A433B1DFC
:101EA0009B78DB021A433B1D1B791B041A433B1D25
:101EB0005B795B051A433B1DDB885B061343FB60C4
:101EC000FB681800BD4604B080BDC04658FF000046
:101ED000300000003401000090B587B000AF1E4C08
:101EE0007C441E4BE3581E4A1A601C4BE3580122E7
:101EF0001A711A4BE358FA22D200DA803B1D1800FF
:101F0000184B7B4498473B1D01221A713B00180077
:101F1000154B7B4498473B0002221A703B00190086
:101F20000420124BE35898470420114BE35898477C
:101F30003A1D0B49094BE35818000E4BE3589847DC
:101F4000064BE35818000C4BE35898470023180041
:101F5000BD4607B090BDC046F0FE00003000000056
:101F600000140040C3FCFFFF37FAFFFFB000000081
:101F700030020000D000000058000000B0B582B070
:101F800000AF0C4D7D443B0018000B4B7B44984741
:101F90003B0000225A70FC1D3B001800074BEB5819
:101FA000984703002370FB1D1B781800BD4602B044
:101FB000B0BDC0464CFE000035FAFFFF50020000E5
:101FC000B0B584B000AF244D7D443B1D1800234BB9
:101FD0007B4498473B1D10221A713B1D01229A71C8
:101FE0003B1D0022DA713B1D802252005A803B1DAE
:101FF00028225A710F23FC183B1D19000020184B92
:10200000EB589847030023700E23FC180020154B53
:102010007B44984703002370134B8022D2005A6000
:102020000120124B7B4498470F23FB181B78002B91
:1020300003D00F23FB181B7809E00E23FB181B7835
:10204000002B03D00E23FB181B7800E000231800A0
:10205000BD4604B0B0BDC04608FE000011F9FFFF48
:102060001C02000005F9FFFF0008004009FBFFFF0C
:1020700080B500AF074B9A688023DB00134006D081
:10208000044B8022D2009A60034B7B449847C046A1
:10209000BD4680BD0008004073FCFFFFF0B5C6469A
:1020A00000B59F4CA54404AF9E4C7C449E4BE35826
:1020B00098470122642101209C4B7B4498479C4B0C
:1020C00008229446BC44634401221A70994B0822AA
:1020D0009446BC44634400221A70AE239B0008223D
:1020E0009446BC4463441800934B7B449847AE230A
:1020F0009B0008229446BC446344190003208F4B84
:10210000E3589847AE239B0008229446BC4463449E
:1021100019001F20894BE35898470320884B7B44C4
:10212000984703005A1E9341DBB201225340DBB2B1
:102130001A00844B08218C46BC4463441A701A78F8
:1021400001210A401A701F207F4B7B4498470300EF
:102150005A1E9341DBB201225340DBB21A007B4B83
:1021600008218C46BC4463441A701A7801210A4045
:102170001A70744B08229446BC4463441B78002BAD
:102180000ED0724B08229446BC4463441B78002B4B
:1021900006D0674B08229446BC44634400221A7060
:1021A0006B4BE35898476B4B08229446BC446344FE
:1021B00001221A700523B422920008218C46BC44E7
:1021C000624413602CE00020634BE35898470300FF
:1021D0001A00604B08218C46BC4463441A705D4B66
:1021E00008229446BC4463441B78DBB2012B08D020
:1021F000584B08229446BC4463441B78DBB2022B44
:102200000ED1B4239B0008229446BC4463441B684F
:10221000013BB422920008218C46BC446244136006
:102220004C4B08229446BC4463441B78DBB2002B21
:1022300008D0B4239B0008229446BC4463441B6826
:10224000002BC0DCB4239B0008229446BC446344AA
:102250001B68002B06D1374B08229446BC446344CC
:1022600001221A703D4B7B44B022920008218C461B
:10227000BC44624413608C239A00842308218C465A
:10228000BC44634400211800354BE3589847294B60
:1022900008229446BC4463441B7801225340DBB2BD
:1022A000002B6CD02F4B0822BA18D5188423082293
:1022B0009446BC446344190000202B4BE3589847D4
:1022C00003002B70274B0822BA18D5184823082280
:1022D000BA18D218B0239B0008218C46BC44634432
:1022E0001B6811001800214BE358984703002B701E
:1022F0001C4B08229446BC4463441B78002B37D106
:102300000B4B08229446BC44634400221A70094BCC
:1023100008229446BC44634400221A702FE0C04651
:1023200010FDFFFF26FD000074010000EF0A000011
:10233000D7020000D60200003BF9FFFF3802000080
:102340002BF9FFFFC7020000FFF8FFFFC6020000E5
:1023500044000000B7020000480000001EF8000022
:10236000F0010000BF02000010020000580200004F
:10237000914B08229446BC44634401221A708F4B4F
:10238000B6229200944608229046B844C44463445E
:102390008B4A1A600C2308229446BC4463441800FC
:1023A000884BE35898470C2308229446BC44634466
:1023B0001800854B7B449847844B7B449847844B5B
:1023C00008229446BC4463441B78002B02D0814B06
:1023D0007B449847804BE3589847804BE358984795
:1023E0007F4B7B44984703207E4B7B4498477E4B32
:1023F000E35898477D4BE3589847FA235B00180051
:102400007B4BE35898477B4B7B4418007A4B7B44CB
:1024100098477A4B7B441800794B7B449847794B1B
:102420007B441A00784B7B441900784B7B4418009E
:10243000774B7B449847774B0822BA18D518764BD0
:102440007B44984703002B70724B08229446BC448F
:1024500063441B78002B06D0704B7B44190001208D
:102460006F4B7B4498476B4B0822BA18D5186D4BBD
:102470007B44984703002B70664B08229446BC446B
:1024800063441B78002B06D0674B7B441900022065
:10249000664B7B4498475F4B0822BA18D518644BAB
:1024A0007B44984703002B705A4B08229446BC4447
:1024B00063441B78002B06D05E4B7B44190003203D
:1024C0005D4B7B449847534B0822BA18D5185B4B99
:1024D0007B44984703002B704E4B08229446BC4423
:1024E00063441B78002B06D0554B7B441900042015
:1024F000544B7B4498470C23FA18534BE358110074
:102500001800524BE3589847514BB622920094461C
:1025100008229046B844C44463445B791D004C4B88
:10252000B6229200944608229046B844C4446344BC
:102530001B791E00464BB622920094460822904614
:10254000B844C4446344DB887B60414BB6229200AC
:10255000944608229046B844C44463449B781A00C9
:102560003B4BB62189008C4608218846B844C444B8
:1025700063445B781900364BB620800084460820FF
:102580008046B844C44463441B783248784402937C
:10259000019100927B68320029002F4D7D44A847AD
:1025A000054B08229446BC4463441B78002B57D04B
:1025B0002A4B7B441A0056E0D602000034FDFFFF90
:1025C000000C00429C0000008DF9FFFF4FF7FFFF59
:1025D000D70200007D0500004C00000074010000DF
:1025E00003F7FFFF8BF8FFFFC80200001402000092
:1025F0009C0200008CF600004709000084F60000F1
:102600003B09000098F600009EF60000A4F60000CA
:1026100023090000BE02000095FAFFFF8EF60000BD
:10262000870800004DFBFFFF7AF600005708000006
:102630000DF9FFFF66F6000027080000A9FAFFFF6A
:1026400052F60000F70700003000000034010000DF
:102650002CFDFFFFCCF50000B9070000C6F5000017
:10266000994B7B441A00994B7B4411001800984BFE
:102670007B449847974B08229446BC4463441B789C
:10268000002B15D0944B7B441800944B7B44984707
:10269000002264210120924B7B4498476420914B97
:1026A000E3589847904B7B449847904B7B4498471E
:1026B0008F4BE35898478F4B0822BA18D518B02390
:1026C0009B0008229446BC44634419686023082296
:1026D0009446BC44634401221800874BE358984752
:1026E00003002B70834B08229446BC4463441B7840
:1026F000002B06D0814B7B4419000420804B7B4487
:1027000098470023BB600023B322920008218C4627
:10271000BC4462441360C0235B02B22292000821D1
:102720008C46BC4462441360764BB62292009446B9
:1027300008229046B844C4446344DA6880235B02AC
:102740009A4209D980235B026F4A7A4411001A0029
:1027500006206E4B7B449847664B0822BA18D51862
:102760000823F91880239A00694B7B441E006023DC
:1027700008203818C0180B003100664EA659B04723
:1027800003002B705B4B08229446BC4463441B78C7
:10279000002B08D0BB68604A7A4411001A00072059
:1027A0005E4B7B449847BA685D4B7B441900B2236B
:1027B0009B0008208446BC4463441B681800594BA6
:1027C0007B4498474F4BB62292009446082290468D
:1027D000B844C4446344DA68B3239B0008218C46A0
:1027E000BC4463441B6850497944080019004F4BAE
:1027F0007B449847BB68B222920008218C46BC44B7
:1028000062441268D318B222920008218C46BC445C
:1028100062441360BB68B322920008218C46BC441A
:1028200062441268D318B322920008218C46BC443B
:1028300062441360B3239B0008229446BC44634463
:102840001A6880235B029A4206D9394B7B441900EF
:102850000820384B7B449847BB68002B00D063E7C7
:10286000244B0822BA18D518B0239B00082294469E
:10287000BC4463441B6818002F4BE358984703007F
:102880002B701C4B08229446BC4463441B78002BDD
:1028900006D02A4B7B4419000920294B7B449847DA
:1028A000284B7B449847284B7B4419000A20274B30
:1028B0007B44984700231800BD46B8239B009D44E5
:1028C00004BC9046F0BDC04622F5000024F500008F
:1028D000E5060000D60200001AF50000C906000057
:1028E000110500009C02000057F6FFFF61F6FFFF94
:1028F00044000000BF02000094020000CAF400007F
:10290000EB05000088FDFFFF8AF40000950500003C
:1029100062DAFF1F9801000060F400004705000024
:1029200022DAFF1FE501000030F400006505000019
:10293000E8F300009504000010010000B0F300006F
:102940004D0400006BF4FFFFB4F3000039040000F5
:1029500080B584B000AFC0235B02FB60FB681B68DE
:10296000013316D00122C82102200C4B7B4498472A
:102970000B4B1B68BB60C0235B021B687B607B68E2
:1029800083F30888074BC02252029A60BB689847BD
:1029900000E0C046BD4604B080BDC0463D02000018
:1029A0000480010000ED00E090B59BB000AFF8603E
:1029B000B9607A606F4C7C4400237B668CE0FB68D6
:1029C000FF2213401CD1FB6818006B4BE35898475B
:1029D00003001A001723FB181A701723FB181B7823
:1029E000DBB2052BEFD01723FB181B78DBB2002BD3
:1029F00006D0624B7B4419000B20614B7B44984707
:102A0000BA687B6ED118FB68402218005D4BE35812
:102A1000984703001A001723FB181A701723FB1896
:102A20001B78DBB2052BEBD01723FB181B78DBB22E
:102A3000002B06D0544B7B4419000C20534B7B4495
:102A40009847FB681822BA181000190040231A0092
:102A50004F4BE35898476323FB1801221A70002359
:102A6000FB651EE05B23FB181822B918FA6D8A1863
:102A700012781A70FA6DFB68D3181A005A23FB18E3
:102A800012781A705B23FA185A23FB1812781B78F5
:102A90009A4203D06323FB1800221A70FB6D0133A6
:102AA000FB65FB6D3F2BDDDD6323FB181B780122EB
:102AB0005340DBB2002B06D0364B7B4419000D206F
:102AC000354B7B449847FB684033FB607B6E40335B
:102AD0007B667B68403B7B607B683F2B00D96EE761
:102AE0007B68002B42D0FB68FF2213401CD1FB689F
:102AF0001800214BE358984703001A001723FB18CE
:102B00001A701723FB181B78DBB2052BEFD01723A5
:102B1000FB181B78DBB2002B06D0204B7B4419003E
:102B20000B201F4B7B449847BA687B6ED1187B689B
:102B30009AB2FB681800134BE358984703001A0039
:102B40001723FB181A701723FB181B78DBB2052B11
:102B5000EAD01723FB181B78DBB2002B06D0114BF1
:102B60007B4419000C20104B7B449847C046BD465F
:102B70001BB090BD1AF40000DC0000007CF20000E5
:102B8000ED0200000800000052F20000AB0200005D
:102B90008C000000E6F100002702000054F1000064
:102BA000C501000028F100008101000090B587B048
:102BB00000AFF860B960FB1D1A70444C7C441723C9
:102BC000FB1800221A701423FB181800404B7B449A
:102BD00098475FE01723FB181B785A1E9341DBB21E
:102BE00001225340DBB21A001723FB181A701A781F
:102BF00001210A401A701723FB181B78002B20D0E4
:102C00001423FB1801221A701423FB1800225A7097
:102C1000FB1D1B785A1E9341DBB201225340DBB2ED
:102C20001A1C01231340DBB219002B20294B7B44D3
:102C300098471423FB1819002B20274BE35898477B
:102C400013E01423FB1800221A701423FB1800222F
:102C50005A7000212B20214B7B4498471423FB18EA
:102C600019002B201C4BE3589847BB680133022BFB
:102C700009D9BB68002B00DA01335B101800184B30
:102C8000E358984703E00120164BE3589847FB6848
:102C9000013BFB60FB685B00002B9BDC1423FB18F3
:102CA00000221A701423FB1800225A7000212B20D6
:102CB0000D4B7B4498471423FB1819002B20064B1F
:102CC000E3589847C046BD4607B090BD14F20000D7
:102CD00057EEFFFF63EEFFFF3802000039EEFFFF03
:102CE0009C020000E4020000DFEDFFFF0EB490B58F
:102CF00084B000AF7860124C7C442023FB18FB604A
:102D0000FA68FB69110018000E4B7B4498477B68FA
:102D10000022C82118000C4B7B44984764200B4BC1
:102D2000E35898470A4B7B4498470A4B7B449847A3
:102D3000C046BD4604B090BC08BC03B01847C046AE
:102D4000D8F000004B00000091FEFFFF9C02000045
:102D5000D7EFFFFFE1EFFFFF0FB480B582B000AF08
:102D6000084A7A441423FB187B6079683B69180091
:102D7000054BD3589847C046BD4602B080BC08BC3E
:102D800004B018476EF000005C01000080B582B00E
:102D900000AF0B4A7A44EFF310837B607B685942A3
:102DA0004B41DBB23B6072B6BFF35F8F054BD3582C
:102DB00000221A703B681800BD4602B080BDC046B4
:102DC0003CF00000EC00000080B582B000AF7860FD
:102DD0007B685A1E9341DBB21800BD4602B080BD2D
:102DE00090B583B000AF7860094C7C447B681800D4
:102DF000084B7B449847031E06D0074BE35801223B
:102E00001A70BFF35F8F62B6C046BD4603B090BD77
:102E1000E6EF0000D3FFFFFFEC00000090B583B0A9
:102E200000AFBB1D00221A70574B7B4400221A7062
:102E3000BB1D1A78554B7B4452000021D152BB1D5B
:102E40001A785349794413009B009B185B00A12218
:102E50005A54BB1D1A784F49794413009B009B18A4
:102E60005B00CB18013320221A70BB1D1A784A4927
:102E7000794413009B009B185B00CB18023300229F
:102E80001A80BB1D1B78002B03D1FB1D00221A707A
:102E900003E0FB1D00221A70C046BB1D1A78FB1D03
:102EA0001B7898B23D49794413009B009B185B0046
:102EB000CB180433021C1A80BB1D1A783849794498
:102EC00013009B009B185B00CB18063302221A806C
:102ED000BB1D1A783349794413009B009B185B0093
:102EE000CB18083300221A80BB1D19782E4A7A4469
:102EF0000B00DB005B1A995C002001409954D1184B
:102F0000487800242040041C3E2040422043487062
:102F1000D118887800242040041C012020438870A8
:102F2000D318DA7800210A40DA70BB1D1A781F49DD
:102F300079441300DB009B1ACB18043300221A706B
:102F4000BB1D1A781A4979441300DB009B1ACB1871
:102F5000053300221A70BB1D1A78164979441300F4
:102F6000DB009B1ACB18063308221A70124B7B44E5
:102F70001B78DBB20133DAB2104B7B441A700123A9
:102F80001800BD4603B090BDB8D5FF1F9ED5FF1FEA
:102F900094D5FF1F80D5FF1F68D5FF1F32D5FF1FB7
:102FA0001AD5FF1F02D5FF1FDED4FF1F9CD4FF1FC1
:102FB00086D4FF1F70D4FF1F74D4FF1F68D4FF1F77
:102FC00080B582B000AFFB1D00221A703E4B7B44DF
:102FD00000221A70FB1D1B783C4A7A440021D15410
:102FE000FB1D1B783A4A7A440021D154FB1D1B7803
:102FF000384A7A440021D154FB1D1A78364B7B4461
:1030000092000021D152FB1D1B78344A7A449B0068
:10301000D318023300221A80FB1D1A78304B7B44F0
:1030200052000021D152FB1D1B7818002D4B7B4410
:103030009847FB1D1B782C4A7A440021D154FB1D74
:103040001B782A4A7A440021D154FB1D1A78284B58
:103050007B4492000021D152FB1D1B78254A7A4403
:103060009B00D318023300221A80FB1D1A78224BD2
:103070007B4452000021D152FB1D1B7818001F4BCE
:103080007B44984703001A0001235340DBB2002B16
:1030900001D0002313E01A4B7B441B78DBB20133D1
:1030A000DAB2184B7B441A70174B7B441B78DBB2A7
:1030B000012B03D1154B7B4401221A700123180008
:1030C000BD4602B080BDC04615D4FF1F2AD5FF1FE4
:1030D00022D5FF1F0AD5FF1FFAD4FF1FECD4FF1F14
:1030E000E2D4FF1FBF0500003CD4FF1F28D4FF1F00
:1030F00018D4FF1F0AD4FF1F00D4FF1F8102000055
:103100004BD3FF1F3FD3FF1F39D3FF1F2ED3FF1F0A
:1031100080B500AF054B7B441B78DBB2013BDAB2D4
:10312000034B7B441A70C046BD4680BDCCD2FF1F06
:10313000C0D2FF1F80B582B000AF0B4B7B441B7821
:10314000DBB2013BDAB2094B7B441A70FB1D084A23
:103150007A4412781A70074B7B4400221A70C046DA
:10316000BD4602B080BDC046A7D2FF1F9BD2FF1F45
:1031700093D2FF1F8CD2FF1FB0B582B000AF364C88
:103180007C44FD1D354B7B44984703002B70344B2A
:10319000E3581B785BB2002B24DA314BE3581B78E1
:1031A0001A0060231340202B1CD12D4BE3585B7871
:1031B000212B17D12A4BE358DB88072B01D00023A2
:1031C00046E0FB1D1A781300DB009B1A254A7A445F
:1031D0009A18234BE3589A60214BE35807229A81AF
:1031E000012335E01E4BE3581B785BB2002B2EDB2E
:1031F0001B4BE3581B781A0060231340202B26D169
:10320000174BE3585B78202B02D0222B1DD01EE0F9
:10321000134BE358DB88072B01D0002318E0104B39
:10322000E358114A7A441A61FB1D1A781300DB0037
:103230009B1A0E4A7A449A18094BE3589A60084B35
:10324000E35807229A81012302E0012300E00023D2
:103250001800BD4602B0B0BD50EC00001F010000D8
:10326000E0010000FED1FF1FBD00000098D1FF1F4C
:1032700080B500AF00231800BD4680BD80B500AF0B
:1032800000231800BD4680BD80B500AF044B7B44D1
:103290001B781800034B7B449847C046BD4680BD51
:1032A0007BD2FF1F5703000080B582B000AF0B4AEE
:1032B0007A440B4BD3589B881A00FF23134003D149
:1032C000FB1D00221A7003E0FB1D00221A70C0468D
:1032D000FB1D1B781800BD4602B080BD20EB00002E
:1032E000E001000090B583B000AFFC1D044B7B44AF
:1032F000984703002370C046BD4603B090BDC0464A
:10330000B7FFFFFFB0B588B002AF0200FB1D1A7017
:10331000414C7C44FB1D00221A70404B7B44984773
:1033200003003B61FB1D1A780F23FB183C497944CD
:103330008A5C1A70FB1D1B783A4A7A44D35CDBB274
:10334000002B14D1FB1D1A78374B7B445200D35A03
:103350009AB2FB1D18780F23FB181978334B7B4466
:10336000400041184900CB5A9BB29A4206D23B69B1
:1033700018002F4B7B449847002348E0FB1D1A7828
:103380002C4B7B4452000021D152FB1D1B780F2295
:10339000BA18127851424A41D2B21100264A7A44F0
:1033A000D154FB1D1B78254A7A440121D1543B6935
:1033B0001800234B7B449847FB1D1B781800214BBA
:1033C000E3589847FB1D1B78002B04D11723FB18EB
:1033D00002221A7004E01723FB1802221A70C0465A
:1033E000FB1D1A780F23FB181B785200D3189B0182
:1033F000154A7A449A181723FB181878134B7B4404
:10340000009340230121124D6459A0470300180086
:10341000BD4606B0B0BDC046BEEA00006DFAFFFF73
:103420003ED1FF1F3AD1FF1F26D1FF1F0AD1FF1F38
:1034300069FAFFFFEED0FF1FCED0FF1FCCD0FF1FD9
:1034400029FAFFFFAC010000F6CFFF1F5300000078
:1034500070000000B0B586B002AF39601100FB1DEE
:10346000021C1A70BB1D0A1C1A702E4D7D44BB1D18
:103470001B78022B04D10F23FB1800221A7004E0E2
:103480000F23FB1800221A70C046FB1D1B78002B6F
:1034900044D10F23FB181B78234A7A44D35CDBB258
:1034A0005A425341DAB20E23FB181A703B68002BC4
:1034B00016D10F23FB181A780E23FB181B78520025
:1034C000D3189B01194A7A449A18BB1D1878184BD7
:1034D0007B44009340230121164C2C59A0471EE049
:1034E0000F23FB1819780E23FB181A783B6898B243
:1034F000114B7B4449008A185200011CD1520F2302
:10350000FB181B780D4A7A440021D1540F23FB1875
:103510001B7818000A4B7B44984700E0C046BD4624
:1035200004B0B0BD64E90000D2CFFF1F22CFFF1F5F
:1035300081FFFFFF7000000076CFFF1F6ECFFF1FDF
:10354000EBFDFFFF80B584B000AF39601100FB1DBB
:10355000021C1A70BB1D0A1C1A70BB1D1B78812B24
:1035600004D10F23FB1800221A7004E00F23FB186C
:1035700000221A70C046FB1D1B78002B2AD10F2396
:10358000FB181A780F23FB181B7814497944CB5C7D
:10359000DBB259424B41DBB21900114B7B44520064
:1035A000521852000021D1520F23FB181B780D4AEC
:1035B0007A440021D1540F23FB181B780A4A7A441D
:1035C0000021D1540F23FB181B781800074B7B44B4
:1035D000984700E0C046BD4604B080BD70CFFF1FD5
:1035E0005CCFFF1F58CFFF1F46CFFF1F1F000000FB
:1035F000B0B588B002AF0200FB1D1A70894C7C4444
:10360000FB1D00221A70FB1D1B78874A7A44D35C8D
:10361000DBB2002B00D0FEE0844BE3589847031E3A
:103620000CD0FB1D1A78824B7B445200D55A814B3B
:10363000E358984703009D420DD1EFE0FB1D1A7837
:103640007D4B7B445200D55A7C4BE358984703008E
:103650009D4200D1E1E07A4B7B44984703003B61F7
:10366000FB1D1A781723FB18764979448A5C1A7077
:10367000FB1D19781723FB181A78734B7B444900FC
:103680008A185200D35A002B27D1704B7B441B88D9
:1036900001339AB26E4B7B441A80644BE3589847CF
:1036A00003001A0001235340DBB2002B04D0694B06
:1036B0007B441B88632B0AD95C4BE3589847031E55
:1036C0000BD0654B7B441B88644A934205D83B6909
:1036D0001800634B7B449847A0E0624B7B44002278
:1036E0001A80FB1D1B78604A7A44D35CDBB201224E
:1036F0005340DBB2002B0CD0FB1D1B781722BA18ED
:10370000127851424A41D2B21100584A7A44D154F7
:1037100008E01723FB181B785A425341DAB21723EB
:10372000FB181A70FB1D1B78514A7A440121D154B1
:103730003B6918004F4B7B449847FB1D19781723B2
:10374000FB181A784C4B7B4449008A185200D25A15
:103750000F23FB18403A511E8A411A700F23FB18A1
:103760001B78002B1CD0314BE3589847031E0BD01D
:10377000FB1D1D782F4BE3589847030019003F4B62
:103780007B446A00D15212E0FB1D1D782B4BE3589D
:103790009847030019003A4B7B446A00D15206E077
:1037A000FB1D1A78374B7B4452000021D152FB1D80
:1037B0001B78002B04D11623FB1881221A7004E019
:1037C0001623FB1881221A70C046FB1D1A78172396
:1037D000FB181B785200D3189B012B4A7A449D1882
:1037E000FB1D19781723FB181A78284B7B444900D6
:1037F0008A185200D35A1A000F23FB18197816237F
:10380000FB181878224B7B44009313002A00214DAB
:103810006459A04702E0C04600E0C046BD4606B07D
:10382000B0BDC046D2E70000F8CEFF1F90010000F7
:10383000D8CEFF1F40000000BECEFF1FCC0000000E
:1038400031F7FFFF92CEFF1F7CCEFF1F7ECEFF1F02
:1038500074CEFF1F5ACEFF1F46CEFF1F1F0300006E
:1038600009F7FFFF2ECEFF1F20CEFF1FF0CDFF1F59
:10387000DACDFF1FA7F6FFFFB2CDFF1F80CDFF1FE0
:1038800068CDFF1F5ACDFF1F9CCCFF1F0CCDFF1F23
:103890003BFDFFFF7000000080B586B000AF020066
:1038A000FB1D1A70FB1D00221A70174B7B449847B2
:1038B00003007B61FB1D19781223FB18134A7A441D
:1038C00049008A5A1A80FB1D1A78FB1D1B78104983
:1038D0007944CB5CDBB219000E4B7B44520052188A
:1038E0005200D35A9BB21A001223FB181B88D31A1A
:1038F000FB607B691800084B7B449847FB68180005
:10390000BD4606B080BDC046DDF4FFFFB2CBFF1F51
:103910009CCBFF1F8ECBFF1FE5F4FFFF80B582B06D
:1039200000AF0200FB1D1A70074A7A44FB1D1B788A
:103930001800064BD358984703005A1E9341DBB238
:103940001800BD4602B080BDA6E4000028000000BB
:1039500080B586B000AF0200FB1D1A7000237B61AA
:10396000FB1D00221A70FB1D1A784549794413008B
:10397000DB009B1ACB1806331A781323FB18093A7D
:1039800051424A411A703F4B7B4498470300FB6009
:10399000FB1D19780A23FB183B4A7A4449008A5ACE
:1039A0001A80FB1D1A780923FB18384979448A5C70
:1039B0001A70FB1D19780923FB181A78344B7B44C5
:1039C00049008A185200D35A99B20823FA180A23D8
:1039D000FB181888002388425B411370FB681800AD
:1039E0002C4B7B4498470823FB181B78002B11D0E5
:1039F000294B7B441B78DBB201225340DBB2002B06
:103A000001D0002338E01323FB181322BA181278D0
:103A10001A70B8E7FB1D18780923FB181A780A23D7
:103A2000FB181B881D4979444000821892018A18AE
:103A3000D35C1A007B6913437B61FB1D1A780A2350
:103A4000FB181B88013399B2154B7B445200D152AD
:103A5000FB1D1B781800134B7B4498471323FB185E
:103A60001B78002B07D01323FB1800221A707B69E8
:103A70001B027B6187E77B691800BD4606B080BDED
:103A800060CAFF1F01F4FFFFD6CAFF1FC0CAFF1F95
:103A9000AACAFF1FFBF3FFFFF2C9FF1FC2C9FF1F26
:103AA00026CAFF1FA9F8FFFF80B500AF044A7A4479
:103AB0000020044BD358984703001800BD4680BD32
:103AC00022E30000F401000080B586B000AF0200E0
:103AD000FB1D1A70FB1D00221A702A4B7B4498476D
:103AE00003003B61FB1D1A780F23FB18264979441C
:103AF0008A5C1A70FB1D19780F23FB181A78234B68
:103B00007B4449008A185200D35A7B617B69402B61
:103B100029D1FB1D1B781E4A7A44D35CDBB20122FB
:103B20005340DBB2002B1ED0FB1D1B78194A7A4490
:103B3000D35CDBB201225340DBB2002B13D0FB1D60
:103B40001B78154A7A440121D154FB1D1B780F22A2
:103B5000BA18127851424A41D2B211000F4A7A443F
:103B6000D15400237B617B694022D31ABB603B693F
:103B700018000B4B7B449847BB681800BD4606B045
:103B800080BDC046ADF2FFFF0ECAFF1FF8C9FF1F80
:103B9000ECC9FF1FDAC9FF1FC4C9FF1F9EC9FF1F61
:103BA00069F2FFFF80B582B000AF0200FB1D1A7002
:103BB000074A7A44FB1D1B781800064BD3589847D8
:103BC00003005A1E9341DBB21800BD4602B080BD0F
:103BD0001EE20000BC010000F0B587B000AF02009B
:103BE0003960FB1D1A703E4C7C44FB1D00221A708C
:103BF000FB1D1A783B4979441300DB009B1ACB1854
:103C000006331A781723FB18093A51424A411A70B1
:103C1000FB1D1B781800344BE358984703001A002B
:103C200001235340DBB2002B11D0304B7B441B7877
:103C3000DBB201225340DBB2002B01D000234AE06B
:103C40001723FB181722BA1812781A70E0E7284BCE
:103C50007B44984703003B61FB1D1A780F23FB1838
:103C6000244979448A5C1A70FB1D1D780F23FB18C8
:103C70001878FB1D1A780F23FB181B781E4979440E
:103C80005600F6187600715A4E1CB6B2B4461B4E5A
:103C90007E445200D3185B0062469A533B68DEB202
:103CA000174A7A446B001B189B01D318321C5A54D4
:103CB0003B691800134B7B4498471723FB181B786C
:103CC000002B07D01723FB1800221A703B681B1229
:103CD0003B609DE701231800BD4607B0F0BDC0461C
:103CE000E8E10000D6C7FF1FD4020000B8C7FF1FDD
:103CF00039F1FFFF9AC8FF1F7AC8FF1F68C8FF1F6E
:103D0000D6C7FF1F27F1FFFF80B582B000AF7860F4
:103D1000064A7A447B6819000020054BD35898471F
:103D200003001800BD4602B080BDC046BEE00000E2
:103D30002C02000080B500AF024B7B441800BD464A
:103D400080BDC04676DF000080B500AF084B7B44E5
:103D50001B681A68074B7B441B681B689978DB78E3
:103D60001B020B439BB2D3181800BD4680BDC04652
:103D7000CAC7FF1FC2C7FF1F80B584B000AF7860FD
:103D80000A00FB1C1A70144B7B4498470300FB602D
:103D90007B681B781A007B689B187B6011E07B684E
:103DA0005B78042B12D07B685B78FA1C12789A42FD
:103DB00001D17B680CE07B681B781A007B689B183C
:103DC0007B60FA687B689A42E9D800E0C04600232D
:103DD0001800BD4604B080BDBDFFFFFF80B584B0B4
:103DE00000AF0200FB1D1A70BB1D0A1C1A70264B87
:103DF0007B441B78002B01D1002341E0234B7B4403
:103E00001B681B681B79FA1D12789A4201D30023A4
:103E100036E01F4B7B441B681A681E4B7B441A60BC
:103E20001D4B7B4498470300FB6022E01B4B7B4407
:103E30001B685B78042B11D1194B7B441B689B7862
:103E4000FA1D12789A4209D1164B7B441B68DB7825
:103E5000BA1D12789A4201D1012311E0124B7B4422
:103E60001A68124B7B441B681B78D218104B7B449A
:103E70001A60104B7B441B68FA689A42D6D800231C
:103E80001800BD4604B080BD24C7FF1F1AC7FF1F1E
:103E900004C7FF1F00C7FF1F23FFFFFFEEC6FF1F62
:103EA000E2C6FF1FD2C6FF1FBEC6FF1FB8C6FF1F58
:103EB000AEC6FF1FA8C6FF1F90B585B000AF0200B9
:103EC000FB1D1A70274C7C44FB1D1B780021180039
:103ED000254B7B44984703001A0001235340DBB273
:103EE000002B01D0002339E0204B7B441B685A682B
:103EF000FB1D1B789B00D3181B68BB60BB68DB688D
:103F0000984703001A00FB1D1B7811001800184B7E
:103F10007B44984703001A0001235340DBB2002B77
:103F200001D000231AE0134B7B441B68FB60FB6845
:103F300005211800104B7B4498470300FB60FB6889
:103F4000002B06D0FB689B7818000C4BE358984771
:103F5000EDE7C046BB685B68984701231800BD4683
:103F600005B090BD0ADF000007FFFFFF2EC6FF1F50
:103F7000C9FEFFFFF4C5FF1F3FFEFFFF88010000E1
:103F800090B585B000AF0200FB1D1A70BB1D0A1C66
:103F90001A70254C7C44BB1D1A78FB1D1B78110040
:103FA0001800224B7B44984703001A00012353401A
:103FB000DBB2002B01D0002332E01D4B7B441B6899
:103FC000FB60FB68052118001A4B7B4498470300EF
:103FD000FB60FB68002B16D0FB689878FB68D978EB
:103FE000FB681A795B791B0213439BB21A00124BD0
:103FF000E358984703001A0001235340DBB2002B1B
:10400000DFD000230CE0C0460C4B7B441B685A6891
:10401000FB1D1B789B00D3181B681B689847030087
:104020001800BD4605B090BD3CDE000035FEFFFF28
:1040300060C5FF1FABFDFFFFE40100000EC5FF1FC1
:1040400080B500AF034A7A44034BD3589847C04623
:10405000BD4680BD8ADD00009401000080B582B0BD
:1040600000AF144B7B441B78002B17D0FB1D0022A4
:104070001A700AE0FB1D1B7818000F4B7B44984711
:10408000FB1D1A78FB1D01321A700C4B7B441B6818
:104090001B681B79FA1D12789A42EBD3084B7B44BC
:1040A00000221A70074B7B4401221A80C046BD468D
:1040B00002B080BDB0C4FF1F39FEFFFF8CC4FF1FDC
:1040C00076C4FF1F66C4FF1F80B582B000AF194BD6
:1040D0007B441B78002B28D0FB1D00221A701BE0AC
:1040E000154B7B441B685A68FB1D1B789B00D3183B
:1040F0001B681B69002B0AD0104B7B441B685A6855
:10410000FB1D1B789B00D3181B681B699847FB1D80
:104110001A78FB1D01321A70094B7B441B681B681F
:104120001B79FA1D12789A42DAD3C046BD4602B016
:1041300080BDC04644C4FF1F36C4FF1F1EC4FF1FFE
:10414000FEC3FF1F80B500AF094B7B44094A9A5854
:10415000D288022A01D0002307E0074A7A440221CC
:104160001000064A9B58984701231800BD4680BDA1
:1041700086DC0000E0010000B0C3FF1F5C0000000F
:10418000B0B500AF104C7C44104BE358DB88022BD9
:1041900001D0002314E00D4BE3589B88DBB21800DC
:1041A0000B4BE358984703009AB20A4B7B441A80A2
:1041B000094B7B4402211800084BE3589847012320
:1041C0001800BD46B0BDC0464ADC0000E00100005A
:1041D000A001000074C3FF1F6EC3FF1F5C0000003E
:1041E00080B500AF0E4B7B440E4A9A58D288002A05
:1041F00001D0002310E00B4A9B585B88012B0AD1A9
:10420000094B7B441B88022293439AB2074B7B44A1
:104210001A80012300E000231800BD4680BDC0467F
:10422000EADB0000E00100000AC3FF1FFEC2FF1F1F
:1042300080B500AF0D4B7B440D4A9A58D288002AB6
:1042400001D000230FE00A4A9A585288002A09D167
:10425000074A9A589288D2B21000064A9B5898474B
:10426000030000E000231800BD4680BD9ADB00007B
:10427000E0010000B401000080B500AF0A4B7B44B0
:104280000A4A9A58D288002A01D0002308E0074A37
:104290009B585B88012B02D0C046002300E000231E
:1042A0001800BD4680BDC04652DB0000E0010000A2
:1042B000B0B500AF114C7C44114BE358DB88002BA8
:1042C00001D0002317E00E4BE3585B88002B11D17F
:1042D0000B4BE3589B88DBB218000A4BE358984716
:1042E000074BE3589B88DBB21800074BE35898470D
:1042F000030000E000231800BD46B0BD1ADB00003B
:10430000E0010000B00100002801000080B500AF0E
:10431000074B7B44074A9A585288D2B27F210A4001
:10432000D2B21000044A9B589847C046BD4680BD93
:10433000BEDA0000E0010000D002000080B500AF4E
:10434000084B7B44084A9A58D288002A01D000239F
:1043500005E0054A9B58054A7A441A610123180072
:10436000BD4680BD8EDA0000E0010000B1FFFFFF16
:1043700090B585B000AF3D4C7C44FB1D00221A7007
:104380003B4BE3585B881A00FF231340032B2AD8CA
:1043900018000CF06DF9C04610000000200000006D
:1043A0002E0000003C000000324B7B44042118002A
:1043B000314BE358984718E0FB1D0B221A702F4B26
:1043C0007B44BB6011E0FB1D10221A702C4B7B4418
:1043D000BB600AE0FB1D07221A702A4B7B449847FA
:1043E0000300BB6001E000233CE0FB1D1B78002BB9
:1043F00037D00F23FB1800221A7017E00F23FB1889
:104400001B780F22BA181278B9688A18127891B2FC
:104410001D4A7A445B00D31802330A1C1A800F230A
:10442000FB181A780F23FB1801321A700F23FA18A1
:10443000FB1D12781B789A42E0D3FB1D1B780133D9
:10444000DBB2DB18DAB2114B7B441A70104B7B44A1
:104450001B789BB20F4A7A4419001000064BE358B0
:10446000984701231800BD4605B090BD58DA0000FA
:10447000E0010000FABCFF1F5C000000E8BCFF1F69
:10448000E6BCFF1F55F9FFFFB6BCFF1F80BCFF1F36
:104490007ABCFF1F72BCFF1F90B583B000AF514CB8
:1044A0007C44514BE3585A88FB1D1A704E4BE3581D
:1044B0005B881B0A9BB2DBB2013B0E2B00D97BE071
:1044C00018000CF0D5F8C0463C0000005800000071
:1044D000D8000000F0000000F0000000F000000034
:1044E000F0000000F0000000F0000000F00000000C
:1044F000F0000000F0000000F0000000F0000000FC
:10450000AA000000394BE3581A68384BE3581B687F
:104510001B789BB219001000354BE35898474EE0CA
:10452000324BE3581B685B7CFA1D12789A4201D328
:10453000002353E02D4BE3585A68FB1D1B78DB002A
:10454000D3181868294BE3585A68FB1D1B78DB0009
:10455000D3181B689A78DB781B0213439BB21900AF
:10456000234BE3589847204BE3589B6802225A702C
:1045700025E01E4BE3589B68002B01D100232DE062
:104580001A4BE3589868194BE3589B689A78DB7884
:104590001B0213439BB21900154BE35898470EE0DA
:1045A000144B7B44984703001A0001235340DBB2AD
:1045B000002B03D0002311E000230FE0C0460A4B7C
:1045C000E358DA88084BE3589B899A4205D2064B98
:1045D000E358DA88044BE3589A8101231800BD465A
:1045E00003B090BD30D90000E001000018010000C8
:1045F0005C000000CBFDFFFF80B500AF094B7B44A2
:10460000094A9A58D288012A01D0002307E0074AB4
:104610007A4401211000064A9B589847012318004C
:10462000BD4680BDD2D70000E001000004BFFF1FDF
:104630005C00000090B583B000AF324C7C44324B3C
:10464000E358DB88002B01D0002356E02F4BE358C2
:104650009847031E01D100234FE02B4BE3585B88A2
:104660001A00FF231A402A4BE3581B685B7C9A42CE
:1046700001DD002341E0274BE3589847224BE358E4
:104680005B88DAB2244B7B441A70244B7B441B7842
:10469000002B01D1012330E01D4BE3585A68204B19
:1046A0007B441B781F498C466344DB00D2181E4BA9
:1046B0007B441A60FB1D00221A7014E0FB1D1B785E
:1046C00000211800194B7B44984703001A0001236E
:1046D0005340DBB2002B01D000230EE0FB1D1A7803
:1046E000FB1D01321A70124B7B441B681B681B793F
:1046F000FA1D12789A42E1D301231800BD4603B097
:1047000090BDC04694D70000E001000038000000D2
:1047100018010000A00000008EBEFF1F88BEFF1F12
:1047200074BEFF1FFFFFFF1F68BEFF1FB7F8FFFF2C
:1047300030BEFF1F90B583B000AF274C7C44274BA1
:10474000E358DB88012B01D0002340E0244B7B445D
:104750001B78002B01D1002339E0204BE3589A88C5
:10476000FB1D1A701F4B7B441B681B681B79FA1DCD
:1047700012789A4201D3002329E0FB1D1B78002107
:104780001800194B7B44984703001A00012353403B
:10479000DBB2002B01D0002319E0144B7B441B68D3
:1047A0005A68FB1D1B789B00D3181B683B603B6855
:1047B000DB68984703001A000D4B7B441A700D4BC1
:1047C0007B44012118000C4BE35898470123180043
:1047D000BD4603B090BDC04694D60000E001000085
:1047E000C6BDFF1FB2BDFF1F55F6FFFF7CBDFF1FFB
:1047F00056BDFF1F50BDFF1F5C00000080B582B09A
:1048000000AF1B4B7B441B4A9A58D288002A01D028
:10481000002329E0184A7A441278002A01D10023A3
:1048200022E0144A9A589188FA1D1170114A9B5837
:104830005A88BB1D1A70FB1D1B7818000F4B7B4458
:10484000984703001A0001235340DBB2002B01D02C
:10485000002309E0BB1D1A78FB1D1B78110018000E
:10486000074B7B44984703001800BD4602B080BD4B
:10487000CCD50000E0010000FEBCFF1F77F6FFFF73
:104880001BF7FFFF80B500AF5E4B7B445E4A9A5832
:10489000127852B2002A4DDA5B4A9A58D288002A1E
:1048A00001D10023ABE0584A9A58127811001F2218
:1048B0000A4018D1544A9A585278062A09D0082A30
:1048C0000CD0002A00D00EE0504B7B4498470300E8
:1048D00095E04F4B7B449847030090E04D4B7B4461
:1048E000984703008BE0484A9A58127811001F221B
:1048F0000A40012A0AD1444A9A5852780A2A00D01A
:1049000004E0454B7B449847030078E03E4A9A58C0
:10491000127811001F220A40022A00D06EE03A4AA3
:104920009B585B78002B00D068E03C4B7B44984759
:10493000030064E0344A9A58127811001F220A409A
:104940002FD1314A9A585278013A082A28D81000B3
:104950000BF08EFE2E0000004C000000380000001E
:104960004C000000240000004C0000004C0000003F
:104970004C00000042000000294B7B449847030094
:104980003DE0284B7B449847030038E0264B7B44AE
:104990009847030033E0254B7B44984703002EE003
:1049A000C046194A9A58127811001F220A40012A5B
:1049B0000AD1154A9A5852780B2A00D004E01C4BB1
:1049C0007B44984703001AE00F4A9A581278110066
:1049D0001F220A40022A11D10B4A9B585B78012BF7
:1049E00002D0032B05D009E0124B7B44984703000B
:1049F00005E0114B7B449847030000E000231800BA
:104A0000BD4680BD46D50000E001000077F8FFFFFD
:104A1000C1FBFFFF17FDFFFF2DFEFFFF51F8FFFF5A
:104A2000BFF9FFFF59F8FFFFE7F8FFFF99FCFFFF11
:104A300039FEFFFF43F8FFFFB9F8FFFF80B582B0F2
:104A400000AF284A7A44284B7B441B78002B01D1C5
:104A5000002342E0254BD3589A88FB1D1A70244B43
:104A60007B441B681B681B79FA1D12789A4201D39C
:104A7000002332E0FB1D1B78002118001D4B7B44F6
:104A8000984703001A0001235340DBB2002B01D0EA
:104A9000002322E0184B7B441B685A68FB1D1B78DF
:104AA0009B00D3181B683B603B68DB68984703009A
:104AB0001A00FB1D1B7811001800104B7B4498470F
:104AC00003001A0001235340DBB2002B01D0002366
:104AD00003E03B689B68984703001800BD4602B09E
:104AE00080BDC0468CD30000CCBAFF1FE00100009F
:104AF000B8BAFF1F5BF3FFFF82BAFF1F1DF3FFFF72
:104B000080B582B000AF254A7A44254B7B441B78A0
:104B1000002B01D100233DE0224BD3589A88FB1D86
:104B20001A70FB1D00221A702AE01F4B7B441B6881
:104B30005A68FB1D1B789B00D3181B683B603B68C1
:104B4000DB68984703001A00FB1D1B781100180052
:104B5000164B7B44984703001A0001235340DBB2F5
:104B6000002B01D0002315E03B689B689847031E8B
:104B700001D001230EE0FB1D1A78FB1D01321A70D3
:104B80000B4B7B441B681B681B79FA1D12789A42F9
:104B9000CBD300231800BD4602B080BDC8D20000B0
:104BA00008BAFF1FE0010000ECB9FF1F87F2FFFF0A
:104BB00096B9FF1FB0B500AF254C7C44254BE35898
:104BC00000229A81234BE35800221A61214BE358BB
:104BD00000225A611F4BE3581B785BB2002B06DAA8
:104BE0001C4BE358DB88002B01D100232CE0194B30
:104BF000E3581B781A006023134006D1164B7B4400
:104C00009847031E01D001231EE0124BE3581B7886
:104C10001A001F231340012B06D1104B7B449847E9
:104C2000031E01D001230FE00A4BE3581B781A0042
:104C30001F231340022B06D1094B7B449847031EC8
:104C400001D0012300E000231800BD46B0BDC046DE
:104C500016D20000E001000083FCFFFF1DFEFFFFF5
:104C6000C3FEFFFF80B582B000AF78600A00FB1C76
:104C70001A700E4A7A440E4B7B441B7801214B403C
:104C8000DBB2002B01D000230BE0FB1C1B781800CB
:104C9000084BD3589847031E01D0002301E001239D
:104CA0005B421800BD4602B080BDC0465CD100002A
:104CB000AAB8FF1F9800000080B582B000AF7860EE
:104CC00039600C4A7A440C4B7B441B7801214B40E1
:104CD000DBB2002B03D03B6800221A7006E0074BC2
:104CE000D35898470300DAB23B681A70BD4602B049
:104CF00080BDC0460CD100005AB8FF1F7C020000E6
:104D000080B500AF034B7B4401221A7001231800C9
:104D1000BD4680BD1CB8FF1FB0B500AF134C7C442E
:104D2000134BE35800221A60124BE358124AA25860
:104D30001A60124BE358124AA2581A60114BE358FA
:104D40009847114BE3581B689B68002118000F4BD4
:104D5000E35898470C4BE3581B685B680021180028
:104D60000A4BE3589847C046BD46B0BDB2D00000DC
:104D7000FC0100001C01000060010000F0000000C8
:104D800020010000C002000048020000A002000054
:104D900080B582B000AF78607B6800221A70C04690
:104DA000BD4602B080BD000080B582B000AF0200F9
:104DB0003960FB1D1A70FB1D1B78012B0AD0022BDA
:104DC0000FD0002B14D10E4B0D4A91693A680A435B
:104DD0009A610FE00A4B0A4AD1693A680A43DA61DC
:104DE00008E0074B064A116A3A680A431A6201E072
:104DF000172300E000231800BD4602B080BDC04666
:104E00000004004080B582B000AF78607B688022EB
:104E10001A707B6800225A707B6801229A707B6846
:104E20000022DA70C046BD4602B080BD80B582B0B7
:104E300000AF0200FB1D1A70064BFA1D127811001C
:104E40001F220A40012191400A001A60C046BD4657
:104E500002B080BD00E100E080B584B000AF020088
:104E6000FB1D1A700F23FB18FA1D127852091A70D5
:104E70000F23FB181B78002B0CD1094BBB600F23B1
:104E8000FB181B789B0010229446BC446344083BEB
:104E90001B6800E000231800BD4604B080BDC0467A
:104EA0000018004080B582B000AF0F4B3B6000237C
:104EB0007B6011E07B689B0008229446BC446344FD
:104EC000083B1B685B78DBB25BB2002B01DA012385
:104ED00006E07B6801337B607B68002BEAD000230F
:104EE0001800BD4602B080BD0018004090B585B0E6
:104EF00000AF324C7C44324B7B6040210020314B70
:104F00007B4498473B0018002F4B7B4498473B005D
:104F100002221A703B00190005202C4BE3589847D9
:104F200005202B4BE35898470023FB6018E0FB68F3
:104F30009B0010229446BC4463440C3B1A68FB68F7
:104F40009B0010218C46BC4463440C3B1B681B78BF
:104F5000DBB201210B43DBB21370FB680133FB6052
:104F6000FB68002BE3D0C0461A4B7B449847031ED6
:104F7000FAD10B23FB1800221A700EE00B23FB184A
:104F80001A78154BE35892000021D1500B23FB18DF
:104F90001A780B23FB1801321A700B23FB181B78AD
:104FA0000F2BEBD904200D4B7B4498470C4B7B44D3
:104FB0009847C046BD4605B090BDC046DCCE000057
:104FC00000180040A5FEFFFF83FEFFFFB0000000B9
:104FD0003002000037FFFFFF7C01000081FEFFFF71
:104FE0003300000080B582B000AF154B3B6000235A
:104FF0007B6018E07B689B0008229446BC446344B5
:10500000083B1A687B689B0008218C46BC446344BB
:10501000083B1B681B78DBB202210B43DBB2137029
:105020007B6801337B607B68002BE3D0C046054B77
:105030007B449847031EFAD1C046BD4602B080BDEE
:105040000018004071FEFFFF80B582B000AF7860AD
:105050007B6800221A607B6800225A607B6801220C
:105060001A727B6801225A727B6800229A727B68EE
:105070000222DA72C046BD4602B080BD90B587B04C
:1050800000AF02003960FB1D1A703B4C7C440823C2
:10509000FB181800394B7B4498473B685B68DAB2D1
:1050A0000823FB181A700823FB1800225A703B686B
:1050B0001A7A0823FB189A703B681B68DBB2082237
:1050C000BA18110018002E4BE3589847FB1D1B78A7
:1050D00018002C4B7B44984703003B61FB1D1B7859
:1050E000072213409B00FB603B68DB7A7B613B68D7
:1050F0009B7A002B03D07B69082213437B61FB1D45
:105100001B78DB08DBB21800FB1D1B78DB08DBB269
:105110001A003B6906329200D3580F21FA68914079
:105120000A00D2431A407969FB6899400B001A4380
:1051300011003B69821D9200D1503B685B7A002BC5
:105140000AD03B695A69FB1D1B78012199400B006D
:105150001A433B695A610AE03B695B69FA1D1278A0
:10516000012191400A00D2431A403B695A61C0466E
:10517000BD4607B090BDC04644CD00006BFDFFFFAB
:10518000B002000081FDFFFF80B582B000AF786003
:105190007B6800221A70C046BD4602B080BD000088
:1051A00080B582B000AF02003960FB1D1A70FB1D94
:1051B0001B78012B0AD0022B0FD0002B14D10E4BE1
:1051C0000D4A91693A680A439A610FE00A4B0A4A0C
:1051D000D1693A680A43DA6108E0074B064A116A66
:1051E0003A680A431A6201E0172300E0002318001E
:1051F000BD4602B080BDC0460004004080B582B00C
:1052000000AF0200FB1D1A70064BFA1D1278110048
:105210001F220A40012191400A001A60C046BD4683
:1052200002B080BD00E100E080B584B000AF7860DE
:105230007B681B68FB60FB689B7ADBB25BB2002B70
:1052400001DA012300E000231800BD4604B080BD50
:1052500080B584B000AF78607B681B68FB6003207A
:105260000B4B7B449847C0467B681800094B7B4436
:105270009847031EF8D1FB681B889BB20222134398
:105280009AB2FB681A80C046BD4604B080BDC046D5
:1052900097FFFFFFB7FFFFFF80B584B000AF7860D6
:1052A00039603B68DB881A007B68DB88D31A9B0671
:1052B000FB603B685B799B051A00FB681343FB604E
:1052C0003B681B795B041A00FB681343FB603B6877
:1052D0009B781B031A00FB681343FB607B681B79F8
:1052E00001225340DBB2002B08D03B68DB78002B57
:1052F00004D0FB68802252021343FB603B685B785A
:105300009B011A00FB681343FB603B681B781A0083
:10531000FB681343FB60FB681800BD4604B080BD0A
:1053200080B584B000AFF860B9607A60BB689B0E4E
:105330009AB2FB68DB88D3189AB27B68DA80BB68C4
:105340009B0DDBB20F221340DAB27B685A71BB6847
:105350005B0CDBB21F221340DAB27B681A71FB6868
:105360001B79002B08D0BB681B0BDBB21F2213403C
:10537000DAB27B689A7010E0BB681B0BDBB20F22BD
:105380001340DAB27B689A70BA6880235B021340DC
:105390005A1E9341DAB27B68DA70BB689B09DBB2B4
:1053A0003F221340DAB27B685A70BB68DBB23F22FF
:1053B0001340DAB27B681A70C046BD4604B080BDA7
:1053C00090B585B000AF78603960304C7C447B6824
:1053D0001B68BB603B681A880E23FB1808210A4330
:1053E0001A803B681B7901225340DBB2002B07D0A7
:1053F0000E23FB180E22BA18128840210A431A8085
:105400003B689B78002B07D00E23FB180E22BA189E
:10541000128880210A431A80BB680E22BA181288AB
:105420001A803B68DB78002B08D0BB685B889BB296
:105430008022D20113439AB2BB685A800D23FB1815
:1054400000221A7018E00D23FB181A7813009B0035
:105450009B185B0008333A68D1180D23FB181A78A3
:105460007B6818000A4BE35898470D23FB181A78FD
:105470000D23FB1801321A700D23FB181B78002B2B
:10548000E1D0C046BD4605B090BDC04604CA00008C
:10549000A402000090B587B000AFF860B9607A60F0
:1054A0001C4C7C44FB68BA681A60202100201A4B0F
:1054B0007B4498471423FB181800184B7B449847EB
:1054C0001423FB1802221A701423FB18190004205D
:1054D000134BE35898470420124BE35898477B68D6
:1054E0001A79FB681A717B68DA78FB685A717B68F5
:1054F000DA88FB68DA800C4BE358FA681A607A683D
:10550000FB6811001800094B7B449847C046BD4614
:1055100007B090BD2EC90000EDFCFFFFC9FCFFFFE6
:10552000B00000003002000018000000B5FEFFFFD0
:1055300090B585B000AF786039601F4C7C447B68C3
:105540001B68FB607B685B7901225340DBB2002B58
:105550000BD0FB68194A5A80C0467B681800184B6C
:105560007B449847031EF8D117E0FB685B889BB229
:105570001A008023DB0113400FD1FB685B889BB2CC
:10558000104A13439AB2FB685A80C0467B681800E1
:105590000D4B7B449847031EF8D1FB681B69BB6029
:1055A0003A68B9687B681800084BE3589847C046CA
:1055B000BD4605B090BDC04694C800000080FFFF06
:1055C000C5FCFFFF00C0FFFF93FCFFFF340000009D
:1055D00080B586B000AFF860B960FB1D1A70194A3B
:1055E0007A44FB681B687B61FB1D1B78012B01D98A
:1055F000172322E0B968FB681800134BD35898476B
:1056000003003B61C046FB681800104B7B44984781
:10561000031EF8D1FB1D1A787B690332D200396969
:10562000D150FB1D1B78BA68117A7A690333DB000D
:10563000D31804330A1C1A7000231800BD4606B0A4
:1056400080BDC046F0C700008C02000019FCFFFFBF
:1056500080B586B000AF7860294A7A44294BD35888
:105660007A689200D3587B617B691B683B610E238B
:10567000FB187A69528A1A807B691B8A9AB20E23B8
:10568000FB180E21791809880A401A803B691B7A99
:10569000DAB20C23FB181A803B69DB79DBB29AB2D1
:1056A0000C23FB180C21791809880A401A800C2356
:1056B000FB181B88802213400CD00E23FB181B887C
:1056C0000222134002D07B69DB6898473B69802245
:1056D0001A7211E00C23FB181B88012213400BD017
:1056E0000E23FB181B880122134002D07B699B68A4
:1056F00098473B6901221A72C046BD4606B080BD7C
:1057000076C700001800000080B500AF0020034BF2
:105710007B449847C046BD4680BDC0463DFFFFFF65
:1057200080B582B000AF78607B6800221A70C046F6
:10573000BD4602B080BD80B586B000AFF860B960EC
:105740007A601623FB1800221A80BB683B61BB6895
:105750005A08FB689A4201D2402326E0BB685B08E6
:105760003B610AE03A69FB68D31A3B611623FB18D8
:105770001A881623FB1801321A803A69FB689A428C
:10578000F0D21623FB181622BA181288013A1A8092
:105790001623FB181B88FF2B01D9402305E07B68EB
:1057A0001622BA1812881A8000231800BD4606B0C7
:1057B00080BD000090B585B000AF0200FB1D1A70DF
:1057C000BB1D0A1C1A701E4C7C441E4B7B441B786C
:1057D00001225340DBB2002B03D1BB1D1B78002BF1
:1057E00020D00C23FB181800174B7B4498470C2340
:1057F000FB18FA1D12781A700C23FB1819001320DD
:10580000124BE35898471320114BE3589847114B1C
:105810007B44FA1D12785A700F4B7B4401221A7098
:10582000002309E00D4B7B445B78FA1D12789A4205
:1058300001D1002300E01D231800BD4605B090BD36
:1058400008C6000058ADFF1F33FFFFFFB000000087
:105850003002000014ADFF1F0AADFF1FFEACFF1F9A
:1058600080B582B000AF78600A00FB1C1A707B68BC
:10587000574A934246D0564A934206D8554A9342D5
:105880000FD0554A934225D09DE0544A934200D10F
:1058900068E0534A934200D17CE0524A934249D097
:1058A00091E0FB1C1B78032B00D98BE018000AF059
:1058B000DFFEC046100000001400000018000000C9
:1058C0001C000000484B7FE0484B7DE0484B7BE0EC
:1058D000484B79E0FB1C1B78032B00D972E01800C1
:1058E0000AF0C6FE100000001400000018000000BE
:1058F0001C000000032367E03F4B65E03F4B63E083
:105900003F4B61E0FB1C1B78032B5BD818000AF0AF
:10591000AFFEC04610000000140000001800000098
:105920001C000000374B4FE0374B4DE0374B4BE04E
:10593000374B49E0FB1C1B78032B43D818000AF0B7
:1059400097FEC04610000000140000001800000080
:105950001C0000002F4B37E02F4B35E02F4B33E07E
:105960002F4B31E0FB1C1B78032B2BD818000AF0BF
:105970007FFEC04610000000140000001800000068
:105980001C000000274B1FE0274B1DE0274B1BE0AE
:10599000274B19E0FB1C1B78032B13D818000AF0C7
:1059A00067FEC04610000000140000001800000050
:1059B0001C0000001F4B07E01F4B05E01F4B03E0DE
:1059C0001F4B01E0C04600231800BD4602B080BD59
:1059D0000010004200080042000C00420018004283
:1059E000001C0042001400420300040003000500F4
:1059F00003000600030007000300010003001E006F
:105A000003001F00030008000300090003000A0050
:105A100003000B000300100003001100030012003C
:105A20000300130003000C0003000D0003000E0030
:105A300003000F0003001600030017000300180006
:105A40000300190090B58BB000AF78600C23FB18F1
:105A50000F4A7A4413CA13C313CA13C300237B62C9
:105A60000EE00C23FB187A6A9200D3581A007B6868
:105A70009A4202D17B6ADBB206E07B6A01337B6229
:105A80007B6A052BEDD900231800BD460BB090BDF5
:105A900066C2000080B582B000AF78607B6880226B
:105AA0001A707B6800225A707B6801229A707B68AA
:105AB0000022DA70C046BD4602B080BD80B584B019
:105AC00000AF0200FB1D1A700F23FB18FA1D12789D
:105AD000D2091A700E23FB18FA1D127852091A7097
