:10000000802A0020E9030100F9040100F90401003D
:1000100000000000000000000000000000000000E0
:10002000000000000000000000000000F9040100D2
:100030000000000000000000F9040100F9040100C4
:10004000F904010039510000F9040100391F0000D2
:100050004D980000F9040100F9040100DDE90000F9
:10006000F9040100A1960000B9960000D1960000A5
:10007000E99600000197000019970000F9040100BB
:10008000F9040100F9040100F9040100F904010078
:10009000F90401000000000000000000F904010064
:1000A000F9040100F9040100F9040100F904010058
:1000B0000000000010B5064C2378002B07D1054B3B
:1000C000002B02D0044800E000BF0123237010BDC4
:1000D0008401002000000000E41D0100084B10B561
:1000E000002B03D00749084800E000BF0748036819
:1000F000002B00D110BD064B002BFBD09847F9E731
:100100000000000088010020E41D0100E41D010042
:100110000000000090B587B000AFF8600C00100040
:1001200019000A23FB18221C1A800823FB18021C42
:100130001A80FB1D0A1C1A700A23FB181A88082350
:10014000FB181B88D31A0733002B00DA0733DB10A8
:10015000013BFA68D3181B7819000823FB181B8889
:100160000722134019410B007B610823FB181B88F1
:1001700007221A40FB1D1B78D318082B1CDD0A230D
:10018000FB181A880823FB181B88D31A0733002B87
:1001900000DA0733DB10023BFA68D3181B7819002A
:1001A0000823FB181B88072213400822D31A994002
:1001B0000B007A6913437B610823FB181B88072215
:1001C0001A40FB1D1B78D318102B1CDD0A23FB18CB
:1001D0001A880823FB181B88D31A0733002B00DA70
:1001E0000733DB10033BFA68D3181B781900082388
:1001F000FB181B88072213401022D31A99400B00CA
:100200007A6913437B610823FB181B8807221A4075
:10021000FB1D1B78D318102B1CDD0A23FB181A8832
:100220000823FB181B88D31A0733002B00DA073387
:10023000DB10033BFA68D3181B7819000823FB185E
:100240001B88072213401022D31A99400B007A69A9
:1002500013437B61FB1D1B7801229A4013005A1E39
:100260007B6913407B617B691800BD4607B090BD78
:1002700090B583B000AF274C7C44274B7B60274B65
:1002800000211800264BE358984703001A00012369
:100290005340DBB2002B01D0002336E0214BE35862
:1002A000984703003B603B680122134006D07B68FF
:1002B0005A1E7A60002BE2D1002326E0C0461A4B7A
:1002C00000211800164BE358984703001A00012339
:1002D0005340DBB2002B01D0002316E0114BE35852
:1002E00098470200C023DB051A408023DB059A42B1
:1002F0000AD10E4B7B441A680D4B7B441B68DB7A9A
:1003000008210B43DBB2D37201231800BD4603B0B2
:1003100090BDC046681B0100EE1B000001110000EB
:1003200064020000980200003A050000CCFEFF1FA6
:10033000C6FEFF1F90B587B000AF0200FB1D1A700C
:10034000324C7C44324B3B61324B00211800324B23
:10035000E358984703001A0001235340DBB2002BF7
:1003600001D000234EE000237B61FB1D1B78002B96
:1003700004D07B698022D20513437B617B69274AC5
:1003800019001000244BE358984703001A0001237A
:100390005340DBB2002B01D0002333E0204BE35865
:1003A00098470300FB60FB680122134006D03B69BD
:1003B0005A1E3A61002BC7D1002323E0C046194BD7
:1003C00000211800144BE358984703001A0001233A
:1003D0005340DBB2002B01D0002313E0104BE35855
:1003E000984702008023DB0513400AD00E4B7B4464
:1003F0001A680E4B7B441B68DB7A08210B43DBB287
:10040000D37201231800BD4607B090BD9E1A0100AB
:10041000EE1B0000371100006402000029110000EB
:10042000980200003A050000D2FDFF1FCCFDFF1F1F
:1004300080B500AF01231800BD4680BD90B585B0E2
:1004400000AF7860184C7C447B6800221A70D5237A
:100450005B00164A19001000154BE358984703003B
:100460001A0001235340DBB2002B01D0012316E018
:10047000104BE35898470300FB60FB68013301D140
:1004800001230CE0FB681B051A0DD5235B009A4283
:1004900001D0002303E07B6801221A7001231800B9
:1004A000BD4605B090BDC0469A1901000855000030
:1004B0006402000098020000B0B588B002AF786016
:1004C000464C7C4480239A00454800230093012336
:1004D0000021444D6559A84703001A0001235340E9
:1004E000DBB2002B01D0002374E01623FB1800229E
:1004F0001A8015E01023FB1818003B4BE35898476F
:1005000003001A0001235340DBB2002B01D000236B
:1005100060E01623FB181A881623FB1801321A8094
:100520001623FB181B88312BE4D93B69DBB202226E
:100530001340DAB27B681A702C4B7B441B680E3375
:1005400018000C233E228021294D7D44A84702003B
:10055000284B9A4238D115E00C23FB181800224B87
:10056000E358984703001A0001235340DBB2002BE5
:1005700001D000232EE01623FB181A881623FB183F
:1005800001321A801623FB181B88352BE4D91A4B2D
:100590007B441B68FA6852085A6015E00C23FB186C
:1005A0001800114BE358984703001A0001235340E9
:1005B000DBB2002B01D000230CE01623FB181A88B5
:1005C0001623FB1801321A801623FB181B887F2B79
:1005D000E4D901231800BD4606B0B0BD1E190100C4
:1005E00008110800300100000001000086FCFF1F18
:1005F000C7FBFFFFFF0F000030FCFF1FB0B582B04C
:1006000002AF184C7C44184B7B441B681B891904AF
:1006100016480123009301231022154D6559A84760
:1006200003001A0001235340DBB2002B01D000234A
:1006300015E0104B7B441B680E33012118000E4B54
:10064000E358984703001A0001235340DBB2002B04
:1006500001D0002303E0094BE3589847030018003A
:10066000BD46B0BDDC170100B8FBFF1F0911080033
:10067000300100008CFBFF1F100200008801000009
:10068000B0B584B000AF534C7C44534B7B441B68E3
:100690000E33180004237A228021504D7D44A84750
:1006A0000300013B032B0BD818000FF0F1FFC046ED
:1006B0001C00000028000000340000004000000082
:1006C000474B7B441B6812221A7317E0454B7B444F
:1006D0001B6814221A7311E0434B7B441B682222CF
:1006E0001A730BE0414B7B441B6830221A7305E000
:1006F0003F4B7B441B6840221A73C0463D4B7B44F2
:100700001B680E3318000823602280213A4D7D4477
:10071000A8470300FB60FB6807221A40374BE358E9
:100720009200D358BB60FB68DB080F221A40344BA1
:10073000E3589200D3587B60324B7B441B68BA6805
:1007400079684A43FA2189004A431A602E4B7B4458
:100750001B680E3318000C233E2280212B4C7C4456
:10076000A04702002A4B9A422FD02A4B7B441B6899
:100770000E3318000C233E228021274C7C44A047D6
:1007800003005C1C254B7B441B680E3318000323BD
:100790002F228021224D7D44A847030002339C4034
:1007A00023003B601F4B7B441C681F4B7B441B6832
:1007B0000E3318000423502280211C4D7D44A8478D
:1007C00002003B6893409B0A6360C046BD4604B08C
:1007D000B0BDC0465817010034FBFF1F75FAFFFF7C
:1007E000FEFAFF1FF2FAFF1FE6FAFF1FDAFAFF1FF9
:1007F000CEFAFF1FC2FAFF1F03FAFFFFCC01000071
:100800009400000086FAFF1F72FAFF1FB3F9FFFF82
:10081000FF0F000054FAFF1F95F9FFFF3AFAFF1F80
:100820007BF9FFFF1AFAFF1F14FAFF1F55F9FFFFAC
:10083000B0B584B000AF3F4C7C443F4B7B441B6859
:100840000E3318000823602280213C4D7D44A847C8
:100850000300FB60FB6807221A40394BE358920003
:10086000D358BB60FB68DB080F221A40354BE358B6
:100870009200D3587B60344B7B441B68BA6879681C
:100880004A43FA2189004A431A60304B7B441B6873
:100890000E33180002237E2280212D4C7C44A04779
:1008A000031E12D02B4B7B441C682B4B7B441B68D4
:1008B0000E331800162330228021284D7D44A8478E
:1008C000030001335B0263602FE0254B7B441B6810
:1008D0000E3318000C233E228021224C7C44A0477A
:1008E00003005C1C204B7B441B680E331800032361
:1008F0002F2280211D4D7D44A847030002339C40D8
:1009000023003B601A4B7B441C681A4B7B441B68DA
:100910000E331800042350228021174D7D44A84730
:1009200002003B6893409B0A6360C046BD4604B02A
:10093000B0BDC046A815010084F9FF1FC5F8FFFF30
:10094000CC010000B001000048F9FF1F34F9FF1F7F
:1009500075F8FFFF1AF9FF1F14F9FF1F55F8FFFF85
:10096000F4F8FF1F35F8FFFFDAF8FF1F1BF8FFFF51
:10097000BAF8FF1FB4F8FF1FF5F7FFFF90B583B07B
:1009800000AF134C7C44134B7B60134B00211800C9
:10099000124BE358984703001A0001235340DBB27F
:1009A000002B01D000230FE00D4BE35898470200C5
:1009B000FF23134006D07B685A1E7A60002BE4D1D7
:1009C000002301E0C04601231800BD4603B090BDDE
:1009D0005C140100400D03000D1B000064020000C8
:1009E00098020000B0B584B002AF3F4C7C443F4B4E
:1009F0007B441B681B891B043D4A190010003D4BBA
:100A0000E358984703001A0001235340DBB2002B40
:100A100001D0002363E0384801230093012308221A
:100A20000021364D6559A84703001A0001235340A1
:100A3000DBB2002B01D0002351E03B000121180064
:100A40002F4BE358984703001A0001235340DBB2B1
:100A5000002B01D0002342E02A4BE35898470300C3
:100A60001A0001235340DBB2002B01D0002336E0F3
:100A70003800042338224021234C7C44A047030043
:100A8000012B09D002D3022B0CD021E01F4B7B4459
:100A90001B6810221A7321E01D4B7B441B681A222D
:100AA0001A731BE0380001232F224021194C7C448B
:100AB000A0470300012B05D1174B7B441B68302254
:100AC0001A730BE0154B7B441B6820221A7305E058
:100AD000134B7B441B6810221A73C0460123180075
:100AE000BD4602B0B0BDC046F4130100D0F7FF1FF1
:100AF00037110000640200003311080030010000CB
:100B0000100200008801000097F6FFFF32F7FF1F78
:100B100026F7FF1F63F6FFFF06F7FF1FFAF6FF1F1A
:100B2000EEF6FF1F80B582B000AF0200FB1D1A7009
:100B3000FB1D1B78002B01D0042352E0FB1D1B780A
:100B40002A4A7A445B01D3180A331B78042B09D054
:100B5000FB1D1B78264A7A445B01D3180A331B78A5
:100B6000032B21D1FB1D1B78224A7A445B01D31849
:100B70000A3302221A70FB1D1A781F4B7B44520164
:100B80001E49D150FB1D1B781D4A7A445B01D318C6
:100B90000D3301221A70FB1D1B781A4A7A445B013F
:100BA000D3181E3300221A70174B7B44FA1D12789B
:100BB0001A70FB1D1B785B01144A7A449A18144B77
:100BC0007B441A60134B7B449847FB1D1B78124AE9
:100BD0007A445B01D3180A331B78023B5A425341D3
:100BE000DBB21800BD4602B080BDC0465AF6FF1FFA
:100BF00046F6FF1F32F6FF1F20F6FF1F801A060081
:100C000012F6FF1F00F6FF1F12F6FF1FE2F5FF1F8F
:100C100000F6FF1F53000000CCF5FF1FB0B500AF7A
:100C20000C4D7D440C4B7B4418780C4B7B441B686B
:100C300019680B4B7B441B685A7B0A4B7B441B682F
:100C40009B7F5C1EA341DBB2074C2C59A047C046DA
:100C5000BD46B0BDBE11010096F5FF1F94F5FF1F04
:100C60008CF5FF1F84F5FF1F2C00000080B500AF3E
:100C7000084A7A44084B7B441B78002B06D1074B6B
:100C80007B441B781800064BD3589847C046BD4696
:100C900080BDC0466E11010046F5FF1F3CF5FF1FE9
:100CA000E002000090B583B000AF674C7C44FB1DB0
:100CB00000221A70654B7B441B680122DA72644B78
:100CC0007B441B6800221A73624B7B441B68002222
:100CD0001A81614BE358984788235B010021180073
:100CE0005E4BE358984703001A0001235340DBB2E0
:100CF000002B01D00023A3E0FB1D1800584B7B44C0
:100D0000984703001A0001235340DBB2002B01D0A7
:100D1000002395E0534B7B44984703001A000123BE
:100D20005340DBB2002B01D0002389E04E4B7B44C3
:100D30001B68DB7A1A000123134025D0FB1D1B78AA
:100D400018004A4B7B44984703001A000123534084
:100D5000DBB2002B09D0464B7B441B680222DA72BF
:100D6000444B7B44984703006AE0434B0021180042
:100D70003A4BE358984703001A0001235340DBB273
:100D8000002B01D000235BE03C4B7B441B68DB7AEB
:100D90001A00012313401AD0394B7B4498470300B3
:100DA0001A0001235340DBB2002B01D0002347E09F
:100DB000344B7B449847344B7B44984703001A00DC
:100DC00001235340DBB2002B01D0002338E02F4B2E
:100DD0007B441B68DB7A1A000123134018D02C4B8C
:100DE0007B441B68DB7A1A000823134010D1802350
:100DF0009B00284A19001000184BE358984703003D
:100E00001A0001235340DBB2002B01D0002317E06E
:100E1000214B7B441B68DB7A1A00012313400BD063
:100E20001E4B7B44984703001A0001235340DBB25A
:100E3000002B01D0002303E0194B7B44984701238A
:100E40001800BD4603B090BD341101000AF5FF1F24
:100E500000F5FF1FF6F4FF1FF4020000640200001B
:100E60003BF7FFFF17F7FFFF92F4FF1FEDF5FFFFC2
:100E700068F4FF1F3F0100003B11000036F4FF1F24
:100E80005FF8FFFF7BFAFFFF29FCFFFFF0F3FF1F76
:100E9000E0F3FF1F10110000AEF3FF1F57FBFFFF31
:100EA000DFFDFFFF90B583B000AF3A4C7C44882350
:100EB0005B0100211800384BE358984703001A00E3
:100EC00001235340DBB2002B01D000235EE0334B03
:100ED0007B44984703001A0001235340DBB2002BE8
:100EE00001D0002352E02E4B002118002A4BE3587A
:100EF000984703001A0001235340DBB2002B01D0B6
:100F0000002343E0274B7B44984703001A0001234A
:100F10005340DBB2002B01D0002337E0224B7B444F
:100F20009847224B7B441B681B7B3F2B0DD9FB1D35
:100F300018001F4B7B44984703001A0001235340BD
:100F4000DBB2002B01D0002320E080239B00194A54
:100F500019001000104BE358984703001A000123B2
:100F60005340DBB2002B01D000230FE0124B7B4437
:100F7000984703001A0001235340DBB2002B01D035
:100F8000002303E00D4B7B44984701231800BD4626
:100F900003B090BD340F0100640200009DF3FFFF19
:100FA0003B110000F3F6FFFF5FF7FFFF9CF2FF1F0E
:100FB00081F5FFFF101100000BFAFFFF93FCFFFF0C
:100FC00080B582B000AF114A7A44FB1D0021197030
:100FD0000DE0FB1D1B780E4979445B01CB180A33E9
:100FE00004211970FB1D1978FB1D01311970FB1DBF
:100FF0001B78002BEDD0074B7B44FF211970064B6B
:10100000D3589847C046BD4602B080BD180E0100B7
:10101000C4F1FF1FC4F1FF1F7C01000090B585B033
:1010200000AF0200FB1D1A700F23FC18FB1D1B787C
:101030001800164B7B449847030023700F23FB18BE
:101040001B78012B06D0124B7B4498470F23FB18CB
:101050001B7817E00F4B7B449847031E09D00E4BBB
:101060007B441B6800229A720C4B7B4498470123F7
:1010700008E00B4B7B441B6803229A72094B7B44AC
:10108000984703231800BD4605B090BDEDFAFFFF59
:1010900021FCFFFF4BFCFFFF60F1FF1FFFFBFFFF89
:1010A0004CF1FF1FEBFBFFFF80B582B000AF0200E9
:1010B000FB1D1A70FB1D1B781800094B7B449847D9
:1010C000031E01D0002306E0064B7B449847064BE5
:1010D0007B441B68DB7A1800BD4602B080BDC04669
:1010E00065FAFFFF9FFBFFFFF0F0FF1F80B582B0A6
:1010F00000AF0200FB1D1A70FB1D1B781800094B86
:101100007B449847031E01D0002306E0064B7B4436
:101110009847064B7B441B685B681800BD4602B0CD
:1011200080BDC04621FAFFFF5BFBFFFFACF0FF1F55
:1011300080B582B000AF0200FB1D1A7000231800BA
:10114000BD4602B080BD0000B0B588B002AF3960C6
:101150001100FB1D021C1A703B1D0A1C1A80314D28
:101160007D440F23FC18FB1D1B7818002E4B7B447D
:101170009847030023700F23FB181B78002B03D024
:101180000F23FB181B7848E0284B7B44984703004B
:101190001A0001235340DBB2002B04D0244B7B44C4
:1011A0009847052339E03B1D1B88012B02D9214BB1
:1011B0007B6101E0204B7B61204B7B441B68DB7A29
:1011C0001A000823134002D03B683B6102E03B68F1
:1011D0005B023B613B1D1C8880239A00396978695A
:1011E000012300932300164C2C59A04703001A003A
:1011F00001235340DBB2002B04D0124B7B449847B1
:1012000005230AE0104B7B443A1D12881A800F4BCD
:101210007B443A1D12881A8000231800BD4606B090
:10122000B0BDC046800C0100B3F9FFFFEFF7FFFF30
:10123000CBFAFFFF121110001111080006F0FF1F7A
:10124000300100006DFAFFFFC0EFFF1FB4EFFF1F7A
:1012500080B582B000AF78600A00BB1C1A80124AC9
:101260007A44BB1C19887B681800104BD3589847E8
:1012700003001A0001235340DBB2002B05D00C4BB6
:101280007B4400221A8005230AE00A4B7B441A881B
:10129000BB1C1B88D31A9AB2074B7B441A800023CD
:1012A0001800BD4602B080BD800B01001002000096
:1012B00046EFFF1F3AEFFF1F2CEFFF1F90B583B0E3
:1012C00000AF0200FB1D1A70214C7C44214BE358F7
:1012D000984703001A0001235340DBB2002B01D0D2
:1012E000052330E0FB1D1B78002B04D01A4B7B44F8
:1012F00000221A8006E0194B7B441B88002B01D08A
:10130000002320E0164B7B441B88012B04D1154B96
:101310007B449847002316E0134B00211800134B21
:10132000E358984703001A0001235340DBB2002B17
:1013300005D00D4B002118000C4BE35898470C4B7F
:101340007B44984700231800BD4603B090BDC046BB
:10135000160B010088010000D8EEFF1FCEEEFF1F24
:10136000BEEEFF1F59F9FFFF0C31000064020000C0
:1013700029F9FFFFB0B588B002AF39601100FB1D3D
:10138000021C1A703B1D0A1C1A80304C7C440F232F
:10139000FD18FB1D1B7818002D4B7B44984703005C
:1013A0002B700F23FB181B78002B03D00F23FB1887
:1013B0001B7846E0FB1D1B781800264BE358984726
:1013C000031E04D0244B7B449847072339E03B1D80
:1013D0001B88012B02D9214B7B6101E0204B7B61F3
:1013E000204B7B441B68DB7A1A000823134002D091
:1013F0003B683B6102E03B685B023B613B1D1D8833
:1014000080239A0039697869012300932B00164DD7
:101410006459A04703001A0001235340DBB2002B9C
:1014200004D0124B7B44984705230AE0104B7B44C1
:101430003A1D12881A800F4B7B443A1D12881A807D
:1014400000231800BD4606B0B0BDC046540A0100D6
:1014500087F7FFFF48010000A3F8FFFF1991100074
:1014600018910800DEEDFF1F3001000045F8FFFF76
:1014700098EDFF1F8CEDFF1F80B582B000AF786044
:101480000A00BB1C1A80124A7A44BB1C19887B686C
:101490001800104BD358984703001A0001235340FB
:1014A000DBB2002B05D00C4B7B4400221A800523B5
:1014B0000AE00A4B7B441A88BB1C1B88D31A9AB2D9
:1014C000074B7B441A8000231800BD4602B080BD44
:1014D00058090100DC0100001EEDFF1F12EDFF1F87
:1014E00004EDFF1F80B582B000AF0200FB1D1A7033
:1014F000174A7A44174BD358984703001A00012320
:101500005340DBB2002B01D005231DE0FB1D1B78EF
:10151000002B04D0104B7B4400221A8006E00F4BB6
:101520007B441B88002B01D000230DE00C4B7B4437
:101530001B88012B04D10B4B7B449847002303E00D
:10154000094B7B44984700231800BD4602B080BD7C
:10155000EE0801003C020000B0ECFF1FA6ECFF1FEC
:1015600096ECFF1F31F7FFFF27F7FFFF90B583B021
:1015700000AF0200FB1D1A701A4C7C44FB1D1B7847
:101580001800194BE35898470300012B1BD0022B7E
:101590001BD0002B21D1FB1D1B78144A7A44D35C4D
:1015A000002B01D0022319E0FB1D1B781800104B03
:1015B000E358984703001A000323134001D0002387
:1015C0000CE002230AE0032308E0FB1D1B78094A14
:1015D0007A440021D154022300E001231800BD46C3
:1015E00003B090BD66080100680000002CECFF1FEE
:1015F000E8000000F8EBFF1F80B500AF044A7A4412
:101600000020044BD358984703001800BD4680BD06
:10161000E20701004800000090B583B000AF02006F
:101620003960FB1D1A700C4C7C44FB1D1B781800A4
:101630000A4BE358984703005B005A1E3B681A6048
:10164000FB1D1B781800064BE35898470300180051
:10165000BD4603B090BDC046B8070100FC020000C3
:101660004800000080B582B000AF7860064A7A4436
:101670007B6819000020054BD358984703001800D9
:10168000BD4602B080BDC046720701005001000097
:1016900080B582B000AF0200FB1D1A70BB1D0A1C92
:1016A0001A70FB1D1B78054A7A44B91D0978D1547C
:1016B00001231800BD4602B080BDC04620EBFF1FCD
:1016C00080B582B000AF0200FB1D1A70064A7A4452
:1016D000FB1D1B7819000020044BD35898470300CA
:1016E0001800BD4602B080BD12070100C001000015
:1016F00080B582B000AF0200FB1D1A70064A7A4422
:10170000FB1D1B781800054BD358984703001800A1
:10171000BD4602B080BDC046E2060100480100009F
:1017200080B500AF044A7A440020044BD358984750
:1017300003001800BD4680BDBA060100D0010000BC
:1017400080B582B000AF0200FB1D1A7001231800A3
:10175000BD4602B080BD000080B500AF044A7A44A7
:101760000020044BD358984703001800BD4680BDA5
:10177000820601000802000090B585B000AFB96094
:101780007A600F23FB18021C1A70154C7C44B96850
:101790000F23FB181B7801221800124BE3589847BF
:1017A000031E05D0022B01D1022315E0012313E013
:1017B000C0467B68012118000B4BE3589847031E75
:1017C00001D0012308E00020084BE3589847031E8E
:1017D00001D0012300E000231800BD4605B090BDF4
:1017E00054060100740100000C0100002C010000EF
:1017F00090B583B000AF78603960074C7C443A689C
:101800007B6819000020054BE35898470300180037
:10181000BD4603B090BDC046E40501008C02000047
:1018200090B585B000AFB9607A600F23FB18021C39
:101830001A70154C7C44B9680F23FB181B780122E1
:101840001800124BE3589847031E05D0022B01D114
:10185000022315E0012313E0C0467B680121180034
:101860000B4BE3589847031E01D0012308E00020EA
:10187000084BE3589847031E01D0012300E00023E2
:101880001800BD4605B090BDAC050100F002000097
:10189000000000006000000090B583B000AF7860E9
:1018A0003960074C7C443A687B6819000020054B7E
:1018B000E358984703001800BD4603B090BDC046EA
:1018C0003C0501008401000080B582B000AF786063
:1018D0007B6800221A70C046BD4602B080BD000081
:1018E00080B582B000AF02003960FB1D1A70FB1D8D
:1018F0001B78012B0AD0022B0FD0002B14D10E4BDA
:101900000D4A91693A680A439A610FE00A4B0A4A04
:10191000D1693A680A43DA6108E0074B064A116A5E
:101920003A680A431A6201E0172300E00023180016
:10193000BD4602B080BDC0460004004080B582B004
:1019400000AF0200FB1D1A70064BFA1D1278110041
:101950001F220A40012191400A001A60C046BD467C
:1019600002B080BD00E100E080B582B000AF0200AF
:10197000FB1D1A70074AFB1D1B7819001F230B4023
:10198000012199400B0019008023D150C046BD466B
:1019900002B080BD00E100E080B584B000AF7860A7
:1019A0007B681B68FB60FB689B7ADBB25BB2002B39
:1019B00001DA012300E000231800BD4604B080BD19
:1019C00080B584B000AF78607B681B68FB60032043
:1019D0000B4B7B449847C0467B681800094B7B44FF
:1019E0009847031EF8D1FB681B889BB20222134361
:1019F0009AB2FB681A80C046BD4604B080BDC0469E
:101A000067FFFFFFB7FFFFFF80B584B000AF7860CE
:101A10007B681B68FB6003200E4B7B449847C046E5
:101A20007B6818000C4B7B449847031EF8D1FB6879
:101A3000C1229A71FB68C1221A72FB681B889BB293
:101A4000022293439AB2FB681A80C046BD4604B096
:101A500080BDC0464BFFFFFF6FFFFFFF80B584B026
:101A600000AF7860114A7A447B681B68FB607B6832
:101A700018000F4BD35898477B6800221A827B6866
:101A800000225A82C0467B6818000A4B7B44984764
:101A9000031EF8D1FB681B889BB2012213439AB244
:101AA000FB681A80C046BD4604B080BD7A030100C1
:101AB0006401000009FFFFFF80B584B000AF7860CB
:101AC00039603B68DB881A007B68DB88D31A9B0689
:101AD000FB603B685B799B051A00FB681343FB6066
:101AE0003B681B795B041A00FB681343FB603B688F
:101AF0009B781B031A00FB681343FB607B681B7910
:101B000001225340DBB2002B08D03B68DB78002B6E
:101B100004D0FB68802252021343FB603B685B7871
:101B20009B011A00FB681343FB603B681B781A009B
:101B3000FB681343FB60FB681800BD4604B080BD22
:101B400080B584B000AFF860B9607A60BB689B0E66
:101B50009AB2FB68DB88D3189AB27B68DA80BB68DC
:101B60009B0DDBB20F221340DAB27B685A71BB685F
:101B70005B0CDBB21F221340DAB27B681A71FB6880
:101B80001B79002B08D0BB681B0BDBB21F22134054
:101B9000DAB27B689A7010E0BB681B0BDBB20F22D5
:101BA0001340DAB27B689A70BA6880235B021340F4
:101BB0005A1E9341DAB27B68DA70BB689B09DBB2CC
:101BC0003F221340DAB27B685A70BB68DBB23F2217
:101BD0001340DAB27B681A70C046BD4604B080BDBF
:101BE00090B585B000AF78603960304C7C447B683C
:101BF0001B68BB603B681A880E23FB1808210A4348
:101C00001A803B681B7901225340DBB2002B07D0BE
:101C10000E23FB180E22BA18128840210A431A809C
:101C20003B689B78002B07D00E23FB180E22BA18B6
:101C3000128880210A431A80BB680E22BA181288C3
:101C40001A803B68DB78002B08D0BB685B889BB2AE
:101C50008022D20113439AB2BB685A800D23FB182D
:101C600000221A7018E00D23FB181A7813009B004D
:101C70009B185B0008333A68D1180D23FB181A78BB
:101C80007B6818000A4BE35898470D23FB181A7815
:101C90000D23FB1801321A700D23FB181B78002B43
:101CA000E1D0C046BD4605B090BDC046F40101007C
:101CB000AC02000090B587B000AFF860B9607A6000
:101CC0001F4C7C44FB68BA681A60202100201D4B21
:101CD0007B4498471423FB1818001B4B7B44984700
:101CE0001423FB1802221A701423FB181900042075
:101CF000164BE35898470420154BE3589847FB6868
:101D00001800144BE35898477B681A79FB681A71DE
:101D10007B68DA78FB685A717B68DA88FB68DA805E
:101D20000D4BE358FA681A607A68FB6811001800D6
:101D30000A4B7B449847C046BD4607B090BDC0469D
:101D40001E0101000DFCFFFFE9FBFFFFB0000000DA
:101D5000380200009401000018000000ABFEFFFFF5
:101D600090B585B000AF786039601F4C7C447B68CB
:101D70001B68FB607B685B7901225340DBB2002B60
:101D80000BD0FB68194A5A80C0467B681800184B74
:101D90007B449847031EF8D117E0FB685B889BB231
:101DA0001A008023DB0113400FD1FB685B889BB2D4
:101DB000104A13439AB2FB685A80C0467B681800E9
:101DC0000D4B7B449847031EF8D1FB681B69BB6031
:101DD0003A68B9687B681800084BE3589847C046D2
:101DE000BD4605B090BDC046740001000080FFFFF5
:101DF00005FCFFFF00C0FFFFD3FBFFFF3400000026
:101E000080B586B000AFF860B960FB1D1A70194A42
:101E10007A44FB681B687B61FB1D1B78012B01D991
:101E2000172322E0B968FB681800134BD358984772
:101E300003003B61C046FB681800104B7B44984789
:101E4000031EF8D1FB1D1A787B690332D200396971
:101E5000D150FB1D1B78BA68117A7A690333DB0015
:101E6000D31804330A1C1A7000231800BD4606B0AC
:101E700080BDC046D0FF00009402000059FBFFFF68
:101E800080B586B000AF7860294A7A44294BD35890
:101E90007A689200D3587B617B691B683B610E2393
:101EA000FB187A69528A1A807B691B8A9AB20E23C0
:101EB000FB180E21791809880A401A803B691B7AA1
:101EC000DAB20C23FB181A803B69DB79DBB29AB2D9
:101ED0000C23FB180C21791809880A401A800C235E
:101EE000FB181B88802213400CD00E23FB181B8884
:101EF0000222134002D07B69DB6898473B6980224D
:101F00001A7211E00C23FB181B88012213400BD01E
:101F10000E23FB181B880122134002D07B699B68AB
:101F200098473B6901221A72C046BD4606B080BD83
:101F300056FF00001800000080B500AF0020034BE2
:101F40007B449847C046BD4680BDC0463DFFFFFF6D
:101F500080B582B000AF78607B6800221A707B6821
:101F600000225A707B6800229A707B680022DA7027
:101F70007B6801221A717B6801225A717B68FA2200
:101F8000D200DA80C046BD4602B080BD90B587B0B1
:101F900000AF7860264C7C440C23FB181800254BBE
:101FA0007B4498477B68A02212011A807B6800223C
:101FB0009A707B680022DA707B6800221A717B6855
:101FC000FA22D200DA801723FB1800221A7026E0CA
:101FD0001723FB181A787968082013009B009B18B8
:101FE0005B00CB181A180C23FB18100019000823EB
:101FF0001A00114BE35898471723FB181A78796891
:1020000013009B009B185B00CB18103306221A703C
:102010001723FB181A781723FB1801321A7017239D
:10202000FB181B78002BD3D0C046BD4607B090BD2F
:102030004AFE0000ADFFFFFF8C00000090B589B0A4
:1020400000AF204C7C440C23FB1818001E4B7B4433
:1020500098473B1D18001D4B7B4498473B1D1C4A6D
:10206000DA803B1D01225A713B1D01221A713B1D72
:1020700000229A703B1D00225A703B1D04221A70E8
:102080000C23FB1801221A710C23FB183A1D08338C
:1020900003CA03C30C23FB1806221A740C23FA1874
:1020A0000C490D4BE35818000C4BE35898470A4B6A
:1020B000E35818000A4BE3589847C046BD4609B09C
:1020C00090BDC0469CFD00003BFFFFFFF5FEFFFFFB
:1020D000DE0700000014004030000000D0000000C7
:1020E00058000000B0B584B000AF0200FB1D1A70AC
:1020F0001D4C7C441D4B7B449847FB1D1B78012BDA
:1021000001D901232BE00023FB6011E00B23FD1814
:10211000FB1D1B781800164BE358984703002B70E3
:102120000B23FB181B78032B06D1FB680133FB60E4
:10213000FB68012BEADD00E0C0460B23FB181B788F
:10214000002B01D001230AE0FB1D1B781800094B6E
:10215000E3589847031E01D0042300E00023180031
:10216000BD4604B0B0BDC046EEFC000043FFFFFF1B
:10217000F80000008400000080B582B000AF0200CB
:10218000FB1D1A700A4A7A44FB1D1B781800094B84
:10219000D3589847031E02D0022B02D003E000233D
:1021A00002E0032300E001231800BD4602B080BD19
:1021B0005AFC0000F8000000B0B588B000AFB9606C
:1021C0007A6019000F23FB18021C1A700E23FB18EB
:1021D0000A1C1A702E4C7C441B23FD180F23FB187D
:1021E0001B7818002B4BE358984703002B701B23D8
:1021F000FB181B78002B01D1012344E01423FA18AB
:102200000F23FB181B7811001800234BE358984745
:102210000E23FB181B781B22BA18127853431A009E
:102220007B68D2187B6901331B21791809784B43ED
:102230009A4201D9042326E00023FB611CE01B2302
:10224000FB181B78FA695A437B68D1181B23FB18CB
:102250001B78FA6953435B02BA68D2180F23FB1844
:102260001B7818000D4BE3589847031E01D001233B
:1022700009E0FB690133FB610E23FB181A78FB6947
:102280009A42DCD800231800BD4608B0B0BDC04655
:102290000AFC0000F8020000880000007C0000003A
:1022A000B0B588B000AFB9607A6019000F23FB1891
:1022B000021C1A700E23FB180A1C1A702E4C7C4448
:1022C0001B23FD180F23FB181B7818002B4BE3581A
:1022D000984703002B701B23FB181B78002B01D1A0
:1022E000012344E01423FA180F23FB181B78110074
:1022F0001800234BE35898470E23FB181B781B222A
:10230000BA18127853431A007B68D2187B690133DC
:102310001B21791809784B439A4201D9042326E0FE
:102320000023FB611CE01B23FB181B78FA695A434E
:102330007B68D1181B23FB181B78FA6953435B0297
:10234000BA68D2180F23FB181B7818000D4BE358FE
:102350009847031E01D0012309E0FB690133FB61AB
:102360000E23FB181A78FB699A42DCD80023180068
:10237000BD4608B0B0BDC04622FB0000F802000018
:10238000880000000C00000090B585B000AF3A60F6
:10239000FB1D021C1A70BB1D0A1C1A70394B7B44B2
:1023A0000F22BA1804211170BA1D1278032A5ED8C0
:1023B00010000EF06DF9C0469200000020000000F1
:1023C00042000000100000003B6801221A600F2349
:1023D000FB1800221A704EE00822B918FA1D127874
:1023E0001000294A9B589847BB685A1C3B681A60E2
:1023F0000F23FB1800221A703DE00E22BC18FA1DB4
:1024000012781000214A9B589847030023700E232E
:10241000FB181B78012B10D00E23FB181B78022B06
:102420000BD00E23FB181B78042B06D00E23FB18B1
:102430001B78082B01D0012320E03B6800221A7092
:102440000F23FB1800221A7015E0FA1D12781000F5
:102450000F4A9B589847031E04D10F23FB180022F4
:102460001A7008E00F23FB1803221A7003E00F23F1
:10247000FB1804221A700F23FB181B781800BD46A6
:1024800005B090BD42FA000088000000F80200008C
:10249000F800000080B584B000AF154B7B44391DB7
:1024A000144A9A581000144A9B5898473B1DDB88E1
:1024B000124A944663445A063B1D5B795B051A43F6
:1024C0003B1D1B791B041A433B1D9B78DB021A43FF
:1024D0003B1D5B785B0113433A1D12785208D2B260
:1024E0001343FB60FB681800BD4604B080BDC046C6
:1024F00044F90000300000003401000044F8FFFF00
:1025000080B586B000AFF860B9607A60FB687B6127
:10251000BB683B6107E07B695A1C7A613A69511CD0
:10252000396112781A707B685A1E7A60002BF2D1DA
:10253000C046BD4606B080BD80B586B000AFF8602D
:10254000B9607A60FB687B6105E07B695A1C7A613F
:10255000BA68D2B21A707B685A1E7A60002BF4D126
:10256000C046BD4606B080BD80B588B000AFF860FB
:10257000B9607A60FB68FB61BB68BB6100237B616B
:10258000C0467B685A1E7A60002B0DD0FB695A1C2E
:10259000FA611B781900BB695A1CBA611B78CB1A07
:1025A0007B617B69002BECD07B691800BD4608B0CD
:1025B00080BD80B582B000AF7860396002E07B6892
:1025C00001337B607B681B78002B05D07B681B7810
:1025D0001A003B689A42F2D17B681B781800BD460E
:1025E00002B080BDB0B584B000AF78603960304CC7
:1025F0007C447B68DB6AFB60FA683B689A4251D096
:102600007B681B79002B39D07B6858787B68303326
:102610001900FA680123274D6559A847031E01D008
:10262000012340E07B6800221A717B681A6A7B688C
:10263000DB69D218FB689A4220D90B23FB187A6811
:10264000D2781A7015E07B68DB69FA68D318FB60F2
:102650007B6858787B6830331900FA680123154D80
:102660006559A8470B23FB181A780B23FB18013A6E
:102670001A700B23FB181B78012BE4D83B68002B46
:1026800010D07B6858787B68303319003A68012392
:10269000094D6459A047031E01D0012303E07B6864
:1026A0003A68DA6200231800BD4604B0B0BDC046E7
:1026B000F0F70000A0020000C0020000B0B584B036
:1026C00000AF7860584C7C440F23FD187B680021D4
:1026D0001800564B7B44984703002B700F23FB18C0
:1026E0001B78002B00D097E07B681B78032B00D071
:1026F00084E07B685B79002B00D17FE07B6800225F
:10270000DA627B683033180080239B001A000021B6
:10271000474B7B4498477B68464A552199547B68D0
:10272000454AAA2199547B683022522199547B68EA
:102730003122522199547B683222612199547B685D
:102740003322412199547A6885239B007221D15408
:102750007B683A4A722199547B68394A41219954DD
:102760007B68384A612199547B681B69D9B27A68C1
:1027700086239B00D1547B681B699BB21B0A9BB2CA
:10278000D9B27B68304A99547B681B691B0CD9B25B
:102790007B682E4A99547B681B691B0ED9B27B68F3
:1027A0002B4A99547B68DB68D9B27A6887239B00EF
:1027B000D1547B68DB689BB21B0A9BB2D9B27B68A1
:1027C000244A99547B68DB681B0CD9B27B68224A87
:1027D00099547B68DB681B0ED9B27B681F4A9954F9
:1027E0007B6858787B68303319007B685A6901230D
:1027F0001B4D6559A8477B6800225A717B685B783E
:10280000002200211800174BE3589847031E03D0FD
:102810000F23FB1801221A700F23FB181B781800D6
:10282000BD4604B0B0BDC0461AF700000DFFFFFF63
:1028300023FEFFFF2E0200002F0200001502000001
:102840001602000017020000190200001A02000020
:102850001B0200001D0200001E0200001F020000FB
:10286000A0020000E400000080B582B000AF7860F4
:1028700039603B68023B3B607B689B699A1E3B6802
:102880009A4201D8002307E07B689B781A003B68D6
:102890005A437B689B6AD3181800BD4602B080BDBE
:1028A00080B586B000AF786039603B68012B04D9F1
:1028B0007B689A693B689A4201D80123A3E07B6850
:1028C0001B78022B4AD0032B6AD0012B00D098E052
:1028D0003B687B617B695B087A69D3187B617B68A5
:1028E0001A6A7B695B0AD2187B6811001800484B92
:1028F0007B449847031E00D07CE07B69DB05DB0D41
:102900007A683021D3185B181B783B617B690133EF
:102910007B617B681A6A7B695B0AD2187B6811004D
:1029200018003C4B7B449847031E65D17B69DB054F
:10293000DB0D7A683021D3185B181B781B021A0054
:102940003B6913433B613B680122134002D03B6962
:102950001B0958E03B691B051B0D54E07B681A6A94
:102960003B681B0AD2187B68110018002A4B7B4475
:102970009847031E42D13B685A00FF235B00134077
:1029800030337A68D318FB60FB6801331B781B0275
:102990001AB2FB681B781BB213431BB29BB232E026
:1029A0007B681A6A3B68DB09D2187B681100180043
:1029B0001A4B7B449847031E22D13B689A00FE23A2
:1029C0005B00134030337A68D318FB60FB68033335
:1029D0001B781A06FB6802331B781B041343FA6842
:1029E0000132127812021343FA68127813431B0162
:1029F0001B0908E0C04604E0C04602E0C04600E013
:102A0000C04601235B421800BD4606B080BDC046EB
:102A1000F1FCFFFFBDFCFFFF73FCFFFF2FFCFFFF7E
:102A200090B589B000AFF860B9607A60BB68012BDF
:102A300004D9FB689A69BB689A4204D81F23FB1823
:102A400002221A7004E1FB681B78022B00D17AE0A5
:102A5000032B00D1A1E0012B00D0EAE0BB68BB61F1
:102A6000BB695B08BA69D318BB61FB681A6ABB69AA
:102A70005B0AD2181F23FC18FB6811001800784B62
:102A80007B449847030023701F23FB181B78002BFF
:102A900000D0D3E0BB69DB05DB0D3033FA68D31817
:102AA0007B61BB68012213400DD07B691B785BB250
:102AB0000F2213405AB27B68DBB21B015BB2134397
:102AC0005BB2DBB201E07B68DBB27A691370BB6991
:102AD0000133BB61FB6801221A71FB681A6ABB698A
:102AE0005B0AD2181F23FC18FB68110018005D4B0D
:102AF0007B449847030023701F23FB181B78002B8F
:102B000000D09DE0BB69DB05DB0D3033FA68D318DC
:102B10007B61BB680122134003D07B681B09DBB2D9
:102B20000EE07B691B785BB20F2293435AB27B683D
:102B30001B0A5BB20F210B405BB213435BB2DBB2EB
:102B40007A69137081E0FB681A6ABB681B0AD218A5
:102B50001F23FC18FB6811001800434B7B44984767
:102B6000030023701F23FB181B78002B6AD1BB685E
:102B70005A00FF235B0013403033FA68D3187B619F
:102B80007B68DAB27B691A707B6901337A6892B22A
:102B9000120A92B2D2B21A7057E0FB681A6ABB6886
:102BA000DB09D2181F23FC18FB68110018002F4BFB
:102BB0007B449847030023701F23FB181B78002BCE
:102BC00042D1BB689A00FE235B0013403033FA68A1
:102BD000D3187B617B6903331B781A067B69023348
:102BE0001B781B0413437A690132127812021343D3
:102BF0007A69127813431B0F1B077A6813437B60B3
:102C00007B68DAB27B691A707B6901337A6892B2A9
:102C1000120A92B2D2B21A707B6902337A68120C2D
:102C2000D2B21A707B6903337A68120ED2B21A706C
:102C30000BE01F23FB1802221A7006E0C04604E0D6
:102C4000C04602E0C04600E0C046FB6801221A719F
:102C50001F23FB181B781800BD4609B090BDC04665
:102C600061FBFFFFF1FAFFFF85FAFFFF31FAFFFF7B
:102C700090B585B000AF786039603B68012B04D90E
:102C80007B689A693B689A4204D80F23FB1802229A
:102C90001A7047E00F23FB1800221A7039E03A68D7
:102CA0007B6811001800234B7B4498470300BB60EE
:102CB000BB68002B33D0BB68012B04D10F23FB185A
:102CC00002221A702EE0BB68013304D10F23FB18D7
:102CD00001221A7026E00F23FC1839687B68002255
:102CE0001800154B7B449847030023700F23FB18F3
:102CF0001B78002B15D17B681B69013307D07B68DB
:102D00001B695A1C7B681A617B6801225A71BB6877
:102D10003B607B689A693B689A42C0D802E0C04633
:102D200000E0C0460F23FB181B781800BD4605B015
:102D300090BDC046F5FBFFFF39FDFFFF90B587B0A2
:102D400000AF786039603B68002B0DD17B68DB6891
:102D50003B613B69002B04D07B689A693B699A42CE
:102D600019D801233B6116E03A687B68110018000E
:102D7000404B7B4498470300BB60BB68012B01D8E4
:102D8000012373E07B689A69BB689A4201D9BB68EA
:102D90006CE03B683B613B697B617B6901337B6134
:102DA0007B689A697B699A4207D802237B617A69BA
:102DB0003B699A4201D9002358E07A697B68110087
:102DC00018002D4B7B4498470300BB60BB68002B69
:102DD0000DD0BB68013302D0BB68012B01D1BB68A9
:102DE00044E07A693B699A42D7D100233EE0C0466D
:102DF0000F23FC18214A79697B681800204B7B441B
:102E00009847030023700F23FB181B78002B0DD16C
:102E10003B68002B0AD00F23FC187A6939687B685D
:102E20001800184B7B449847030023700F23FB18AE
:102E30001B78002B0FD17B687A69DA607B681B698D
:102E4000013312D07B681B695A1E7B681A617B684C
:102E500001225A7109E00F23FB181B78012B02D1C4
:102E600001235B4200E001237B617B691800BD46C2
:102E700007B090BD2BFBFFFFD9FAFFFFFFFFFF0F4D
:102E80001FFCFFFFF9FBFFFF80B584B000AF786047
:102E90000A00BB1C1A807B68BA1C1288DA807B6827
:102EA0009B68FB60FB68012B05D07B681B689A69F7
:102EB000FB689A4201D8022377E0FB68002B08D117
:102EC0007B681B681B78032B03D17B681B685B6ADC
:102ED000FB60FB68002B16D17B68FA68DA607B68C0
:102EE0001B681B89BA1C12889A4201D302235CE03A
:102EF0007B681B685B6ABA1C1288120992B29A1826
:102F00007B681A6144E07B681B689B789AB20A234D
:102F1000FB1812011A8021E07B681B68FA68110017
:102F20001800244B7B4498470300FB60FB68013387
:102F300001D1012339E0FB68012B05D97B681B68AF
:102F40009A69FB689A4201D802232EE0BB1CB91C87
:102F50000A22BA18098812888A1A1A80BA1C0A2307
:102F6000FB1812881B889A42D6D27B68FA68DA600E
:102F70007B681B68FA68110018000F4B7B44984768
:102F80000200BB1C1B881B099BB2D2187B681A610C
:102F90007B681B6830331A00BB1C1B880F210B4059
:102FA0005B01D2187B685A6100231800BD4604B04B
:102FB00080BDC04679F9FFFFE9F8FFFF90B585B005
:102FC00000AF786039607B68DA880823FB1801322B
:102FD0001A800823FB181B88002B03D07B681B6911
:102FE000002B01D10423D9E00823FB181B880F22F2
:102FF00013409BB2002B00D0BDE07B681B695A1CBC
:103000007B681A617B68DB68002B0AD17B681B68D0
:103010001B890822BA1812889A4200D2ABE0042316
:10302000BCE00823FB181B881B099BB21A007B68B5
:103030001B689B78013B134000D09CE07B681A68BA
:103040007B68DB6819001000564B7B4498470300EF
:10305000FB60FB68012B01D802239FE0FB68013372
:1030600001D101239AE07B681B689A69FB689A4248
:1030700000D972E03B68002B01D104238EE07B680D
:103080001A687B68DB6819001000474B7B4498473F
:103090000300FB60FB68002B01D107237EE0FB6887
:1030A000012B01D1022379E0FB68013301D1012317
:1030B00074E07B681B68002118003C4B7B449847F8
:1030C000031E01D0012369E07B681B6830331800C0
:1030D00080239B001A000021354B7B4498477B6876
:1030E0001C687B681B68FA6811001800314B7B4430
:1030F00098470300E3620B23FB1800221A701AE0C2
:103100007B681B6801221A717B681B68002118000C
:10311000294B7B449847031E01D001233EE07B6886
:103120001B68DA6A0132DA620B23FB181A780B2368
:10313000FB1801321A707B681B689B780B22BA1847
:1031400012789A42DCD37B681B687A681268D16A6D
:103150000B22BA1812788A1ADA627B68FA68DA6087
:103160007B681B68FA6811001800144B7B44984771
:1031700002007B681A617B680822BA181288DA801C
:103180007B681B6830331A000823FB181B880F214B
:103190000B405B01D2187B685A6100231800BD46C2
:1031A00005B090BD53F8FFFFADFCFFFF25F5FFFF15
:1031B0005BF4FFFF77F7FFFFCFF4FFFFF9F6FFFFA8
:1031C00090B587B000AF78601723FC187B680021AA
:1031D00018002E4B7B449847030023701723FB18DD
:1031E0001B78002B03D01723FB181B784AE07B6861
:1031F0001A687B681B6917217C1819001000244B82
:103200007B449847030023701723FB181B78002B7F
:1032100032D17B685B693B610F23FB183A691278F6
:103220001A700F23FB181B78002B04D11723FB18EF
:1032300004221A7023E03B690B331B781A00082321
:10324000134009D17B6899693B690B221800114B27
:103250007B449847031E11D01723FC187B6800217C
:1032600018000D4B7B449847030023701723FB186D
:103270001B78002BBBD002E0C04600E0C0461723FD
:10328000FB181B781800BD4607B090BDB1FCFFFFCE
:10329000E1F3FFFF15F3FFFF55FDFFFF90B587B08A
:1032A00000AF78601723FB1804221A7043E07B6894
:1032B0001A687B681B6917217C18190010002A4BBB
:1032C0007B449847030023701723FB181B78002BBF
:1032D00036D17B685B693B610F23FB183A69127832
:1032E0001A700F23FB181B78002B04D11723FB182F
:1032F00004221A7029E00F23FB181B78E52B0BD052
:103300000F23FB181B782E2B06D03B690B331B7841
:103310001A000823134015D01723FC187B680021DE
:103320001800124B7B449847030023701723FB18A7
:103330001B78002B08D17B681B69002BB7D104E0F8
:10334000C04602E0C04600E0C0461723FB181B78C9
:10335000002B02D07B6800221A611723FB181B7810
:103360001800BD4607B090BD21F3FFFF95FCFFFF9D
:1033700090B585B000AF78600F23FC187B68002102
:103380001800384B7B449847030023700F23FB1829
:103390001B78002B32D17B681A687B681B690F2170
:1033A0007C1819001000304B7B44984703002370B1
:1033B0000F23FB181B78002B1FD17B685A690E2343
:1033C000FB1812781A700E23FB181B78E52B15D00A
:1033D0000E23FB181B78002B10D00F23FC187B68E2
:1033E00001211800214B7B449847030023700F23D1
:1033F000FB181B78002BCED000E0C0460F23FB1833
:103400001B78002B27D17B681A687B681B690F210A
:103410007C1819001000164B7B449847030023705A
:103420000F23FB181B78002B15D17B685B69BB60F1
:10343000BB682022002118000E4B7B4498477B6814
:103440009969BB680B2218000B4B7B4498477B683B
:103450001B6801221A710F23FB181B781800BD4648
:1034600005B090BD01FBFFFF39F2FFFFD3FBFFFF6B
:10347000C9F1FFFFFBF0FFFFB3F0FFFF90B585B090
:1034800000AF78607B68DA880F23FC187B68110036
:103490001800154B7B449847030023700F23FB183B
:1034A0001B78002B19D17B681A687B681B690F2178
:1034B0007C18190010000D4B7B44984703002370C3
:1034C0000F23FB181B78002B07D17B685B69E52273
:1034D0001A707B681B6801221A710F23FB181B7876
:1034E0001800BD4605B090BDF1F9FFFF29F1FFFFBF
:1034F00080B588B000AF786039603B681B68FB60BE
:1035000002E0FB680133FB60FB681B782F2BF8D0CF
:10351000FB681B785C2BF4D07B689B69BB60BB6845
:103520000B2220211800754B7B4498471F23FB1862
:1035300000221A7000233B613B697B610823BB6159
:103540007B695A1C7A61FA68D2181E23FB1812781C
:103550001A701E23FB181B78202B00D87EE01E2338
:10356000FB181B782F2B00D178E01E23FB181B784B
:103570005C2B00D172E01E23FB181B782E2B03D08E
:103580003A69BB699A4215D3BB69082B04D11E2343
:10359000FB181B782E2B01D00623AAE008233B61E1
:1035A0000B23BB611F23FB181F22BA18127892004D
:1035B0001A7052E01E23FB181B785BB2002B09DA4D
:1035C0001F23FB181F22BA18127803210A431A700E
:1035D00006238EE01E23FB181B78494A7A44190003
:1035E0001000484B7B449847031E01D0062380E01F
:1035F0001E23FB181B78402B0DD91E23FB181B78AC
:103600005A2B08D81F23FB181F22BA181278022140
:103610000A431A7018E01E23FB181B78602B13D97D
:103620001E23FB181B787A2B0ED81F23FB181F2292
:10363000BA18127801210A431A701E23FB181E22A1
:10364000BA181278203A1A703B695A1C3A61BA6863
:10365000D3181E22BA1812781A7071E7FA687B69BB
:10366000D2183B681A601E23FB181B78202B01D848
:10367000042200E000221E23FB181A703B69002B75
:1036800001D1062335E0BB681B78E52B02D1BB686E
:1036900005221A70BB69082B06D11F23FB181F22B5
:1036A000BA18127892001A701F23FB181B78032295
:1036B0001340012B07D11E23FB181E22BA181278C3
:1036C00010210A431A701F23FB181B780C22134089
:1036D000042B07D11E23FB181E22BA1812780821CA
:1036E0000A431A70BB680B331E22BA1812781A707C
:1036F00000231800BD4608B080BDC0460DF0FFFF96
:10370000C8E40000CBEFFFFF80B588B000AF786061
:1037100039603B680933BB617B681B69002B00D1B2
:103720008AE07B685B693B610F23FB183A69127B77
:103730001A700023FB611EE03A69FB69D218172357
:10374000FB1812781A701723FB181B78202B16D041
:103750001723FB181B78052B03D11723FB18E52231
:103760001A70BB695A1CBA611722BA1812781A70FB
:10377000FB690133FB61FB69072BDDD900E0C04623
:103780003B6908331B78202B22D0BB695A1CBA61D5
:103790002E221A700823FB6115E03A69FB69D218E2
:1037A0001723FB1812781A701723FB181B78202B8D
:1037B0000DD0BB695A1CBA611722BA1812781A7058
:1037C000FB690133FB61FB690A2BE6D900E0C046C7
:1037D0003B69DA7A3B681A723B691F331B781A0619
:1037E0003B691E331B781B0413433A691D32127860
:1037F000120213433A691C3212781A433B681A606A
:103800003B6919331B781B021AB23B6918331B78CA
:103810001BB213431BB29AB23B689A803B691733C1
:103820001B781B021AB23B6916331B781BB2134379
:103830001BB29AB23B68DA80BB6900221A70C0469C
:10384000BD4608B080BD000090B585B000AF78607F
:1038500039603B681B782F2B03D03B681B785C2BAF
:1038600002D13B6801333B607B6800229A603B6871
:103870001B781F2B0DD80F23FC187B680021180024
:103880003E4B7B449847030023707B6800225A61BB
:103890006CE00F23FC183A007B6811001800384BCD
:1038A0007B449847030023700F23FB181B78002BE1
:1038B00055D10F23FC187B681800324B7B44984786
:1038C000030023707B689A690E23FB18D27A1A7062
:1038D0000F23FB181B78002B0FD00F23FB181B782E
:1038E000042B3ED10E23FB181B78042213403AD13F
:1038F0000F23FB1805221A7035E00E23FB181B78E6
:103900000422134031D17B685B69BB60BB680B3319
:103910001B781A001023134004D10F23FB18052233
:103920001A7023E0BB6815331B781B021AB2BB6800
:1039300014331B781BB213431BB29BB21B04BA682F
:103940001B321278120211B2BA681A32127812B20D
:103950000A4312B292B21A437B689A6099E7C04652
:1039600004E0C04602E0C04600E0C0460F23FB185A
:103970001B781800BD4605B090BDC04603F6FFFF9A
:103980004DFCFFFF01F9FFFFB0B582B000AF7860DA
:103990003960304D7D447B6858787B68303319003E
:1039A0003A6801232C4C2C59A047031E01D0032355
:1039B0004BE07B68294A9446634401331B781B0221
:1039C0001AB27B6825495B5C1BB213431BB2244AC5
:1039D000934201D0022338E07B68663303331B78BF
:1039E0001A067B68663302331B781B0413437A681C
:1039F000663201321278120213437A686621525CF1
:103A000013431B021B0A174A934201D100231CE0F7
:103A10007B68823303331B781A067B688233023358
:103A20001B781B0413437A68823201321278120227
:103A300013437A688221525C13431B021B0A094A12
:103A4000934201D1002300E001231800BD4602B0DB
:103A5000B0BDC0464CE40000C00200002E020000D1
:103A600055AAFFFF46415400B0B592B000AFF860D0
:103A7000B960FB1D1A70D04C7C44FB681B68FB626C
:103A8000FB6A1B78303B3B643B6C092B0BD8FB6A11
:103A900001331B783A2B06D1FB6A0233FB62FB68C9
:103AA000FA6A1A6001E000233B643B6C002B01D0F2
:103AB0000B23BCE2C14B7B443A6C9200D358BB62EF
:103AC000BB68BA6A1A60BB6A002B01D10C23AEE254
:103AD000BB6A1B78002B1DD0BB6A5B782722BD1800
:103AE0001800B74BE358984703002B702723FB18A7
:103AF0001B78012213400DD1FB1D1B78002B07D032
:103B00002723FB181B780422134001D00A238EE2DE
:103B100000238CE2BB6A00221A703B6CDAB2BB6AEB
:103B20005A70BB6A5B782722BD181800A54BE35872
:103B3000984703002B702723FB181B7801221340A2
:103B400001D0032373E2FB1D1B78002B07D0272332
:103B5000FB181B780422134001D00A2367E20023DC
:103B6000FB634723FD18FA6BBB6A11001800964BE4
:103B70007B44984703002B704723FB181B78012BCD
:103B80003CD14623FB1800221A704623FB181B78F1
:103B9000002B06D04623FB181A784623FB18013A5F
:103BA0001A704623FB181B781B01BF33FF333033D9
:103BB000BA6AD3183B623B6A04331B78002B1DD0D2
:103BC0003B6A0B331B781A063B6A0A331B781B04CB
:103BD00013433A6A09321278120213433A6A0832DE
:103BE00012781343FB634723FD18FA6BBB6A11007D
:103BF0001800764B7B44984703002B704723FB1833
:103C00001B78032B01D1012311E24723FB181B78FA
:103C1000002B01D00D230AE2BB6A3C229B5C1B02F5
:103C20001AB2BB6A3B215B5C1BB213431AB28023FE
:103C30009B009A4201D00D23F9E1BB6A47229B5CAD
:103C40001B021AB2BB6A46215B5C1BB213431BB258
:103C50009BB2BB63BB6B002B12D1BB6A57229B5C30
:103C60001A06BB6A56215B5C1B041343BA6A5521D2
:103C7000525C12021343BA6A5421525C1343BB6371
:103C8000BB6ABA6BDA611F23FB18BA6A4021525C27
:103C90001A70BB6A1F22BA181278DA701F23FB1839
:103CA0001B78012B06D01F23FB181B78022B01D099
:103CB0000D23BCE11F23FB181A78BB6B5343BB6376
:103CC0001F23FB18BA6A3D21525C1A70BB6A1F227F
:103CD000BA1812789A701F23FB181B78002B08D093
:103CE0001F23FB181B781F22BA181278013A1340C1
:103CF00001D00D239BE1BB6A42229B5C1B021AB2DE
:103D0000BB6A41215B5C1BB213431BB29AB2BB6A14
:103D10001A81BB6A1B890F2213409BB2002B01D072
:103D20000D2384E1BB6A44229B5C1B021AB2BB6A6E
:103D300043215B5C1BB213431BB29BB27B637B6B67
:103D4000002B12D1BB6A53229B5C1A06BB6A52211C
:103D50005B5C1B041343BA6A5121525C1202134389
:103D6000BA6A5021525C13437B63BB6A3F229B5C5F
:103D70001B021AB2BB6A3E215B5C1BB213431AB230
:103D80001C23FB181A801C23FB181B88002B01D155
:103D90000D234CE11C23FB181A88BB6BD318BA6A9D
:103DA0001289120992B29B18BB617A6BBB699A4265
:103DB0000ED20D233BE1C04668E3000016C7FF1F8B
:103DC000CC000000A400000015FEFFFF91FDFFFFE6
:103DD0007A6BBB69D21ABB6A9B781900964BE35881
:103DE0001000984703007B617B69002B01D10D23F4
:103DF0001DE14723FB1801221A707B698F4A934209
:103E000003D94723FB1802221A707B698C4A93421C
:103E100003D94723FB1803221A707B699A1CBB6ADB
:103E20009A61FA6BBB69D218BB6A9A621C23FB18B1
:103E30001A88FB6BD218BB6A1A624723FB181B78DF
:103E4000032B1ED1BB6A1B89002B01D00D23EEE092
:103E5000BB6A5F229B5C1A06BB6A5E215B5C1B042B
:103E60001343BA6A5D21525C12021343BA6A5C21A1
:103E7000525C1A43BB6A5A62BB6A9B699B003B63F4
:103E800020E0BB6A1B89002B01D10D23CFE0BB6A68
:103E90001A6ABB6BD218BB6A5A624723FB181B789D
:103EA000022B03D1BB6A9B695B000AE0BB6A9A697B
:103EB00013005B009B185A08BB6A9B6901210B40E9
:103EC000D3183B63BB6ADA693B6B5E498C4663443B
:103ED0005B0A9A4201D20D23A9E0BB6A0122524239
:103EE0001A61BB6A0022DA604723FB181B78032B98
:103EF00000D083E0BB6A00225A71BB6A61229B5CDE
:103F00001B021AB2BB6A60215B5C1BB213431BB27B
:103F10009BB21A00FB6BD218BB6A5A61BB6A587815
:103F2000BB6A30331900BB6A5A690123464D645994
:103F3000A047031E62D1BB6A444A9B5C1B021AB2B3
:103F4000BB6A43495B5C1BB213431BB2414A9342B9
:103F500054D1BB6A33229B5C1A06BB6A32215B5C7C
:103F60001B041343BA6A3121525C12021343BA6A2A
:103F70003021525C1343384A93423FD1BB6A374ADF
:103F80009B5C1A06BB6A36495B5C1B041343BA6A26
:103F90003449525C12021343B96A852292008A5C4A
:103FA0001343314A934229D1BB6A304A9B5C1A06BB
:103FB000BB6A2F495B5C1B041343BA6A2D49525CF0
:103FC00012021343B96A872292008A5C1A43BB6AC1
:103FD000DA60BB6A284A9B5C1A06BB6A27495B5CAD
:103FE0001B041343BA6A2649525C12021343B96A8E
:103FF000862292008A5C1A43BB6A1A61BB6A472216
:10400000BA1812781A701F4B7B441B8801339AB27E
:104010001D4B7B441A801D4B7B441A88BB6ADA8097
:10402000BB6A0022DA62BB6A00221A710023180000
:10403000BD4612B0B0BDC0460C020000F50F000036
:10404000F5FF0000FF010000C00200002F02000089
:104050002E02000055AAFFFF5252614117020000D4
:104060001602000015020000727241611F0200007A
:104070001E0200001D0200001B0200001A020000C8
:1040800019020000C8C1FF1FBEC1FF1FB8C1FF1F3A
:1040900080B582B000AF78600A00BB1C1A80114A5C
:1040A0007A447B68002B09D07B681B78002B05D0F5
:1040B0007B68DB88B91C0988994201D009230DE08F
:1040C0007B685B781800084BD358984703001A00A8
:1040D0000123134001D0032300E000231800BD4654
:1040E00002B080BD40DD0000CC00000080B584B08F
:1040F00000AF02003960FB1D1A70FB1D1B78002BFE
:1041000001D00B231AE0FB1D1A780E4B7B44920062
:10411000D358FB60FB68002B02D0FB6800221A70AA
:104120003B68002B02D03B6800221A70FB1D1A78F6
:10413000054B7B4492003968D15000231800BD46DE
:1041400004B080BDC0C0FF1F9AC0FF1FB0B592B0C1
:1041500000AFF860B960FB1D1A70D14C7C44FB685D
:1041600000221A60FB1DFA1D12781F210A401A70E6
:10417000FB1D1B7801229343DAB24723FD181C2351
:10418000F9180823FB181800C64B7B449847030016
:104190002B701C23FB181022BA189A614723FB18B6
:1041A0001B78002B0BD1BA684723FD181C23FB1882
:1041B00011001800BC4B7B44984703002B701C2354
:1041C000FB185B693B644723FB181B78002B06D167
:1041D0003B6C002B03D14723FB1806221A70FB1DF2
:1041E0001B781C22134000D1CFE04723FB181B781B
:1041F000002B19D04723FB181B78042B09D1472328
:10420000FD181C23FB181800A84B7B44984703009B
:104210002B70FB1DFA1D127808210A431A701C230B
:10422000FB185B693B6414E03B6C0B331B781A0092
:104230001123134004D04723FB1807221A7008E00B
:10424000FB1D1B780422134003D04723FB180822D0
:104250001A704723FB181B78002B00D0B6E0FB1D1B
:104260001B780822134000D1B0E0914BE3589847E7
:104270000300FB633B6C0E33FA6BD2B21A703B6CDB
:104280000F33FA6B92B2120A92B2D2B21A703B6C2E
:104290001033FA6B120CD2B21A703B6C1133FA6BFA
:1042A000120ED2B21A703B6C0B3300221A703B6CA8
:1042B0001C3300221A703B6C1D3300221A703B6CB9
:1042C0001E3300221A703B6C1F3300221A703B6CA5
:1042D00015331B781B021AB23B6C14331B781BB2CC
:1042E00013431BB29BB21B043A6C1B3212781202AE
:1042F00011B23A6C1A32127812B20A4312B292B266
:104300001343BB633B6C1A3300221A703B6C1B33A4
:1043100000221A703B6C143300221A703B6C153368
:1043200000221A701C23FB181B6801221A71BB6B38
:10433000002B4BD01C23FB181B68DB6AFB631C2380
:10434000FB181B684722BC18BA6B11001800594BA8
:104350007B449847030023704723FB181B78002BEE
:1043600034D11C23FB181B68BA6B013ADA601C239A
:10437000FB181B684722BC18FA6B110018004E4B43
:104380007B4498470300237020E04723FB181B78E9
:10439000002B1BD13B6C0B331B781A0010231340EE
:1043A00004D04723FB1804221A700FE0FB1D1B7872
:1043B000022213400AD03B6C0B331B781A000123F6
:1043C000134003D04723FB1807221A704723FB181A
:1043D0001B78002B13D1FB1D1B780822134005D03E
:1043E000FB1DFA1D127820210A431A701C23FB18AA
:1043F0001B68DA6AFB68DA61FB683A6C1A62472369
:10440000FB181B78002B44D1FB68FA1D12789A71B7
:104410003B6C15331B781B021AB23B6C14331B78B0
:104420001BB213431BB29BB21B043A6C1B321278B3
:10443000120211B23A6C1A32127812B20A4312B254
:1044400092B21A43FB681A613B6C1F331B781A0641
:104450003B6C1E331B781B0413433A6C1D321278DD
:10446000120213433A6C1C3212781A43FB68DA606A
:10447000FB6800229A60FB6800229A611C23FB18EB
:104480001A68FB681A601C23FB181B68DA88FB6833
:104490009A804723FB181B781800BD4612B0B0BDA8
:1044A00084DC0000DBF8FFFF8FF6FFFF63F1FFFF06
:1044B000E00100001DE9FFFF61E2FFFFB0B58CB035
:1044C00000AFF860B9607A603B60A14C7C44BB6887
:1044D0003B623B6800221A60FB681A68FB689B8895
:1044E0001F217D18190010009A4B7B449847030048
:1044F0002B701F23FB181B78002B03D01F23FB18E6
:104500001B7821E1FB689B795BB2002B01DA022367
:104510001AE1FB689B791A000123134001D107239C
:1045200012E1FB68DA68FB689B68D31ABB617A68A2
:10453000BB699A4200D802E1BB697B60FFE0FB687F
:104540009B68DB05DB0D00D0B4E0FB689B685B0A71
:10455000DAB2FB681B689B78013BD9B21723FB18C2
:104560000A401A701723FB181B78002B2FD1FB6809
:104570009B68002B03D1FB681B69FB620AE0FB68A8
:104580001A68FB685B6919001000734B7B449847FD
:104590000300FB62FB6A012B09D8FB689B79802230
:1045A00052421343DAB2FB689A710223CCE0FB6AF1
:1045B000013309D1FB689B79802252421343DAB25E
:1045C000FB689A710123BFE0FB68FA6A5A61FB68D5
:1045D0001A68FB685B6919001000604B7B449847C0
:1045E00003003B613B69002B09D1FB689B7980226A
:1045F00052421343DAB2FB689A710223A4E01723F4
:10460000FB181B783A69D3183B617B685B0A7B62B5
:104610007B6A002B4BD01723FB181A787B6AD218C1
:10462000FB681B689B789A4208D9FB681B689B78DB
:104630001A001723FB181B78D31A7B62FB681B68D0
:1046400058787B6ADBB23A69396A454D6559A847A3
:10465000031E09D0FB689B79802252421343DAB2D1
:10466000FB689A7101236FE0FB681B681B79002BC4
:1046700019D0FB681B68DA6A3B69D21A7B6A9A42D6
:1046800011D2FB681B68DA6A3B69D31A5B023A6A8B
:10469000D018FB681B683033190080239B001A0078
:1046A000304B7B4498477B6A5B02BB6233E0FB681C
:1046B0003A699A61FB689B68DB05DB0D80229200FA
:1046C000D31ABB62BA6A7B689A4201D97B68BB6223
:1046D000FB681A68FB689B6919001000224B7B4439
:1046E0009847031E09D0FB689B79802252421343EE
:1046F000DAB2FB689A71012326E0FB681A68FB684E
:104700009B68DB05DB0D3033D118BA6A3B6A1800B1
:10471000164B7B4498473A6ABB6AD3183B62FB68E6
:104720009A68BB6AD218FB689A603B681A68BB6AD1
:10473000D2183B681A607A68BB6AD31A7B607B68C0
:10474000002B00D0FBE600231800BD460CB0B0BD26
:1047500014D90000A3FBFFFF11E3FFFF89E2FFFF75
:10476000C00200005BDEFFFF03DFFFFFEBDDFFFFAA
:1047700090B58FB000AF786039603723FC181823EC
:10478000F9183B1D002218001C4B7B44984703007E
:1047900023703723FB181B78002B27D11823FB1815
:1047A0000C22BA189A617A683723FC181823FB1870
:1047B00011001800124B7B449847030023703723E5
:1047C000FB181B78002B11D11823FB185B69002BF9
:1047D00008D03A681823FB1811001800094B7B44D5
:1047E000984703E03723FB1806221A703723FB187B
:1047F0001B781800BD460FB090BDC046DBF2FFFF2E
:104800008FF0FFFF27EFFFFF90B597B000AF786004
:104810005723FC183023F9183B1D012218006E4B5A
:104820007B449847030023705723FB181B78002B09
:1048300000D0C9E03023FB180822BA189A617A68C0
:104840005723FC183023FB1811001800634B7B44DE
:104850009847030023705723FB181B78002B00D0C8
:10486000B2E03023FB185B693B653B6D002B04D144
:104870005723FB1806221A700AE03B6D0B331B7896
:104880001A000123134003D05723FB1807221A7084
:104890003B6D15331B781B021AB23B6D14331B782A
:1048A0001BB213431BB29BB21B043A6D1B3212782E
:1048B000120211B23A6D1A32127812B20A4312B2CF
:1048C00092B21343FB645723FB181B78002B47D18C
:1048D0003B6D0B331B781A001023134040D0FB6C48
:1048E000012B04D85723FB1802221A7038E030231A
:1048F000F9181423FB181C221800394B7B449847E5
:104900001423FB18FA6C9A605723FC181423FB1825
:1049100002211800334B7B44984703002370572330
:10492000FB181B78002B1BD15723FC181423FB18F2
:1049300018002D4B7B449847030023705723FB1826
:104940001B78002B03D15723FB1807221A7057231B
:10495000FB181B78042B03D15723FB1800221A7075
:104960005723FB181B78002B2ED15723FC1830231C
:10497000FB1818001D4B7B449847030023705723F6
:10498000FB181B78002B1FD1FB6C002B0CD03023A5
:10499000FB181B685722BC18FA6C11001800144B46
:1049A0007B449847030023705723FB181B78002B88
:1049B0000AD13023FB181B685722BC1818000D4B76
:1049C0007B449847030023705723FB181B7818007B
:1049D000BD4617B090BDC04645F2FFFFF7EFFFFFA1
:1049E00001DCFFFF6FE5FFFF65E9FFFF03EBFFFF62
:1049F000CDE2FFFFF9DCFFFF80B500AFBFF34F8FC3
:104A0000024B034ADA60BFF34F8FFEE700ED00E090
:104A10000400FA0580B582B000AF78607B680022A0
:104A20001A807B6800225A807B6808221A717B6892
:104A300027225A717B6801229A717B680122DA7100
:104A4000C046BD4602B080BD80B582B000AF020056
:104A5000FB1D1A70FB1D1B78002B08D1064B064A64
:104A6000526B02210A435A63C046002300E0172319
:104A70001800BD4602B080BD0008004080B582B07D
:104A800000AF78607B6800221A70C046BD4602B055
:104A900080BD000080B584B000AF0200FB1D1A701D
:104AA0000F23FB18FA1D1278D2091A700E23FB1877
:104AB000FA1D127852091A700D4BBB600F23FB18B8
:104AC0001B78002B0FD10F23FB181B789B001022A3
:104AD0009446BC446344083B1A680E23FB181B78B9
:104AE000DB01D31800E000231800BD4604B080BDF0
:104AF0000044004180B582B000AF78607B6800223E
:104B00001A707B6801225A70084B5B68DB061B0F2A
:104B1000DBB21A007B689A707B680022DA707B68CF
:104B200000221A71C046BD4602B080BD004000415F
:104B300080B582B000AF0200FB1D1A70FB1D1B7810
:104B40001800044B7B44984703001800BD4602B090
:104B500080BDC0464DFFFFFF80B582B000AF7860DA
:104B60007B6800221A707B6801225A707B680022E1
:104B70009A70C046BD4602B080BD000080B584B0CA
:104B800000AF0200FB1D1A70FB1D1B7818000C4BB8
:104B90007B4498470300FB60FB1D1B781F221340DA
:104BA00001229A401300BB60FB681B6ABA6813407D
:104BB0005A1E9341DBB21800BD4604B080BDC0460A
:104BC0009DFFFFFF80B584B000AF0200FB1D1A708F
:104BD000BB1D0A1C1A70FB1D1B7818000D4B7B4473
:104BE00098470300FB60FB1D1B781F221340012226
:104BF0009A401300BB60BB1D1B78002B03D0FB68E1
:104C0000BA689A6102E0FB68BA685A61C046BD465C
:104C100004B080BD4FFFFFFF80B500AF054A7A4466
:104C2000054BD35801221A70BFF35F8F62B6C0469E
:104C3000BD4680BDC2D10000EC00000080B500AFD1
:104C4000054A7A4472B6BFF35F8F044BD3580022F3
:104C50001A70C046BD4680BD9ED10000EC00000029
:104C600080B582B000AF0200FB1D1A70064BFA1D22
:104C7000127811001F220A40012191400A001A6097
:104C8000C046BD4602B080BD00E100E080B582B004
:104C900000AF0200FB1D1A70074AFB1D1B781900AC
:104CA0001F230B40012199400B0019008023D15094
:104CB000C046BD4602B080BD00E100E080B582B0D4
:104CC00000AF78607B6800221A707B6800225A70FF
:104CD0007B6800229A707B680022DA707B68012270
:104CE0001A717B6801225A717B68FA22D200DA803D
:104CF000C046BD4602B080BD90B587B000AF7860B9
:104D0000264C7C440C23FB181800254B7B44984709
:104D10007B68A02212011A807B6800229A707B684F
:104D20000022DA707B6800221A717B68FA22D200B6
:104D3000DA801723FB1800221A7026E01723FB18CD
:104D40001A787968082013009B009B185B00CB1829
:104D50001A180C23FB181000190008231A00114B15
:104D6000E35898471723FB181A78796813009B00BB
:104D70009B185B00CB18103306221A701723FB1800
:104D80001A781723FB1801321A701723FB181B78A7
:104D9000002BD3D0C046BD4607B090BDDED000008A
:104DA000ADFFFFFF8C00000080B584B000AF0200B3
:104DB000FB1D1A701A4B9B69FB60FA68F0231B01FC
:104DC0001340FB60FB681B0AFB60FB68022B05D8E5
:104DD000144A5368C02189000B435360FB1D1B78A4
:104DE000002B16DB022B02DD032B0BD011E00E4B48
:104DF0000D4A126904218A431A610C4AFB1D1B7873
:104E0000537008E0084B084A126904210A431A61EA
:104E100001E0172300E000231800BD4604B080BD68
:104E2000002000410040004100ED00E0000400408F
:104E300080B500AFBFF34F8F30BFC046BD4680BDC9
:104E400080B500AF024B7B449847C046BD4680BD4D
:104E5000AFFBFFFF80B584B000AF78607B681B6854
:104E6000FB60FB68DB695A1E9341DBB21800BD464C
:104E700004B080BD80B584B000AF7860144A7A4435
:104E80007B681B68FB607B681B681800114BD3585C
:104E9000984703001800104B7B449847C0467B6836
:104EA00018000E4B7B449847031EF8D1FB688F22F5
:104EB0001A75FB688F221A76FB681B6802229343DF
:104EC0001A00FB681A60C046BD4604B080BDC046EB
:104ED00062CF0000A8000000F1FDFFFFADFFFFFF63
:104EE000B0B584B000AF2A4C7C443B001800294B7D
:104EF000E35898473B000222DA723B0001229A7283
:104F00003B0001225A723B0003221A603B00002240
:104F10005A603B0001221A723B00190003201E4B0D
:104F2000E35898470F23FD18002103201B4BE3583B
:104F3000984703002B703B001F221A603B000022A1
:104F40005A603B0019000B20134BE35898470E237F
:104F5000FD1800210B20114BE358984703002B70DC
:104F60000F23FB181B78002B03D00F23FB181B7893
:104F700009E00E23FB181B78002B03D00E23FB182F
:104F80001B7800E000231800BD4604B0B0BDC04649
:104F9000F8CE00002400000024010000AC01000055
:104FA00090B587B000AF1E4C7C441E4BE3581E4AA0
:104FB0001A601C4BE35801221A711A4BE358FA226B
:104FC000D200DA803B1D1800184B7B4498473B1DEC
:104FD00001221A713B001800154B7B4498473B0097
:104FE00002221A703B0019000420124BE358984724
:104FF0000420114BE35898473A1D0B49094BE358DD
:1050000018000E4BE3589847064BE35818000C4B1A
:10501000E358984700231800BD4607B090BDC0462E
:1050200038CE000030000000001400402BFDFFFFD0
:105030009FFAFFFFB000000038020000D00000001F
:1050400058000000B0B582B000AF0C4D7D443B006D
:1050500018000B4B7B4498473B0000225A70FC1D04
:105060003B001800074BEB58984703002370FB1DCB
:105070001B781800BD4602B0B0BDC04694CD0000FC
:105080009DFAFFFF58020000B0B584B000AF244D78
:105090007D443B1D1800234B7B4498473B1D102249
:1050A0001A713B1D01229A713B1D0022DA713B1DD2
:1050B000802252005A803B1D28225A710F23FC186F
:1050C0003B1D19000020184BEB5898470300237034
:1050D0000E23FC180020154B7B44984703002370D7
:1050E000134B8022D2005A600120124B7B44984718
:1050F0000F23FB181B78002B03D00F23FB181B7802
:1051000009E00E23FB181B78002B03D00E23FB189D
:105110001B7800E000231800BD4604B0B0BDC046B7
:1051200050CD000079F9FFFF240200006DF9FFFF68
:105130000008004071FBFFFF80B500AF074B9A6885
:105140008023DB00134006D0044B8022D2009A60FB
:10515000034B7B449847C046BD4680BD00080040D5
:10516000DBFCFFFFF0B5C64600B58E4CA54404AF8E
:105170008D4C7C448D4BE3589847012264210120DB
:105180008B4B7B4498478B4B08229446BC4463442A
:1051900001221A70884B08229446BC4463440022C2
:1051A0001A70AD239B0008229446BC446344180047
:1051B000824B7B449847AD239B0008229446BC4415
:1051C0006344190003207E4BE3589847AD239B00AE
:1051D00008229446BC44634419001F20784BE358CE
:1051E00098470320774B7B44984703005A1E93410E
:1051F000DBB201225340DBB21A00734B08218C460C
:10520000BC4463441A701A7801210A401A701F20A6
:105210006E4B7B44984703005A1E9341DBB2012238
:105220005340DBB21A006A4B08218C46BC446344ED
:105230001A701A7801210A401A70634B08229446AA
:10524000BC4463441B78002B0ED0614B082294466B
:10525000BC4463441B78002B06D0564B082294466E
:10526000BC44634400221A705A4BE35898475A4B87
:1052700008229446BC44634401221A702CE0564B29
:105280000822BA18D5180020544BE3589847030059
:105290002B70514B08229446BC4463441B78012B6D
:1052A00013D0454B08229446BC446344424A08212B
:1052B0008C46BC44624412781A70474B08229446CC
:1052C000BC4463441B78022B06D13B4B0822944616
:1052D000BC44634401221A703F4B08229446BC44EC
:1052E00063441B78002BCAD13D4B7B44AF22920014
:1052F00008218C46BC44624413608C239A008423AA
:1053000008218C46BC44634400211800354BE35807
:105310009847294B08229446BC4463441B780122D9
:105320005340DBB2002B6CD02F4B0822BA18D51893
:10533000842308229446BC446344190000202B4B6C
:10534000E358984703002B70274B0822BA18D5184A
:1053500048230822BA18D218AF239B0008218C4694
:10536000BC4463441B6811001800214BE358984764
:1053700003002B701C4B08229446BC4463441B78EA
:10538000002B37D10B4B08229446BC4463440022C7
:105390001A70094B08229446BC44634400221A70D8
:1053A0002FE0C04618FDFFFF6ECC00007801000022
:1053B0001B0A0000CF020000CE020000A3F9FFFF8D
:1053C0004002000093F9FFFFC302000067F9FFFFEE
:1053D000C202000044000000CD02000048000000AE
:1053E000CAC70000F8010000BB020000180200005C
:1053F00060020000914B08229446BC4463440122A1
:105400001A708F4BB4229200944608229046B844FA
:10541000C44463448B4A1A600C2308229446BC445B
:1054200063441800884BE35898470C23082294469D
:10543000BC4463441800854B7B449847844B7B44B1
:105440009847844B08229446BC4463441B78002B45
:1054500002D0814B7B449847804BE3589847804B60
:10546000E35898477F4B7B44984703207E4B7B440F
:1054700098477E4BE35898477D4BE3589847FA236B
:105480005B0018007B4BE35898477B4B7B4418002C
:105490007A4B7B4498477A4B7B441800794B7B448A
:1054A0009847794B7B441A00784B7B441900784B22
:1054B0007B441800774B7B449847774B0822BA18F7
:1054C000D518764B7B44984703002B70724B08220B
:1054D0009446BC4463441B78002B06D0704B7B443D
:1054E000190001206F4B7B4498476B4B0822BA1878
:1054F000D5186D4B7B44984703002B70664B0822F0
:105500009446BC4463441B78002B06D0674B7B4415
:1055100019000220664B7B4498475F4B0822BA185B
:10552000D518644B7B44984703002B705A4B0822D4
:105530009446BC4463441B78002B06D05E4B7B44EE
:10554000190003205D4B7B449847534B0822BA183F
:10555000D5185B4B7B44984703002B704E4B0822B9
:105560009446BC4463441B78002B06D0554B7B44C7
:1055700019000420544B7B4498470C23FA18534BD2
:10558000E35811001800524BE3589847514BB4228E
:105590009200944608229046B844C44463445B7920
:1055A0001D004C4BB4229200944608229046B84409
:1055B000C44463441B791E00464BB42292009446B7
:1055C00008229046B844C4446344DB887B60414B66
:1055D000B4229200944608229046B844C4446344DE
:1055E0009B781A003B4BB42189008C4608218846E1
:1055F000B844C44463445B781900364BB42080003F
:10560000844608208046B844C44463441B7832482A
:1056100078440293019100927B68320029002F4D5B
:105620007D44A847054B08229446BC4463441B783C
:10563000002B57D02A4B7B441A0056E0CE020000C4
:105640003CFDFFFF000C00429C00000039FAFFFF08
:10565000FBF7FFFFCF0200007D0500004C000000BB
:1056600078010000AFF7FFFF37F9FFFFD00200001D
:105670001C020000A402000038C60000B7080000A9
:1056800030C60000AB08000044C600004AC6000057
:1056900050C6000093080000BA020000D9FAFFFFCC
:1056A0003AC60000F707000091FBFFFF26C6000086
:1056B000C7070000B9F9FFFF12C6000097070000F6
:1056C000EDFAFFFFFEC50000670700003000000094
:1056D0003401000034FDFFFF78C5000029070000F9
:1056E00072C50000994B7B441A00994B7B44110012
:1056F0001800984B7B449847974B08229446BC442B
:1057000063441B78002B15D0944B7B441800944BBA
:105710007B449847002264210120924B7B449847A8
:105720006420914BE3589847904B7B449847904BAB
:105730007B4498478F4BE35898478F4B0822BA1801
:10574000D518AF239B0008229446BC4463441968D3
:10575000602308229446BC44634401221800874B0E
:10576000E358984703002B70834B08229446BC44AF
:1057700063441B78002B06D0814B7B441900042026
:10578000804B7B4498470023BB600023B2229200E9
:1057900008218C46BC4462441360C0235B02B122E2
:1057A000920008218C46BC4462441360764BB422BC
:1057B0009200944608229046B844C4446344DA6890
:1057C00080235B029A4209D980235B026F4A7A44A4
:1057D00011001A0006206E4B7B449847664B082246
:1057E000BA18D5180823F91880239A00694B7B440E
:1057F0001E00602308203818C0180B003100664EC8
:10580000A659B04703002B705B4B08229446BC445A
:1058100063441B78002B08D0BB68604A7A441100AF
:105820001A0007205E4B7B449847BA685D4B7B4467
:105830001900B1239B0008208446BC4463441B68C4
:105840001800594B7B4498474F4BB4229200944622
:1058500008229046B844C4446344DA68B2239B00EB
:1058600008218C46BC4463441B68504979440800B5
:1058700019004F4B7B449847BB68B1229200082126
:105880008C46BC4462441268D318B12292000821AD
:105890008C46BC4462441360BB68B222920008216B
:1058A0008C46BC4462441268D318B222920008218C
:1058B0008C46BC4462441360B2239B000822944689
:1058C000BC4463441A6880235B029A4206D9394B70
:1058D0007B4419000820384B7B449847BB68002B59
:1058E00000D063E7244B0822BA18D518AF239B00D9
:1058F00008229446BC4463441B6818002F4BE358AD
:10590000984703002B701C4B08229446BC44634408
:105910001B78002B06D02A4B7B4419000920294B09
:105920007B449847284B7B449847284B7B4419007D
:105930000A20274B7B44984700231800BD46B62316
:105940009B009D4404BC9046F0BDC046CEC4000000
:10595000D0C4000055060000CE020000C6C40000FE
:105960003906000081040000A402000003F7FFFFD5
:105970000DF7FFFF44000000BB0200009C02000086
:1059800076C400005B05000090FDFFFF36C40000F8
:1059900005050000E6A9FF1FA00100000CC40000DF
:1059A000B7040000A6A9FF1FE5010000DCC300004A
:1059B000D504000094C3000005040000100100009D
:1059C0005CC30000BD03000017F5FFFF60C30000CB
:1059D000A903000080B584B000AFC0235B02FB6068
:1059E000FB681B68013316D00122C82102200C4B32
:1059F0007B4498470B4B1B68BB60C0235B021B6852
:105A00007B607B6883F30888074BC02252029A6050
:105A1000BB68984700E0C046BD4604B080BDC046A4
:105A2000AD0100000480010000ED00E090B587B0FA
:105A300000AFF860B9607A604E4C7C4400237B6113
:105A40004AE0FB68FF2213401CD1FB6818004A4B58
:105A5000E358984703001A001323FB181A70132306
:105A6000FB181B78DBB2052BEFD01323FB181B7838
:105A7000DBB2002B06D0414B7B4419000B20404B7E
:105A80007B449847BA687B69D118FB6840221800AC
:105A90003C4BE358984703001A001323FB181A7075
:105AA0001323FB181B78DBB2052BEBD01323FB1859
:105AB0001B78DBB2002B06D0334B7B4419000C2043
:105AC000324B7B449847FB684033FB607B69403333
:105AD0007B617B68403B7B607B683F2BB1D87B68F8
