:1000000088240020F9460000F5460000F54600006F
:1000100000000000000000000000000000000000E0
:10002000000000000000000000000000F546000095
:100030000000000000000000F5460000F54600004A
:10004000F5460000AD1F0000F5460000250C00003D
:10005000B92E0000F5460000F54600002D390000DD
:10006000F5460000392E0000492E0000592E0000F0
:10007000692E0000792E0000892E0000F546000050
:10008000F5460000F5460000F5460000F546000084
:10009000F54600000000000000000000F5460000EA
:1000A000F5460000F5460000F5460000F546000064
:1000B0000000000010B5064C2378002B07D1054B3B
:1000C000002B02D0044800E000BF0123237010BDC4
:1000D0000C00002000000000744B0000084B10B51D
:1000E000002B03D00749084800E000BF0748036819
:1000F000002B00D110BD064B002BFBD09847F9E731
:100100000000000010000020744B0000744B000041
:100110000000000070B507258C1A0734E11729404C
:100120000919C9104018411E2A400978D6181141F2
:10013000082E0DDD841E24780135AD1AAC40214314
:10014000102E05DD102403380078A21A90400143D8
:10015000012098400138084070BD000010B5064BE2
:100160000648196800788B7F054C5A1E93414A7BDC
:10017000DBB20968A04710BD280000205000002015
:10018000B532000070B5FF26084D00210848094B24
:100190009847041E02D10024200070BD064B9847EA
:1001A0003042F9D0013D002DEFD1F4E7410D0300BD
:1001B0000D1B0000C1340000D534000010B5034B06
:1001C0001878002801D1024B984710BD500000203C
:1001D0000933000010B50423002817D10C4CA37A72
:1001E000033B012B06D80223A3720A4BA07723609E
:1001F000012363730022084B1A70084B1C60084BE4
:100200009847A37A023B58424341DBB2180010BD25
:100210002C000020801A060050000020280000203A
:100220005D01000073B501240B4D10222B680B48B3
:1002300019890B4E090400942300B047002801D10E
:10024000002076BD286821000E30064B9847002814
:10025000F6D0054B9847F4E7280000200911080064
:100260006533000051350000B9350000042210B597
:10027000034B9A72034BFB321A70034B984710BD25
:100280002C00002050000020BD310000F0B5CA4B0A
:1002900089B098470290012804D0C84B984702982B
:1002A00009B0F0BD6A460024C54D127A2B681C7354
:1002B0001C81DA72C34B9847882021004001C24C50
:1002C000A047002812D0D52676003100BF48A047AD
:1002D000002800D1A2E1BE4B9847431C00D19DE10C
:1002E0000005000D029BB04200D198E10324B44BFD
:1002F0001B689C72B14B98470294D0E7B548A04761
:10030000002800D1A6E1B847430004D508232A6895
:10031000D17A0B43D3720021AF48A0470028E5D023
:100320002B68DB7ADB0700D426E1AC4B984700282A
:10033000DCD02F6808233E000E366022802130007A
:10034000A74DA847072342061840A64B8000C15876
:10035000FA239B004B43120FA349920052583000DE
:10036000534380213B607E220223A847002800D10E
:10037000E8E01623302280213000A84701304002F7
:1003800078603989994809048F4B98470028ADD087
:100390000125082200952B0000219548954CA04787
:1003A0000028A3D0290006A8934B984700289DD089
:1003B000924B9847002899D004233822402106A860
:1003C000874EB0477E4CA84200D1D2E0002802D030
:1003D000022800D1DCE023681022CCE07D48A04751
:1003E000002883D0B847C023DB0518408023DB05F5
:1003F000984204D108232A68D17A0B43D372002192
:100400007548A047002800D170E7744B9847002832
:1004100000D16BE72C68042325000E357A22802159
:1004200028006F4EB04701381223032804D804F087
:10043000C1F9028385871423237360220823802156
:10044000674F2800B847072342061840654B8000D5
:10045000C158FA239B004B43120F6949920052582E
:1004600028005343802123603E220C23B847654B6C
:10047000060098420FD003232F2280212800B8477E
:100480000136023086400423502280212800B847DC
:100490008640B60A6660237B3F2B39D90021802233
:1004A0000091012392005848524CA047002800D1E7
:1004B0001CE7322405A8554DA847002800D115E7B0
:1004C000013CA4B2002CF5D13D4E0C233068444CC5
:1004D0000E303E228021A0474A4B322498420ED152
:1004E0002E3C06A8A847002800D1FFE6013CA4B294
:1004F000002CF6D1069B32685B085360363406A8A0
:10050000A847002800D1F1E60134A4B2802CF6D12E
:1005100080213F4889002C4B9847002800D1E5E610
:100520003C4B9847002800D1E0E63B4B984700221F
:10053000234B1B689A72B0E622237DE730237BE7CA
:10054000402379E70C233E2280213000A847032373
:1005500004002F2280213000A8470134023084405B
:100560000423502280213000A8478440A40A7C60E4
:1005700007E71A2223681A730922114C2368DB7AD1
:100580001340012B0FD02368DB7ADB07C8D4CCE7FC
:100590002B002F22402106A8B047236830220128D3
:1005A000E9D02022E7E7802119488900064B9847C7
:1005B0000028E8D19AE6C046D5010000BD01000040
:1005C0002800002031330000C1340000085500002D
:1005D000D53400003A0500003B1100002502000060
:1005E00015010000B8490000D4490000371100008F
:1005F000331108006533000051350000B9350000A3
:1006000078490000FF0F000008110800E1340000E5
:1006100010110000850100005D01000000232A6820
:10062000D27AD20700D47BE69B07184E03930021B1
:100630001748A04700280DD003991648A047002866
:1006400008D0154FB8470121014000D156E6013EC0
:10065000002EECD1022388202A680021D3724001A9
:10066000A047002800D141E6084E00210B48A047D2
:10067000002800D13AE6084FB8470121014000D1D7
:10068000ACE6013E002EF0D130E6C046EF1B000084
:100690003711000029110000D534000001110000BD
:1006A000064B10B598470023984204D1044B984755
:1006B000044B1B68DB7A180010BDC046D501000052
:1006C000BD01000028000020064B10B5984700230C
:1006D000984204D1044B9847044B1B685B68180090
:1006E00010BDC046D5010000BD010000280000205B
:1006F0000020704773B5144B0E0014009847051E78
:1007000006D1124B9847002804D1114B9847052574
:10071000280076BD012C15D80E480F4B1B68DB7ADC
:100720001B0700D4760201238022009331002300AE
:1007300092000A4EB0470028E7D0094B1C80094BB5
:100740001C80E5E70848E8E7D501000085010000C6
:10075000BD010000111108002800002065330000D1
:100760004C0000204E0000201211100010B5074B65
:100770000C009847064B002802D11880053010BDA8
:1007800019880020091B1980F9E7C046513500007F
:100790004C00002010B5114B040098470523002899
:1007A00010D00F4B002C09D000221A800D4B1B8853
:1007B000012B09D10C4B9847002303E01A88230032
:1007C000002AF3D0180010BD00210848084CA047AB
:1007D000011EEFD10548A047ECE7C046B93500003F
:1007E0004C0000204E000020BD0100000C31000034
:1007F000C134000073B5124B0E0014009847051E5B
:1008000015D1012C15D80F480F4B1B68DB7A1B073D
:1008100000D476020123802200933100230092004D
:100820000A4EB047002806D1094B984705252800F5
:1008300076BD0848E8E7084B1C80084B1C80F6E7AB
:10084000D501000018910800280000206533000041
:10085000BD010000199110004C0000204E00002046
:1008600010B5074B0C009847064B002802D11880A2
:10087000053010BD19880020091B1980F9E7C04612
:10088000BD3500004C00002010B50A4B040098470D
:10089000052300280CD0084B002C05D000221A801C
:1008A000064B9847002303E01A882300002AF7D05C
:1008B000180010BD313600004C000020BD010000C2
:1008C00070B50E4B050098470324012813D000286B
:1008D00007D0023C02280ED10022094B04005A55D1
:1008E00009E0074B5C5D002C04D1064B28009847BB
:1008F000830700D10224200070BDC0468D02000095
:1009000051000020A106000010B50020014B9847BF
:1009100010BDC046C108000070B5054B0D000400B5
:100920009847400001382860024B2000984770BD6E
:10093000C9060000C108000010B50100014B0020ED
:10094000984710BD1909000010B50020014B9847C9
:1009500010BDC046F106000010B50C4B140001227A
:100960009847002805D0023843424341013318001C
:1009700010BD074B01212000984701230028F6D124
:10098000044B9847431E9841C3B2F0E7F5060000B8
:100990006D0700009507000010B50A00024B01002A
:1009A0000020984710BDC0465909000010B50C4BF7
:1009B000140001229847002805D0023843424341E1
:1009C0000133180010BD074B012120009847012377
:1009D0000028F6D1044B9847431E9841C3B2F0E774
:1009E000F5070000610800008908000010B50A0042
:1009F000024B01000020984710BDC046AD09000021
:100A00000368987AC0097047082270B50500064B44
:100A100004681A602800054B98470028FAD1022381
:100A200022881343238070BD00E100E0010A00002A
:100A3000082270B50500084B0468DA672800074BE8
:100A400098470028FAD1C1230222A3712372238878
:100A50009343238070BDC04604E100E0010A00001A
:100A600070B5084B04000568984700232382638211
:100A70002000054B98470028FAD101232A88134308
:100A80002B8070BD310A0000010A000010B5CB8830
:100A9000C2880C799A1A4B7964049B0523438C789D
:100AA00092062403234313430279002A05D1CA780E
:100AB000002A02D080225202134348780A7880012B
:100AC0001043184310BD70B50F251F26C4888B0E28
:100AD0001B198C0D2C4054714C0C3440D380147174
:100AE00000790B0B002808D0334093703F208B090E
:100AF000034001405370117070BD2B409370CB03C5
:100B0000DB0FD370F2E7000070B5437905000E00EB
:100B10000468002B0CD10D4B638028000C4B9847C8
:100B20000028FAD13200280021690A4B984770BD8D
:100B300063885B04F6D4C022638812021343638087
:100B40002800034B98470028FAD1EBE70080FFFF0D
:100B5000010A0000C70A0000F7B505000E001400E6
:100B60001720012A10D82B6828000193074B9847BB
:100B700007002800064B98470028FAD1019BE400A3
:100B80001C19A761337A2377FEBDC0468D0A000089
:100B9000010A0000202337B514001C4A0160916946
:100BA00005000B439361022301A90B700420184B2D
:100BB00098470420174B9847174B280098472379EC
:100BC0002B71E3786B71E388EB80144B1D60217906
:100BD0002A682388002916D008210B43A178002910
:100BE00001D080210B431380E378002B04D08023B5
:100BF0005188DB010B43538021002800083100227B
:100C0000074B984737BD4821E7E7C046000400403E
:100C1000C54500003D450000610A00000C030020AE
:100C2000590B000070B50E4B1B68598A1C681A8A54
:100C3000207A0A40E179014048B2002806DA92079A
:100C400001D5DB6898478023237270BD01252942B6
:100C5000FBD02A4201D09B6898472572F5E7C04631
:100C60000C030020A02330B587B001AA1B0113801C
:100C70000023FA219370D37053729372D372154B81
:100C8000C9000400D18004200121D3810623124D24
:100C90001171107211735173137428000F4B1049A6
:100CA000984728000F4B9847012C02D9012007B024
:100CB00030BD20000C4DA847032801D12000A847D3
:100CC0000028F3D1094B20009847431E984180002B
:100CD000EDE7C046DE07000010030020950B000082
:100CE00000140040090A0000553600008936000053
:100CF000054B10B59847031E03D00323022800D0EC
:100D0000023B180010BDC04655360000F0B587B054
:100D10000293174B07000C0016009847051E02D1DE
:100D2000012007B0F0BD134B05A938009847029A7F
:100D3000059B6A4301336B43921904209A42F0D811
:100D40006B02039300230193019B029A934201D308
:100D50000020E6E722003100074B38009847039B4C
:100D60007619E4180028DBD1019B0133EBE7C0467C
:100D700081360000693600009D360000F0B587B06E
:100D80000293174B07000C0016009847051E02D16E
:100D9000012007B0F0BD134B05A938009847029A0F
:100DA000059B6A4301336B43921904209A42F0D8A1
:100DB0006B02039300230193019B029A934201D398
:100DC0000020E6E722003100074B38009847039BDC
:100DD0007619E4180028DBD1019B0133EBE7C0460C
:100DE0008136000069360000B936000037B50423AB
:100DF00005001400032907D8080003F0DBFC1D07D9
:100E00000E0201232360002318003EBD0E4B01A9F2
:100E100028009847019B0133F4E70C4B28009847C2
:100E2000431EDBB2012B04D9FB22043801231042FC
:100E3000EAD100232370E7E7054B28009847031EFB
:100E4000E2D00323E0E7C0466936000081360000A7
:100E50005536000007B50E4B0E48694698476B465D
:100E600058791B7940051B0418436B469B780A4A46
:100E7000DB0218436B465B785B0118436B461B78BB
:100E80005B0818436B46DB889B185B0618430EBD56
:100E9000090B00001003002044F8FFFF002310B5E9
:100EA0009A4200D110BDCC5CC4540133F8E782698A
:100EB0000239023A03000020914203D2987841435C
:100EC000986A0818704770B50C0003690934002B44
:100ED00038D0436922000020E5261D5C202D07D074
:100EE000052D00D135002554013001320828F4D1F8
:100EF000187A20280ED02E2010701800141D0830EB
:100F000001320678202E05D0551C16700130A542FE
:100F10001BD12200D87A08725C7F187F2402044318
:100F2000987F00040443D87F0006204308605C7E5D
:100F3000187E2402204314008880D87D9B7D000207
:100F40000343CB800023237070BD2A00D9E7000043
:100F5000F7B5C56A04000E008D4201D10020FEBD28
:100F60000379002B0CD1002EF8D0210060780123EA
:100F700032003031144DA84700280CD1E662EEE76C
:100F8000030030330193407801232A0001990F4F69
:100F9000B847002801D00120E1E7236AE269207107
:100FA0009B189D42DFD2E3780093009B012BDAD996
:100FB000E369064FED18607801232A000199B847CC
:100FC000009F013FFBB2EFE70D0D00007D0D00001B
:100FD00010B5092300280CD00278002A09D0C28855
:100FE0008A4206D1044B407898470323C007C017B4
:100FF0000340180010BDC046F10C00000A000100BB
:1010000070B50123040030314078164DA847032302
:10101000002824D1144B154AE35CA25C1B021A433E
:10102000134912B202238A4219D1230066335A8827
:10103000198812040A430F491202120A03008A4255
:101040000DD0230084348233188823880A4A1B0475
:1010500003431B021B0A9B18581E8341DBB2180076
:1010600070BDC0460D0D00002F0200002E020000D2
:1010700055AAFFFF46415400BABEABFFF0B5036866
:1010800015001A7885B0303A092A08D98B4B1C68AC
:101090000C230C60002C0BD1180005B0F0BD5C785F
:1010A0003A2CF3D1023303600B23002AF4D1EDE78D
:1010B0002378002B0BD0824B6078984701230340A4
:1010C00005D1002DE8D04207E6D50A23E4E7002049
:1010D0007C4B2070607098470323C207DCD4002D3E
:1010E00001D04307F1D400212000774DA847002606
:1010F000012816D1F9235B00E35CB34201D10D2333
:10110000CAE7FB235B00E118E65C4B7820001B027A
:1011100033438E7836043343CE7836061E4331008F
:10112000A84701230328B7D00028E8D123003C3387
:101130001A78013B1B781202134380221BB29200E3
:101140009342DCD1230047331A78013B1B7812020B
:10115000134300D19FE00093009BE36123004033E1
:101160001B785A1EE370012AC9D822003D3211783B
:10117000A1700029C3D04A1E1142C0D122004232C0
:101180001778013A12783F02174327813A07B6D100
:10119000220044321078013A12780002104300D144
:1011A000206D220025003F3212783E352D78120244
:1011B00015430195A3D0009A5A4303923B09039A21
:1011C0005B199B180293984299D3C01A3F4B9847DA
:1011D000002894D03E4B0125984204D93D4D8542CC
:1011E000AD416D420235029B0230F318A362019BB0
:1011F000A061F3182362032D4FD1002F00D07EE7AA
:10120000E36D80006362344BC018009B400A834248
:1012100000D274E701235B4223610023E360032DC6
:101220002ED1637123002200210061331B786032CC
:1012300012781B021A4392196261607801233031DF
:10124000264EB04700281BD1254BE25C254B1202ED
:10125000E35C1343244A1BB2934211D1234B226B0C
:101260009A420DD185229200214BA2589A4207D171
:1012700087239B00E358E36086239B00E3582361A8
:101280001C4A2570138801339BB21380E38000232E
:10129000E362237100E7636D5DE7002F00D12EE765
:1012A000039AD3186362022D01D14000ABE70323F8
:1012B0000122434310405B081818A4E754000020A3
:1012C000F10C0000650C0000FD0F0000C947000094
:1012D000F50F0000F5FF0000FF0100000D0D0000FC
:1012E0002F0200002E02000055AAFFFF525261415A
:1012F0007272416158000020F7B5012406000D000C
:10130000A1422FD9836999422CD20378022B2ED087
:10131000032B3ED0A34208D14F08036A7F18790AF5
:10132000C9182A4B9847002802D00124644219E0CA
:10133000FB05DB0DF31830331B7801370193336A5B
:10134000790AC9183000214B98470028EDD1FF05D4
:10135000FF0DF61930363378019A1B0213432542EC
:1013600002D01C092000FEBD1C05240DFAE7036A0B
:10137000090AC918154B98470028D6D1FF236D00DC
:101380005B001D40761930367478337824021C4394
:10139000E8E7036AC909C9180C4B98470028C4D16B
:1013A000FE23AD005B001D402B003033F318DC78CA
:1013B0009A78761912042406303614435B78327812
:1013C0001B0214431C4324012409CBE7510F0000E6
:1013D00070B50500E9800C008168012901D1022067
:1013E00070BD03689A699142F9D2002917D11A7821
:1013F000032A02D1596A002911D10022EA601A8910
:10140000A242ECD95B6A22099B182B610F222B6840
:101410001440303364011C196C610020E0E79E78B1
:101420003601B44207D20C4BE9602868984723097B
:1014300018182861EAE72868084B98470100431C00
:1014400008D00128CBD92B689B699842C7D2A41B2E
:10145000A4B2E6E70120C3E7AF0E0000F9120000D6
:10146000F7B505000C0016000220012940D9AB6930
:1014700099423DD22F78874244D0032F54D0012F78
:1014800034D14B085B18590A01932B6A2800C918FC
:10149000344B9847002829D1019B2740DB05DB0D01
:1014A000EB18F2B2002F0AD01A000F21FF203032C1
:1014B000127800010A40310101400A43D2B23033B0
:1014C0001A700123019C2B7101342B6A610AC9181F
:1014D0002800244B9847002808D1E405E40D2C1976
:1014E000002F06D03609F6B23034267001232B7156
:1014F000FEBD23000F2230331B78360A934316407B
:101500001E43F1E72B6A090AC9182800154B9847B2
:101510000028EBD1FF2364005B001C402C19303401
:101520002670360A6670E1E72B6AC909C9182800D7
:101530000C4B98470028D9D1FE23A4005B001C4027
:1015400023003033EB18DA782C19120912071643EE
:10155000320A303426705A70320C360E9A70DE70B1
:10156000C4E7C046510F0000F8B505000F1E0FD1AB
:10157000C668002E02D083699E4200D30126340043
:10158000AB6901349C420FD3012E0CD8002408E033
:101590001B4B98470400012830D9AB693E009842A4
:1015A000EDD22000F8BD022421002800144B9847FA
:1015B000002809D0431C02D101246442F1E701282C
:1015C0001CD0B442DCD1E1E70E4A210028000E4EC7
:1015D000B047002810D1002F08D12B69EC605A1CAD
:1015E000DFD0013B2B6101236B71DAE72200390068
:1015F0002800B0470028F0D00128DDD00124D0E732
:10160000F9120000FFFFFF0F61140000F7B5C68854
:1016100004000136B6B20F00002E01D10420FEBD39
:101620000369002BFAD00F223240019208D1C16821
:1016300001330361006800290BD10389B342EDD95E
:101640002368019A303352019B18E68063610020C1
:10165000E5E783783209013B1A42F1D1284B9847DC
:101660000500012801D80220D9E7431C01D101203F
:10167000D5E7206883699D4228D3002FCED0E1684A
:10168000204B984705000720002DC8D0012DEAD037
:101690006B1CECD0002120681B4B98470028E6D13A
:1016A00023688C211A00890030325B189A4214D1C9
:1016B000276829003800154B9847F86200272368EF
:1016C0009A78BA420CD8DA6AD71BDF62E560290043
:1016D00020680E4B98472061B2E710700132E5E7B1
:1016E00001221A7100212068074B98470028BED1BB
:1016F00022680137D36AFFB20133D362DFE7C04605
:10170000F912000069150000510F0000AF0E000033
:1017100070B50400082504202169002902D10028A1
:1017200010D017E020680E4B9847002812D162694C
:101730001378002B11D0E52B06D02E2B04D0D37AB2
:101740002B4201D1002070BD00212000054B98479D
:101750000028E1D000232361F5E70420FAE7C04622
:10176000510F00000D160000F8B504000D0001290E
:1017700001D80220F8BD836901279942F9D2A369F3
:101780009D4205D2290020000D4B9847061E01D12D
:101790000020EFE70128ECD0431C0ED000222900E6
:1017A0002000084B98470028E4D123695A1C02D036
:1017B0000133236167713500E1E70120DAE7C046B4
:1017C000F91200006114000010B5094BC188040033
:1017D000984700280BD121692068064B98470028BC
:1017E00005D1E52362691370012223681A7110BDC7
:1017F000D1130000510F000070B50021164B0400FA
:101800009847051E26D121692068144EB047051E51
:1018100020D163691B78E52B09D0002B07D001216B
:1018200020000F4B9847ECE71970013309E021695C
:101830002068B047051E0DD1606929000200030031
:1018400020329342F0D10B22064BA1699847012226
:1018500023681A71280070BDD1130000510F0000D9
:101860000D1600009D0E0000F7B50B7804002F2B1D
:1018700001D05C2B00D101310025A5600B781F2B16
:1018800006D8290020005A4B98476561FEBD0131FA
:101890000B782F2BFBD05C2BF9D0A66932003300DC
:1018A0000B32934220D10020082302000093030052
:1018B000551C8A5C01954D19202A5BD92F2A1CD012
:1018C0005C2A1AD02E2A7CD0009D85420AD955B2B6
:1018D000002D07DB0025474F7F5D002F7BD00135B2
:1018E000BA42F8D10620D1E7202018700133D8E79A
:1018F00002252B43325401306BE000220028F1D046
:101900003178E52901D1E03931700099082901D1F8
:101910009B00DBB203211940012901D10F310A4399
:101920000C210B40042B01D104331A43F272002125
:1019300020002F4B9847002821D1082621692068D4
:101940002D4B984700281AD162691378002B22D0BA
:10195000D37A334207D10300A769591C8C46D15C66
:10196000FB5C994208D000212000244B98470028B6
:10197000E4D004E00422C1E763460B2BEDD1A36958
:10198000DB7A002809D0042800D07FE7034200D08A
:101990007CE705207AE70420F1E75B0700D575E7CF
:1019A0006369DA7AD206F4D5597D1A7D09020A43B1
:1019B000D97E9B7E09020B4312041343A3602900C6
:1019C00066E7009A082A8DD10B229B000098DBB2B3
:1019D0000092019A6CE71500413D192D88D9150038
:1019E000613D192D86D80125203A2B43D2B281E7DB
:1019F000D1130000144A0000510F00000D16000022
:101A000070B52E4B002104009847031E52D1227856
:101A1000032A47D16279002A44D02100E0628C2059
:101A200030310A0080002018904244D15522244BC6
:101A30004120E254234B9218E2542200DE3BFF3B4C
:101A400031320B70137023006122323385251A70F6
:101A500058707223AD0063551B4D63551B4B1C4DD5
:101A6000E0541C4BE2542369B832FF32A3541A4AA3
:101A7000180AA054194A180CA054194A1B0EA35452
:101A8000E3680132A354174A180AA054164A180CE6
:101A9000A054164A1B0EA354607801236269A8471C
:101AA000002363710022124B607811009847431E97
:101AB0009841C0B270BD13700132B5E7510F0000FC
:101AC0002E0200002F020000150200001602000086
:101AD0007D0D000017020000190200001A0200002C
:101AE0001B0200001D0200001E0200001F02000079
:101AF000ED0D00000B2300280AD1064B1A68002ABE
:101B000000D01070002901D000220A701960002353
:101B10001800704754000020F0B51F27150000235F
:101B200017401E228DB003600191494B06002A40E8
:101B300005A901A8984702AB0B93002803D101998E
:101B400005A8444B98470A9C002802D1002C00D1DC
:101B500006301C231D4200D16DE000280BD0042864
:101B600002D105A83C4B984708230A9C1F43002834
:101B700009D00DB0F0BD1123E27A07201A42F8D146
:101B800001306B07F5D43B072FD5344B9847030A38
:101B9000E373030C23740023627D257DE17E120232
:101BA000A0731543000EA27E607409020598E372CB
:101BB00023776377A377E377A376E376237563755B
:101BC0002D040A430133154303710ED0C36A290063
:101BD0000093234B98470028CBD10598013DC56061
:101BE0000099204B98470028C3D13B0701D52023FB
:101BF0001F43059AD36A3462F361B771617D237D17
:101C0000E07E09020B43A17E0002014300201B0479
:101C10000B433361617F237F09021943A37F1B04B8
:101C20001943E37FB0601B060B43F360B061326081
:101C3000D388B3809DE700289BD1E37A0430DA068D
:101C400097D4AA07D1D50330DB0700D591E7CCE7BD
:101C50007D10000069180000F9170000550E000003
:101C600069170000510F0000F0B587B005930023FD
:101C70001600059A01911360818804004D4B00689D
:101C80009847051E31D1A3795AB2002A1FDBDB0722
:101C900000D48CE0E368A2689F1AB74200D93700ED
:101CA000002F22D0A368DA0566D120685E0A827808
:101CB000013A1640F2B2161E1BD1002B09D1206941
:101CC00001280AD88023A2795B421343A37102251D
:101CD0000BE06169384B9847F2E7431C08D1802339
:101CE0000125A2795B421343A371280007B0F0BD20
:101CF00060612368616903931800304B984700289E
:101D0000E0D0831904937B0A029333D0039B790AB2
:101D10009B7872189A4201D99B1B02936B46039AD7
:101D20001B7A50780199049A254EB0470028D6D1E5
:101D300021680B79002B0DD0CB6A049A981A029B6C
:101D4000834207D98022019B40021818303192004B
:101D50001C4B9847029B5E02019B059A9B190193BD
:101D6000A368BF1B9B19A360059B1B6802939B196B
:101D7000136095E7049BA3618022A3689200DB05B2
:101D8000DB0DD31A3E009F4200D91E00A1692068D6
:101D90000D4B98470028A2D1A3683200D905C90D80
:101DA0002368303159180198064B9847D4E7072526
:101DB0009BE7C046D10F0000F9120000AF0E0000F3
:101DC0000D0D00009D0E0000510F000030B58DB0CC
:101DD00001900D00002205A901A80C4B9847041E94
:101DE0000FD102AB0B93019905A8094B9847041E2C
:101DF00007D10A9B0093002B06D0290005A8054BAC
:101E0000984720000DB030BD0624FAE77D10000091
:101E100069180000C70E000030B595B0019001228E
:101E200006A901A8264B9847041E3DD103AB0C938D
:101E3000019906A8234B9847041E35D10B9B063405
:101E4000002B31D0DA7A0134D1072DD4597D1D7D94
:101E500009020D43D97E9B7E09022D040B431D43CD
:101E6000D3060BD406A8184B9847041E1CD1002D8E
:101E70001DD10698154B9847040015E00224012D4A
:101E800012D91C2206A90DA8114B984721000DA8B4
:101E9000104B0F959847041E06D10DA80E4B98477E
:101EA000041E0BD00428DDD0200015B030BD290061
:101EB00006980A4B9847041EF6D1DAE70724F3E7A1
:101EC0007D10000069180000C9170000011A000009
:101ED0009D0E0000D11300001117000069170000CB
:101EE000BFF34F8F024A034BDA60BFF34F8FFEE719
:101EF0000400FA0500ED00E0F0B5002506000F0033
:101F0000CB0F85B05B1803AC5B100192A5700093FA
:101F1000164B002E0BDC0022802122706270144AC6
:101F2000090111602B202100984705B0F0BD012266
:101F3000554014D0227000226270019A002A10D1FC
:101F40000C4A8021090111602B20210098477B1C3D
:101F5000022B08D90098084B9847013ED8E7257016
:101F60006570034AEDE70120044BF5E70D390000E9
:101F70009444004198440041D12F0000A52F000057
:101F80000EB403B504AB01930022C821044B98475B
:101F90006420044B9847BFF34F8F30BF024B9847E4
:101FA000F91E0000D12F0000E11E00008022054B29
:101FB000D2009968114203D09A60BFF34F8F30BFAF
:101FC0007047C04600080040F0B5D94CD94BA54435
:101FD00000AF9847012264211000D74EB04710226D
:101FE0000823BA18D518002301242B70AB702900E0
:101FF0000320D24B6C709847D04B29001F20984784
:10200000CF4B1A6A1B6A120700D4DC0FCD4B9847DE
:1020100000230125FB60CC4B00209847431EDBB218
:102020000100012B00D8C3E0FB68002800D0C0E00D
:10203000102090238C223818C0189200C34B984768
:10204000FB68002B12D110229033BA18D118F8680F
:10205000BF4B984710221823BA18D118BD48BE4B61
:102060009847002800D1A6E00123FB60BB4B10225B
:102070007B665423BA18D018B94B98477D6EB94B7C
:10208000280098471F2318401E3B8340B64AD36759
:102090007B6EDA69002AFCD18F2302202B752B7608
:1020A0002B6883432B6072B6BFF35F8FAF4BB04D8D
:1020B0001A70002C0ED0802424022368013309D02A
:1020C0000132C821B047AB4B22681B6882F30888F5
:1020D000AC609847A84B9847964B98470123A34A72
:1020E0001370BFF35F8F62B6A44B9B691B051B0F78
:1020F000022B06D8A24B5A68C0239B001343A04A68
:10210000536004222B69102113432B619D4A9E4B7F
:1021100079181A6001221A71FA239B4ADB00D380D6
:1021200030228C18E380E3810623A0222374053B30
:10213000120123712023022622800122FB18002590
:1021400022731E70012210236273C91825726572F2
:10215000A572E57204208D4BA570E57098470420A8
:102160008B4B98472200874987488A4B9847864877
:10217000894B98470123A37110232371F0336380A7
:10218000D83B63712800854B21002580E571984775
:10219000834B05005A6B32435A638022D2005A6047
:1021A000804B1E60002800D19AE07F49300006E095
:1021B0002B00FB602FE7FC6858E77C4904207C4B30
:1021C0009847604B9847012262492000794B984715
:1021D000002801D07849F1E78026FB683602FB61D0
:1021E000FB6C1A0080235B029A4204D91A00062075
:1021F00072496F4B984710220C23BA181024D31839
:10220000302080223C19201892006D496D4CA04767
:10221000002803D0FA696C490720EAE70400FB694B
:102220007B607B6835191B1BBB603F2B29D8002BBB
:102230001AD0EBB2002B09D1644B28009847F875EF
:10224000FB7D052BF8D0FB7D002B27D15C480419C2
:102250005F4B3A89210028009847F875FB7D052BD4
:10226000F6D0FB7D002B2BD1FB69FA68F618D2184B
:10227000FA60110080225202914226D95549082065
:102280009DE7FF231D420CD1504B28009847F8755D
:10229000FB7D052BF8D0FB7D002B02D04E490B2097
:1022A0008DE7474B1B19BB60494B4022B96828009A
:1022B0009847F875FB7D052BF6D0FB7D002B02D0EF
:1022C00046490C207BE74034ABE7002B88D12148FE
:1022D000434B9847002800D1B2E0424909206EE7FD
:1022E0002000414B98470123A3720123E6726372D9
:1022F000032601233000237221003C4B3E646560BD
:102300009847290030003A4EB0471F23B8603B641D
:102310002100364B0B206560984729000B20B04701
:10232000BB68002B01D1002866D03249032046E764
:102330002CFDFFFF652F0000F91E00000D39000085
:10234000004400416D020000C1080000694900001E
:10235000F51A0000234A0000CD1D0000000C0042C9
:10236000192800000D2E000004E100E00900002003
:1023700000ED00E004800000C9460000002000419C
:10238000004000410014004010030020C54500003B
:102390003D450000950B0000090A0000F92E0000E1
:1023A0000008004000E100E0F54A0000304A00006B
:1023B000811F0000191B0000494A00005C4A000010
:1023C0005A000020691C0000804A0000AD3800005F
:1023D00011380000CD4A0000A04A0000B54A0000B4
:1023E000191E0000DD4A0000F52400000925000048
:1023F000992E00000E4B0000124B20705B68E070BD
:10240000DB061B0FA370207160700F4B20009847F4
:10241000051E00D0D1E61023FA18D1180B480C4B3A
:102420009847FB68002B00D1CBE62A0064210120ED
:10243000084B98476420084B9847BFF34F8F30BF35
:10244000064B984700400041E5360000100300208D
:10245000090B0000F91E0000D12F0000E11E000052
:10246000014B5878C009704700180040022310B58E
:10247000044A11780B431370034B98470028FBD193
:1024800010BDC0460018004061240000402307B57D
:10249000104A052091690B439361022301A90B7037
:1024A0000D4B98470D4B0520984701230C4A117896
:1024B0000B4313700B4B98470028FBD102000A4BCB
:1024C0001A5004304028FBD11022084B1A60084BE8
:1024D000984707BD00040040C54500003D45000089
:1024E00000180040612400002403002000E100E007
:1024F0006D240000002301220360436083720233D5
:1025000002724272C3727047F7B50C00002623793D
:1025100001A94E70CE700B70237A05008B70207865
:10252000134B984733001F2D00D8124B0721A27A76
:1025300029408900E67A002A01D0082216430F2795
:102540008E408F403100EA0892009A189069B84393
:1025500001439161617A0122002904D0AA4059699E
:102560000A435A61F7BDAA40596991435961F9E795
:10257000994600000018004010B5490804000023E7
:102580004020A14201D210BD0300581C091B80B29B
:102590008C42F9D94020FF2BF5D813800020F2E7B8
:1025A00037B50D4C05002378002B01D000290CD045
:1025B00001A91320094B0D7098471320084B984729
:1025C00001230020657023703EBD63780800AB4294
:1025D000FAD01D20F8E7C0465A020020C545000089
:1025E0003D450000394A030000B50800934233D04E
:1025F00007D8374A934214D0364A93421FD000235B
:1026000017E0354A93423AD0344A934244D0344A90
:102610009342F4D1002303290BD802F0CBF8502ABF
:102620002C2E0023032904D802F0C4F84302050726
:102630002C4B180000BD2C4BFBE72C4BF9E700237B
:102640000329F6D802F0B6F837020406284BF0E763
:10265000284BEEE7284BECE700230329E9D802F0EA
:10266000A9F82C020406254BE3E7254BE1E7254BAF
:10267000DFE7254BDDE7254BDBE7254BD9E70023DB
:102680000329D6D802F096F81D020406214BD0E7A4
:10269000214BCEE7214BCCE700230329C9D802F018
:1026A00089F8120204061E4BC3E71E4BC1E71E4BFE
:1026B000BFE71E4BBDE70323BBE71D4BB9E71D4B2F
:1026C000B7E71D4BB5E71D4BB3E7C046001000420E
:1026D00000080042000C004200180042001C0042AA
:1026E0000014004203000500030006000300070079
:1026F0000300010003001E0003001F000300090087
:1027000003000A0003000B00030011000300120085
:102710000300130003000D0003000E0003000F0070
:102720000300170003001800030019000300040051
:10273000030008000300100003000C000300160053
:1027400070B586B06946094B6A4670CB70C170CBD4
:1027500070C1002399005158814202D1D8B206B00D
:1027600070BD0133062BF5D10020F8E72C4B00009B
:10277000002210B54309C409944202D1DA01064B84
:10278000D2181F2318401E3B8340002901D09361BB
:1027900010BD5361FCE7C0460044004170B50468B9
:1027A00005000A4B200098471F2318401E3B83401A
:1027B000074AD3672A68D369002BFCD102228F33E2
:1027C0002375237623689343236070BD0D2E00008C
:1027D00004E100E0036805201A7ED20703D500203B
:1027E000C905C90D9962704730B5042403681022E9
:1027F0001D7E25420CD05D8B0022254201D05C83DA
:102800001E3280799B6A012804D1DB05DB0D0B8029
:10281000100030BDDBB2FAE770B50400054B056867
:1028200098472268D369002BFCD12A6801331343EF
:102830002B6070BD9D270000F7B56B469D1D0023E2
:1028400004002B80194B06680F0098472068C36965
:10285000002BFCD1164B98471430164BC0B298474A
:102860002A000100144B38009847071E1CD12B7812
:1028700033732568EB69002BFCD1104B2800984777
:102880001F2318401E3B83400D4A13602268D36902
:10289000002BFCD12A68023313432B602268D369D2
:1028A000002BFCD13800FEBD1727FBE79D27000059
:1028B00041270000E1450000792500000D2E0000B1
:1028C00000E100E0F0B50500296014000A6889B055
:1028D0000F001C23920700D5BAE001260B68334095
:1028E0000193019A0523002A00D0B1E008005A4B59
:1028F0009847811C8E40594B14301A6A16431E6249
:10290000631DDB7F02AAC6B2137011003000544B66
:1029100098473000534B9847631DD87F0199524B1D
:1029200098472378012B03D13A680B3313433B605C
:102930002B002A0000260C33283240C39342FCD1DE
:102940002B003633AE86EE622E86AE621E705E704F
:102950009E70032328686B723F4B2E7198470700C7
:10296000424B43499847434BBF00FD50802302AA86
:1029700013710123937123782F685671D671002B40
:1029800000D196710026A36A0493E36A0593236B32
:102990000693636B0793B30004AA9858F1B200281A
:1029A00002D13800344B9847431C06D002AB187153
:1029B000000CC0B203A9314B98470136042EEAD16E
:1029C00023786B71237CAB71A37CEB71237D2B721D
:1029D00002AB9E1C002333802378012B10D11E4BA9
:1029E000286898471430264BC0B29847254B010001
:1029F0003200A06998471723002829D133783B7308
:102A0000A3686268617C1A43E3681A43237C002947
:102A100003D11D498978890701D580210A43A17C0A
:102A2000002902D0802189020B43E17C002902D0D9
:102A3000802189000B43217D002902D0802189015A
:102A40000B4339680A433A607A6813437B6000237A
:102A5000180009B0F0BDC046412700000004004046
:102A6000C54500003D450000A1250000D52D000012
:102A7000252C000068030020E52500009946000091
:102A8000E14500007925000000200041F0B585B047
:102A90000193030004000520009138331B781600D1
:102AA000834233D01230002A30D0E3790530002B36
:102AB0002CD000256379012B08D122680121137ED7
:102AC0000B42FBD001992000124B98472268042149
:102AD000137E0B42FBD002AB9F1D002339003B80CD
:102AE00020000D4B9847002810D100993A886B1CA4
:102AF0004A55A1799BB201290AD100990235120ADF
:102B0000ADB2CA54013EB6B2002ED3D105B0F0BD6D
:102B10001D00F7E7D5270000E927000073B50E0078
:102B20004179050014001520012903D12A7A002AD1
:102B300001D0002076BD3078144B002C22D0747860
:102B4000002C1CD02C68247E0C4202D19847052012
:102B5000F0E7110098470E4BB17828009847EB79C1
:102B6000002BE6D1296804330A7E1A42FCD06B465A
:102B70000024991D2800074B0C809847D9E72100B5
:102B80009847D6E798472000D4E7C0467127000051
:102B9000D5270000E92700000300F7B50400052051
:102BA00038331B780F001500834203D01230002603
:102BB000002A20D1FEBD01211A7E0A42FBD0A27953
:102BC00073189BB2B95D012A17D01E0089B2134B4E
:102BD00020009847E379002B09D022680421137E56
:102BE0000B42FBD06B462000991D0D4B9847013DD1
:102BF000ADB2002D07D02368DDE7FB5C02361B0277
:102C0000B6B21943E3E763792800012BD2D12168DA
:102C100001330A7E1A42FCD00020CBE7D527000002
:102C2000E9270000F8B5684B8000C4582300220053
:102C30003733363225681B7816781E402B7EAF7DE1
:102C40001F40FB0734D56279012A31D1637A002B0A
:102C50000DD15E4B1B88AB62638E013B9BB26386DA
:102C6000638E002B00D12A756379012B20D1637A02
:102C7000002B1DD0E16A2268481C0B78E062A07925
:102C8000DBB2012851D09BB2DB05DB0D9362A38E32
:102C9000013B9BB2A386A38E002B09D101332B7578
:102CA000637A012B04D1E379002B01D10233AB7598
:102CB00004210F4215D06B8B0B423CD0637A012B61
:102CC0000CD023001E2238331A70032363720233A0
:102CD0002B75330702D52000A3699847AB6A0423FC
:102CE0006B8302210F4214D06379012B11D1637AD7
:102CF000DBB2012B0DD1E279002A0AD1297501310D
:102D00006172210038310A701E4202D02000E3684F
:102D100098477FB2002F07DA80232B752B76730636
:102D200002D5636A20009847F8BD48780231000256
:102D30000343E162A8E7627A2368D2B29B6A012A60
:102D400013D1638E013B9BB26386638E9BB2002BD3
:102D5000C7D12975210038310B70033363721642D5
:102D6000BFD02000E3689847BBE7DB05A16ADB0D15
:102D7000DAB20A70A26A511CA162A179012904D1B8
:102D80001B0A5370A36A0133A362238E013B9BB2DB
:102D90002386238E9BB2002BA3D1220038321370DE
:102DA00004332B75627A022A04D11E4299D0200086
:102DB0006369D8E7637A002B00D092E7B30700D4A9
:102DC0008FE720002369CEE768030020640300201A
:102DD00070470000F0B5094C094A2378002B09D14F
:102DE0001E00084F084DD750EE500433182BFAD16F
:102DF000173B237080001150F0BDC0465C020020DC
:102E000060020020D12D00006803002007B50923CF
:102E10006A46137001335370013393700133D370DA
:102E20000133137101335371024B98476B461856A7
:102E30000EBDC0464127000010B5024B00201B68A4
:102E4000984710BD6002002010B5024B01205B685E
:102E5000984710BD6002002010B5024B02209B680D
:102E6000984710BD6002002010B5024B0320DB68BC
:102E7000984710BD6002002010B5024B04201B696A
:102E8000984710BD6002002010B5024B05205B6919
:102E9000984710BD600200201723002906D11F2883
:102EA00006D8163B8340034AD3600B0018007047D6
:102EB000C960FFDE00180040002370B501250B4CEF
:102EC000237023780F2B00D970BD29009940084A40
:102ED0001069084206D01161064A9B009B58002BDE
:102EE00000D09847237801332370EAE7800300205D
:102EF0000018004024030020022230B5184C636BF8
:102F0000134202D0636B934363630D790B884A8845
:102F10002B43802513436D00AA4202D180229200E8
:102F200013438A79002A01D004221343CA79002A64
:102F300001D040221343002810D14A7917303F2A8C
:102F40000BD8FC21120489030A40134363638023D6
:102F50001B01E2681A42FCD0002030BD1720FCE7BC
:102F60000008004070B5094B00209847FA21084C32
:102F700089000500A047074B074918602800A047B3
:102F80000522064B1860064B1A6070BDB544000060
:102F9000C94700000000002040420F00040000204C
:102FA00010E000E030B580240021074B64021A686D
:102FB000064B013800D230BD002AFAD05A60996021
:102FC0001D682542FCD0F4E70400002010E000E07A
:102FD00030B580240021074B64021A68064B013883
:102FE00000D230BD002AFAD05A6099601D6825428F
:102FF000FCD0F4E70000002010E000E037B56B469D
:10300000991DFF23094D01222800094C0B70A04790
:103010006A46084BD11D1B88012B05D1FD332800C2
:1030200001220B70A04737BDFC23F8E7780200208F
:10303000992B0000BA020020F7B56B46FF240F4E13
:10304000DD1D0122230029000D4F30002C70B847F0
:103050002300012229003000B8470A4CFF23012237
:1030600029003000064F013CB847002C04D02B78D3
:10307000FF2BF3D10120FEBD2000FCE778020020E9
:103080008D2A0000410D0300F7B56B46DD1D0023BE
:103090000F26114C2B70013C002C04D1042220007F
:1030A0000E4B1A70FEBD0122FF2329000C480D4F64
:1030B000B84728780200B24309D10721074B0840DE
:1030C00002D019701000EDE70B221A70EAE7FE2813
:1030D000E1D1FD38E6E7C04621A10700B902002092
:1030E000780200208D2A000037B56B46991D012318
:1030F000124D5B420B8002222800114B98476B4611
:103100005C1D2800FF23012221000E4DA84711203D
:1031100023781840012804D001220B4B1A7000209C
:103120003EBD1E221340042BFAD0074A0A2B02D1BF
:10313000023B1370F3E70A23FBE7C0467802002046
:10314000992B00008D2A0000B9020020F7B5134B1F
:103150001D882C00012D1FD0114B01241988114B03
:103160001868114B9847854216D86B46DD1DFF2322
:103170000E4F220029000E4E38002B70B047FD2361
:103180002200290038002B70B0470A4B9847041ED4
:1031900002D10522084B1A702000FEBDBA020020A1
:1031A000B4020020C0020020C947000078020020BD
:1031B000992B000039300000B902002000212C4B6F
:1031C000F0B519700D23012591B06B4402ACD9778D
:1031D0000C22284B08A82570039104912174617476
:1031E000A574E5742175984780239B02E360224B08
:1031F000224FA362224B2200E362224B2249236327
:10320000224B38006363224BA361224B98473E68F0
:10321000214B300098471F23184085401F4B1D60ED
:103220003B68DC69002CFCD102230125326801A92E
:1032300013431B4A336010781A4B1B4E5C709C7012
:1032400018703070194B7470B4704D708C700D70B4
:10325000984732785309D10908D11F310A40954067
:10326000134ADB019B189D6111B0F0BDA461FFDE24
:10327000B902002069490000020010007802002015
:103280000200110002001200000C004202001300B4
:10329000801A0600C52800000D2E000000E100E0A5
:1032A00008000020C4020020B60200200D390000F2
:1032B0000044004100220E4B70B51A700D4B060001
:1032C0000C00994200D91C000B4D210028000B4B2B
:1032D0009847172808D003214E4309492800891927
:1032E0000122084B984770BDE308E41AECE7C0469A
:1032F000B902002000093D007802002039280000B2
:10330000B60200201D2B00000321002210B5484307
:10331000034B04491A700918034B0448984710BD21
:10332000B9020020B60200201D2B00007802002008
:1033300037B56B46DD1DFF2300220A242B70064B98
:103340001A70013C012229000448054BE4B2984759
:10335000002CF6D137BDC046B9020020780200200B
:10336000992B0000F0B589B00292FF22039304ABC1
:103370009A7100223F24494B01901A70019B06A8C4
:103380001C404023234303700B0E43700B0C8370CF
:103390000B0AC37008261300092701713100845CF1
:1033A0005B00DBB21D0065402D0600D57B40013976
:1033B0006400C9B2E4B20029F2D10132052AEDD18C
:1033C00001245B00364F234306AE737104AB991D95
:1033D0002200344D3800A847310006223800A847A3
:1033E00004ABD91DFF23220038002F4C0B70A047DF
:1033F000072404ABDE1D0122FF23310028482A4D9B
:10340000A84733785AB2002A09DA013CE4B2002C0A
:10341000EFD102220020214B1A7009B0F0BD082420
:10342000224E1C40336001D00622F3E7042009221B
:103430001840EFD10122934302D0184B1A70ECE7E9
:10344000019B9B0405D51A4B9847002801D1032204
:10345000F3E7019B9B0507D5002301223360310070
:10346000FF330F48104CA047019B5B0509D50F4C5B
:10347000FF230422210038000B4DA84723681BBA04
:1034800023606A460B4B128901201A806A460A4B58
:1034900092891A800022094B1A60BEE7B902002007
:1034A00078020020992B00008D2A0000BC02002029
:1034B00039300000B4020020BA020020C00200200F
:1034C000002213B513000092014CA04716BDC04660
:1034D00065330000014B18687047C046BC020020ED
:1034E0000022F0B5134B144C144E85B001901A70A5
:1034F0003188134F2068B84700290ED0FF2301A957
:1035000004221048104DA84723683188181D2060F8
:10351000B847002907D0012003E00C4B984700284A
:10352000ECD105B0F0BDFF23022203A9064C0548EB
:10353000A047F0E7B9020020C0020020B40200203A
:10354000D5480000780200208D2A00008930000054
:10355000F0B500240D00124B85B001901C70002DB9
:1035600002D1012005B0F0BD0E4B9847013DADB230
:103570000028F7D00C4F019B3A8819190B4EFF23F6
:103580000B48B0470B4A3B881168E418CB1813600E
:1035900003A9FF230222054E0548B047DFE7C046D6
:1035A000B902002089300000B40200208D2A0000FA
:1035B00078020020C002002001207047F7B50024E7
:1035C000134D01902C704F1EBFB2002901D1012074
:1035D0001AE0104B9847104E019B328819190F487A
:1035E0000F4B98470F4A33881168E418CB181360C3
:1035F0000D4B9847002807D0002F06D00B4B98475B
:10360000002802D105232B70FEBD3900DBE7C04640
:10361000B9020020FD2F0000B40200207802002033
:10362000992B0000C0020020E93000003930000072
:1036300010B5054B9847002803D10522034B1A709B
:1036400010BD034B9847FBE739300000B90200205A
:103650004D310000030010B50120002B01D1014BBA
:10366000984710BD0909000010B50123002803D1B7
:10367000024B080098470300180010BD39090000EC
:1036800043425841C0B27047030010B50120002BDF
:1036900001D1014B984710BD4909000010B5012325
:1036A00004000800002C03D1024B110098470300CE
:1036B000180010BD9909000010B50123040008008E
:1036C000002C03D1024B110098470300180010BDD5
:1036D000ED090000024B187D012318407047C046D9
:1036E00000400041042370B51C4A1D4DD1690400FF
:1036F0000B43D3612023FF332B831A4B98470300DE
:103700000520002B28D0C0221E21237892001B0206
:103710001340A27852000A40802113436278C90204
:10372000D2011343E27892040A40C0211343227964
:10373000890212040A40082113436B60AB680A4AED
:103740005B035B0F99401180AB6853806378137102
:10375000288BC005C00F000170BDC04600040040AA
:1037600000400041D5360000C8020020F7B5244AC9
:10377000019153881188019A4B430400934207D268
:103780008022019B1F4992015B18182093420FD899
:1037900080231D4DDB026F682E003B436B602023AE
:1037A000FF332B83194B9847002802D16F600530F7
:1037B000FEBD062C14D8052C1BD2022C01D0042CE3
:1037C00014D1019B9B085B00F361A5231B021C43E2
:1037D00034800E4B98470028FBD077600020E7E745
:1037E000402C03D3412CECD9452CEED9776017201F
:1037F000DEE72B8BDB05E4D56F601020D8E7C046F1
:10380000C802002000C07FFF00400041D536000004
:10381000F7B5214E00913388718815005943040093
:103820001822814226D3591E084223D1013AAB42C5
:1038300020D31A4FB847052200281BD0184B194A2D
:103840001A800193B8470028FCD02023019AFF3347
:103850001383002362085200681E9D420CD8002288
:103860003379934206D13F2D04D8210004200E4B1A
:10387000984702001000FEBD0099C95C834205DB39
:1038800089B2023311809BB20232E6E7009FFF1833
:103890007F783F023943F4E7C8020020D5360000A4
:1038A0000040004144A5FFFF6D37000070B5134A8A
:1038B00004001388528818205A43A2421CD39B004C
:1038C000013B1C4218D10E4DA84703000520002BD8
:1038D00012D020220B4BA408FF3264001A83DC6153
:1038E0001C00094A1A80A8470028FCD01C23208B02
:1038F0001840431E9841800070BDC046C802002099
:10390000D53600000040004102A5FFFF07B5802228
:1039100001AB1A700A785A704A789A708A7819003E
:10392000DA70014B984707BD99460000F0B5C54CC9
:1039300085B027683E683378DB0900D1CEE0338C50
:10394000002B00D1D7E1308CBF4B80B298470300E9
:103950000500032008335B01F618F679F6B206423B
:1039600031D0BA4A944601226146AA40096891437F
:103970000A0061460A6001213A68D218D0717A19AA
:10398000AE3212780A421ED0B14A68011570396809
:10399000595CB04B8907890F1B18012900D085E0BD
:1039A00059688904890C518059680901890C9180F2
:1039B0005A68920B92035A60AB1C1B01FB185B68A0
:1039C000A3493800984704210E420DD00123AB4093
:1039D0009E4A1068984310602A009A4B08321B6870
:1039E00052011B689B18D971082216421DD0012371
:1039F000AB4096490868984308602068AB18016896
:103A00005B01CB18DA714319AE331B789B070CD5D9
:103A1000904B6A019B181F22DB898D4913404B7024
:103A20002B01C3180D709B6A9847102216421FD0B5
:103A30000123AB408549086898432B000860206843
:103A4000083301685B01CB18DA714319AE331B7878
:103A50005B070DD57E4A7F4B69015B1815705B686B
:103A600000211B019B0C53802B01C318DB6A984774
:103A70002022164200D1B5E10123AB40734908680A
:103A800098432B0008602068083301685B01CB185D
:103A9000DA714319AE331B781B0700D4A2E16C49DD
:103AA0000D702D0145192B6B98479BE15968090151
:103AB000890C88B20190518059688904890C9180E1
:103AC000596808006449084058600199002900D0ED
:103AD00072E75B689B049B0C53806DE7358CAAB240
:103AE0000192002A2AD1AB235B00FA5A023BFB5A0F
:103AF0008027B68B1340B6B23340019D02937F00FE
:103B0000564B6A00D35A334202D02268126893831C
:103B1000029A13420ED05249062D04D14D4B1B89F7
:103B20001B093B400B602B0022682E339B009B58E7
:103B3000100098470135072DE2D153E13D0059357A
:103B4000FF35019A01211A41DCB20A4200D1CCE0D2
:103B50001A00083251017118C81D0390C879297ADA
:103B60000292C0B22A7801401140602210421AD05D
:103B70005A01B6184022FF36307A10420DD0327208
:103B8000C03A1443374A94716022114200D129E1AE
:103B90001B01FB18E0331B683FE02022307A104203
:103BA000F2D03272EEE71022104218D01021039AA0
:103BB00011701021FA186132FF3212780A4200D1D6
:103BC00010E1244A5901521852681B01FB18920453
:103BD0002449DC33920C1B680A80380064E7032216
:103BE000104241D002205A01B618FF36357A0542FC
:103BF00015D0802530726D421A482C438471154CC3
:103C0000A218103252689204920C42808A0700D1A6
:103C1000E8E00D331B01FB185B681249DDE7012565
:103C2000307A2842F2D00F4835728471094CA418BA
:103C300062689204920C028062681201920C828087
:103C4000E4E7C046D0020020E1480000E002002086
:103C5000E402002084030020FF3F00F0444B0000FA
:103C6000D4020020D80200200C2210423DD00820AF
:103C70005D017619FF36327A02421ED0307202267A
:103C800059484019857E354202D0857EB5438576F8
:103C90008020404204435548029A8471386852019A
:103CA0008218D279920700D59CE00C22114200D1F3
:103CB00098E01B01FB18D8336DE70420327A0242EA
:103CC000F3D03072022648484019857A354202D036
:103CD000857AB54385724548029A847138685201E5
:103CE0008218D279D207E0D57CE001330135082B68
:103CF00000D026E776E00423B58BADB21D4208D094
:103D0000B3833B00A5331B78DB0702D57B68380003
:103D1000984708231D420CD00021354A20681160C5
:103D2000026893830300A5331B789B0701D5836842
:103D3000984740231D4209D02068026893830300FE
:103D4000A5331B78DB0601D54369984720231D4224
:103D500009D02068026893830300A5331B781B07F2
:103D600001D50369984710231D4209D020680268D5
:103D700093830300A5331B785B0701D5C36898477D
:103D800080231D420CD00021194A2068116002686E
:103D900093830300A5331B789B0601D5836998475D
:103DA00080235B001D420CD00021114A2068116065
:103DB000026893830300A5331B785B0601D5C369B2
:103DC000984780239B001D420CD00021084A2068A0
:103DD0001160026893830300A5331B787F2B01D900
:103DE000036A984705B0F0BD84030020D802002084
:103DF000E0020020F7B50026012701AC4B4D210061
:103E0000132026706770A670A84721001020A847CD
:103E100021001120A84721001220A84721001420CA
:103E200026706670A770A84721001520A8472100BA
:103E3000182026706770A770A84721001920A8478E
:103E400002232100362063702670A770A847210046
:103E50002220A84721003720A84721002320A84777
:103E600021002A20A8472100032026706770A67031
:103E7000A84721001F20A847210002202670667055
:103E8000A770A84721002B2026706670A770A8474E
:103E900002232100042063702670A770A847210028
:103EA0000520A84721000620A84721000720A84791
:103EB00021000820A84721000920A84721000A2046
:103EC000A84721000B20A8470223210017202670B5
:103ED000A7706370A847022321000E20637026702C
:103EE000A770A84721000F20A84721000C20A84751
:103EF00021000D20A84721002920A84721001620D5
:103F0000A84721002820A8478022094B12052770C6
:103F10006670A6705A61802252055A6121001B20EA
:103F2000A84721001C20A847F7BDC0460D39000056
:103F300000440041094B196800290BD1EFF31080B0
:103F4000074A002805D172B6BFF35F8F0549087094
:103F5000012111701A6801321A607047EC020020CA
:103F6000F002002009000020084B1A68013A1A608C
:103F70001B68002B09D1064B1B78002B05D00122B2
:103F8000044B1A70BFF35F8F62B67047EC020020DB
:103F9000F00200200900002010230249CA681A42DA
:103FA000FCD07047000800400222F8B50026094DF9
:103FB000094C2B68094F13432B60A284B847AB68A8
:103FC000E3626B68A362A684B8472B6830009BB29B
:103FD000A384F8BDF402002000080040993F0000CF
:103FE00070B5082806D800F0E5FB0805052E2E124E
:103FF0000B1526000024200070BD154B1C69FAE744
:10400000144B154C1B6A9B059B0FDC40F3E7104BD0
:104010005C69F0E70E4D00242B689B07EBD50F4B36
:1040200098472B685B0711D520000D4B9847AC686B
:10403000A4B24443DFE70B4B00241B785B07DAD5BF
:10404000034BDC68D7E780242402D4E7064CD2E790
:10405000F40200200008004000127A00993F00009E
:10406000E145000050080040006CDC0270B5847827
:1040700002784578012040260540204080240849E8
:10408000AD010B6AC001B3432B43A3430343032099
:10409000024004481202034013430B6270BDC04645
:1040A00000080040FFFCFFFFF0B5224B4278077884
:1040B00085B09C469B8A03927A425741427B847822
:1040C000C57806790192027B0292817B1A4A806848
:1040D0005061B80004270122BB4318430823154050
:1040E000BD4016409843F6000643DB189E43354317
:1040F00010339D432B004020144064012343029C55
:1041000083431440A401234380240198A343104017
:10411000C00103430720039C11402040074C0002CC
:104120002340074A03431A40634609030A439A821D
:1041300005B0F0BD00080040F4020020FFF8FFFFCA
:10414000FFEFFFFF10B5027A438992069B059B0D96
:10415000120C1A43174B5A60C179827984880A433A
:10416000418821430A4341780478C9010A431A600F
:10417000042C0DD1027B018A92060A43C1890E48A4
:10418000090401400A439A601A6814431C6010BD78
:10419000202CFCD1027B018A92060A43C189064881
:1041A000090401400A439A601968044A0A431A60E4
:1041B000EDE7C046F40200200000FF0324040000E5
:1041C00010B5082806D800F0F5FA1405050C0E1AEB
:1041D00007202300172010BD0223104A116A0B4349
:1041E00013620020F7E702230C4A91690B439361A5
:1041F000F7E70223094A118A0B431382F1E70223EE
:10420000064A918A0B439382EBE7054B9847E2E716
:104210000223044A11780B431370E2E700080040C0
:10422000A93F000044080040C2231E22F0B54E4DB5
:10423000DB004E49AB604B68002693431A00022313
:1042400013434B6003238FB009AC2370F0B22100FD
:10425000474B01369847252EF8D1802205A8002328
:104260001202826001220370C37083734373233E82
:10427000404B0271467082700273984705203E4B96
:104280009847EB683342FCD08023AA8A1343AB8261
:104290003F22002362816380A380A371E371637076
:1042A0003B3A364B22701B689B0E3F2B00D1203BC4
:1042B0002372334B002623820723012723733833CD
:1042C000E38120002F4B984701A82F4B4670877041
:1042D00006709847284B062098472C4B9847052393
:1042E00002AC210023703800294B6760667026728B
:1042F000667298473800274B984705232370202380
:10430000210063600220224B667066722772984714
:104310000220204B984721003000154B277098470A
:1043200030001D4B98471D4B9847D022EB68134037
:10433000D02BFBD1AA8C503B1343AB840025184BE8
:1043400021001D725D729D72DD7201236360063370
:10435000237028000E4B65702572657298472800FF
:104360000C4B98470FB0F0BD0008004000400041E2
:10437000C5450000A9400000C14100002460800044
:10438000DC050000454100006D400000B143000025
:10439000D1430000754400003D450000A93F0000E6
:1043A00000040040014B5878C0097047000C0040E1
:1043B0000823054A91690B4393610123034A137053
:1043C00011781942FCD1704700040040000C0040F5
:1043D000F8B50C784B782402060005000443002B46
:1043E00002D08023DB021C434B7A002B02D08023B7
:1043F0001B031C434B68012B12D95D1E1D4002227A
:10440000002D06D01D02802335439B0207E00135B5
:1044100052009A42FBD380232D0235435B031C4399
:104420000B7A002B02D080239B031C430C4FB84710
:104430000028FBD10B4B98470B4B1E70B847002848
:10444000FCD10A4B9D601D00B8470028FCD180229A
:104450006B68520213401C436C60054B9847F8BDD3
:10446000A5430000353F0000080C0040000C004050
:10447000693F000070B50500094CA0470028FBD13A
:10448000084B9847084B1D70A0470028FCD180239B
:10449000064A5B0251680B435360054B984770BD59
:1044A000A5430000353F0000040C0040000C004014
:1044B000693F0000F7B50700184EB0470028FBD150
:1044C000174B9847174B1F700193B0470028FCD13A
:1044D000154D164B6868C004C00E98470400019B38
:1044E0001F706B68DB02DB0F0193114B1F70B0472D
:1044F0000028FCD1AD680F4B9847019B2D022D0C75
:10450000002B08D1012D04D9200029000A4B98471F
:1045100004002000FEBD0135EC40FAE7A543000091
:10452000353F0000040C0040000C0040E13F00005B
:10453000080C0040693F0000C947000010B50400A6
:10454000064B9847064B074A1C7080235188DB01B5
:104550000B435380044B984710BDC046353F0000C5
:10456000020C0040000C0040693F000010B5040040
:104570000E4B98470E4B0F4A1C700F4B0F4C588830
:1045800059880005114059805988000F21405980F1
:1045900011008022D2015C881442FCD15A880002AA
:1045A0000A4002435A80064B984710BD353F000031
:1045B000020C0040FFF0FFFF000C0040FFBFFFFFB8
:1045C000693F000010B50C78034B24020443984760
:1045D000024BA4B25C8010BD6D450000000C004091
:1045E00010B50400064B9847064B1C70064B5C88C0
:1045F000064B2405240F98472000054B984710BD13
:10460000353F0000020C0040000C0040693F0000F4
:10461000B5440000D37830B5002B35D11478802C08
:1046200003D0802324065B02234302255478AC4345
:1046300006D19478002C24D18024A4022343416025
:104640005478013C012C01D8124C2340A0248DB297
:10465000E4052C431C438462D0240D0C24062C4317
:104660001C438462D478002C0AD15B0303D5937871
:10467000012B0CD181615378013B012B00D8816063
:1046800030BDC024E402D9E741600023DEE7416188
:10469000F1E7C046FFFFFBFF10B503000A00440925
:1046A000C1090020814202D10449E00140181F21C4
:1046B0000B401E399940024B984710BD0044004101
:1046C000154600007047000010B5054B9847054B94
:1046D0009847054B9847054B9847054B984710BDA1
:1046E00029420000F53D0000C54600008D24000071
:1046F000C5460000FEE700002148224970B5884207
:1047000004D00023204CCA18A24232D300211F4BF0
:104710001F4A934231D3FF211E4B1F4A8B439360A4
:1047200002220C25082430261C4B1D485A62C378EF
:10473000FC398B431343C370C378AB432343C3702B
:10474000184B987BB0430600202030439873987B29
:10475000A84304439C73987B884302439A73802345
:10476000114A51680B435360104B9847104B9847C0
:10477000FEE7C55804331560C5E702C3C9E7C04664
:10478000744B0000000000200C0000200C000020F2
:10479000840400200000000000ED00E0FC700041F7
:1047A0000050004100480041004000412149000004
:1047B000C91F000002B4714649084900095C49005C
:1047C0008E4402BC7047C046002243088B4274D31B
:1047D00003098B425FD3030A8B4244D3030B8B4202
:1047E00028D3030C8B420DD3FF22090212BA030C0B
:1047F0008B4202D31212090265D0030B8B4219D3EC
:1048000000E0090AC30B8B4201D3CB03C01A52410B
:10481000830B8B4201D38B03C01A5241430B8B4253
:1048200001D34B03C01A5241030B8B4201D30B033C
:10483000C01A5241C30A8B4201D3CB02C01A524163
:10484000830A8B4201D38B02C01A5241430A8B4226
:1048500001D34B02C01A5241030A8B4201D30B020F
:10486000C01A5241CDD2C3098B4201D3CB01C01A29
:10487000524183098B4201D38B01C01A5241430933
:104880008B4201D34B01C01A524103098B4201D321
:104890000B01C01A5241C3088B4201D3CB00C01A8E
:1048A000524183088B4201D38B00C01A5241430806
:1048B0008B4201D34B00C01A5241411A00D201462B
:1048C000524110467047FFE701B5002000F006F89E
:1048D00002BDC0460029F7D076E770477047C04652
:1048E000414208401C2101231B04984201D3000CC3
:1048F00010391B0A984201D3000A08391B09984253
:1049000001D30009043902A2105C401A7047C04666
:104910001B1C1D1D1E1E1E1E1F1F1F1F1F1F1F1FB6
:1049200070B500260C4D0D4C641BA410A64209D195
:10493000002600F00FF90A4D0A4C641BA410A64291
:1049400005D170BDB300EB5898470136EEE7B300D0
:10495000EB5898470136F2E7604B0000604B0000CF
:10496000604B0000644B000003008218934200D1AA
:10497000704719700133F9E7000000000A000000D9
:104980000C0000000D0000000F00000014000000EB
:104990001A0000001E000000230000002800000094
:1049A0002D00000034000000370000003C00000033
:1049B00046000000500000000A00000064000000F3
:1049C000E8030000102700000000000000000000C5
:1049D00000000000000000000A0000000C000000C1
:1049E0000D0000000F00000014000000190000007E
:1049F0001E00000023000000280000002D00000021
:104A000032000000370000003C00000046000000BB
:104A100050000000222A2B2C3A3B3C3D3E3F5B5D80
:104A20007C7F0073645F696D6167652E62696E00EB
:104A30004E564D206D6F64756C6520696E697420EB
:104A40006661696C65642E0A0046696C65206F704A
:104A5000656E206661696C65642E0A0046696C6546
:104A60002065786365656473206D61782073697A69
:104A700065206F662025642062797465732E0A00B4
:104A800046696C652072656164206572726F722080
:104A900061667465722025642062797465730A000A
:104AA0004E564D20657261736520726F7720657276
:104AB000726F720A004E564D2077726974652062DB
:104AC0007566666572206572726F720A00546F6F48
:104AD000206D616E792062797465730A00556E618C
:104AE000626C6520746F2064656C6574652066690E
:104AF0006C652E0A00424F44206D6F64756C652012
:104B0000696E6974206661696C65642E0A00455897
:104B100054494E54206D6F64756C6520696E6974DC
:104B2000206661696C65642E0A000000000800427E
:104B3000000C004200100042001400420018004225
:104B4000001C004204000800700080000100000109
:104B500000020000F8B5C046F8BC08BC9E4670478D
:104B6000DD000000F8B5C046F8BC08BC9E467047A2
:044B7000B50000008C
:0C4B7400401F00000800000012010000BB
:04000003000046F9BA
:00000001FF
