:10800000A8320020ED220100E9220100E92201004E
:108010000000000000000000000000000000000060
:10802000000000000000000000000000E922010044
:108030000000000000000000E9220100E922010028
:10804000E9220100CD9F0000E9220100FDF60000B9
:10805000A9F30000E922010091F20000591B010080
:10806000E9220100BDF90000CDF90000DDF90000B2
:10807000EDF90000FDF900000DFA00008188000014
:1080800091880000A1880000E9220100E922010096
:10809000E92201000000000000000000E9220100C8
:1080A000E9220100E9220100E9220100E9220100A0
:1080B0000000000010B5064C2378002B07D1054BBB
:1080C000002B02D0044800E000BF0123237010BD44
:1080D000D003002000000000D06C0100084B10B558
:1080E000002B03D00749084800E000BF0748036899
:1080F000002B00D110BD064B002BFBD09847F9E7B1
:1081000000000000D4030020D06C0100D06C0100FE
:108110000000000010B50E4B04009847012815D050
:10812000002808D0022801D0012010BD0022094BF0
:108130001A550220F9E7074B1B5D002BF9D1064BBE
:10814000200098478307F4D00020EEE70320ECE7F7
:10815000ADA50000EC03002035AA000010B50020FA
:10816000014B984710BDC0461581000070B5054B06
:108170000D0004009847400001382860024B2000A1
:10818000984770BD71AA00001581000010B501006C
:10819000014B0020984710BD6D81000010B50020F4
:1081A000014B984710BDC046ADAA000010B50D4B5D
:1081B000140001229847002804D002384342584155
:1081C000013010BD084B0121200098470300012019
:1081D000002BF6D1054B00209847431E9841C0B2B2
:1081E000EFE7C046B1AA000049AB000071AB000048
:1081F00010B50A00024B01000020984710BDC04690
:10820000AD81000010B50D4B1400012298470028E5
:1082100004D0023843425841013010BD084B0121BF
:108220002000984703000120002BF6D1054B0020C9
:108230009847431E9841C0B2EFE7C046E5AB000047
:1082400069AC000091AC000010B50A00024B0100BF
:108250000020984710BDC04605820000084B984298
:1082600009D0084B984208D0074B9C4660444342D3
:108270005841400070470020FCE70120FAE7C04663
:10828000002000420024004200D8FFBD534B994219
:1082900006D0534B994203D0524B994200D19AE0F9
:1082A000514A002342602C2203608372C37203731D
:1082B00043720372C3610362436283620375437551
:1082C0008375C37503764376037443748374C374F0
:1082D0008354013283540132835401328354013276
:1082E0008354013283540132835401328354013266
:1082F0008354013283540132835401328354013256
:108300008354013283540132835401328354013245
:108310008354013283540132835401328354013235
:108320008354013283540132835401328354013225
:108330008354013283540132835401210132835426
:108340000132835401328354013283540132835405
:1083500001328354013283540132835401328354F5
:1083600001328354013283540132835401328354E5
:1083700001328354013283540132835401328354D5
:108380004132835401328365836783540132C3656C
:10839000C36783541A3A036683501B328354173AD7
:1083A0004366835018328354143A836683501532DF
:1083B0008354113AC3668350123283540E3A0367D2
:1083C00083500F3283540B3A436783500C328154ED
:1083D000013283547047054A63E7C04600200042DB
:1083E0000024004200280042FFFFFF00FFFF0000C2
:1083F000F0B54546DE4657464E46E0B5C44B8FB015
:108400000C001500994200D1FBE0C24B994200D10B
:10841000FBE0C14B8026994200D1FAE000237600B0
:10842000BE490A6A32430A6221681C22890707D5BD
:1084300010000FB03CBC90469946A246AB46F0BD3A
:108440002168C907F4D4B64A990056582A6896425A
:1084500001D21722ECE76A689642FAD31C229446AE
:10846000AC4462462F009C4604922C3713689E420F
:10847000EFD30432BA42F9D198266346B446AC44ED
:108480006646059600266746B446A64EB146664641
:1084900094461A003B78002B03D04B469B5CB342BA
:1084A000D7DD01360137082EF4D1130080279E4E08
:1084B0007F04F65C624602960026B8469C4601960A
:1084C000AF193F7C012F00D1A6E00136042EF7D171
:1084D0009D36AE5D6346002E04D08026019F360196
:1084E000374301972E7A771EBE41B60003966E7A07
:1084F000012E00D107E12E7B0696EE7A08930796AF
:10850000002637000991537A9A46029B9A45A0D2D9
:1085100016780F2E9DD8537836061B049B46F02301
:108520001B051E405B46334396789B46731E9E4157
:10853000F301D6789946731E9E41F300167998464A
:10854000731E9E4133019C4603235679C0211E4071
:108550005B4633439B4660239679890076011E4033
:108560005B461E43D3791B020B40E0211E43137A66
:10857000C9011B030B401E43C021534609019B0246
:108580000B401E434B461E4343461E436346082191
:108590001E430AAB5B18DE5104370A32082FB2D1F2
:1085A000089B604A0127D25C2E00924641229446E5
:1085B00000220999AC44BB465036674688469C4623
:1085C000130014E0924500D843E78021490291400E
:1085D0000B433978002905D0022900D18EE0594695
:1085E00091400B43013201360237082A1ED0317800
:1085F0000029E7D139780029F4D09245ECD8172228
:1086000016E78026002376000AE780260123B600BD
:1086100006E7F600022303E7029BB34200DA18E7FD
:108620004746B740019B3B4301934EE730266A7EA5
:108630004146120116402A7E984663469446072218
:1086400067463A401643B34680267602B446002277
:108650005E46AF183F7D002F06D0029F974200DC98
:10866000F7E6674697403E430132042AF1D1B3460C
:108670003426B446844400266746021D40C2BA42EE
:10868000FCD12A4A46635050A02286630460A95C4C
:10869000643A8154AA7A0AA90A70254AD65C254B05
:1086A00030009847244B300098475346002B48D061
:1086B0005823994653469833EB18089301239A465A
:1086C0002300A9444C460BAE059F994604E0089B45
:1086D000013704349F4233D03B78002BF7D0534608
:1086E000B3700023F3702033E3181B7820783370C5
:1086F000534631007370114B9847E8E70221FF3170
:1087000091400B436EE7039F37430397F3E6C04660
:1087100000200042002400420028004200040040E3
:10872000D4530100E0530100CC530100B80B0020EA
:10873000D0530100C50601003D060100C507010038
:108740004C46069B079A1B0312021343019A1343DC
:1087500004222360A3681A42FCD1FF230422237160
:10876000A3681A42FCD16B461B7B184A63710C9BB1
:10877000E3600D9B23614346A361A3681342FCD1D0
:108780005B461022E363A3681A42FCD12B68104AAF
:108790006363A3681342FCD16B6800212364029BCE
:1087A000002B10D00B48049D02008A40A3681A4297
:1087B000FCD10B00103304CD9B00E3185A60029BE0
:1087C00001319942F0DB002232E6C046400002004F
:1087D0008000040000010800920083185960034BD8
:1087E000D358426B1343436300207047E4530100A6
:1087F00070B50B4B040000680D0098471F22094B11
:10880000AD001B5C1A4001239340074A1360074BDD
:10881000EA58A36B1343A36323689A6270BDC046F2
:108820005D8200001454010000E100E0E453010007
:10883000F0B5C64600B5104B8000C75804243B680D
:108840007A6BDE6ABB6B012513401E400B4B9846CA
:1088500005E0231D342B0CD0424615591C0035422F
:10886000F7D03B59380098473B68DD62231D342B15
:10887000F2D104BC9046F0BDB80B0020E4530100D7
:1088800010B50020014B984710BDC046318800004C
:1088900010B50120014B984710BDC046318800003B
:1088A00010B50220014B984710BDC046318800002A
:1088B000F0B5C646412500B50400435D01200343E1
:1088C0000020635592B200232056114FB84701266D
:1088D000635D002818DB1E4212D0E36E022B0FD915
:1088E0000C4B0D4F98464126012502E0E36E022B0A
:1088F00006D90020C047606DB847A35D1D42F5D181
:10890000002004BC9046F0BDB3436355F9E7C04670
:10891000C5E00000A9C40000E199000050230380D5
:10892000002383704360C3600133FF330361AE3BB8
:10893000024A4361024B028183617047204E00006E
:10894000DC55010070B504000D0000282CD0002972
:108950002AD00B69002B27D04B68002B24D04B6901
:10896000512B21D9E8220021184B98472000184BA1
:108970001C22290050309847E36D002B17D02B891B
:10898000002B05D10023D8220020E366A35070BD40
:108990006868002322000F490F4DA847A0640028F3
:1089A000F0DA1C204042F2E716204042EFE7286947
:1089B0000A4B9847E065002805D041220421A35CBA
:1089C0000B43A354DBE70C204042E0E7873C010067
:1089D000513C0100F98A000059990000293C01002E
:1089E000002802D0C1640020704716204042FBE7F7
:1089F000C023F0B5C35885B004000F00002B02D08F
:108A0000C42280589847200018220021B030164E0A
:108A1000B047E36E002B21D1002300252000E35650
:108A2000124A9B009D5000216C226C30B047200000
:108A300010220021D830B047D8234122FC21E5661E
:108A4000E550A35C01970B40A354E36C002B03D0CB
:108A500001AAF8392000984705B0F0BD0020044B6A
:108A600020569847D8E7C046873C0100F003002015
:108A7000BDE10000F0B54746CE461B4C80462600BF
:108A8000894680B5194F85B01C362568002D07D062
:108A9000691C4046B847002802D1EB6E012B07D075
:108AA0000434B442F1D105B00CBC90469946F0BDF7
:108AB0004B46002B05D17621280049420C4B9847A4
:108AC000F1E76A46022313804E33EB5A00201A0264
:108AD0001B0A13436A4653804B46019328561022C3
:108AE0006946044B9847DEE7F0030020ED400100A3
:108AF000F189000051E0000010B5002A04D03E21A9
:108B000010004942014B984710BDC046F189000052
:108B1000F0B54546DE4657464E461C23E0B50400F8
:108B200093B002AF1022C649F818C64B9847694661
:108B3000626EE846D31DDB08DB00CB1A9D4641235D
:108B4000E15C403B02AD0B4027D1E16E03292DD003
:108B5000042922D1CC26A259002A00DAD0E012D072
:108B60002100B031CB689946002B0CD0D0239A4617
:108B7000E3589A4200DD0DE1C023E358002B02D0F8
:108B8000C422A05898470223E366E36C002B04D06C
:108B900010220121BA1820009847C546BD4611B0E1
:108BA0003CBC90469946A246AB46F0BDCC212C2059
:108BB0006350043163503818A34B00942900A34E2E
:108BC000B047C823E35C012B00D109E1022B00D19F
:108BD00013E1032B00D117E1042B00D11BE1052B7E
:108BE00000D11FE1062B00D123E1994E70239A4654
:108BF000984BA2445046994698472C230200514670
:108C0000F818B0472C230B22F8189349B0472C23AF
:108C10000C229249F818B047A36E18009A46C8472C
:108C20002C2302005146F818B0478D4B0222190040
:108C30009A462C23F818B0472C2306228949F818A5
:108C4000B047631C18009B46C8472C2302005946B6
:108C5000F818B0472C230222F8185146B0472C23AD
:108C60001822F8188049B0472C231322F8187F499E
:108C7000B0472C231722F8187D49B0472300B033A2
:108C8000DA68002A24D0B022A25C9346002A00D0E1
:108C90009CE09A68002A1BD058699047CC23E0508A
:108CA000002863DB02007349734B381D98472C235F
:108CB0001022F8187149B047381DC8472C2302000C
:108CC000391DF818B0472C2302225146F818B04736
:108CD000D423E3589B46002B06D01800C8472C230A
:108CE00002005946F818B0472C230222F8185146C2
:108CF000B0472C23F818624B98470423E36629E712
:108D00002000B030C668002E00D13CE7D023626E50
:108D1000E358073A691D4069B047C34306000A2279
:108D20000D21DB171E40AB192A71E97059719A7138
:108D30000F231A000F31791832408A5CA91CAA70DF
:108D40000F2E16DC0020CA1C521B331DD21892B203
:108D5000205600234B4DA847002848DBD022A358BB
:108D60009B19A350002E00D106E716E75A46E250A1
:108D7000AEE71C21321179181A408A5C691C6A70AE
:108D8000FF2EDFDD321213401C22BA18D35C2900FB
:108D90002B70D7E74869626E2900C847002826DB98
:108DA0005346A659E358F61A864200DD0600002015
:108DB0002900B2B220560023324DA847002816DB06
:108DC000D023E25894466644E650E6E60122CC23DE
:108DD0005242E250A03B1D322B49F818B04777E7CA
:108DE0002B3304222949F818194EB047FEE6052115
:108DF00020004942264B9847CFE62A3305222549D1
:108E0000F818134EB047F1E6293307222249F81823
:108E10000F4EB047EAE6283304222049F8180C4EDA
:108E2000B047E3E6273308221D49F818084EB0473B
:108E3000DCE62C2305221B49F818054EB047D5E681
:108E4000C4540100513C0100B188000009980000A1
:108E5000459800004B410100385501004455010080
:108E600030580100545501005C550100785501004F
:108E70008C550100C4550100A9400100C8550100EE
:108E800069980000C5E00000A455010004550100E8
:108E9000F18900000C550100145501001C5501001A
:108EA0002455010030550100F0B54E464546DE46DA
:108EB0005746E0B587B005000C000092994600289F
:108EC00000D104E1C36E022B00D904E18A4B0722D2
:108ED0008A49200098469847002878D00822884977
:108EE0002000C047002800D1D1E0002300260193D4
:108EF000844B6F1C38009B469847A619020031002E
:108F00003800C047337882468046002B00D1DCE031
:108F10002F2B00D1D9E0019A0132A418002202E0DF
:108F200001342F2B05D00132AB5423782600002BBF
:108F3000F6D10023AA1853706B78002B00D1C6E03D
:108F40003000D8473F2800D9C9E0D423E85800288A
:108F500001D06D4B9847109B002B00D193E0180077
:108F60006A4B9847D423E850002800D1BFE0412243
:108F70000121AB5C8B43AB5400236B6433782F2B04
:108F800000D19CE070232F22EA543378002B00D0CC
:108F900085E04B461822002B00D18AE02800494684
:108FA000B0305B4B98476A46C8231278EA54EB6EA0
:108FB000012B10D0002B15D0022B6CD15346002B67
:108FC0000CD10333EB662800524B984737E0072358
:108FD000072601938CE75346002B30D00021280050
:108FE0004D4B98475223EA5C0121531E9A410220BF
:108FF000D2B24A4B98472870002800DA73E0484BF9
:109000008000C55039000024202030260A78002A2C
:1090100021D013008343413B0131052B17D93A2A54
:1090200015D02F2A13D02E2A2AD03240302AEDD044
:1090300038003C4B98470123EB6600239846404696
:1090400007B03CBC90469946A246AB46F0BD0A78B4
:109050000124002ADDD1022302AA13804E33EB5AE9
:1090600038001A021B0A134302AA53802E4B98475A
:10907000039000201022285602A92C4B9847DAE7CB
:10908000002CC3D0D4E7D423109AEA506FE708230A
:10909000082601932CE70B235B429846CFE7280074
:1090A000234B3100713098474B461822002B00D0DB
:1090B00074E7280000211F4BB030984773E7280061
:1090C00031001B4B7030984763E7002231E71623CD
:1090D0005B429846B3E710235B429846AFE75B23B9
:1090E0005B429846ABE71C235B429846A7E70C23FC
:1090F0005B429846A3E7C04659410100E85501008C
:10910000F05501004B4101003D3C010011410100BF
:10911000513C0100118B0000F189000029DF0000A3
:10912000F0030020A5E200004DE2000051E0000045
:1091300001410100873C010010B500280DD0416CB1
:10914000026E91420AD2C36D00789C46521A92B2C6
:10915000614440B20023044CA04710BD8B21034B57
:1091600049429847F9E7C04641E10000F189000013
:10917000F0B557464E464546DE46E0B5436CC46DF5
:109180009946794B85B09846070041462000774BB9
:109190009847A246764E051E43D053464B4498420C
:1091A0003FD2022241462000B047002800D1A4E06F
:1091B000102270492000B047002869D013226E4960
:1091C0002000B04700283AD122001332954221D91D
:1091D000E37C202B11D020229343432B17D08621F0
:1091E000834649423800654B9847584605B03CBC19
:1091F00090469946A246AB46F0BD0132954209D051
:109200001378202BF9D020229343432BE7D1213A26
:109210008933FA50AC1C41462000544B9847051E38
:10922000BBD14B461D1B5544002D62DD544B2A001B
:1092300021005046984700237D649B46D5E70C22C9
:1092400050492000B04700282ED122000C32954210
:10925000E0D9237B202B0AD0202293434B2B10D024
:1092600041220221BB5CAC1C8B43BB54D3E70132CF
:109270009542CFD01378202BF9D0202293434B2B4B
:10928000EED102212132BB5CAC1C0B43BB54C2E7C4
:1092900020003D4B10309847DC23F850FB6DAC1C90
:1092A0009A467B6C9946B6E7052238492000B047BC
:1092B00083460028AED12000334B09309847E42381
:1092C0005A46F852083BFA5063794122312B09D9AA
:1092D0000221BB5C0B43BB54FB6DAC1C9A467B6C00
:1092E000994698E7E379302BF2D80221BB5C8B4397
:1092F000F1E700237B649B4677E74B46A11C5C1A91
:109300005444002C22DD220050461D4B98477C64BB
:10931000FB6C002B14D0E422B95A002910D0083A73
:10932000B858002814DB3A6E904209DD01AA11807A
:1093300050600021E0209160395002313800984798
:10934000D8230122FA50D73B9B464EE77864DFE7EB
:1093500001AA11800121E020917000213950916013
:10936000380002319847EBE730580100C94101004D
:1093700059410100C8550100D8540100F18900008D
:10938000633C0100EC540100D53B0100FC5401009A
:10939000F0B5D6464F464646DC23C0B5C35884B028
:1093A0000400C56D002B00DA71E0026E934228DCE8
:1093B000426C0026934247DCC76C002F0AD0E4229F
:1093C000815A002906D001AA1180967053609560D9
:1093D0000221B8470023D822A3500C32A352A33A4B
:1093E000A25C920749D5DC22A158626C6918E06D35
:1093F000561A8619002E47DD3200814B9847666465
:1094000022E0416CE020225801918A1802952250F6
:10941000934220DD00236A461373E36C002B00D1D6
:10942000ECE001AA0321200098476B461B7B012B2F
:109430001CD0616CE06D6918451B002D23DD0026F2
:109440002A006F4B98476564300004B01CBC9046FE
:109450009946A246F0BD0023D822A3500C32A35255
:109460006A4601331373E36C002BDAD14123E35CCA
:109470009B07DED46348644B984700212000634B70
:1094800098470026E0E7002363640026DCE7E0233A
:1094900098465B4B00279946466C4346E1580029A5
:1094A00027DB002957D1D823E1500C33E15201AA20
:1094B000E33B1372E36C01915160002B02D0033146
:1094C000200098474123E35C9B0700D48BE0636C4A
:1094D000A91C5B1A9A46E06D82445346002B7DDD41
:1094E000474B52469847534663644346E158002928
:1094F000D7DA00234246A350002E72DD2B780022DB
:109500000A2B0CD147E01201D2184346303AE25000
:10951000013E0135002E15D02B780A2B3BD0002FB1
:10952000F6D1190030390929EDD919006139052919
:1095300046D81201D2184346613A013EE250013545
:10954000002EE9D1236E934252DB0122E0235242E6
:10955000E250002678E7B14224DC002301AA13720E
:10956000E36C01915560002B04D003212000984743
:109570004346E1580231636C6918E06D5E1A861942
:10958000002E15DD3200C847012342465B42666467
:10959000E56DA35081E70135013E236E934227DB41
:1095A000002ED2D0636C002B00D076E700264BE76C
:1095B0000023012263645242E033E250002643E775
:1095C00019004139052905D81201D2184346413AFC
:1095D000E2509DE73B3B5F425F4199E700236364B4
:1095E000B7E70022D9E700212000084B9847B0E7F1
:1095F0008B2120004942054B9847AAE728001AE72B
:10960000633C0100D4540100053F0100F1890000D2
:10961000D82310B5C358002B06D0012B01D0002051
:1096200010BD034B9847FBE7024B9847F8E7C0464D
:10963000919300007191000070B5436C04009C464A
:10964000582361444164C35A002B05D1054D2000C5
:10965000A8470028FBD170BD816C034B406D984733
:10966000F4E7C04611960000D199000010B55D4B9B
:109670008000C45884B0002C05D006292DD00729BD
:1096800003D005290ED004B010BD0023D35E002BFB
:1096900037DB2000544B984741220121A35C8B43C8
:1096A000A354F0E70123D3560193002B31DBE36C85
:1096B000002B03D001AA0021200098470323E36672
:1096C0005533E25AA16C606D484B98472000484BD7
:1096D00098472000444B9847D5E70423D15E0029E2
:1096E00006DD2000434B98472000414B9847CAE7CE
:1096F0000B000E339BB20E2B23D83F4A9B00D3584E
:109700009F460E339BB20D2B0CD83C4A9B00D3587E
:109710009F461A000E32D2B20D2A5FD83849920005
:109720008A589746052149422000364B9847B3E7AF
:109730000C214942F8E70C2149422000314B98475F
:10974000D2E70029F9D005214942F6E779214942BB
:10975000F3E770214942E7E716214942E4E7162181
:109760004942EAE768214942E7E70B214942E4E739
:1097700010214942E1E779214942D5E76821494270
:10978000D2E70B214942CFE710214942CCE77021B3
:109790004942D2E702214942CFE70C214942200049
:1097A000184B98476FE702214942BDE7052149421E
:1097B000F5E716214942F2E779214942EFE77021A6
:1097C0004942ECE702214942E9E768214942E6E7DC
:1097D0000B214942E3E710214942E0E7002BE5DB9A
:1097E0000021DCE7F0030020118B0000A5990000A8
:1097F00039910000399600001854010054540100BA
:109800008C540100F1890000026000228360009BFB
:1098100001614260C360704770B54268036804002C
:109820000D009B1A002B04DD561C236966609D54B5
:1098300070BD0126002AF8D00169A368C068984766
:109840000022F2E7F8B506000C00002A08D0054F08
:109850008D180021300061560134B847A542F8D177
:10986000F8BDC0461998000010B542680400002AEF
:1098700005D00169A368C06898470023636010BDE4
:10988000024A1368013313607047C0460C0400207D
:10989000642343800023037043707047F0B5C646CD
:1098A00000B5ACB06A460D006E461C4B283092CB1A
:1098B00092C26B88170003642B7804009B00100091
:1098C0009959174B9847174B00209847164B6988B2
:1098D0001B7AD8408046FA20144B00029847144B5C
:1098E0000100404698470523FB722B7878609B0067
:1098F00099593A0020000F4B98476A780E49083270
:10990000D2B220000D4B9847697820000831C9B2C7
:109910000B4B98472CB004BC9046F0BDFC550100A1
:109920008D820000B505010000040040BD39010032
:10993000A9380100F183000081980000D987000058
:10994000F18700000221826A93681942FCD11368F2
:10995000194311607047C046F8B505780400E80760
:1099600006D5257DE80718D501256D422800F8BDEC
:1099700000250220AE007619B600A7197960A15D16
:109980008143A155BA60A16E1800054B984701228A
:10999000F860A35D1343A355E8E70125E9E7C04656
:1099A000A938010010B502248B00591889000B5CFE
:1099B00023430B544418044B816E10009847034B0B
:1099C0001B68C018206110BDA93801000C040020DC
:1099D00002228B00591889000B5C93430B5470478B
:1099E000F8B5224B45469846042357464E46DE4678
:1099F0009A460423E0B5002407009946051DA300FC
:109A00001A1992009B46D35DD90706D5990704D54C
:109A100041460868E968091A09D401341435022C52
:109A2000EDD13CBC90469946A246AB46F8BD4946AE
:109A30001942F2D151460B43D355AB68002B11D1DB
:109A40000221D35D8B43D355AB686A682E68210031
:109A50003800B0475B464A461E19B600F35D934393
:109A6000F355DAE7C018E860EFE7C0460C040020C1
:109A700070B50B0A0C00FF2105000A0082B0200E11
:109A80000190200C0B40014022400091044E29001F
:109A90000448B04721002800034B984702B070BD2E
:109AA000E93D01000C590100758A000010B5014B19
:109AB000984710BD6D96000010B5144B82B01B780E
:109AC000DA0712D59A071CD55A0712D408241C406D
:109AD00013D10F4B0F4898470094002301220E49E1
:109AE0000E480F4CA04702B010BD094B0D489847D7
:109AF000F9E7074B0C489847F5E7054B0B489847A3
:109B0000F1E7034B0A489847EDE7C04610040020F0
:109B1000053F0100E8590100145A0100440C0020DF
:109B2000A98E00003C59010090590100BC59010068
:109B30006459010030B583B02C2813D032280FD1DE
:109B400008788B784A78C9781C4C009101001C4831
:109B5000A04702211B4A13780B4313701A4B9847F6
:109B600003B030BD0B78012B21D0002BF8D1174B5F
:109B70001748984702220825124C237893432370F4
:109B80001D420DD104221A4201D093432370FF23BA
:109B90000222009306210F4B0F4C1048A047DFE72D
:109BA0000F4B104898472378AB432370EAE7074BE5
:109BB0000D4898470D4B9847D2E7C046E93D010054
:109BC000DC5B010010040020B99A0000053F010091
:109BD000A85B0100C85B0100C9C60000D45B01009E
:109BE0009538010044060020885B0100E5C60000AE
:109BF000F0B5DE46454657464E46E0B5C7B0FB22B7
:109C00000021534B07A8984709220021504B04A874
:109C1000984700234F4D00224F4928004F4F039390
:109C2000B8474F4B04002800984698470120002C65
:109C30004FD14C4B4848994698470600FA2847D8D8
:109C40002E214548484B9847041E07D0C8476A460E
:109C50001080138882469946072B41D9434BF62240
:109C60003D4907A89A4698470022F723F721F62690
:109C7000009214242D2202A80019825507AA9146A9
:109C80003B4A0333934607AA944663448944133CF2
:109C900001930DE0002207A92800B847060028001C
:109CA000C047002E39D1FA2301349B009C420FD0CB
:109CB0002200304903A8D847032203A94846D047C9
:109CC000009B002BE6D004A901982B4B9847E1E7B5
:109CD000002047B03CBC90469946A246AB46F0BD3A
:109CE000421C264B210004A8984753461B041B0C1A
:109CF000F61AF62E1CD94B46F626F61AB6B21B4BB0
:109D00003200154907A89A4698474A46F7239B1AF6
:109D100001229BB219000092ABE7FA2200210C4B02
:109D20000D48984707A90C48134B98470120D0E7E6
:109D3000094B07A8E41A26041900360C0B4B320015
:109D40009A46984701220134A3B21900009290E785
:109D5000873C01004406002000000020E933010098
:109D6000953801004B410100A54101007B410100F4
:109D7000A94001000459010001410100513C0100CA
:109D8000F0B54746CE4680B5384D83B02B78804637
:109D90000F001B075BD43023354E364C33700A332B
:109DA000737000E00400601E03782F2BFAD1324B51
:109DB0009847012851D92100304BB01C9847304BAF
:109DC0009847304B31003048994698472F4C0A222B
:109DD000310020002E4B984700283AD108222D4B05
:109DE00018602B7813432B7001AB3A0041462000DA
:109DF000294E0197B04700280ED0284B20009847E5
:109E000020222B78264813432B70264B984703B00B
:109E10000CBC90469946F0BD019A1E4E944633689C
:109E2000214F6344190033603A68164B1F48984726
:109E300032683B689A42EAD3184B20009847194B86
:109E40001B48984710222B7813432B70DFE70F4CE9
:109E5000CAE701001748C847D9E7124B1648984788
:109E600020222B7813432B70D1E7C046100400202A
:109E700000000020445A01004B4101000141010053
:109E8000F19B0000E93D0100485A01004406002012
:109E9000E93301006C0800206535010095380100A8
:109EA000E45A0100053F010068080020205B010022
:109EB000545B0100B05A0100705A010070B51400E3
:109EC000042913D8324B89005B589F4650681168AB
:109ED00000283BD0002939D02E4B9847237A002BFD
:109EE00004D010212C4A13780B43137070BD2B4BF8
:109EF00011682B48984723680B33F7D10825264C67
:109F000023781D4238D104221A4201D09343237092
:109F1000244B9847EAE7244B2448984704211E4ADB
:109F200013780B431370E1E71F4B21489847DDE797
:109F300011881A4B52681F4898472388C82B09D0AC
:109F40002021154A13780B431370CFE7164B1A489C
:109F50009847C3E70022194B61681960184B1A60D3
:109F60008023DB009942C1D8A06800280BD00029CB
:109F700009D0084B9847B4E7124B13489847237809
:109F8000AB432370BFE7084B0B489847A9E7C0468F
:109F900008560100819D000010040020E93D0100E9
:109FA000DC560100B99A0000053F0100545601003B
:109FB0001C56010080560100BC56010068080020B4
:109FC0006C08002095380100440600208022054BD3
:109FD000D2009968114203D09A60BFF34F8F30BF0F
:109FE0007047C04600080040F0B5DE4657464E4672
:109FF0004546E0B5914B8BB09847914B984700236D
:10A0000003AC9A4623801023002701252371F033E7
:10A010006380D83B637121008A4B0020A571E771F2
:10A0200098470221884B894E5A6B88460A435A63E7
:10A030008022D2005A60864B91461960854BA0223F
:10A040009B463360FA23DB00F380E380E381062341
:10A050002374434602A912010B7027726772A7721C
:10A06000E7722573657304207B4B22803571A770DE
:10A07000E770257198470420784B9847220059468D
:10A080003000774B98473000764B98472000764B4E
:10A0900098474346E3720323039353466360734B2D
:10A0A000210003209846A572657225729847704E6C
:10A0B00000210320B0471F230393534621000B20A8
:10A0C0006360C04700210B20B0476A4B1F705F7070
:10A0D0009F70DF701D71684B9847684B9847684BBD
:10A0E0001D70BFF35F8F62B6FA20664B4000984642
:10A0F00098476548654DA847654E2000654B377009
:10A100009847654F21003800644B98473800644BEE
:10A1100098472000634B98474B462361624B2100D0
:10A1200018009946614B67609847011E7CDB6049C7
:10A130004846604B9847604B9847604B9B46604B46
:10A140009A46604B99460020D847012835D0002810
:10A15000F9D15D48A8475D4B8C2299460021180033
:10A1600092005B4B9847494600205A4B98470B2872
:10A170005ED05948A8470123327813433370574BB8
:10A180009946574B98475748A847574B01219C463B
:10A1900001E0002807DA624663461B6A106A0A007B
:10A1A000DB089A43F5D0514B20000393504B98475E
:10A1B000011E0BD04F48C847FEE75046A8474E48FF
:10A1C000A8470020C8470228FBD1BCE74B4B984763
:10A1D0004B4B4C494C4898474C4C4D482100C84784
:10A1E000FF230222009306214A4B20004A4CA0473D
:10A1F00030234A4932788A4649491C0089461A4226
:10A2000006D10020D0473800C84733781C42F8D028
:10A210004448A8476420C047BFF34F8F424A434B8E
:10A22000DA60BFF34F8FFEE741482C4B9847FEE7BB
:10A230002A4B0B213F4899469847A2E7F9070100AE
:10A24000F9B3000021F2000000080040C40B002018
:10A2500000E100E000140040C50601003D060100D9
:10A2600069F600000DF500005DF4000071F40000D7
:10A2700061F30000540E0020D1F10000C1F1000094
:10A28000F901002039B400000C570100053F01001E
:10A290001004002091980000D80B00209D98000029
:10A2A000459900001D890000440C002045890000EC
:10A2B000BD9E0000E18900008DA500001581000011
:10A2C00088570100ADA50000E057010014040020EC
:10A2D000873C0100C133010034580100E93D010011
:10A2E000CDB400005858010000440041359B0000E7
:10A2F00071C3000080580100B0570100D5DE000096
:10A3000015DF0000719A0000AD9A0000D45B0100D7
:10A31000AC580100C85B0100C9C60000A9C4000018
:10A32000E1990000D05801000400FA0500ED00E0BA
:10A330004057010004580100F0B5C6460026012729
:10A3400000B582B001AC4D4D21001320267067701E
:10A35000A670A84721001020A84721001120A84777
:10A3600021001220A8472100142026706670A770D3
:10A37000A84721001520A8472100182026706770E3
:10A38000A770A84721001920A8470223984621005A
:10A39000362063702670A770A84721002220A847A6
:10A3A00021003720A84721002320A84721002A2088
:10A3B000A8472100032026706770A670A8472100D7
:10A3C0001F20A8472100022026706670A770A847AA
:10A3D00021002B2026706670A770A84743462100F5
:10A3E000042063702670A770A84721000520A847A5
:10A3F00021000620A84721000720A84721000820A7
:10A40000A84721000920A84721000A20A8472100C9
:10A410000B20A84743462100172063702670A770C1
:10A42000A847434621000E2063702670A770A847F6
:10A4300021000F20A84721000C20A84721000D2053
:10A44000A84721002920A84721001620A84721005D
:10A450002820A84780220A4B120527706670A67034
:10A460005A61802252055A6121001B20A847210011
:10A470001C20A84702B004BC9046F0BDE9F40000DF
:10A480000044004110B5064B0648196800788B7FE0
:10A49000054C5A1E93414A7BDBB20968A04710BDA8
:10A4A0007008002098080020D5AF0000F0B5C6461F
:10A4B0000B4B00B50B4C0C4E9846FF2705E0C047F0
:10A4C000074208D0013C002C04D000210748B047C7
:10A4D000051EF4D10025280004BC9046F0BDC046FE
:10A4E0002DB20000410D030015B200000D1B00004D
:10A4F00010B50E4B440119198A7A033A012A0CD976
:10A500001C190B4B0B4A1C600B4B10709847A07A20
:10A51000023843425841C0B210BD02228A72074A33
:10A520001A5101224A7300228A77E9E77408002051
:10A53000700800209808002085A40000801A0600FA
:10A5400030B50D4C83B0236810221989012309040A
:10A5500000930A480A4DA847002802D1002003B002
:10A5600030BD206801210E30064B98470028F5D0F9
:10A57000054B9847F3E7C046700800200911080012
:10A5800089B00000B1B2000041B30000042210B550
:10A59000034B9A72034BFB321A70034B984710BD62
:10A5A0007408002098080020D9AE0000F0B5CE460F
:10A5B000474680B5050087B00424002809D0964B93
:10A5C0001B78002B21D0200007B00CBC9046994688
:10A5D000F0BD0020914B984704000128EFD1904F27
:10A5E0003B68D8721D731D818E4B984788200021CF
:10A5F00040018D4EB04700280BD103223B68032455
:10A600009A72854B1B78002BDDD10020874B984731
:10A61000D9E7D5235B00190085489846B047002844
:10A620001BD13B68DA7AD30721D409231340012BCD
:10A630000DD180217F488900B0470028DDD03B68DC
:10A64000DB7ADB0703D57C4B98470028D5D07B4BC2
:10A65000984700223B689A72B1E7794B9847431CB0
:10A66000DFD00005000D01254045C6D1D9E76B1E9E
:10A670009D41AB079846724B724D99460BE041469F
:10A680007148B04700280BD0C847C30700D4F3E097
:10A69000013D002D04D000216C48B0470028EED1C8
:10A6A000022388203A680021D3724001B047002875
:10A6B000A3D0634B634D98460123994602E0013DC8
:10A6C000002D9AD000216248B047002895D0C0479D
:10A6D0004B460342F3D100215E48B04700288CD09E
:10A6E000C047C023DB0518408023DB05984204D116
:10A6F00008233A68D17A0B43D37200215648B047F9
:10A70000002800D179E7554B9847002800D174E71D
:10A710003A68937B9B061B0F022B00D148E100D8BF
:10A7200054E1032B00D14EE1042B00D03DE1402346
:10A7300013730F210725537C8846D80808402B4007
:10A7400047499B005B5880009C46FA2361469B006A
:10A750004B4344494058117D43431360537D907DE2
:10A760009B00890280110B4303433F481B051B0DCF
:10A7700083420ED0107E0133C111D07D40000843CA
:10A780002840023041468340D07C01408B409B0AE8
:10A790005360137B3F2B36D9002180220091012387
:10A7A00092003248324DA847002800D125E73223D5
:10A7B0009846304D03A8A847002800D11DE743461E
:10A7C000013B9BB29846002BF4D139688A7D4B7DC2
:10A7D000097D9B00890292110B431343224A1B05FA
:10A7E0001B0D934200D1FAE03223984604AB994600
:10A7F0004846A847002800D1FFE6434601339BB2F4
:10A800009846802BF4D180210A488900B04700285F
:10A8100000D1F2E617E7C04698080020F1A4000036
:10A820007008002051B0000015B2000029B00000EF
:10A830000855000010110000ADA4000085A4000020
:10A840002DB20000EF1B000029110000371100009D
:10A85000011100003A0500003B11000041A5000075
:10A86000445C0100045C0100FF0F000008110800B7
:10A8700089B0000039B2000000216448B0470028C8
:10A8800000D10DE7C847430004D508233A68D17AC0
:10A890000B43D37200215E48B047002800D1ACE6DC
:10A8A0003B68DB7ADA077AD55A4B9847002800D103
:10A8B000A3E60F2107203B6888465A7CD5080D4047
:10A8C0000240554992005258AD009446FA22614622
:10A8D00092004A4351496D586A431A609A7B920923
:10A8E0004ED15A7D197D9D7D89029200AD110A439A
:10A8F0002A431D7E1205E911DD7D120D6D000D4309
:10A9000028400230013241468240D87C01408A40D2
:10A91000920A5A60198942480904B047002800D1B8
:10A920006BE601230822009300213E483E4DA847D4
:10A93000002800D161E604AD012128003B4B984777
:10A94000002800D159E63A4B9847002800D154E638
:10A950000F222B781340012B31D0002B2BD0022B50
:10A9600029D1AB78DB09012B35D020233A6813734A
:10A9700009223B68DB7A1A40012A00D061E658E6DA
:10A980009A7D597D120209040A43802189008C4670
:10A99000D87D02439202520862445A60BAE7092203
:10A9A0001340012B00D052E643E612231373C0E696
:10A9B00022231373BDE610233A681373D8E71A23D2
:10A9C0003A681373D4E730231373B2E6012BECD14A
:10A9D00014231373ADE63A682F331373C8E70423C7
:10A9E000984604AB99464846A847002800D104E69B
:10A9F0004346013B9BB29846002BF4D1049B3A6836
:10AA00005B08536036239846F2E6C0463A050000DC
:10AA10003B11000041A50000445C0100605C0100A6
:10AA2000371100003311080089B00000B1B20000F6
:10AA300041B3000010B5002801D0002010BD002057
:10AA4000074B98470028F8D1064B1B78002B03D002
:10AA5000054B1B68D87AF1E7044B9847F8E7C046E6
:10AA6000F1A40000980800207008002029B0000020
:10AA700010B5002801D0002010BD0020074B9847DA
:10AA80000028F8D1064B1B78002B03D0054B1B6820
:10AA90005868F1E7044B9847F8E7C046F1A4000076
:10AAA000980800207008002029B00000002070479E
:10AAB00070B50E0082B015000424002802D02000DA
:10AAC00002B070BD164B9847041EF8D1154B98473D
:10AAD000002817D0012D20D91348144B1B68DB7AAE
:10AAE0001B0700D4760201238022009331002B0043
:10AAF00092000F4EB047002804D00E4B1D800E4B25
:10AB00001D80DCE70D4B1B78002B01D00524D6E718
:10AB100000200B4B98470524D1E70A48DDE7C046E3
:10AB2000F1A40000ADA40000121110007008002074
:10AB300089B00000940800209608002098080020A2
:10AB400029B000001111080010B5074B0C00984700
:10AB5000002803D1054B1880053010BD034A0020A2
:10AB600013881C1B1480F8E7B1B200009408002081
:10AB700010B5154B040098470523002801D1180093
:10AB800010BD002C13D1114B1B88002B0DD1104B85
:10AB90001B88012B05D000210E480F4CA047002830
:10ABA0000ED00E4B1B78002B05D00023E7E70022C8
:10ABB000064B1A80EBE70A4B002098470023DEE79C
:10ABC00000210448A047ECE741B3000094080020AE
:10ABD000960800200C31000015B2000098080020F3
:10ABE00029B0000070B50E0082B0150004240028C2
:10ABF00002D0200002B070BD124B9847041EF8D15D
:10AC0000012D1DD91048114B1B68DB7A1B0700D49E
:10AC1000760201238022009331002B0092000C4E1B
:10AC2000B047002807D10B4B05241B78002BE0D13F
:10AC3000094B9847DDE7094B1D80094B1D80D8E77C
:10AC40000848E0E7F1A40000199110007008002006
:10AC500089B000009808002029B000009408002066
:10AC6000960800201891080010B5074B0C00984773
:10AC7000002803D1054B1880053010BD034A002081
:10AC800013881C1B1480F8E745B3000094080020CB
:10AC900010B50E4B040098470523002801D1180079
:10ACA00010BD002C09D10A4B1B88002B03D1094B86
:10ACB0001B78002B05D00023F1E70022044B1A80FB
:10ACC000F5E7054B002098470023E8E7D5B30000DF
:10ACD000940800209808002029B0000030B583B007
:10ACE0006B46991DFF230C4D012228000B4C0B7065
:10ACF000A0470B4B1B88012B08D06B46D91DFC23AA
:10AD00000B7001222800A04703B030BD6B46D91D4F
:10AD1000FE230B70F5E7C0469C0800206DFE000086
:10AD2000E0080020F0B583B06B46DD1DFF23114F16
:10AD3000114E0122290038002B70B047FF23012259
:10AD400029003800B047FF23012229003800B0470E
:10AD50000A4C07E0FF23012229003800013CB047DC
:10AD6000002C05D02B78FF2BF4D1012003B0F0BDCF
:10AD70000020FBE79C080020C9FC0000400D0300F8
:10AD8000F0B5C64600B582B06B46DD1D00232B70C2
:10AD9000124B134C9846134F0F2604E0FE2B16D08F
:10ADA000013C002C15D0FF23012229004046B84762
:10ADB0002B781A00B243F1D107321A4200D10B228C
:10ADC0000020094B1A7002B004BC9046F0BD01206F
:10ADD000F9E70422044B00201A70F4E79C080020D5
:10ADE00020A10700C9FC0000DF08002030B583B0B7
:10ADF0006B46991D0123164D5B420B8002222800F1
:10AE0000144B98476B465C1D0122FF23280021004C
:10AE1000114DA847112322781340012B05D00122A0
:10AE200000200E4B1A7003B030BD1E231A40042AB6
:10AE30000BD00A2A04D1094B023A1A700020F2E71B
:10AE40000A22064B00201A70EDE70120EBE7C0460E
:10AE50009C0800206DFE0000C9FC0000DF080020F7
:10AE600070B5154B82B01C88012C23D0134B198868
:10AE7000134B1868134B9847030001209C4201D9DB
:10AE800002B070BD6B46DC1DFF230F4E0122210076
:10AE90000E4D30002370A847FD2301222100300011
:10AEA0002370A8470A4B98470028E9D10522094B8F
:10AEB0001A70E5E70120E3E7E0080020D808002049
:10AEC000E8080020A93801009C0800206DFE000061
:10AED00025AD0000DF08002000232D4AF0B51370D7
:10AEE0002422012591B002ACA3540393049323744C
:10AEF00063742375183A0021264B08A82570A574A1
:10AF0000E574984780239B02E360234B234FA362A1
:10AF1000234B2200E362234B23492363234B380056
:10AF20006363234BA361234B98473E68224B300059
:10AF300098471F2318408540204B1D603B68DC6903
:10AF4000002CFCD102220125336801A913431C4ABD
:10AF5000336010781B4B1C4E5C709C701870307006
:10AF60001A4B7470B4704D708C700D7098473178B6
:10AF70004B09CA0909D11F320A409540144ADB0126
:10AF8000944663449D6111B0F0BDA461FFDEC046EC
:10AF9000DF080020873C0100020010009C08002010
:10AFA0000200110002001200000C00420200130017
:10AFB000801A0600D1FA00008DF9000000E100E0DF
:10AFC000FC000020EC080020DC080020E9F4000070
:10AFD000004400410022F8B50D4B07001A700D4BDC
:10AFE0000C00994200D91C000B4D0C4E01E0E30807
:10AFF000E41A21002800B0471728F8D07900CF19AB
:10B0000007492800C9190122064B9847F8BDC046D8
:10B01000DF08002000093D009C0800201DFA000008
:10B02000DC08002099FD0000002210B54100044B0F
:10B03000081804491A700918034B0448984710BDB2
:10B04000DF080020DC08002099FD00009C0800209B
:10B05000F0B583B06B46DD1DFF2300220A242B7060
:10B06000064B074F074E1A70013C01222900380099
:10B07000E4B2B047002CF7D103B0F0BDDF080020E8
:10B080009C0800206DFE0000F0B54E464546DE46A9
:10B090005746E0B585B099466B4683460800991D32
:10B0A000FF230B70524B90469A4600235246137072
:10B0B0005B463F221A40402302AC1A43030E6370E2
:10B0C000030CA370030AE3700026002309252270F5
:10B0D0002071082005E001385200C0B2D2B2002829
:10B0E0000DD05B00DBB21F0057403F06F3D501389F
:10B0F0006B405200C0B2DBB2D2B20028F1D10136AF
:10B10000052E01D0A25DE4E701223A4E5B00134315
:10B11000394D012230006371A8472100062230001A
:10B12000A8476B46DC1DFF23012221003000334F6E
:10B1300023700725B847FF23012221003000B847BC
:10B1400023785AB2002A0EDA013DEDB2002DF2D179
:10B15000022352460020137005B03CBC904699462D
:10B16000A246AB46F0BD264C23601A0718D45A07F6
:10B170001BD40122934336D15B469B041AD45B4611
:10B180009B0528D45B465B051CD442461D4B012021
:10B190001A804A461C4B1A8000221C4B1A60DBE7BF
:10B1A0000623524600201370D6E70923524600209A
:10B1B0001370D1E7164B98470028E0D1032352467D
:10B1C0001370C9E7FF23042221003000B847236829
:10B1D0001BBA2360D9E70023012223602100FF333B
:10B1E0003000B847CEE7534600201A70B4E7C04697
:10B1F000DF0800209C0800206DFE0000C9FC000054
:10B20000E4080020D8080020E0080020E80800201A
:10B2100025AD0000002310B582B000930022024C3F
:10B22000A04702B010BDC04689B00000014B1868AD
:10B230007047C046E4080020F0B5C646002200B5BD
:10B24000144B154C154D84B001901A702988144E7A
:10B250002068B047002903D1124B984700280FD02F
:10B26000114B01A998460422FF2340460F4FB847CF
:10B2700023682988181D2060B047002904D00120C8
:10B2800004B004BC9046F0BDFF23022203A940464F
:10B29000B847F4E7DF080020E8080020D8080020BD
:10B2A000B539010081AD00009C080020C9FC0000F8
:10B2B000F0B5D6464F4646460022C0B5194B4C1E47
:10B2C00082B082461A70A4B2002929D0164B0025FC
:10B2D0009946164B164F9846164E18E043461A8864
:10B2E000534638005919FF23B047134A43461168A3
:10B2F0001B888C46ED186344136001A9FF230222CA
:10B300003800B047013C0D4BA4B29C4208D0C8475E
:10B310000028E3D102B01CBC90469946A246F0BD7D
:10B320000120F7E7DF08002081AD0000D8080020E9
:10B330009C080020C9FC0000E8080020FFFF000076
:10B34000012070471B4BF0B5D6469A464F464646FD
:10B3500000235246C0B51370174B81460D000024E0
:10B360009846164E164F002D13D0C0474B463288D4
:10B3700019193800134B9847134A33881168E41899
:10B380008C4663441360114B9847002802D0012D6E
:10B3900005D101201CBC90469946A246F0BD0C4B3D
:10B3A0009847013DADB20028DDD105235246137008
:10B3B000F0E7C046DF080020DDAC0000D808002020
:10B3C0009C0800206DFE0000E8080020EDAD0000A4
:10B3D00025AD000010B5054B9847002803D1052284
:10B3E000034B1A7010BD034B9847FBE725AD0000D7
:10B3F000DF08002061AE000070B5094B00209847BF
:10B40000FA21084C89000500A047074B074918603E
:10B410002800A0470522064B1860064B1A6070BD35
:10B42000B5050100A93801000001002040420F00CD
:10B430000401002010E000E0802130B50025084B19
:10B44000084A1C684902013808D3002CFBD054601C
:10B45000956013680B42FCD00138F6D230BDC0466F
:10B460000001002010E000E010B5034B1B68002B2A
:10B4700000D0984710BDC046F00800208022114B34
:10B48000520570B55A618022642412050E4D5A612E
:10B490000120013CA847002CFAD18022094B52051B
:10B4A0009A6164340120013CA847002CFAD1802223
:10B4B000044B12059A6164340120013CA847002C1A
:10B4C000FAD170BD0044004139B4000070B50023CA
:10B4D000012582B001AC154A154E21001B201360D6
:10B4E000A37065702570B04721001C20B047210073
:10B4F0002820B04780220F4B52055A618022120546
:10B500005A610D4B1A68154202D01B689B0701D483
:10B510000A4B98470A4B984701220A4B1A70BFF30F
:10B520005F8F62B6002002B070BDC046F0080020F8
:10B53000E9F400000044004110E000E0F9B300002D
:10B540007DB40000F901002070B5441E002804D02D
:10B55000024D0120A847013CFBD270BD39B4000068
:10B5600010B50F4B84B001AC186020000D4B98470C
:10B570002923019300236360013323720133E372B3
:10B5800021000920084B984700220921074B084851
:10B5900098470021074B0920984704B010BDC046CA
:10B5A000F00800205DF4000071F4000039F30000A1
:10B5B00069B4000061F3000010B50021002803D138
:10B5C0000920034B984710BD024B09209847FAE722
:10B5D00085F3000061F300000E23F0B5304E8FB00C
:10B5E0000025337001246B4669465C709D701C70A9
:10B5F0000E202C4B7570B570984731784A09CB09ED
:10B6000048D120001F352940884001002648D2013A
:10B610008446624491616A461470C0229203039288
:10B620006A4669461374537413759474D47424224F
:10B6300001938B540293183A00211C4B06A898479B
:10B640001B4B1C4E0A931C4B6A460B931B4B1C490D
:10B650000C931C4B30000D931B4B06931B4B9847D0
:10B66000002819D137681A4B380098470540AC407C
:10B67000184B1C603268D369002BFCD102223B6856
:10B6800013433B60144B98470120144B984700200C
:10B690000FB0F0BDAD61FFDE06204042F8E7C046C6
:10B6A0002C0D0020E9F4000000440041873C01001B
:10B6B00002000C00300D002002000D0002000E0000
:10B6C0000010004202000F00001BB700D1FA00007A
:10B6D0008DF9000000E100E07DB4000049B50000F4
:10B6E000F0B5DE4657464E464546E0B585B00328E0
:10B6F00000D074E000220B684E68019302AB073360
:10B700000C891A70002E58D0002C65D0019A002A9E
:10B710005ED000239B4600239A46384B384D1900D3
:10B720009946384B01222800984698475046434294
:10B7300058418246584643425841012104228346DB
:10B74000019B18782B681F7E3942FCD01F7E39423E
:10B75000FCD09862187E0242FCD0A8791F7E3A4243
:10B76000FCD05F8B3A4207D05A839F6A1F7E3A42D1
:10B77000F4D05F8B3A42F7D19B6A01281AD0DBB232
:10B780003370019B013C5B44A4B256440193002CEE
:10B79000D6D1022229680B7E1A42FCD000224946EB
:10B7A0002800C047002005B03CBC90469946A24600
:10B7B000AB46F0BDDB05DB0DE2E7019A002A0BD0BA
:10B7C000002C09D000229346013292461E00A4E7C5
:10B7D0000122019393469EE70F204042E3E70E22A9
:10B7E0000949FF32094B0A4898470A4B0A489847CB
:10B7F0000D200A4B984701204042D4E72C0D002031
:10B80000300D002099FD0000A05C0100E93D010021
:10B81000B05C0100053F0100C45C01001D3E010059
:10B82000002370B5154E82B0356801AC2370A3704B
:10B8300063702800124B98471F2318401E3B80223C
:10B84000834010498B503268D369002BFCD102220F
:10B850008F332B752B762B68210093432B600C20A4
:10B86000094DA84721000F20A84721000D20A84717
:10B8700021000E20A847002002B070BD300D00202E
:10B880008DF9000000E100E0E9F4000010B5841833
:10B89000002A05D00B78013103700130A042F9D1A4
:10B8A00010BDC0468318002A03D0017001309842B1
:10B8B000FBD17047027803000020002A05D0013335
:10B8C0001A78013080B2002AF9D17047024AD37841
:10B8D0000133DBB2D37070476C0D00207047C04657
:10B8E000002200B50A4B83B09A700120094B98479B
:10B8F00001A90948094B9847002806D10221019B5C
:10B9000005481943064B0191984703B000BDC04656
:10B910006C0D0020B9B5000070100000A1CB000034
:10B92000ADCB000010B5094C6378002B02D1237811
:10B93000002B05D1002063780133DBB2637010BDAA
:10B94000034B98470028F5D0F9E7C0466C0D00205E
:10B95000A1C8000010B5094B5A78002A03D05A78C4
:10B96000013AD2B25A705A780020002A02D11B78CC
:10B97000002B00D110BD024B9847FBE76C0D002057
:10B980003DC80000F0B54E46DE4657464546E0B598
:10B990008BB0019314AB029204CB06AC1B88924689
:10B9A0009B4616AB1B8881461A0003937F230B40EE
:10B9B000637008232070638053460E00002B00D173
:10B9C00081E0944663885B4463449BB263806D4F1F
:10B9D000BB78002B2AD0002304AA951D4A46089361
:10B9E0002B800793079B36021A430792079B6648F2
:10B9F0001E4307966388079A1B0413430793634B00
:10BA00000799994698478046002821D07B78002BDB
:10BA100007D140460BB03CBC90469946A246AB4687
:10BA2000F0BD7B78013BDBB27B70F2E7584B984767
:10BA300080460028CFD0CB2256495200564B57485B
:10BA40009847574B57489847574B0D209847E0E782
:10BA500002220790079B5548134307930799C8474D
:10BA600080460028D2D1089028802A88504B9A42DC
:10BA700030D8504B98460EE001204F4B9847022695
:10BA8000079B1E4070D02B8801339BB22B802A88E5
:10BA9000474B9A421ED807A94448C047002819D1ED
:10BAA000F4232A88FF339A42E9D92A8801339A423B
:10BAB000E2D8394B41489847394B414898473A4B6F
:10BAC0000D209847D8E7019A6388944663449BB257
:10BAD00063807CE7089B002B4ED0089B21000993D4
:10BAE000638808229BB263800998364CA047804641
:10BAF000002800D08AE7099B08330993029B002B9A
:10BB00000CD0019D09982A001900A0478046002802
:10BB100000D07BE7AC46099B634409935346002B56
:10BB200010D00199039B099A5B1A9B1809930998F5
:10BB30005A465146A0478046002800D066E7099B38
:10BB40005B4409930222089B1F489B000793079BB5
:10BB5000134307930799C8478046002800D055E74C
:10BB60001A4B9847804654E708A91948C0478046B1
:10BB70000028AFD0089649E7144B984703235B424F
:10BB8000984646E76C0D00208C100000ADCB0000FD
:10BB900025B90000F85C0100E93D0100B05C01003E
:10BBA000053F0100FC5F01001D3E01007810000010
:10BBB000E7030000A1CB000049B50000E05F0100F1
:10BBC000EC5F01001DCC00006C10000055B90000B6
:10BBD00000041500F0B55746DE464E464546E0B532
:10BBE000B54B87B09A46DB78002B00D19DE0B34B74
:10BBF00004AE9946B24B9B4653465246DB78013B16
:10BC0000DBB2D37034E0039B0134234200D1D4E093
:10BC10000020D8470399AB48A143AB4B0391984709
:10BC2000002838D153469C70039B9F043F0D00D1E0
:10BC3000DBE0059005A9A548C847041E31D0C822FD
:10BC4000A34BFF32A3491800A34D9846A847A34829
:10BC5000A34B98470D20A34FB8470120D847A24ACD
:10BC6000A2494046A8472100A148A8470D20B8474F
:10BC700003A99448C847041EC5D0954B9D4A9549D1
:10BC80001800954D9846A847954B9B489847954F67
:10BC90000D20B847E3E78E4B040098468E4D914F38
:10BCA000DDE75346059A31005A6005989F600422EB
:10BCB000924B9847738804009BB2738000283CD154
:10BCC00073889F4203D07388FB1A042B5CDC3378A3
:10BCD000012B52D03378022B00D17FE03378042B34
:10BCE00000D193E03378062B00D196E03378072B10
:10BCF00000D1A9E03378052B00D095E053465B6A6C
:10BD0000002B09D053465B6A70787188059A083910
:10BD1000C0B2083289B2984753469B78002B16D19F
:10BD20005346DB78002B00D066E7002007B03CBC10
:10BD300090469946A246AB46F0BDD222644BFF32F4
:10BD400064491800644D9846A8476D4880E7604BE9
:10BD50006C4A18005F49604D9846A8473178727860
:10BD6000C9B2D2B26848A8470D205E4FB847674BAA
:10BD700098470028D4D0040071E75346DB68002BB5
:10BD800069D05346DB68BFE7ED220624504B5200D2
:10BD900050491800504D9846A847728833787178FA
:10BDA00092B2DBB200915A483900A8470D204D4F9E
:10BDB000B8470120D847644251E789220C24444BFC
:10BDC000920018004349444D9846A84703995148AA
:10BDD000A8470D20434FB847644240E753461B69CC
:10BDE000002B46D053461B698EE787220224384B2E
:10BDF000920038491800384D9846A847384B4648B5
:10BE000098470D20374FB847644228E753465B698F
:10BE1000002B37D053465B6976E753461B6A002BED
:10BE200039D053461B6A6FE70624294B3B4A294900
:10BE30001800294D9846A847294B394898470D20A6
:10BE4000284FB84764420AE753469B69002B2AD023
:10BE500053469B6958E7F3221D4B52001D491800B9
:10BE60001D4DA8472F481E4B98471E4F0D20B84721
:10BE700052E7F722164B520016491800164DA847F4
:10BE80002948F0E7FB22124B520012491800124DCC
:10BE9000A8472648E7E70E4B254A0E4918000E4DE5
:10BEA000A8472448DFE70A4B234A0A4918000A4DED
:10BEB000A8472248D7E7C0466C0D0020A1CB000060
:10BEC000B9B5000070100000ADCB00008410000078
:10BED000B05C0100045D0100E93D0100385D010036
:10BEE000053F01001D3E01004A0200000C5D0100FB
:10BEF000F85E01002D020000D45E0100B9CB000005
:10BF00005C5D010015020000785E0100E1B80000F0
:10BF1000745D0100B85E0100A45E01000F02000024
:10BF2000605E0100B45D0100D45D0100F85D0100B8
:10BF3000FF010000185E0100060200003C5E0100E7
:10BF4000F8B514001D0000281DD000291BD0002AC0
:10BF500019D01F4EB3689A422FD87368984217D3EE
:10BF600073688718B2689B189F4211D82200194B3A
:10BF7000984700280BD17368B2689B189F4204D081
:10BF8000002D02D103E0002D10D0134B9847F8BDCF
:10BF9000124A13491348144B98471448144B9847B6
:10BFA0000D20144B98470C204042F0E7124A0C49F0
:10BFB0000C480D4B98471148F0E7114A08490A4DC3
:10BFC0000848A847B26821000E48A847E8E7C046DD
:10BFD0006C0D0020B9CB0000E1B800007902000030
:10BFE0001C5D0100B05C0100E93D0100905F0100B3
:10BFF000053F01001D3E01006B020000285F0100AB
:10C0000073020000485F010070B5040007281FD8C4
:10C01000164A8300D3589F460020154B996170BD86
:10C02000134B0020D960FAE7114B00201961F6E7A5
:10C030000F4B0020D961F2E70D4B00205961EEE76C
:10C040000B4B00205962EAE7094B00201962E6E732
:10C05000084A0949094D0A48A84721000948A84744
:10C060000D20094B98470C204042D8E7D85C0100CE
:10C070006C0D0020B1020000285D0100E93D0100C7
:10C08000B05C0100D45F01001D3E010010B5282204
:10C0900000210648064B98470648074B9847074932
:10C0A0000320074B9847002010BDC0466C0D0020B0
:10C0B000A5B80000CDB8000061B50000DDB80000F3
:10C0C00009C0000030B504009DB015002C283FD0F9
:10C0D0001B284DD006285BD00E2827D0322827D029
:10C0E0002F2865D0342800D177E0112800D1A8E0AE
:10C0F000132800D1BEE0042800D1EAE0652800D171
:10C100008DE0092800D1F6E02A2800D105E1202899
:10C1100000D1C2E092228A4952008A4D8A48A8473B
:10C1200021008A48A8470D20894B98471DB030BD93
:10C130000023142203A92800864CA0470028F5D12B
:10C14000854B1B68002BF1D003A932309847EDE7EF
:10C150000023042203A928007E4CA0470028E5D133
:10C160007D4B1B68002BE1D003A92C309847DDE7FD
:10C170000023082203A92800764CA0470028D5D127
:10C18000754B1B68002BD1D003A91B309847CDE716
:10C190000123302203A928006E4CA0470028C5D1F6
:10C1A0006D4B1B68002BC1D003A906309847BDE733
:10C1B0006422002103A8694B98470023642203A945
:10C1C0002800644CA0470028B0D1634B1B68002BAB
:10C1D000ACD003A92F309847A8E70023042203A975
:10C1E00028005C4CA0470028A0D1564D5C48A847C9
:10C1F000FF20039C230A220C034002402040210E12
:10C2000000905848A847524B0D209847524B1B6846
:10C21000002B00D18AE700213420984786E70023CD
:10C22000042203A928004B4CA047002800D07DE73A
:10C23000494B1B68002B00D178E703A9653098476C
:10C2400074E70022484B03AC1A7028000023043224
:10C250002100404DA847002800D067E7434B2278D3
:10C260001A703D4B1B68002B00D15FE72100113095
:10C2700098475BE703AC280000232C222100354DB2
:10C28000A847002800D051E7334B1B68002B00D192
:10C290004CE721001330984748E70023082203A900
:10C2A00028002C4CA047002800D03FE76B46280010
:10C2B0001A8A083001230399A047002800D035E7E7
:10C2C000254B1B68002B00D130E703A9203098478D
:10C2D0002CE70023042203A928001E4CA0470028B5
:10C2E00000D023E71C4B1B68002B00D11EE703A9DD
:10C2F000043098471AE70123642203A92800154C4B
:10C30000A047002800D011E7134B1B68002B00D179
:10C310000CE703A90930984708E70123042203A981
:10C3200028000C4CA047002800D0FFE60A4B1B68F1
:10C33000002B00D1FAE603A92A309847F6E6C0465A
:10C3400018600100E93D0100B05C01006860010077
:10C350001D3E010041BF0000F4080020A5B8000008
:10C36000E05F010048600100F9080020F8080020A3
:10C37000F0B5C6460F23012200B58EB06B441A708B
:10C38000002862D00168324A180011600021314A49
:10C39000314B11709847041E04D020000EB004BC2D
:10C3A0009046F0BD00202D4B9847041E03D02C4B27
:10C3B00000209847F1E704AE2A492B4B012098470B
:10C3C0002A4B300098472A4B2A4D98460400180003
:10C3D000A847308CB3797279317900902648A84704
:10C3E000264F0D20B8474046A84726221A216A4406
:10C3F00069442348A8470D20B8474046A847737AA8
:10C40000327AF1791F48A8470D20B8474046A8471F
:10C410000223052213211C48A8470D20B847404697
:10C42000A8471A4A1A491B48A8470D20B8472300B5
:10C430000D33B2D1E8221849FF321848A847184BEB
:10C44000184898470D20B847A7E70C246442A4E792
:10C45000F4080020F908002049CD00008DC000003C
:10C4600025CE0000C5C0000009C0000081CC00003E
:10C47000E05F0100E93D0100246101001D3E010073
:10C480004C610100686101008C610100A461010040
:10C49000B0610100BC61010024600100B05C0100DA
:10C4A000053F0100D461010010B5014B984710BD54
:10C4B000D5BB0000F0B557464E464546DE46E0B5D2
:10C4C000A1B099462AAB1B88824698462BAB0C003C
:10C4D00016001F78012A05D04B46002B00D1BEE084
:10C4E000022A69D0631E1F2B00D9A1E04346013BFD
:10C4F0000D2B03D94346FF2B00D08AE05A205B4B1B
:10C500002200514668449A469847002305AD2C19ED
:10C5100046349B46237042464423EA527B1E9F4189
:10C520006723EF54263BEE54032E17D0022E64D01F
:10C53000042E3CD0012E00D073E000232A00029389
:10C540000193009328216C330120494CA04721B06E
:10C550003CBC90469946A246AB46F0BD4B461B7884
:10C56000013BDBB22B70032B69D84B465A78531E24
:10C570006B701100102399430B290DD03D493E4AA1
:10C580003E483F4CA04769783E48A0470D203E4BAF
:10C5900098470C204042DAE74B461620991C684425
:10C5A000D0474B465A465B78EB189A70C5E73E2257
:10C5B00049462800D047C0E74846344B98474028B2
:10C5C00090D148464A46403009E00A3906290BD93D
:10C5D000473B192B08D90132824200D182E71378F8
:10C5E000190030393629F0D9294A22492348244BE9
:10C5F00098472848284B9847C8E7244B484698470F
:10C60000431E9BB23F2B23D8421C49462800D047EB
:10C6100093E78D22174992001848194B98471F48F5
:10C62000E8E71F4A13491548154B98471D48E1E7AD
:10C630001D4A10491148124B98471C48DAE71C4A1A
:10C640000C490F4C0D48A04729781A48A0479DE790
:10C65000194A084909480A4B98471848CAE7184A2E
:10C6600004490648064B98471648C3E78DB80000B2
:10C6700085B900003460010052020000B05C010086
:10C68000E93D0100D86001001D3E0100B5B8000081
:10C690002102000090600100053F0100B060010030
:10C6A00071020000106101002B0200009C6001007B
:10C6B0004B020000BC60010061020000F460010058
:10C6C000150200007C60010030B5002583B006AC87
:10C6D000248801950094024CA04703B030BDC046A9
:10C6E000B5C4000000207047F0B580240025640028
:10C6F000094F0A4E83B00443A52021004001B847EA
:10C70000A52001A940010195B0470028F4D1019B63
:10C710009C42F1D103B0F0BDADCB0000A1CB000035
:10C72000002330B583B001A91048114C0193A047F4
:10C73000002801D003B030BD8021019B490019437E
:10C740000A480C4D0191A8470028F3D1D02001A937
:10C750004001A0470028EDD18021D020019B490253
:10C76000194340010191A847E4E7C04608140000BE
:10C77000A1CB0000ADCB000070B5264D82B02C6877
:10C78000002C02D0200002B070BD802029004001A2
:10C79000214EB047002802D000232B60F2E701A908
:10C7A0001E48B0470028F7D12B681D4A93420CD091
:10C7B0001C4A934212D01C4A93421AD01B4C23406D
:10C7C000A024E4021C432C60DCE7019B5C1E631E7A
:10C7D0009C41174B9C4664442C60D3E7019C032C7E
:10C7E00015D0043C631E9C41124B9C4664442C6053
:10C7F000C8E7EC2029008003B0470028CCD1A02452
:10C800002A680A4BE40213401C432C60BAE70A4C26
:10C810002C60B7E7FC080020A1CB0000F413000057
:10C82000A0021000B0021000F0001000FFFFF0FFA7
:10C83000A0021500B1021500B002150030B5164C6B
:10C8400083B0012502E0019B2B4206D001A91020F4
:10C85000A0470028F7D003B030BD01A90130A047A0
:10C860000028F8D1022301990B4206D099430120F8
:10C870000A4B019198470028EDD101A90B20A04750
:10C880000028E8D1012301990B42E4D099430B2001
:10C89000024B01919847DEE7A1CB0000ADCB000031
:10C8A000F0B5C646002300B582B069460B202B4D7B
:10C8B00000930193A847041E2BD1012300990B423A
:10C8C0002CD069460120A847041E22D102230099DA
:10C8D0000B422AD0224B05260427984601A90F2097
:10C8E000A847041E28D1019B3B4233D10220013EC0
:10C8F000C047002EF2D1AF221A4952001A4B1B48F2
:10C9000098471B4B1B48984704240D201A4B984707
:10C910006442200002B004BC9046F0BD19430B20D5
:10C92000164B9847041ECCD0F3E719430120134B54
:10C930009847041ECED0ECE7AA220B4D52000949BD
:10C940000A48A847019A21000D48A8470A4B0D2024
:10C950009847DEE70B4B9847DBE7C046A1CB0000CA
:10C9600049B50000F0610100E93D0100B05C010043
:10C97000053F0100386201001D3E0100ADCB000003
:10C980002062010089CB0000F8B50700294C2A4D30
:10C9900001E00120A8472948A0470028F9DA2848E3
:10C9A000A047C30707D4244E264D0120B047264890
:10C9B000A047A842F9D1022F28D0032F30D0234915
:10C9C0002348244C042F1ED0A0470025224B984713
:10C9D000224B0005000D984210D82800204B9847A4
:10C9E000204D2148A84719492048A847204B0D2031
:10C9F000984720491448A0470020F8BD0220184B52
:10CA000028439847ECE7A0478025DFE71A49114CF7
:10CA10001A48A04780210E484903A0470025D5E7C2
:10CA200015490C4C1548A04700210948A04700258E
:10CA3000CCE7C04695CB000049B5000014100000BB
:10CA4000BC0702009ED0AD100C000C005213521314
:10CA50008C100000ADCB000079C700009F030000E0
:10CA6000E9C60000E93D0100E05F010054620100F9
:10CA70001D3E0100612F52EF7DD51C3CAC0702002A
:10CA800070B5164B82B00093154B02380193012804
:10CA900017D9012400206442124E134D06E00220F3
:10CAA000B047013C0098A847002C0FD0019B98424A
:10CAB000F5D1019A0A4B00249A420AD0200002B014
:10CAC00070BD0A4B00930A4B0193E2E705246442D0
:10CAD000F4E70021074B01489847EFE78C1000006E
:10CAE0003626530249B5000095CB0000AC07020082
:10CAF000C3C15DD7ADCB00000023A02010B582B02C
:10CB0000019301A940010F4B9847041E18D1A020A2
:10CB1000019B0D49400119400C4B01919847041E9F
:10CB200002D1200002B010BD094A0A490A4B0B4845
:10CB300098470B4B0B4898470B4B0D209847F0E755
:10CB40000A4AF2E7A1CB0000FFFBFFFFADCB0000DC
:10CB50000B020000FC610100E93D0100B05C010036
:10CB6000053F0100086201001D3E010005020000B2
:10CB700010B5014B984710BDD9B5000010B5014B59
:10CB8000984710BD21B8000010B5014B984710BD63
:10CB9000F9D4000010B5014B984710BD65D60000D0
:10CBA00010B5014B984710BD79D6000010B5014B68
:10CBB000984710BD91D60000F0B546464F46D64680
:10CBC000C0B5144B07001D888846083DADB216005D
:10CBD0000400AA4216D9104B99462B1A9A4605E032
:10CBE0005346761B19196419AE420ED9E11B414414
:10CBF0002A002000C8470028F2D01CBC9046994665
:10CC0000A246F0BD044B00219946B2B24144200037
:10CC1000C847F2E708010020A9D60000F0B5464653
:10CC20004F46D646C0B5144B07001D888846083DC0
:10CC3000ADB216000400AA4216D9104B99462B1A21
:10CC40009A4605E05346761B19196419AE420ED96F
:10CC5000E11B41442A002000C8470028F2D01CBC38
:10CC600090469946A246F0BD044B00219946B2B2C7
:10CC700041442000C847F2E70801002009D800001D
:10CC8000002370B584B0040001930822002102A89B
:10CC9000264B9847002C3FD000212000244B28220F
:10CCA000984701A92348244B9847002835D101987B
:10CCB000002834D0C025AD022843082202A91F4E07
:10CCC000B047002829D16B4698890190002826D0CA
:10CCD000284328222100B04700281ED10F232179A4
:10CCE000A27909021A400A436179FF300901014023
:10CCF0000A43657AE1792B4009020B43217A090145
:10CD000008400343002A0AD0002B08D00C498B426C
:10CD100008D80C4B9A4205D9002004B070BD0C20F5
:10CD20004042FAE70D204042F7E7C046873C010049
:10CD3000A5B8000008000C00A1CB0000B9CB000092
:10CD40005213000051130000F8B500281ED00578DA
:10CD50006B1E032B1AD80020224B9847041E1BD1B0
:10CD6000214E2248B047224B984701002148B04746
:10CD70000D20214FB847214B98472800204B98475A
:10CD8000041E16D01F4B98472000F8BD0020154BFD
:10CD900098470125041EE3D028221B49FF32124B7D
:10CDA0001A4898471A4B1B489847134B0D20984731
:10CDB000EAE72800184B9847041EE3D1023D012DF5
:10CDC000E2D9164B9847051EDED056220E49FF3297
:10CDD0000E48B0470E4B124898470D20B8472C001C
:10CDE000D0E7C04671CB0000E93D0100E05F0100E3
:10CDF00079C70000246301001D3E010021D5000019
:10CE000089C900007DCB00006C620100B05C0100AC
:10CE1000053F01000863010081CA000021C700002E
:10CE2000E862010010B5174B9847041E19D1002085
:10CE3000154B9847041E07D1144B9847041E18D170
:10CE4000134B9847200010BD74221249FF3212483C
:10CE5000124B98471248134B9847134B0D20984795
:10CE6000F0E7B6220B4952000B480C4B98470F488D
:10CE7000F1E77A220749FF320748084B98470C48E8
:10CE8000E9E7C046F9CA0000E1E200007DCB0000FE
:10CE900055D6000078620100B05C0100E93D010058
:10CEA000A8620100053F01001D3E010088620100EB
:10CEB000CC62010070B586B00AAC25786C46207053
:10CEC0003F30C0B20E2800D98FE0494C8000205876
:10CED000874600236A46052553709370D370454BEF
:10CEE0001B78002B1DD0013DEDB26B460393002350
:10CEF00003A94B600320404B0D819847030001209C
:10CF0000002B0CD028223D49FF323D4B3D4898472D
:10CF10003D4B3E4898470D203D4B9847002006B0BA
:10CF200070BD6E1E34006A467F233A486C44117807
:10CF30005B004B400132C35C9442F8D16A465B000F
:10CF40009355D2E7FF23C5E768460A0C42700A0AE8
:10CF500082701A0C02711A0AC1704271837108251D
:10CF6000BDE768460B0C43700B0A8370130E037108
:10CF7000130C4371130AC1708371C2710925AEE7A6
:10CF80006A460B0C53700B0A9370D1700525A6E707
:10CF900068460A0C42700A0A82701A0AC17002714D
:10CFA000437107259BE70B0ADBB2002D02D08020DE
:10CFB0004042034368464370130EC370130C037161
:10CFC000130A817043718271082588E70B0ADBB26E
:10CFD000002D02D08022524213436A465370917052
:10CFE00000236A460525D37079E7002097E7C046FD
:10CFF0003463010000090020E1B6000078630100FD
:10D00000E93D0100B05C0100053F01000868010036
:10D010001D3E010004640100F0B54E46DE46574651
:10D020004546E0B585B08146030001ACCF283CD031
:10D030003B33DBB2012B38D96B46DE1C304B9846B4
:10D0400000239B4601330B259A465B4623605346DB
:10D050002100032066602381C047071E35D1337845
:10D060004B4503D0013DEDB2002DEED100239A4691
:10D0700001330B259946534623604B46210003207C
:10D0800066602381C04700282DD13378002B03D060
:10D09000013DEDB2002DEED10127380005B03CBCBA
:10D0A00090469946A246AB46F0BD002301936B46DD
:10D0B000DE1C01232381124B210003206660984669
:10D0C000984700270028BBD0E7E7B1220D4952005E
:10D0D0000D4B0E4898470E4B0E4898470D200E4BAF
:10D0E00098470027D9E7B82206495200064B07485F
:10D0F0009847074B07489847074B0D209847CCE7C0
:10D10000E1B6000090630100E93D0100B05C010060
:10D11000053F0100346801001D3E0100F0B54546A1
:10D1200057464E46DE460023E0B58BB0009304AB75
:10D13000DF1D464B884699460390029207AD802238
:10D1400043469201904501D9414B1B889BB2019304
:10D1500000239B4601330A249A465B462B605346C4
:10D16000290003206F602B81C847002841D13B78FC
:10D170001B090F2B17D0013C24B2631CEDD1060014
:10D18000344A3549354C3648A04739783548A047A8
:10D190000D20354B984730000BB03CBC904699466B
:10D1A000A246AB46F0BD0600002CE9D0009A039BD6
:10D1B000944663446B606B469B88290003202E6075
:10D1C0002B81C847002833D1029B002B03D1274B6A
:10D1D0001B78002B1AD00199009B8C4663441BB22C
:10D1E000009343465B1A9BB29846002BA7D10126B9
:10D1F000D1E71F4A18491A48184B98471D481E4B3B
:10D2000098470D20184B98470026C4E7029B290039
:10D210002B6006AB6B60022303202B81C8470028DC
:10D22000D9D0164A0C490E480C4B98471448E6E7EB
:10D23000C52209499200094B094898470E4B1148ED
:10D240009847094B0D209847A5E7C046E1B6000076
:10D25000706301000B0300009C630100E93D0100C5
:10D26000B05C01009C6801001D3E01000009002027
:10D27000FF02000068680100053F01001F03000075
:10D28000FC680100CC680100F0B54E46DE4657460A
:10D290004546E0B587B00600039130285ED8314B93
:10D2A0001B78DBB2049330220023B2425B410A2593
:10D2B000DBB20593059B039A009331000423049885
:10D2C000294CA0478046012835D0284B284A9B4648
:10D2D000284B59461800284C9A46A0473100274849
:10D2E000A047274B0D20994698470120254B98478A
:10D2F0000023002200210093CF201B4FB847224B70
:10D30000CF209847214A59465046A0472900039B01
:10D3100032001F48A0470D20C847013D0120194B8E
:10D320009847002DC6D1404607B03CBC9046994670
:10D33000A246AB46F0BD0498134B9847804601289F
:10D34000F1D00A4BE7229B460A4B5946920018003F
:10D35000094C9A46A04731000E48C1E70E4B1B7896
:10D360009FE7C04672630100B5CE0000BC630100B8
:10D3700096030000B05C0100E93D0100C8690100AE
:10D380001D3E010049B5000019D00000AF030000A8
:10D390002C6A0100F469010073630100F0B54E4688
:10D3A000DE4657464546E0B589B006000591FF28A0
:10D3B00068D83E4B1B78DBB20393FF220023B242B6
:10D3C0005B41DBB204930A252CE0394B394A9B467A
:10D3D000394B59461800394C9946A0473100384816
:10D3E000A047384B0D20984698470120364B984768
:10D3F0000023002200210093CF20344FB847344B44
:10D40000CF209847334A59464846A0472900320062
:10D410003148A0470D20C047013D01202A4B9847C5
:10D42000002D27D0049B0022009331000423039891
:10D43000264CA04782460128C7D10398244B984721
:10D44000824601280BD01A4B244A9B461A4B594658
:10D4500018001A4C9946A04731002148C0E7049AA9
:10D46000042107A81F4B9847824601280DD1059B30
:10D47000079A1A60504609B03CBC90469946A246AD
:10D48000AB46F0BD184B1B7895E7094B174A9B46F6
:10D49000094B59461800094C9946A047144B1548AA
:10D4A0009847084B0D20984698479EE77463010003
:10D4B000DC63010017040000B05C0100E93D0100DD
:10D4C000306901001D3E010049B50000B5CE0000E5
:10D4D00019D000003C040000B06901001D040000E8
:10D4E0005C6901001DD10000756301002404000087
:10D4F000053F010090690100002310B582B0009340
:10D5000000220021044CCF20A047044BCF20984795
:10D51000002002B010BDC046B5CE000019D00000FA
:10D52000F0B54546DE4657464E460023E0B5384D39
:10D5300085B002A93748384C02932B70A0470028C9
:10D540002AD02B78002B19D0802001A94001A047B8
:10D5500000284ED003A92F48A047702303992D48D7
:10D560009943203B19432D4B98470026300005B0C6
:10D570003CBC90469946A246AB46F0BD02997C332E
:10D5800099432C3B19432348244B02919847061E8C
:10D5900023D001232B70D7E701232B70204B214A86
:10D5A0009B46214B594618009A46204B994698476E
:10D5B0001F4B2048984698470D201F4FB84702A997
:10D5C0001448A047061EBCD11C4A59465046C847BD
:10D5D0001B48C0470D20B847C8E71A4A1049134BEB
:10D5E00011489847124B18489847134B0D209847FD
:10D5F000BCE70626154A0A490C4B0B4898470C4BCA
:10D60000134898470D200C4B98477642AEE7C0462A
:10D610000009002024E800009DD3000089D200000A
:10D62000F8630100C7040000B05C0100E93D01009F
:10D63000053F0100046501001D3E0100CA04000011
:10D6400054650100D404000080650100DE04000080
:10D65000B46501000022024B00201A707047C046DA
:10D660000009002000B583B001A9024B984701983A
:10D6700003B000BD9DD30000044B10B598470023B4
:10D68000012801D1180010BD063BFBE79DD3000027
:10D69000044B10B598470023012801D1180010BD94
:10D6A000063BFBE789D20000F0B557464E4645469B
:10D6B000DE460023E0B587B0039116000A250293E9
:10D6C00082462DE03F4B404A9B46404B594618004E
:10D6D0003F4C9946A04751463E48A0473E4B0D203F
:10D6E0009846984701203D4B98470023002200218F
:10D6F0000093CF203A4FB8473A4BCF2098473A4A49
:10D7000059464846A0472900330052463748A047AB
:10D710000D20C047013D0120304B9847002D2CD0F3
:10D72000012E19D03300002251460092C8202C4C03
:10D73000A0470128C6D1C8202A4B9847012810D0FD
:10D74000204B2B4A9B46214B59461800204C9946AA
:10D75000A04751462748C0E7012202230292022631
:10D76000E1E7029B002B11D1002231000398224BEC
:10D770009847012815D1002001E00620404207B05B
:10D780003CBC90469946A246AB46F0BD05AC002293
:10D79000194B3100200098472378039A1370012811
:10D7A000E9D0084B154A9B46084B59461800084CCF
:10D7B0009946A047124B13489847074B0D209846AF
:10D7C00098478FE7EC6301005D040000B05C010046
:10D7D000E93D0100D86501001D3E010049B500008A
:10D7E000B5CE000019D00000840400006866010076
:10D7F00063040000086601001DD1000073040000EE
:10D80000053F0100406601000A23F0B5DE46574699
:10D810004E4645469A460023E0B58DB003900591EB
:10D8200091469B4630E0904B904E1900904A914CA7
:10D8300030000493A04729008F48A0470D208F4D4A
:10D84000A8478F4B0120984698475B46002200214D
:10D850000093CF2000238B4FB8478B4BCF209847A6
:10D860008A4A04993000A0474B465146039A88489B
:10D87000A0470D20A8470120C04701235B429C46DA
:10D88000E2445346002B25D04B46012B1ED05A466E
:10D89000039D009229000022C7207A4CA04701284E
:10D8A000C1D1C720784B984701281CD0F4226E4B79
:10D8B0006E4E190092006F4C30000493A0470399FC
:10D8C0007448A0476D4D0D20A847BAE702220223F5
:10D8D0009146DCE7062040420DB03CBC904699469C
:10D8E000A246AB46F0BD5A4604AB1A8200234C4612
:10D8F000984609AE684F2AE08022F13392019442A3
:10D9000000D8023304AAD37394460F2363443360D0
:10D910005B4673600123310003203381B847002840
:10D9200039D1059B70604344310003203360358159
:10D93000B847002849D1594B1B78002B19D04346D2
:10D94000641BEB181BB2A4B29846002C45D0802370
:10D95000251C9B019C4201D9514B1D884346ADB209
:10D96000002BC9D080215B468901A1425B41F23383
:10D97000C8E708AA736031000233032032603381A4
:10D98000B8470028DBD0394E464A47493000394C69
:10D99000A047464807E0D422344E92004249300066
:10D9A000344CA0474248434B984698470D20334D8E
:10D9B000A847F8222C4B0493920019003000A0478E
:10D9C0003D48C0470D20A8473BE7284E3B4A364913
:10D9D0003000284CA0473A48E5E7304B1B78002B35
:10D9E0002ED1022402335A4631003260032008AAA5
:10D9F00072603381B847002827D108AB9C46644445
:10DA0000631E1B78002B03D1023C2378C32B1AD052
:10DA1000A122164E52002B49164C3000A04704ABF1
:10DA200004AA04A99B7C527C097C2748A0470D20AE
:10DA3000124DA8471F4B98460B4BFA220493BBE7A5
:10DA400003230324CFE7002046E73C22074EFF32A2
:10DA50001C493000074CA047164B1C489846984775
:10DA6000064D0D20A847E7E7CC630100B05C01003C
:10DA7000CA030000E93D0100846601001D3E01006B
:10DA800049B50000B5CE000019D00000F203000037
:10DA900068660100B4660100E1B6000000090020DC
:10DAA0007063010063030000AC630100586701006C
:10DAB000EC660100053F0100E0670100590300002A
:10DAC0002467010080630100B067010090670100D6
:10DAD000F0B54E4645465746DE46E0B585B01F00D8
