:10800000A8300020911D01008D1D01008D1D010073
:108010000000000000000000000000000000000060
:108020000000000000000000000000008D1D0100A5
:1080300000000000000000008D1D01008D1D0100EA
:108040008D1D01001D9F00008D1D0100A1F100008C
:108050004DEE00008D1D010035ED0000FD15010005
:108060008D1D010061F4000071F4000081F4000036
:1080700091F40000A1F40000B1F40000D1870000E9
:10808000E1870000F18700008D1D01008D1D0100BA
:108090008D1D010000000000000000008D1D01008A
:1080A0008D1D01008D1D01008D1D01008D1D010024
:1080B0000000000010B5064C2378002B07D1054BBB
:1080C000002B02D0044800E000BF0123237010BD44
:1080D000D003002000000000C0650100084B10B56F
:1080E000002B03D00749084800E000BF0748036899
:1080F000002B00D110BD064B002BFBD09847F9E7B1
:1081000000000000D4030020C0650100C06501002C
:108110000000000010B50E4B04009847012815D050
:10812000002808D0022801D0012010BD0022094BF0
:108130001A550220F9E7074B1B5D002BF9D1064BBE
:10814000200098478307F4D00020EEE70320ECE7F7
:108150009DA40000EC03002025A9000010B500201C
:10816000014B984710BDC0461581000070B5054B06
:108170000D0004009847400001382860024B2000A1
:10818000984770BD61A900001581000010B501007D
:10819000014B0020984710BD6D81000010B50020F4
:1081A000014B984710BDC0469DA90000084B98425E
:1081B00009D0084B984208D0074B9C466044434284
:1081C0005841400070470020FCE70120FAE7C04614
:1081D000002000420024004200D8FFBD534B9942CA
:1081E00006D0534B994203D0524B994200D19AE0AA
:1081F000514A002342602C2203608372C3720373CE
:1082000043720372C3610362436283620375437501
:108210008375C37503764376037443748374C374A0
:108220008354013283540132835401328354013226
:108230008354013283540132835401328354013216
:108240008354013283540132835401328354013206
:1082500083540132835401328354013283540132F6
:1082600083540132835401328354013283540132E6
:1082700083540132835401328354013283540132D6
:1082800083540132835401328354012101328354D7
:1082900001328354013283540132835401328354B6
:1082A00001328354013283540132835401328354A6
:1082B0000132835401328354013283540132835496
:1082C0000132835401328354013283540132835486
:1082D0004132835401328365836783540132C3651D
:1082E000C36783541A3A036683501B328354173A88
:1082F0004366835018328354143A83668350153290
:108300008354113AC3668350123283540E3A036782
:1083100083500F3283540B3A436783500C3281549D
:10832000013283547047054A63E7C046002000428B
:108330000024004200280042FFFFFF00FFFF000072
:10834000F0B54546DE4657464E46E0B5C44B8FB0C5
:108350000C001500994200D1FBE0C24B994200D1BC
:10836000FBE0C14B8026994200D1FAE00023760061
:10837000BE490A6A32430A6221681C22890707D56E
:1083800010000FB03CBC90469946A246AB46F0BDEB
:108390002168C907F4D4B64A990056582A6896420B
:1083A00001D21722ECE76A689642FAD31C2294465F
:1083B000AC4462462F009C4604922C3713689E42C0
:1083C000EFD30432BA42F9D198266346B446AC449E
:1083D0006646059600266746B446A64EB1466646F2
:1083E00094461A003B78002B03D04B469B5CB3426B
:1083F000D7DD01360137082EF4D1130080279E4EB9
:108400007F04F65C624602960026B8469C460196BA
:10841000AF193F7C012F00D1A6E00136042EF7D121
:108420009D36AE5D6346002E04D08026019F360146
:10843000374301972E7A771EBE41B60003966E7AB7
:10844000012E00D107E12E7B0696EE7A089307965F
:10845000002637000991537A9A46029B9A45A0D28A
:1084600016780F2E9DD8537836061B049B46F023B2
:108470001B051E405B46334396789B46731E9E4108
:10848000F301D6789946731E9E41F30016799846FB
:10849000731E9E4133019C4603235679C0211E4022
:1084A0005B4633439B4660239679890076011E40E4
:1084B0005B461E43D3791B020B40E0211E43137A17
:1084C000C9011B030B401E43C021534609019B02F7
:1084D0000B401E434B461E4343461E436346082142
:1084E0001E430AAB5B18DE5104370A32082FB2D1A3
:1084F000089B604A0127D25C2E0092464122944696
:1085000000220999AC44BB465036674688469C46D3
:10851000130014E0924500D843E7802149029140BE
:108520000B433978002905D0022900D18EE0594645
:1085300091400B43013201360237082A1ED03178B0
:108540000029E7D139780029F4D09245ECD81722D8
:1085500016E78026002376000AE780260123B6006E
:1085600006E7F600022303E7029BB34200DA18E7AE
:108570004746B740019B3B4301934EE730266A7E56
:108580004146120116402A7E9846634694460722C9
:1085900067463A401643B34680267602B446002228
:1085A0005E46AF183F7D002F06D0029F974200DC49
:1085B000F7E6674697403E430132042AF1D1B346BD
:1085C0003426B446844400266746021D40C2BA429F
:1085D000FCD12A4A46635050A02286630460A95CFD
:1085E000643A8154AA7A0AA90A70254AD65C254BB6
:1085F00030009847244B300098475346002B48D012
:108600005823994653469833EB18089301239A460A
:108610002300A9444C460BAE059F994604E0089BF5
:10862000013704349F4233D03B78002BF7D05346B8
:10863000B3700023F3702033E3181B782078337075
:10864000534631007370114B9847E8E70221FF3120
:1086500091400B436EE7039F37430397F3E6C04611
:108660000020004200240042002800420004004094
:10867000184D0100244D0100104D0100B8090020E3
:10868000144D010069010100E100010069020100CF
:108690004C46069B079A1B0312021343019A13438D
:1086A00004222360A3681A42FCD1FF230422237111
:1086B000A3681A42FCD16B461B7B184A63710C9B62
:1086C000E3600D9B23614346A361A3681342FCD181
:1086D0005B461022E363A3681A42FCD12B68104A60
:1086E0006363A3681342FCD16B6800212364029B7F
:1086F000002B10D00B48049D02008A40A3681A4248
:10870000FCD10B00103304CD9B00E3185A60029B90
:1087100001319942F0DB002232E6C04640000200FF
:108720008000040000010800920083185960034B88
:10873000D358426B1343436300207047284D010018
:1087400070B50B4B040000680D0098471F22094BC1
:10875000AD001B5C1A4001239340074A1360074B8E
:10876000EA58A36B1343A36323689A6270BDC046A3
:10877000AD810000584D010000E100E0284D0100EE
:10878000F0B5C64600B5104B8000C75804243B68BE
:108790007A6BDE6ABB6B012513401E400B4B98467B
:1087A00005E0231D342B0CD0424615591C003542E0
:1087B000F7D03B59380098473B68DD62231D342BC6
:1087C000F2D104BC9046F0BDB8090020284D01004C
:1087D00010B50020014B984710BDC04681870000AE
:1087E00010B50120014B984710BDC046818700009D
:1087F00010B50220014B984710BDC046818700008C
:10880000F0B5C646412500B50400435D0120034391
:108810000020635592B200232056114FB84701261D
:10882000635D002818DB1E4212D0E36E022B0FD9C5
:108830000C4B0D4F98464126012502E0E36E022BBA
:1088400006D90020C047606DB847A35D1D42F5D131
:10885000002004BC9046F0BDB3436355F9E7C04621
:10886000A1DB000085BF0000319900005023038088
:10887000002383704360C3600133FF330361AE3B69
:10888000024A4361024B028183617047204E00001F
:10889000204F010070B504000D0000282CD00029E5
:1088A0002AD00B69002B27D04B68002B24D04B69B2
:1088B000512B21D9E8220021184B98472000184B52
:1088C0001C22290050309847E36D002B17D02B89CC
:1088D000002B05D10023D8220020E366A35070BDF1
:1088E0006868002322000F490F4DA847A0640028A4
:1088F000F0DA1C204042F2E716204042EFE72869F8
:108900000A4B9847E065002805D041220421A35C6A
:108910000B43A354DBE70C204042E0E7CB350100DA
:1089200095350100498A0000A99800006D350100C5
:10893000002802D0C1640020704716204042FBE7A7
:10894000C023F0B5C35885B004000F00002B02D03F
:10895000C42280589847200018220021B030164EBB
:10896000B047E36E002B21D1002300252000E35601
:10897000124A9B009D5000216C226C30B0472000B1
:1089800010220021D830B047D8234122FC21E566CF
:10899000E550A35C01970B40A354E36C002B03D07C
:1089A00001AAF8392000984705B0F0BD0020044B1B
:1089B00020569847D8E7C046CB350100F003002089
:1089C00099DC0000F0B54746CE461B4C8046260099
:1089D000894680B5194F85B01C362568002D07D013
:1089E000691C4046B847002802D1EB6E012B07D026
:1089F0000434B442F1D105B00CBC90469946F0BDA8
:108A00004B46002B05D17621280049420C4B984754
:108A1000F1E76A46022313804E33EB5A00201A0214
:108A20001B0A13436A4653804B4601932856102273
:108A30006946044B9847DEE7F0030020313A010015
:108A4000418900002DDB000010B5002A04D03E2132
:108A500010004942014B984710BDC04641890000B3
:108A6000F0B54546DE4657464E461C23E0B50400A9
:108A700093B002AF1022C649F818C64B9847694612
:108A8000626EE846D31DDB08DB00CB1A9D4641230E
:108A9000E15C403B02AD0B4027D1E16E03292DD0B4
:108AA000042922D1CC26A259002A00DAD0E012D023
:108AB0002100B031CB689946002B0CD0D0239A46C8
:108AC000E3589A4200DD0DE1C023E358002B02D0A9
:108AD000C422A05898470223E366E36C002B04D01D
:108AE00010220121BA1820009847C546BD4611B092
:108AF0003CBC90469946A246AB46F0BDCC212C200A
:108B00006350043163503818A34B00942900A34EDE
:108B1000B047C823E35C012B00D109E1022B00D14F
:108B200013E1032B00D117E1042B00D11BE1052B2E
:108B300000D11FE1062B00D123E1994E70239A4604
:108B4000984BA2445046994698472C230200514620
:108B5000F818B0472C230B22F8189349B0472C2360
:108B60000C229249F818B047A36E18009A46C847DD
:108B70002C2302005146F818B0478D4B02221900F1
:108B80009A462C23F818B0472C2306228949F81856
:108B9000B047631C18009B46C8472C230200594667
:108BA000F818B0472C230222F8185146B0472C235E
:108BB0001822F8188049B0472C231322F8187F494F
:108BC000B0472C231722F8187D49B0472300B03353
:108BD000DA68002A24D0B022A25C9346002A00D092
:108BE0009CE09A68002A1BD058699047CC23E0503B
:108BF000002863DB02007349734B381D98472C2310
:108C00001022F8187149B047381DC8472C230200BC
:108C1000391DF818B0472C2302225146F818B047E6
:108C2000D423E3589B46002B06D01800C8472C23BA
:108C300002005946F818B0472C230222F818514672
:108C4000B0472C23F818624B98470423E36629E7C2
:108C50002000B030C668002E00D13CE7D023626E01
:108C6000E358073A691D4069B047C34306000A222A
:108C70000D21DB171E40AB192A71E97059719A71E9
:108C80000F231A000F31791832408A5CA91CAA7090
:108C90000F2E16DC0020CA1C521B331DD21892B2B4
:108CA000205600234B4DA847002848DBD022A3586C
:108CB0009B19A350002E00D106E716E75A46E25052
:108CC000AEE71C21321179181A408A5C691C6A705F
:108CD000FF2EDFDD321213401C22BA18D35C2900AC
:108CE0002B70D7E74869626E2900C847002826DB49
:108CF0005346A659E358F61A864200DD06000020C6
:108D00002900B2B220560023324DA847002816DBB6
:108D1000D023E25894466644E650E6E60122CC238E
:108D20005242E250A03B1D322B49F818B04777E77A
:108D30002B3304222949F818194EB047FEE60521C5
:108D400020004942264B9847CFE62A330522254981
:108D5000F818134EB047F1E6293307222249F818D4
:108D60000F4EB047EAE6283304222049F8180C4E8B
:108D7000B047E3E6273308221D49F818084EB047EC
:108D8000DCE62C2305221B49F818054EB047D5E632
:108D9000084E010095350100018800005997000038
:108DA000959700008F3A01007C4E0100884E01002B
:108DB00040510100984E0100A04E0100BC4E010040
:108DC000D04E0100084F0100ED3901000C4F0100A9
:108DD000B9970000A1DB0000E84E0100484E0100F9
:108DE00041890000504E0100584E0100604E0100C4
:108DF000684E0100744E0100F0B54E464546DE4611
:108E00005746E0B587B005000C000092994600284F
:108E100000D104E1C36E022B00D904E18A4B072282
:108E20008A49200098469847002878D00822884927
:108E30002000C047002800D1D1E000230026019384
:108E4000844B6F1C38009B469847A61902003100DE
:108E50003800C047337882468046002B00D1DCE0E2
:108E60002F2B00D1D9E0019A0132A418002202E090
:108E700001342F2B05D00132AB5423782600002B70
:108E8000F6D10023AA1853706B78002B00D1C6E0EE
:108E90003000D8473F2800D9C9E0D423E85800283B
:108EA00001D06D4B9847109B002B00D193E0180028
:108EB0006A4B9847D423E850002800D1BFE04122F4
:108EC0000121AB5C8B43AB5400236B6433782F2BB5
:108ED00000D19CE070232F22EA543378002B00D07D
:108EE00085E04B461822002B00D18AE02800494635
:108EF000B0305B4B98476A46C8231278EA54EB6E51
:108F0000012B10D0002B15D0022B6CD15346002B17
:108F10000CD10333EB662800524B984737E0072308
:108F2000072601938CE75346002B30D00021280000
:108F30004D4B98475223EA5C0121531E9A4102206F
:108F4000D2B24A4B98472870002800DA73E0484BA9
:108F50008000C55039000024202030260A78002ADD
:108F600021D013008343413B0131052B17D93A2A05
:108F700015D02F2A13D02E2A2AD03240302AEDD0F5
:108F800038003C4B98470123EB6600239846404647
:108F900007B03CBC90469946A246AB46F0BD0A7865
:108FA0000124002ADDD1022302AA13804E33EB5A9A
:108FB00038001A021B0A134302AA53802E4B98470B
:108FC000039000201022285602A92C4B9847DAE77C
:108FD000002CC3D0D4E7D423109AEA506FE70823BB
:108FE000082601932CE70B235B429846CFE7280025
:108FF000234B3100713098474B461822002B00D08C
:1090000074E7280000211F4BB030984773E7280011
:1090100031001B4B7030984763E7002231E716237D
:109020005B429846B3E710235B429846AFE75B2369
:109030005B429846ABE71C235B429846A7E70C23AC
:109040005B429846A3E7C0469D3A01002C4F0100C1
:10905000344F01008F3A010081350100553A01007B
:1090600095350100618A00004189000005DA0000A1
:10907000F003002081DD000029DD00002DDB000071
:10908000453A0100CB35010010B500280DD0416CE8
:10909000026E91420AD2C36D00789C46521A92B277
:1090A000614440B20023044CA04710BD8B21034B08
:1090B00049429847F9E7C0461DDC0000418900009D
:1090C000F0B557464E464546DE46E0B5436CC46DA6
:1090D0009946794B85B09846070041462000774B6A
:1090E0009847A246764E051E43D053464B449842BD
:1090F0003FD2022241462000B047002800D1A4E020
:10910000102270492000B047002869D013226E4910
:109110002000B04700283AD122001332954221D9CD
:10912000E37C202B11D020229343432B17D08621A0
:10913000834649423800654B9847584605B03CBCC9
:1091400090469946A246AB46F0BD0132954209D001
:109150001378202BF9D020229343432BE7D1213AD7
:109160008933FA50AC1C41462000544B9847051EE9
:10917000BBD14B461D1B5544002D62DD544B2A00CC
:1091800021005046984700237D649B46D5E70C227A
:1091900050492000B04700282ED122000C329542C1
:1091A000E0D9237B202B0AD0202293434B2B10D0D5
:1091B00041220221BB5CAC1C8B43BB54D3E7013280
:1091C0009542CFD01378202BF9D0202293434B2BFC
:1091D000EED102212132BB5CAC1C0B43BB54C2E775
:1091E00020003D4B10309847DC23F850FB6DAC1C41
:1091F0009A467B6C9946B6E7052238492000B0476D
:1092000083460028AED12000334B09309847E42331
:109210005A46F852083BFA5063794122312B09D95A
:109220000221BB5C0B43BB54FB6DAC1C9A467B6CB0
:10923000994698E7E379302BF2D80221BB5C8B4347
:10924000F1E700237B649B4677E74B46A11C5C1A41
:109250005444002C22DD220050461D4B98477C646C
:10926000FB6C002B14D0E422B95A002910D0083A24
:10927000B858002814DB3A6E904209DD01AA11802B
:1092800050600021E0209160395002313800984749
:10929000D8230122FA50D73B9B464EE77864DFE79C
:1092A00001AA11800121E0209170002139509160C4
:1092B000380002319847EBE7405101000D3B0100B7
:1092C0009D3A01000C4F01001C4E01004189000035
:1092D000A7350100304E010019350100404E010054
:1092E000F0B5D6464F464646DC23C0B5C35884B0D9
:1092F0000400C56D002B00DA71E0026E934228DC99
:10930000426C0026934247DCC76C002F0AD0E4224F
:10931000815A002906D001AA118096705360956089
:109320000221B8470023D822A3500C32A352A33AFB
:10933000A25C920749D5DC22A158626C6918E06DE5
:10934000561A8619002E47DD3200814B9847666415
:1093500022E0416CE020225801918A1802952250A7
:10936000934220DD00236A461373E36C002B00D187
:10937000ECE001AA0321200098476B461B7B012BE0
:109380001CD0616CE06D6918451B002D23DD0026A3
:109390002A006F4B98476564300004B01CBC9046AF
:1093A0009946A246F0BD0023D822A3500C32A35206
:1093B0006A4601331373E36C002BDAD14123E35C7B
:1093C0009B07DED46348644B984700212000634B21
:1093D00098470026E0E7002363640026DCE7E023EB
:1093E00098465B4B00279946466C4346E158002956
:1093F00027DB002957D1D823E1500C33E15201AAD1
:10940000E33B1372E36C01915160002B02D00331F6
:10941000200098474123E35C9B0700D48BE0636CFA
:10942000A91C5B1A9A46E06D82445346002B7DDDF1
:10943000474B52469847534663644346E1580029D8
:10944000D7DA00234246A350002E72DD2B7800228B
:109450000A2B0CD147E01201D2184346303AE250B1
:10946000013E0135002E15D02B780A2B3BD0002F62
:10947000F6D1190030390929EDD9190061390529CA
:1094800046D81201D2184346613A013EE2500135F6
:10949000002EE9D1236E934252DB0122E023524297
:1094A000E250002678E7B14224DC002301AA1372BF
:1094B000E36C01915560002B04D0032120009847F4
:1094C0004346E1580231636C6918E06D5E1A8619F3
:1094D000002E15DD3200C847012342465B42666418
:1094E000E56DA35081E70135013E236E934227DBF2
:1094F000002ED2D0636C002B00D076E700264BE71D
:109500000023012263645242E033E250002643E725
:1095100019004139052905D81201D2184346413AAC
:10952000E2509DE73B3B5F425F4199E70023636464
:10953000B7E70022D9E700212000084B9847B0E7A1
:109540008B2120004942054B9847AAE728001AE7DB
:10955000A7350100184E010049380100418900007B
:10956000D82310B5C358002B06D0012B01D0002002
:1095700010BD034B9847FBE7024B9847F8E7C046FE
:10958000E1920000C190000070B5436C04009C465D
:10959000582361444164C35A002B05D1054D200076
:1095A000A8470028FBD170BD816C034B406D9847E4
:1095B000F4E7C046619500002199000010B55D4BAD
:1095C0008000C45884B0002C05D006292DD007296E
:1095D00003D005290ED004B010BD0023D35E002BAC
:1095E00037DB2000544B984741220121A35C8B4379
:1095F000A354F0E70123D3560193002B31DBE36C36
:10960000002B03D001AA0021200098470323E36622
:109610005533E25AA16C606D484B98472000484B87
:1096200098472000444B9847D5E70423D15E002992
:1096300006DD2000434B98472000414B9847CAE77E
:109640000B000E339BB20E2B23D83F4A9B00D358FE
:109650009F460E339BB20D2B0CD83C4A9B00D3582F
:109660009F461A000E32D2B20D2A5FD838499200B6
:109670008A589746052149422000364B9847B3E760
:109680000C214942F8E70C2149422000314B984710
:10969000D2E70029F9D005214942F6E7792149426C
:1096A000F3E770214942E7E716214942E4E7162132
:1096B0004942EAE768214942E7E70B214942E4E7EA
:1096C00010214942E1E779214942D5E76821494221
:1096D000D2E70B214942CFE710214942CCE7702164
:1096E0004942D2E702214942CFE70C2149422000FA
:1096F000184B98476FE702214942BDE705214942CF
:10970000F5E716214942F2E779214942EFE7702156
:109710004942ECE702214942E9E768214942E6E78C
:109720000B214942E3E710214942E0E7002BE5DB4A
:109730000021DCE7F0030020618A0000F5980000BA
:1097400089900000899500005C4D0100984D010052
:10975000D04D010041890000026000228360009B1F
:1097600001614260C360704770B5426803680400DD
:109770000D009B1A002B04DD561C236966609D5466
:1097800070BD0126002AF8D00169A368C068984717
:109790000022F2E7F8B506000C00002A08D0054FB9
:1097A0008D180021300061560134B847A542F8D128
:1097B000F8BDC0466997000010B542680400002A51
:1097C00005D00169A368C06898470023636010BD95
:1097D000024A1368013313607047C0460C0400202E
:1097E000642343800023037043707047F0B5C6467E
:1097F00000B5ACB06A460D006E461C4B283092CBCB
:1098000092C26B88170003642B7804009B00100041
:109810009959174B9847174B00209847164B698862
:109820001B7AD8408046FA20144B00029847144B0C
:109830000100404698470523FB722B7878609B0017
:1098400099593A0020000F4B98476A780E49083220
:10985000D2B220000D4B9847697820000831C9B278
:109860000B4B98472CB004BC9046F0BD404F010014
:10987000DD810000590001000004004001330100B7
:10988000ED31010041830000D197000029870000DD
:10989000418700000221826A93681942FCD1136853
:1098A000194311607047C046F8B505780400E80711
:1098B00006D5257DE80718D501256D422800F8BD9D
:1098C00000250220AE007619B600A7197960A15DC7
:1098D0008143A155BA60A16E1800054B984701223B
:1098E000F860A35D1343A355E8E70125E9E7C04607
:1098F000ED31010010B502248B00591889000B5C72
:1099000023430B544418044B816E10009847034BBB
:109910001B68C018206110BDED3101000C0400204F
:1099200002228B00591889000B5C93430B5470473B
:10993000F8B5224B45469846042357464E46DE4628
:109940009A460423E0B5002407009946051DA300AC
:109950001A1992009B46D35DD90706D5990704D5FD
:1099600041460868E968091A09D401341435022C03
:10997000EDD13CBC90469946A246AB46F8BD49465F
:109980001942F2D151460B43D355AB68002B11D18C
:109990000221D35D8B43D355AB686A682E682100E2
:1099A0003800B0475B464A461E19B600F35D934344
:1099B000F355DAE7C018E860EFE7C0460C04002072
:1099C00070B50B0A0C00FF2105000A0082B0200EC2
:1099D0000190200C0B40014022400091044E2900D0
:1099E0000448B04721002800034B984702B070BDDF
:1099F0002D370100F8510100C589000010B5014B59
:109A0000984710BDBD95000010B5144B82B01B786F
:109A1000DA0712D59A071CD55A0712D408241C401D
:109A200013D10F4B0F4898470094002301220E4991
:109A30000E480F4CA04702B010BD094B0D48984787
:109A4000F9E7074B0C489847F5E7054B0B48984753
:109A5000F1E7034B0A489847EDE7C04610040020A1
:109A600049380100D452010000530100440A00208B
:109A7000F98D0000285201007C520100A85201001B
:109A80005052010030B583B02C2813D032280FD1AA
:109A900008788B784A78C9781C4C009101001C48E2
:109AA000A04702211B4A13780B4313701A4B9847A7
:109AB00003B030BD0B78012B21D0002BF8D1174B10
:109AC0001748984702220825124C237893432370A5
:109AD0001D420DD104221A4201D093432370FF236B
:109AE000022200930B210F4B0F4C1048A047DFE7D9
:109AF0000F4B104898472378AB432370EAE7074B96
:109B00000D4898470D4B9847D2E7C0462D370100C6
:109B1000CC54010010040020099A000049380100CB
:109B200094540100B4540100A5C10000C0540100C8
:109B3000D93101004406002074540100C1C1000065
:109B4000F0B5DE46454657464E46E0B5C7B0FB2267
:109B50000021534B07A8984709220021504B04A825
:109B6000984700234F4D00224F4928004F4F039341
:109B7000B8474F4B04002800984698470120002C16
:109B80004FD14C4B4848994698470600FA2847D889
:109B90002E214548484B9847041E07D0C8476A46BF
:109BA0001080138882469946072B41D9434BF622F1
:109BB0003D4907A89A4698470022F723F721F62641
:109BC000009214242D2202A80019825507AA91465A
:109BD0003B4A0333934607AA944663448944133CA3
:109BE00001930DE0002207A92800B84706002800CD
:109BF000C047002E39D1FA2301349B009C420FD07C
:109C00002200304903A8D847032203A94846D04779
:109C1000009B002BE6D004A901982B4B9847E1E765
:109C2000002047B03CBC90469946A246AB46F0BDEA
:109C3000421C264B210004A8984753461B041B0CCA
:109C4000F61AF62E1CD94B46F626F61AB6B21B4B60
:109C50003200154907A89A4698474A46F7239B1AA7
:109C600001229BB219000092ABE7FA2200210C4BB3
:109C70000D48984707A90C48134B98470120D0E797
:109C8000094B07A8E41A26041900360C0B4B3200C6
:109C90009A46984701220134A3B21900009290E736
:109CA000CB35010044060020000000208D2D01006E
:109CB000D93101008F3A0100E93A0100BF3A0100B1
:109CC000ED390100F0510100453A010095350100E0
:109CD000F0B54746CE4680B5384D83B02B788046E8
:109CE0000F001B075BD43023354E364C33700A33DC
:109CF000737000E00400601E03782F2BFAD1324B02
:109D00009847012851D92100304BB01C9847304B5F
:109D10009847304B31003048994698472F4C0A22DB
:109D2000310020002E4B984700283AD108222D4BB5
:109D300018602B7813432B7001AB3A00414620008A
:109D4000294E0197B04700280ED0284B2000984795
:109D500020222B78264813432B70264B984703B0BC
:109D60000CBC90469946F0BD019A1E4E944633684D
:109D7000214F6344190033603A68164B1F489847D7
:109D800032683B689A42EAD3184B20009847194B37
:109D90001B48984710222B7813432B70DFE70F4C9A
:109DA000CAE701001748C847D9E7124B1648984739
:109DB00020222B7813432B70D1E7C04610040020DB
:109DC00000000020305301008F3A0100453A0100A5
:109DD000419B00002D370100345301004406002050
:109DE0008D2D01006C060020092F0100D9310100E2
:109DF000D053010049380100680600200C540100CE
:109E0000405401009C5301005C53010070B51400E4
:109E1000042913D8324B89005B589F46506811685B
:109E200000283BD0002939D02E4B9847237A002BAD
:109E300004D010212C4A13780B43137070BD2B4BA8
:109E400011682B48984723680B33F7D10825264C17
:109E500023781D4238D104221A4201D09343237043
:109E6000244B9847EAE7244B2448984704211E4A8C
:109E700013780B431370E1E71F4B21489847DDE748
:109E800011881A4B52681F4898472388C82B09D05D
:109E90002021154A13780B431370CFE7164B1A484D
:109EA0009847C3E70022194B61681960184B1A6084
:109EB0008023DB009942C1D8A06800280BD000297C
:109EC00009D0084B9847B4E7124B134898472378BA
:109ED000AB432370BFE7084B0B489847A9E7C04640
:109EE0004C4F0100D19C0000100400202D370100D0
:109EF00020500100099A000049380100984F0100E4
:109F0000604F0100C44F01000050010068060020AE
:109F10006C060020D9310100440600208022054B48
:109F2000D2009968114203D09A60BFF34F8F30BFBF
:109F30007047C04600080040F0B5DE4657464E4622
:109F40004546E0B57F4B8BB098477F4B9847002341
:109F500003AC9A4623801023002501262371F03399
:109F60006380D83B63712100784B0020A671E571B6
:109F700098470221764B774F5A6B88460A435A63BB
:109F80008022D2005A60744B91461960734BA02214
:109F90003B609B46FA23DB00FB80E380E3810623E2
:109FA0002374434602A912010B7025726572A572D3
:109FB000E572267366730420694B3E712280A5709A
:109FC000E570267198470420664B98472200594651
:109FD0003800654B98473800644B98472000644B25
:109FE00098474346E3720323039353466360614BF0
:109FF000210003209846A6726672267298470021B7
:10A000005D4F0320B8471F230393534621000B20C5
:10A010006360C04700210B20B847584B1D705D702E
:10A020009D70DD701E71564B9847564B9847564EA3
:10A030002000564B35709847554B21009846180024
:10A04000544B98474046544B98472000534B9847F1
:10A050004B4623614346524D636021002800514B1B
:10A060009847011E64DB50492800504B9847504BDD
:10A070009847504B504D9B46504B514F9A46514B31
:10A0800099460020D847012823D00028F9D14E480E
:10A09000A8478C224D4F00214D4B92003800984725
:10A0A000390000204B4B98470B2845D04A48A84719
:10A0B00001233278494F13433370494B9847494B3A
:10A0C00020000393484B9847011E0BD04748B847E0
:10A0D000FEE75046A8474846A8470020B847022850
:10A0E000FBD1CEE7424B9847424B43494348984700
:10A0F000434C44482100B847FF23022200930B2120
:10A10000414B2000414CA0473023414932788946D9
:10A11000404F1C001A4206D10020C8474046B847AD
:10A1200033781C42F8D03C48A8473C48A847FEE793
:10A130003B482A4B9847FEE70B21284F3948B84740
:10A14000BBE7C0469D020100D5AE0000C5EC000093
:10A1500000080040C409002000E100E000140040B5
:10A1600069010100E10001000DF10000B1EF000004
:10A1700001EF000015EF000005EE0000540C002078
:10A1800075EC000065EC000010040020E197000071
:10A19000D8090020ED970000959800006D88000018
:10A1A000440A0020958800000D9E000031890000BF
:10A1B0007DA400001581000049380100985001007D
:10A1C0009DA40000C0500100F050010014040020C4
:10A1D000CB350100652D0100445101002D370100F0
:10A1E000A9AF0000859A00004DBE00006851010033
:10A1F000B1D90000F1D90000C1990000FD9900001B
:10A20000C054010094510100B4540100A5C10000E4
:10A2100085BF000031990000B8510100E0510100F4
:10A220005050010014510100F0B5C6460026012728
:10A2300000B582B001AC4D4D21001320267067702F
:10A24000A670A84721001020A84721001120A84788
:10A2500021001220A8472100142026706670A770E4
:10A26000A84721001520A8472100182026706770F4
:10A27000A770A84721001920A8470223984621006B
:10A28000362063702670A770A84721002220A847B7
:10A2900021003720A84721002320A84721002A2099
:10A2A000A8472100032026706770A670A8472100E8
:10A2B0001F20A8472100022026706670A770A847BB
:10A2C00021002B2026706670A770A8474346210006
:10A2D000042063702670A770A84721000520A847B6
:10A2E00021000620A84721000720A84721000820B8
:10A2F000A84721000920A84721000A20A8472100DB
:10A300000B20A84743462100172063702670A770D2
:10A31000A847434621000E2063702670A770A84707
:10A3200021000F20A84721000C20A84721000D2064
:10A33000A84721002920A84721001620A84721006E
:10A340002820A84780220A4B120527706670A67045
:10A350005A61802252055A6121001B20A847210022
:10A360001C20A84702B004BC9046F0BD8DEF000051
:10A370000044004110B5064B0648196800788B7FF1
:10A38000054C5A1E93414A7BDBB20968A04710BDB9
:10A39000700600209406002065AB0000F0B5C646AC
:10A3A0000B4B00B50B4C0C4E9846FF2705E0C04701
:10A3B000074208D0013C002C04D000210748B047D8
:10A3C000051EF4D10025280004BC9046F0BDC0460F
:10A3D000BDAD0000410D0300A5AD00000D1B000048
:10A3E00010B50E4B440119198A7A033A012A0CD987
:10A3F0001C190B4B0B4A1C600B4B10709847A07A32
:10A40000023843425841C0B210BD02228A72074A44
:10A410001A5101224A7300228A77E9E77406002064
:10A42000700600209406002075A30000801A060024
:10A4300030B50D4C83B0236810221989012309041B
:10A4400000930A480A4DA847002802D1002003B013
:10A4500030BD206801210E30064B98470028F5D00A
:10A46000054B9847F3E7C046700600200911080025
:10A4700019AC000041AE0000D1AE0000042210B5BE
:10A48000034B9A72034BFB321A70034B984710BD73
:10A49000740600209406002069AA0000F0B5CE469C
:10A4A000474680B5050087B00424002809D0964BA4
:10A4B0001B78002B21D0200007B00CBC9046994699
:10A4C000F0BD0020914B984704000128EFD1904F38
:10A4D0003B68D8721D731D818E4B984788200021E0
:10A4E00040018D4EB04700280BD103223B68032466
:10A4F0009A72854B1B78002BDDD10020874B984743
:10A50000D9E7D5235B00190085489846B047002855
:10A510001BD13B68DA7AD30721D409231340012BDE
:10A520000DD180217F488900B0470028DDD03B68ED
:10A53000DB7ADB0703D57C4B98470028D5D07B4BD3
:10A54000984700223B689A72B1E7794B9847431CC1
:10A55000DFD00005000D01254045C6D1D9E76B1EAF
:10A560009D41AB079846724B724D99460BE04146B0
:10A570007148B04700280BD0C847C30700D4F3E0A8
:10A58000013D002D04D000216C48B0470028EED1D9
:10A59000022388203A680021D3724001B047002886
:10A5A000A3D0634B634D98460123994602E0013DD9
:10A5B000002D9AD000216248B047002895D0C047AE
:10A5C0004B460342F3D100215E48B04700288CD0AF
:10A5D000C047C023DB0518408023DB05984204D127
:10A5E00008233A68D17A0B43D37200215648B0470A
:10A5F000002800D179E7554B9847002800D174E72F
:10A600003A68937B9B061B0F022B00D148E100D8D0
:10A6100054E1032B00D14EE1042B00D03DE1402357
:10A6200013730F210725537C8846D80808402B4018
:10A6300047499B005B5880009C46FA2361469B007B
:10A640004B4344494058117D43431360537D907DF3
:10A650009B00890280110B4303433F481B051B0DE0
:10A6600083420ED0107E0133C111D07D40000843DB
:10A670002840023041468340D07C01408B409B0AF9
:10A680005360137B3F2B36D9002180220091012398
:10A6900092003248324DA847002800D125E73223E6
:10A6A0009846304D03A8A847002800D11DE743462F
:10A6B000013B9BB29846002BF4D139688A7D4B7DD3
:10A6C000097D9B00890292110B431343224A1B050B
:10A6D0001B0D934200D1FAE03223984604AB994611
:10A6E0004846A847002800D1FFE6434601339BB205
:10A6F0009846802BF4D180210A488900B047002871
:10A7000000D1F2E617E7C04694060020E1A300005E
:10A7100070060020E1AB0000A5AD0000B9AB000061
:10A7200008550000101100009DA3000075A3000053
:10A73000BDAD0000EF1B0000291100003711000023
:10A74000011100003A0500003B11000031A4000097
:10A7500034550100F4540100FF0F000008110800F7
:10A7600019AC0000C9AD000000216448B0470028C2
:10A7700000D10DE7C847430004D508233A68D17AD1
:10A780000B43D37200215E48B047002800D1ACE6ED
:10A790003B68DB7ADA077AD55A4B9847002800D114
:10A7A000A3E60F2107203B6888465A7CD5080D4058
:10A7B0000240554992005258AD009446FA22614633
:10A7C00092004A4351496D586A431A609A7B920934
:10A7D0004ED15A7D197D9D7D89029200AD110A43AB
:10A7E0002A431D7E1205E911DD7D120D6D000D431A
:10A7F00028400230013241468240D87C01408A40E4
:10A80000920A5A60198942480904B047002800D1C9
:10A810006BE601230822009300213E483E4DA847E5
:10A82000002800D161E604AD012128003B4B984788
:10A83000002800D159E63A4B9847002800D154E649
:10A840000F222B781340012B31D0002B2BD0022B61
:10A8500029D1AB78DB09012B35D020233A6813735B
:10A8600009223B68DB7A1A40012A00D061E658E6EB
:10A870009A7D597D120209040A43802189008C4681
:10A88000D87D02439202520862445A60BAE7092214
:10A890001340012B00D052E643E612231373C0E6A7
:10A8A00022231373BDE610233A681373D8E71A23E3
:10A8B0003A681373D4E730231373B2E6012BECD15B
:10A8C00014231373ADE63A682F331373C8E70423D8
:10A8D000984604AB99464846A847002800D104E6AC
:10A8E0004346013B9BB29846002BF4D1049B3A6847
:10A8F0005B08536036239846F2E6C0463A050000EE
:10A900003B11000031A400003455010050550100F6
:10A91000371100003311080019AC000041AE0000EF
:10A92000D1AE000010B5002801D0002010BD0020DD
:10A93000074B98470028F8D1064B1B78002B03D013
:10A94000054B1B68D87AF1E7044B9847F8E7C046F7
:10A95000E1A300009406002070060020B9AB0000BF
:10A9600010B5002801D0002010BD0020074B9847EB
:10A970000028F8D1064B1B78002B03D0054B1B6831
:10A980005868F1E7044B9847F8E7C046E1A3000098
:10A990009406002070060020B9AB0000002070472C
:10A9A000F0B583B06B46DD1DFF23114F114E012220
:10A9B000290038002B70B047FF23012229003800FE
:10A9C000B047FF23012229003800B0470A4C07E0B6
:10A9D000FF23012229003800013CB047002C05D09C
:10A9E0002B78FF2BF4D1012003B0F0BD0020FBE752
:10A9F000980600206DF70000400D0300F0B5C64634
:10AA000000B582B06B46DD1D00232B70124B134C3A
:10AA10009846134F0F2604E0FE2B16D0013C002C65
:10AA200015D0FF23012229004046B8472B781A0091
:10AA3000B243F1D107321A4200D10B220020094B58
:10AA40001A7002B004BC9046F0BD0120F9E7042260
:10AA5000044B00201A70F4E79806002020A107009C
:10AA60006DF70000DB06002000232D4AF0B51370BF
:10AA70002422012591B002ACA354039304932374C0
:10AA800063742375183A0021264B08A82570A57415
:10AA9000E574984780239B02E360234B234FA36216
:10AAA000234B2200E362234B23492363234B3800CB
:10AAB0006363234BA361234B98473E68224B3000CE
:10AAC00098471F2318408540204B1D603B68DC6978
:10AAD000002CFCD102220125336801A913431C4A32
:10AAE000336010781B4B1C4E5C709C70187030707B
:10AAF0001A4B7470B4704D708C700D70984731782B
:10AB00004B09CA0909D11F320A409540144ADB019A
:10AB1000944663449D6111B0F0BDA461FFDEC04660
:10AB2000DB060020CB350100020010009806002053
:10AB30000200110002001200000C0042020013008B
:10AB4000801A060075F5000031F4000000E100E015
:10AB5000FC000020E8060020D80600208DEF000051
:10AB6000004400410022F8B50D4B07001A700D4B50
:10AB70000C00994200D91C000B4D0C4E01E0E3087B
:10AB8000E41A21002800B0471728F8D07900CF191F
:10AB900007492800C9190122064B9847F8BDC0464D
:10ABA000DB06002000366E0198060020C1F400008C
:10ABB000D80600203DF80000002210B54100044BEB
:10ABC000081804491A700918034B0448984710BD27
:10ABD000DB060020D80600203DF800009806002083
:10ABE000F0B583B06B46DD1DFF2300220A242B70D5
:10ABF000064B074F074E1A70013C0122290038000E
:10AC0000E4B2B047002CF7D103B0F0BDDB06002062
:10AC10009806002011F90000F0B54E464546DE4684
:10AC20005746E0B585B099466B4683460800991DA6
:10AC3000FF230B70524B90469A46002352461370E6
:10AC40005B463F221A40402302AC1A43030E637056
:10AC5000030CA370030AE370002600230925227069
:10AC60002071082005E001385200C0B2D2B200289D
:10AC70000DD05B00DBB21F0057403F06F3D5013813
:10AC80006B405200C0B2DBB2D2B20028F1D1013623
:10AC9000052E01D0A25DE4E701223A4E5B0013438A
:10ACA000394D012230006371A8472100062230008F
:10ACB000A8476B46DC1DFF23012221003000334FE3
:10ACC00023700725B847FF23012221003000B84731
:10ACD00023785AB2002A0EDA013DEDB2002DF2D1EE
:10ACE000022352460020137005B03CBC90469946A2
:10ACF000A246AB46F0BD264C23601A0718D45A076B
:10AD00001BD40122934336D15B469B041AD45B4685
:10AD10009B0528D45B465B051CD442461D4B012095
:10AD20001A804A461C4B1A8000221C4B1A60DBE733
:10AD30000623524600201370D6E70923524600200E
:10AD40001370D1E7164B98470028E0D103235246F1
:10AD50001370C9E7FF23042221003000B84723689D
:10AD60001BBA2360D9E70023012223602100FF33AF
:10AD70003000B847CEE7534600201A70B4E7C0460B
:10AD8000DB0600209806002011F900006DF7000096
:10AD9000E0060020D4060020DC060020E4060020A7
:10ADA000A1A90000002310B582B000930022024C3C
:10ADB000A04702B010BDC04619AC0000014B186896
:10ADC0007047C046E0060020F0B5C646002200B538
:10ADD000144B154C154D84B001901A702988144EEF
:10ADE0002068B047002903D1124B984700280FD0A4
:10ADF000114B01A998460422FF2340460F4FB84744
:10AE000023682988181D2060B047002904D001203C
:10AE100004B004BC9046F0BDFF23022203A94046C3
:10AE2000B847F4E7DB060020E4060020D406002043
:10AE3000F9320100FDA90000980600206DF700001E
:10AE4000F0B5D6464F4646460022C0B5194B4C1EBB
:10AE500082B082461A70A4B2002929D0164B002570
:10AE60009946164B164F9846164E18E043461A88D8
:10AE7000534638005919FF23B047134A4346116817
:10AE80001B888C46ED186344136001A9FF2302223E
:10AE90003800B047013C0D4BA4B29C4208D0C847D3
:10AEA0000028E3D102B01CBC90469946A246F0BDF2
:10AEB0000120F7E7DB060020FDA90000D4060020F2
:10AEC000980600206DF70000E4060020FFFF000058
:10AED0000120704770B5094B00209847FA21084CB3
:10AEE00089000500A047074B074918602800A047C4
:10AEF0000522064B1860064B1A6070BD5900010010
:10AF0000ED3101000001002040420F00040100204B
:10AF100010E000E0802130B50025084B084A1C688D
:10AF20004902013808D3002CFBD0546095601368A7
:10AF30000B42FCD00138F6D230BDC04600010020E3
:10AF400010E000E010B5034B1B68002B00D09847C1
:10AF500010BDC046EC0600208022114B520570B592
:10AF60005A618022642412050E4D5A610120013C71
:10AF7000A847002CFAD18022094B52059A6164340B
:10AF80000120013CA847002CFAD18022044B120575
:10AF90009A6164340120013CA847002CFAD170BDAD
:10AFA0000044004115AF000070B50023012582B0B8
:10AFB00001AC154A154E21001B201360A37065706B
:10AFC0002570B04721001C20B04721002820B04741
:10AFD00080220F4B52055A61802212055A610D4B97
:10AFE0001A68154202D01B689B0701D40A4B984788
:10AFF0000A4B984701220A4B1A70BFF35F8F62B663
:10B00000002002B070BDC046EC0600208DEF0000AD
:10B010000044004110E000E0D5AE000059AF000050
:10B02000F901002070B5441E002804D0024D012013
:10B03000A847013CFBD270BD15AF000010B50F4B07
:10B0400084B001AC186020000D4B98472923019370
:10B0500000236360013323720133E372210009206E
:10B06000084B984700220921074B084898470021C0
:10B07000074B0920984704B010BDC046EC060020DD
:10B0800001EF000015EF0000DDED000045AF00000E
:10B0900005EE000010B50021002803D10920034B64
:10B0A000984710BD024B09209847FAE729EE0000A7
:10B0B00005EE00000E23F0B5304E8FB00025337042
:10B0C00001246B4669465C709D701C700E202C4BF1
:10B0D0007570B570984731784A09CB0948D120007E
:10B0E0001F352940884001002648D2018446624429
:10B0F00091616A461470C022920303926A466946BF
:10B100001374537413759474D474242201938B5460
:10B110000293183A00211C4B06A898471B4B1C4E63
:10B120000A931C4B6A460B931B4B1C490C931C4BFC
:10B1300030000D931B4B06931B4B9847002819D1E9
:10B1400037681A4B380098470540AC40184B1C60D4
:10B150003268D369002BFCD102223B6813433B6069
:10B16000144B98470120144B984700200FB0F0BDB6
:10B17000AD61FFDE06204042F8E7C0462C0B002000
:10B180008DEF000000440041CB35010002000C00AF
:10B19000300B002002000D0002000E0000100042E3
:10B1A00002000F00001BB70075F5000031F400002D
:10B1B00000E100E059AF000025B00000F0B5DE4628
:10B1C00057464E464546E0B585B0032800D074E0AA
:10B1D00000220B684E68019302AB07330C891A708A
:10B1E000002E58D0002C65D0019A002A5ED0002392
:10B1F0009B4600239A46384B384D19009946384BE8
:10B2000001222800984698475046434258418246BA
:10B21000584643425841012104228346019B187835
:10B220002B681F7E3942FCD01F7E3942FCD09862C9
:10B23000187E0242FCD0A8791F7E3A42FCD05F8B78
:10B240003A4207D05A839F6A1F7E3A42F4D05F8BFE
:10B250003A42F7D19B6A01281AD0DBB23370019BC6
:10B26000013C5B44A4B256440193002CD6D1022287
:10B2700029680B7E1A42FCD0002249462800C047AC
:10B28000002005B03CBC90469946A246AB46F0BDB6
:10B29000DB05DB0DE2E7019A002A0BD0002C09D078
:10B2A00000229346013292461E00A4E70122019338
:10B2B00093469EE70F204042E3E70E220949FF3202
:10B2C000094B0A4898470A4B0A4898470D200A4BF1
:10B2D000984701204042D4E72C0B0020300B00207F
:10B2E0003DF80000905501002D370100A0550100E8
:10B2F00049380100B455010061370100002370B5E1
:10B30000154E82B0356801AC2370A37063702800BD
:10B31000124B98471F2318401E3B80228340104940
:10B320008B503268D369002BFCD102228F332B75EE
:10B330002B762B68210093432B600C20094DA847E6
:10B3400021000F20A84721000D20A84721000E2032
:10B35000A847002002B070BD300B002031F400007F
:10B3600000E100E08DEF000010B58418002A05D040
:10B370000B78013103700130A042F9D110BDC046F5
:10B380008318002A03D0017001309842FBD1704726
:10B39000027803000020002A05D001331A7801301A
:10B3A00080B2002AF9D17047024AD3780133DBB268
:10B3B000D37070476C0B00207047C046002200B568
:10B3C0000A4B83B09A700120094B984701A909489C
:10B3D000094B9847002806D10221019B05481943D3
:10B3E000064B0191984703B000BDC0466C0B00208E
:10B3F00095B00000701000007DC6000089C60000F6
:10B4000010B5094C6378002B02D12378002B05D1AD
:10B41000002063780133DBB2637010BD034B9847A3
:10B420000028F5D0F9E7C0466C0B00207DC3000072
:10B4300010B5094B5A78002A03D05A78013AD2B293
:10B440005A705A780020002A02D11B78002B00D1B4
:10B4500010BD024B9847FBE76C0B002019C300009E
:10B46000F0B54E46DE4657464546E0B58BB00193F3
:10B4700014AB029204CB06AC1B8892469B4616ABDB
:10B480001B8881461A0003937F230B4063700823B7
:10B490002070638053460E00002B00D181E094465B
:10B4A00063885B4463449BB263806D4FBB78002B21
:10B4B0002AD0002304AA951D4A4608932B8007939F
:10B4C000079B36021A430792079B66481E4307965E
:10B4D0006388079A1B0413430793634B07999946A4
:10B4E00098478046002821D07B78002B07D1404622
:10B4F0000BB03CBC90469946A246AB46F0BD7B786B
:10B50000013BDBB27B70F2E7584B9847804600283E
:10B51000CFD0CB2256495200564B57489847574BED
:10B5200057489847574B0D209847E0E7022207906D
:10B53000079B5548134307930799C847804600283F
:10B54000D2D1089028802A88504B9A4230D8504B4C
:10B5500098460EE001204F4B98470226079B1E405D
:10B5600070D02B8801339BB22B802A88474B9A429C
:10B570001ED807A94448C047002819D1F4232A88B7
:10B58000FF339A42E9D92A8801339A42E2D8394BEB
:10B5900041489847394B414898473A4B0D209847C6
:10B5A000D8E7019A6388944663449BB263807CE742
:10B5B000089B002B4ED0089B21000993638808222A
:10B5C0009BB263800998364CA0478046002800D083
:10B5D0008AE7099B08330993029B002B0CD0019D3D
:10B5E00009982A001900A0478046002800D07BE770
:10B5F000AC46099B634409935346002B10D0019934
:10B60000039B099A5B1A9B18099309985A4651465D
:10B61000A0478046002800D066E7099B5B44099359
:10B620000222089B1F489B000793079B1343079325
:10B630000799C8478046002800D055E71A4B98471D
:10B64000804654E708A91948C04780460028AFD073
:10B65000089649E7144B984703235B42984646E710
:10B660006C0B00208C10000089C6000001B40000A3
:10B67000E85501002D370100A055010049380100AF
:10B68000EC5801006137010078100000E70300006A
:10B690007DC6000025B00000D0580100DC58010034
:10B6A000F9C600006C10000031B400000004150061
:10B6B000F0B55746DE464E464546E0B5B54B87B039
:10B6C0009A46DB78002B00D19DE0B34B04AE99463F
:10B6D000B24B9B4653465246DB78013BDBB2D370FC
:10B6E00034E0039B0134234200D1D4E00020D8474A
:10B6F0000399AB48A143AB4B03919847002838D13D
:10B7000053469C70039B9F043F0D00D1DBE00590E6
:10B7100005A9A548C847041E31D0C822A34BFF3253
:10B72000A3491800A34D9846A847A348A34B9847A0
:10B730000D20A34FB8470120D847A24AA24940464E
:10B74000A8472100A148A8470D20B84703A994485D
:10B75000C847041EC5D0954B9D4A95491800954D84
:10B760009846A847954B9B489847954F0D20B8475A
:10B77000E3E78E4B040098468E4D914FDDE753462C
:10B78000059A31005A6005989F600422924B9847B1
:10B79000738804009BB2738000283CD173889F4259
:10B7A00003D07388FB1A042B5CDC3378012B52D056
:10B7B0003378022B00D17FE03378042B00D193E063
:10B7C0003378062B00D196E03378072B00D1A9E01F
:10B7D0003378052B00D095E053465B6A002B09D0E7
:10B7E00053465B6A70787188059A0839C0B208328E
:10B7F00089B2984753469B78002B16D15346DB7885
:10B80000002B00D066E7002007B03CBC904699466C
:10B81000A246AB46F0BDD222644BFF326449180009
:10B82000644D9846A8476D4880E7604B6C4A180005
:10B830005F49604D9846A84731787278C9B2D2B254
:10B840006848A8470D205E4FB847674B98470028C7
:10B85000D4D0040071E75346DB68002B69D053460F
:10B86000DB68BFE7ED220624504B52005049180018
:10B87000504D9846A84772883378717892B2DBB2FF
:10B8800000915A483900A8470D204D4FB847012074
:10B89000D847644251E789220C24444B9200180097
:10B8A0004349444D9846A84703995148A8470D205D
:10B8B000434FB847644240E753461B69002B46D0CC
:10B8C00053461B698EE787220224384B9200384981
:10B8D0001800384D9846A847384B464898470D20E1
:10B8E000374FB847644228E753465B69002B37D08F
:10B8F00053465B6976E753461B6A002B39D05346A3
:10B900001B6A6FE70624294B3B4A29491800294D39
:10B910009846A847294B394898470D20284FB847E3
:10B9200064420AE753469B69002B2AD053469B6921
:10B9300058E7F3221D4B52001D4918001D4DA84722
:10B940002F481E4B98471E4F0D20B84752E7F7224D
:10B95000164B520016491800164DA8472948F0E723
:10B96000FB22124B520012491800124DA8472648DC
:10B97000E7E70E4B254A0E4918000E4DA84724480C
:10B98000DFE70A4B234A0A4918000A4DA847224814
:10B99000D7E7C0466C0B00207DC6000095B00000C4
:10B9A0007010000089C6000084100000A05501003E
:10B9B000F45501002D3701002856010049380100D7
:10B9C000613701004A020000FC550100E857010000
:10B9D0002D020000C457010095C600004C5601001E
:10B9E0001502000068570100BDB300006456010055
:10B9F000A8570100945701000F02000050570100A2
:10BA0000A4560100C4560100E8560100FF010000E1
:10BA100008570100060200002C570100F8B5140079
:10BA20001D0000281DD000291BD0002A19D01F4E50
:10BA3000B3689A422FD87368984217D373688718EF
:10BA4000B2689B189F4211D82200194B98470028D2
:10BA50000BD17368B2689B189F4204D0002D02D1AD
:10BA600003E0002D10D0134B9847F8BD124A13493C
:10BA70001348144B98471448144B98470D20144B07
:10BA800098470C204042F0E7124A0C490C480D4BF5
:10BA900098471148F0E7114A08490A4D0848A84755
:10BAA000B26821000E48A847E8E7C0466C0B0020AA
:10BAB00095C60000BDB30000790200000C560100DD
:10BAC000A05501002D3701008058010049380100C0
:10BAD000613701006B02000018580100730200007A
:10BAE0003858010070B5040007281FD8164A830093
:10BAF000D3589F460020154B996170BD134B002011
:10BB0000D960FAE7114B00201961F6E70F4B0020CE
:10BB1000D961F2E70D4B00205961EEE70B4B002095
:10BB20005962EAE7094B00201962E6E7084A094929
:10BB3000094D0A48A84721000948A8470D20094B8C
:10BB400098470C204042D8E7C85501006C0B0020F4
:10BB5000B1020000185601002D370100A055010068
:10BB6000C45801006137010010B5282200210648A1
:10BB7000064B98470648074B984707490320074B51
:10BB80009847002010BDC0466C0B002081B3000018
:10BB9000A9B300003DB00000B9B30000E5BA000051
:10BBA00030B504009DB015002C283FD01B284DD087
:10BBB00006285BD00E2827D0322827D02F2865D022
:10BBC000342800D177E0112800D1A8E0132800D153
:10BBD000BEE0042800D1EAE0652800D18DE0092804
:10BBE00000D1F6E02A2800D105E1202800D1C2E0EA
:10BBF00092228A4952008A4D8A48A84721008A48E1
:10BC0000A8470D20894B98471DB030BD0023142252
:10BC100003A92800864CA0470028F5D1854B1B6856
:10BC2000002BF1D003A932309847EDE7002304221E
:10BC300003A928007E4CA0470028E5D17D4B1B6856
:10BC4000002BE1D003A92C309847DDE70023082220
:10BC500003A92800764CA0470028D5D1754B1B6856
:10BC6000002BD1D003A91B309847CDE70123302208
:10BC700003A928006E4CA0470028C5D16D4B1B6856
:10BC8000002BC1D003A906309847BDE764220021EC
:10BC900003A8694B98470023642203A92800644C39
:10BCA000A0470028B0D1634B1B68002BACD003A980
:10BCB0002F309847A8E70023042203A928005C4CF2
:10BCC000A0470028A0D1564D5C48A847FF20039C00
:10BCD000230A220C034002402040210E00905848C5
:10BCE000A847524B0D209847524B1B68002B00D1A0
:10BCF0008AE700213420984786E70023042203A91D
:10BD000028004B4CA047002800D07DE7494B1B681A
:10BD1000002B00D178E703A96530984774E700222B
:10BD2000484B03AC1A702800002304322100404D18
:10BD3000A847002800D067E7434B22781A703D4B94
:10BD40001B68002B00D15FE72100113098475BE7AB
:10BD500003AC280000232C222100354DA8470028E1
:10BD600000D051E7334B1B68002B00D14CE721007A
:10BD70001330984748E70023082203A928002C4CD9
:10BD8000A047002800D03FE76B4628001A8A0830F9
:10BD900001230399A047002800D035E7254B1B68F5
:10BDA000002B00D130E703A9203098472CE700236F
:10BDB000042203A928001E4CA047002800D023E736
:10BDC0001C4B1B68002B00D11EE703A904309847C9
:10BDD0001AE70123642203A92800154CA047002874
:10BDE00000D011E7134B1B68002B00D10CE703A90F
:10BDF0000930984708E70123042203A928000C4CC6
:10BE0000A047002800D0FFE60A4B1B68002B00D19A
:10BE1000FAE603A92A309847F6E6C0460859010019
:10BE20002D370100A055010058590100613701006C
:10BE30001DBA0000F006002081B30000D0580100B8
:10BE400038590100F5060020F4060020F0B5C6467A
:10BE50000F23012200B58EB06B441A70002862D007
:10BE60000168324A180011600021314A314B1170CB
:10BE70009847041E04D020000EB004BC9046F0BDCC
:10BE800000202D4B9847041E03D02C4B00209847D0
:10BE9000F1E704AE2A492B4B012098472A4B30008A
:10BEA00098472A4B2A4D984604001800A847308C22
:10BEB000B3797279317900902648A847264F0D2032
:10BEC000B8474046A84726221A216A4469442348B5
:10BED000A8470D20B8474046A847737A327AF179CF
:10BEE0001F48A8470D20B8474046A847022305220F
:10BEF00013211C48A8470D20B8474046A8471A4AB6
:10BF00001A491B48A8470D20B84723000D33B2D16A
:10BF1000E8221849FF321848A847184B1848984794
:10BF20000D20B847A7E70C246442A4E7F0060020E0
:10BF3000F506002025C8000069BB000001C900000B
:10BF4000A1BB0000E5BA00005DC70000D0580100A9
:10BF50002D370100145A0100613701003C5A0100DD
:10BF6000585A01007C5A0100945A0100A05A01005D
:10BF7000AC5A010014590100A055010049380100D4
:10BF8000C45A010010B5014B984710BDB1B600006E
:10BF9000F0B557464E464546DE46E0B5A1B0994657
:10BFA0002AAB1B88824698462BAB0C0016001F78E4
:10BFB000012A05D04B46002B00D1BEE0022A69D0F1
:10BFC000631E1F2B00D9A1E04346013B0D2B03D973
:10BFD0004346FF2B00D08AE05A205B4B220051469B
:10BFE00068449A469847002305AD2C1946349B4671
:10BFF000237042464423EA527B1E9F416723EF543D
:10C00000263BEE54032E17D0022E64D0042E3CD0D3
:10C01000012E00D073E000232A00029301930093C5
:10C0200028216C330120494CA04721B03CBC9046EC
:10C030009946A246AB46F0BD4B461B78013BDBB2AE
:10C040002B70032B69D84B465A78531E6B70110026
:10C05000102399430B290DD03D493E4A3E483F4CA1
:10C06000A04769783E48A0470D203E4B98470C20DA
:10C070004042DAE74B461620991C6844D0474B46AD
:10C080005A465B78EB189A70C5E73E22494628006D
:10C09000D047C0E74846344B9847402890D148469F
:10C0A0004A46403009E00A3906290BD9473B192B8B
:10C0B00008D90132824200D182E713781900303961
:10C0C0003629F0D9294A22492348244B9847284841
:10C0D000284B9847C8E7244B48469847431E9BB2D5
:10C0E0003F2B23D8421C49462800D04793E78D2296
:10C0F000174992001848194B98471F48E8E71F4A0C
:10C1000013491548154B98471D48E1E71D4A10494A
:10C110001148124B98471C48DAE71C4A0C490F4C4F
:10C120000D48A04729781A48A0479DE7194A0849B1
:10C1300009480A4B98471848CAE7184A044906486C
:10C14000064B98471648C3E769B3000061B4000086
:10C150002459010052020000A05501002D370100B2
:10C16000C85901006137010091B3000021020000AD
:10C170008059010049380100A059010071020000F6
:10C18000005A01002B0200008C5901004B020000F4
:10C19000AC59010061020000E459010015020000E1
:10C1A0006C59010030B5002583B006AC2488019598
:10C1B0000094024CA04703B030BDC04691BF0000C0
:10C1C00000207047F0B5802400256400094F0A4E16
:10C1D00083B00443A52021004001B847A52001A950
:10C1E00040010195B0470028F4D1019B9C42F1D158
:10C1F00003B0F0BD89C600007DC60000002330B545
:10C2000083B001A91048114C0193A047002801D028
:10C2100003B030BD8021019B490019430A480C4DF1
:10C220000191A8470028F3D1D02001A94001A047DF
:10C230000028EDD18021D020019B49021943400103
:10C240000191A847E4E7C046081400007DC600003D
:10C2500089C6000070B5264D82B02C68002C02D033
:10C26000200002B070BD802029004001214EB0475F
:10C27000002802D000232B60F2E701A91E48B04736
:10C280000028F7D12B681D4A93420CD01C4A9342D8
:10C2900012D01C4A93421AD01B4C2340A024E40223
:10C2A0001C432C60DCE7019B5C1E631E9C41174B0A
:10C2B0009C4664442C60D3E7019C032C15D0043CBD
:10C2C000631E9C41124B9C4664442C60C8E7EC20E2
:10C2D00029008003B0470028CCD1A0242A680A4B4B
:10C2E000E40213401C432C60BAE70A4C2C60B7E709
:10C2F000F80600207DC60000F4130000A002100024
:10C30000B0021000F0001000FFFFF0FFA0021500C7
:10C31000B1021500B002150030B5164C83B00125EE
:10C3200002E0019B2B4206D001A91020A047002863
:10C33000F7D003B030BD01A90130A0470028F8D1E3
:10C34000022301990B4206D0994301200A4B019127
:10C3500098470028EDD101A90B20A0470028E8D17B
:10C36000012301990B42E4D099430B20024B019128
:10C370009847DEE77DC6000089C60000F0B5C646D6
:10C38000002300B582B069460B202B4D009301932A
:10C39000A847041E2BD1012300990B422CD06946DB
:10C3A0000120A847041E22D1022300990B422AD063
:10C3B000224B05260427984601A90F20A847041EF2
:10C3C00028D1019B3B4233D10220013EC047002EC1
:10C3D000F2D1AF221A4952001A4B1B4898471B4B07
:10C3E0001B48984704240D201A4B984764422000AC
:10C3F00002B004BC9046F0BD19430B20164B984781
:10C40000041ECCD0F3E719430120134B9847041EB8
:10C41000CED0ECE7AA220B4D520009490A48A847A2
:10C42000019A21000D48A8470A4B0D209847DEE7E6
:10C430000B4B9847DBE7C0467DC6000025B00000E7
:10C44000E05A01002D370100A055010049380100D4
:10C45000285B01006137010089C60000105B010004
:10C4600065C60000F8B50700294C2A4D01E00120FF
:10C47000A8472948A0470028F9DA2848A047C30759
:10C4800007D4244E264D0120B0472648A047A84295
:10C49000F9D1022F28D0032F30D023492348244C30
:10C4A000042F1ED0A0470025224B9847224B0005A1
:10C4B000000D984210D82800204B9847204D214865
:10C4C000A84719492048A847204B0D2098472049E4
:10C4D0001448A0470020F8BD0220184B2843984775
:10C4E000ECE7A0478025DFE71A49114C1A48A0471E
:10C4F00080210E484903A0470025D5E715490C4C7B
:10C500001548A04700210948A0470025CCE7C046B0
:10C5100071C6000025B0000014100000BC07020026
:10C520009ED0AD100C000C00521352138C10000062
:10C5300089C6000055C200009F030000C5C100006D
:10C540002D370100D0580100445B01006137010024
:10C55000612F52EF7DD51C3CAC07020070B5164B25
:10C5600082B00093154B02380193012817D901249A
:10C5700000206442124E134D06E00220B047013CF9
:10C580000098A847002C0FD0019B9842F5D1019A42
:10C590000A4B00249A420AD0200002B070BD0A4B18
:10C5A00000930A4B0193E2E705246442F4E700217B
:10C5B000074B01489847EFE78C10000036265302DE
:10C5C00025B0000071C60000AC070200C3C15DD7F2
:10C5D00089C600000023A02010B582B0019301A9F4
:10C5E00040010F4B9847041E18D1A020019B0D4914
:10C5F000400119400C4B01919847041E02D12000C4
:10C6000002B010BD094A0A490A4B0B4898470B4B28
:10C610000B4898470B4B0D209847F0E70A4AF2E782
:10C620007DC60000FFFBFFFF89C600000B02000073
:10C63000EC5A01002D370100A055010049380100D6
:10C64000F85A0100613701000502000010B5014BE6
:10C65000984710BDB5B0000010B5014B984710BD0C
:10C66000FDB2000010B5014B984710BDD5CF0000BA
:10C6700010B5014B984710BD41D1000010B5014BDA
:10C68000984710BD55D1000010B5014B984710BD1B
:10C690006DD10000F0B546464F46D646C0B5144BA6
:10C6A00007001D888846083DADB216000400AA4266
:10C6B00016D9104B99462B1A9A4605E05346761B1D
:10C6C00019196419AE420ED9E11B41442A00200019
:10C6D000C8470028F2D01CBC90469946A246F0BD3F
:10C6E000044B00219946B2B241442000C847F2E70A
:10C6F0000801002085D10000F0B546464F46D646D9
:10C70000C0B5144B07001D888846083DADB2160021
:10C710000400AA4216D9104B99462B1A9A4605E0F6
:10C720005346761B19196419AE420ED9E11B4144D8
:10C730002A002000C8470028F2D01CBC9046994629
:10C74000A246F0BD044B00219946B2B241442000FC
:10C75000C847F2E708010020E5D20000002370B5C9
:10C7600084B0040001930822002102A8264B9847B8
:10C77000002C3FD000212000244B2822984701A9FB
:10C780002348244B9847002835D10198002834D0FD
:10C79000C025AD022843082202A91F4EB047002839
:10C7A00029D16B4698890190002826D02843282259
:10C7B0002100B04700281ED10F232179A279090258
:10C7C0001A400A436179FF30090101400A43657A42
:10C7D000E1792B4009020B43217A09010840034308
:10C7E000002A0AD0002B08D00C498B4208D80C4BE9
:10C7F0009A4205D9002004B070BD0C204042FAE7EF
:10C800000D204042F7E7C046CB35010081B3000060
:10C8100008000C007DC6000095C600005213000001
:10C8200051130000F8B500281ED005786B1E032BAD
:10C830001AD80020224B9847041E1BD1214E2248B3
:10C84000B047224B984701002148B0470D20214FA7
:10C85000B847214B98472800204B9847041E16D014
:10C860001F4B98472000F8BD0020154B9847012525
:10C87000041EE3D028221B49FF32124B1A48984766
:10C880001A4B1B489847134B0D209847EAE728009E
:10C89000184B9847041EE3D1023D012DE2D9164BF7
:10C8A0009847051EDED056220E49FF320E48B0478B
:10C8B0000E4B124898470D20B8472C00D0E7C046D1
:10C8C0004DC600002D370100D058010055C20000B0
:10C8D000145C010061370100FDCF000065C4000059
:10C8E00059C600005C5B0100A055010049380100F9
:10C8F000F85B01005DC50000FDC10000D85B0100D0
:10C9000010B5174B9847041E19D10020154B9847B6
:10C91000041E07D1144B9847041E18D1134B984797
:10C92000200010BD74221249FF321248124B984762
:10C930001248134B9847134B0D209847F0E7B62247
:10C940000B4952000B480C4B98470F48F1E77A22ED
:10C950000749FF320748084B98470C48E9E7C046AB
:10C96000D5C50000BDDD000059C6000031D1000072
:10C97000685B0100A05501002D370100985B0100A4
:10C980004938010061370100785B0100BC5B0100A0
:10C9900070B586B00AAC25786C4620703F30C0B2C6
:10C9A0000E2800D98FE0494C80002058874600238C
:10C9B0006A46052553709370D370454B1B78002B46
:10C9C0001DD0013DEDB26B460393002303A94B60DC
:10C9D0000320404B0D81984703000120002B0CD011
:10C9E00028223D49FF323D4B3D4898473D4B3E484C
:10C9F00098470D203D4B9847002006B070BD6E1E35
:10CA000034006A467F233A486C4411785B004B40FF
:10CA10000132C35C9442F8D16A465B009355D2E779
:10CA2000FF23C5E768460A0C42700A0A82701A0C96
:10CA300002711A0AC170427183710825BDE7684608
:10CA40000B0C43700B0A8370130E0371130C4371AC
:10CA5000130AC1708371C2710925AEE76A460B0CD7
:10CA600053700B0A9370D1700525A6E768460A0C2F
:10CA700042700A0A82701A0AC17002714371072556
:10CA80009BE70B0ADBB2002D02D08020404203431B
:10CA900068464370130EC370130C0371130A817040
:10CAA00043718271082588E70B0ADBB2002D02D0A2
:10CAB0008022524213436A465370917000236A46A3
:10CAC0000525D37079E7002097E7C046245C010074
:10CAD000FC060020BDB10000685C01002D3701009C
:10CAE000A055010049380100F860010061370100DC
:10CAF000F45C0100F0B54E46DE4657464546E0B5CB
:10CB000085B08146030001ACCF283CD03B33DBB27B
:10CB1000012B38D96B46DE1C304B984600239B46D0
:10CB200001330B259A465B462360534621000320C0
:10CB300066602381C047071E35D133784B4503D04B
:10CB4000013DEDB2002DEED100239A4601330B25B5
:10CB50009946534623604B4621000320666023819B
:10CB6000C04700282DD13378002B03D0013DEDB212
:10CB7000002DEED10127380005B03CBC9046994607
:10CB8000A246AB46F0BD002301936B46DE1C012399
:10CB90002381124B210003206660984698470027A6
:10CBA0000028BBD0E7E7B1220D4952000D4B0E48DB
:10CBB00098470E4B0E4898470D200E4B984700277C
:10CBC000D9E7B82206495200064B07489847074B59
:10CBD00007489847074B0D209847CCE7BDB10000A8
:10CBE000805C01002D370100A0550100493801008B
:10CBF0002461010061370100F0B5454657464E46B5
:10CC0000DE460023E0B58BB0009304ABDF1D464B3E
:10CC1000884699460390029207AD802243469201CE
:10CC2000904501D9414B1B889BB2019300239B4641
:10CC300001330A249A465B462B60534629000320A1
:10CC40006F602B81C847002841D13B781B090F2B0F
:10CC500017D0013C24B2631CEDD10600344A35499B
:10CC6000354C3648A04739783548A0470D20354B1C
:10CC7000984730000BB03CBC90469946A246AB4664
:10CC8000F0BD0600002CE9D0009A039B9446634453
:10CC90006B606B469B88290003202E602B81C84760
:10CCA000002833D1029B002B03D1274B1B78002B8C
:10CCB0001AD00199009B8C4663441BB200934346F3
:10CCC0005B1A9BB29846002BA7D10126D1E71F4AD9
:10CCD00018491A48184B98471D481E4B98470D2075
:10CCE000184B98470026C4E7029B29002B6006AB2F
:10CCF0006B60022303202B81C8470028D9D0164A35
:10CD00000C490E480C4B98471448E6E7C5220949E0
:10CD10009200094B094898470E4B11489847094B18
:10CD20000D209847A5E7C046BDB10000605C01003A
:10CD30000B0300008C5C01002D370100A0550100A1
:10CD40008C61010061370100FC060020FF02000039
:10CD500058610100493801001F030000EC61010027
:10CD6000BC610100F0B54E46DE4657464546E0B58B
:10CD700087B00600039130285ED8314B1B78DBB2B8
:10CD8000049330220023B2425B410A25DBB20593B3
:10CD9000059B039A0093310004230498294CA04773
:10CDA0008046012835D0284B284A9B46284B5946B7
:10CDB0001800284C9A46A04731002748A047274B27
:10CDC0000D20994698470120254B984700230022C3
:10CDD00000210093CF201B4FB847224BCF2098470C
:10CDE000214A59465046A0472900039B32001F485C
:10CDF000A0470D20C847013D0120194B9847002D41
:10CE0000C6D1404607B03CBC90469946A246AB46C8
:10CE1000F0BD0498134B984780460128F1D00A4B87
:10CE2000E7229B460A4B594692001800094C9A4645
:10CE3000A04731000E48C1E70E4B1B789FE7C04664
:10CE4000625C010091C90000AC5C01009603000027
:10CE5000A05501002D370100B862010061370100C3
:10CE600025B00000F5CA0000AF0300001C630100FC
:10CE7000E4620100635C0100F0B54E46DE465746B1
:10CE80004546E0B589B006000591FF2868D83E4BBD
:10CE90001B78DBB20393FF220023B2425B41DBB27B
:10CEA00004930A252CE0394B394A9B46394B5946A5
:10CEB0001800394C9946A04731003848A047384BF4
:10CEC0000D20984698470120364B984700230022B2
:10CED00000210093CF20344FB847344BCF209847E0
:10CEE000334A59464846A047290032003148A047F6
:10CEF0000D20C047013D01202A4B9847002D27D027
:10CF0000049B00220093310004230398264CA04781
:10CF100082460128C7D10398244B984782460128AE
:10CF20000BD01A4B244A9B461A4B594618001A4CF0
:10CF30009946A04731002148C0E7049A042107A878
:10CF40001F4B9847824601280DD1059B079A1A600E
:10CF5000504609B03CBC90469946A246AB46F0BD4F
:10CF6000184B1B7895E7094B174A9B46094B5946C6
:10CF70001800094C9946A047144B15489847084B90
:10CF80000D20984698479EE7645C0100CC5C010048
:10CF900017040000A05501002D3701002062010098
:10CFA0006137010025B0000091C90000F5CA0000FA
:10CFB0003C040000A06201001D0400004C6201005E
:10CFC000F9CB0000655C0100240400004938010031
:10CFD00080620100002310B582B00093002200217E
:10CFE000044CCF20A047044BCF209847002002B02C
:10CFF00010BDC04691C90000F5CA0000F0B5454615
:10D00000DE4657464E460023E0B5384D85B002A9AE
:10D010003748384C02932B70A04700282AD02B7831
:10D02000002B19D0802001A94001A04700284ED034
:10D0300003A92F48A047702303992D489943203B0B
:10D0400019432D4B98470026300005B03CBC904654
:10D050009946A246AB46F0BD02997C3399432C3BDE
:10D0600019432348244B02919847061E23D00123DD
:10D070002B70D7E701232B70204B214A9B46214B75
:10D08000594618009A46204B994698471F4B20480E
:10D09000984698470D201F4FB84702A91448A0474B
:10D0A000061EBCD11C4A59465046C8471B48C047BB
:10D0B0000D20B847C8E71A4A1049134B1148984742
:10D0C000124B18489847134B0D209847BCE706268B
:10D0D000154A0A490C4B0B4898470C4B1348984784
:10D0E0000D200C4B98477642AEE7C046FC06002068
:10D0F00024E8000079CE000065CD0000E85C010066
:10D10000C7040000A05501002D3701004938010077
:10D11000F45D010061370100CA040000445E0100B3
:10D12000D4040000705E0100DE040000A45E010073
:10D130000022024B00201A707047C046FC060020F7
:10D1400000B583B001A9024B9847019803B000BD18
:10D1500079CE0000044B10B598470023012801D177
:10D16000180010BD063BFBE779CE0000044B10B55C
:10D1700098470023012801D1180010BD063BFBE7AA
:10D1800065CD0000F0B557464E464546DE460023C5
:10D19000E0B587B0039116000A25029382462DE080
:10D1A0003F4B404A9B46404B594618003F4C9946DE
:10D1B000A04751463E48A0473E4B0D209846984711
:10D1C00001203D4B98470023002200210093CF20EF
:10D1D0003A4FB8473A4BCF2098473A4A59464846C3
:10D1E000A0472900330052463748A0470D20C047CA
:10D1F000013D0120304B9847002D2CD0012E19D035
:10D200003300002251460092C8202C4CA047012830
:10D21000C6D1C8202A4B9847012810D0204B2B4A52
:10D220009B46214B59461800204C9946A047514631
:10D230002748C0E70122022302920226E1E7029B6F
:10D24000002B11D1002231000398224B984701286E
:10D2500015D1002001E00620404207B03CBC9046BA
:10D260009946A246AB46F0BD05AC0022194B3100F1
:10D27000200098472378039A13700128E9D0084BBF
:10D28000154A9B46084B59461800084C9946A0473A
:10D29000124B13489847074B0D20984698478FE745
:10D2A000DC5C01005D040000A05501002D37010089
:10D2B000C85E01006137010025B0000091C900007F
:10D2C000F5CA000084040000585F010063040000F8
:10D2D000F85E0100F9CB000073040000493801003A
:10D2E000305F01000A23F0B5DE4657464E464546FC
:10D2F0009A460023E0B58DB00390059191469B4678
:10D3000030E0904B904E1900904A914C30000493BD
:10D31000A04729008F48A0470D208F4DA8478F4B6D
:10D320000120984698475B46002200210093CF20B9
:10D3300000238B4FB8478B4BCF2098478A4A0499DC
:10D340003000A0474B465146039A8848A0470D201D
:10D35000A8470120C04701235B429C46E244534654
:10D36000002B25D04B46012B1ED05A46039D009220
:10D3700029000022C7207A4CA0470128C1D1C7202C
:10D38000784B984701281CD0F4226E4B6E4E190042
:10D3900092006F4C30000493A04703997448A04753
:10D3A0006D4D0D20A847BAE7022202239146DCE723
:10D3B000062040420DB03CBC90469946A246AB4682
:10D3C000F0BD5A4604AB1A8200234C46984609AE7B
:10D3D000684F2AE08022F1339201944200D8023350
:10D3E00004AAD37394460F23634433605B4673608F
:10D3F0000123310003203381B847002839D1059B30
:10D40000706043443100032033603581B847002801
:10D4100049D1594B1B78002B19D04346641BEB189C
:10D420001BB2A4B29846002C45D08023251C9B013A
:10D430009C4201D9514B1D884346ADB2002BC9D047
:10D4400080215B468901A1425B41F233C8E708AA0B
:10D45000736031000233032032603381B847002803
:10D46000DBD0394E464A47493000394CA047464840
:10D4700007E0D422344E920042493000344CA04799
:10D480004248434B984698470D20334DA847F82211
:10D490002C4B0493920019003000A0473D48C04730
:10D4A0000D20A8473BE7284E3B4A36493000284C20
:10D4B000A0473A48E5E7304B1B78002B2ED10224D9
:10D4C00002335A4631003260032008AA7260338169
:10D4D000B847002827D108AB9C466444631E1B78DC
:10D4E000002B03D1023C2378C32B1AD0A122164E65
:10D4F00052002B49164C3000A04704AB04AA04A9E3
:10D500009B7C527C097C2748A0470D20124DA847E0
:10D510001F4B98460B4BFA220493BBE703230324CB
:10D52000CFE7002046E73C22074EFF321C4930007F
:10D53000074CA047164B1C4898469847064D0D20AF
:10D54000A847E7E7BC5C0100A0550100CA03000042
:10D550002D370100745F01006137010025B0000024
:10D5600091C90000F5CA0000F2030000585F0100F5
:10D57000A45F0100BDB10000FC060020605C01005A
:10D58000630300009C5C010048600100DC5F010057
:10D5900049380100D0600100590300001460010007
:10D5A000705C0100A060010080600100F0B54E4693
:10D5B00045465746DE46E0B585B01F000EAB1D88D8
:10D5C000384B03929946030198464B4642469B5876
:10D5D00002900E00002B07D04B4643449A88002A45
:10D5E00002D09A7A012A06D005B03CBC90469946F2
:10D5F000A246AB46F0BD9A462B4BCD809B460A23F4
:10D600005344019353469B880097EB1A1BB2002B9F
:10D610003ADD53469C880023A4B24A46414600980E
:10D620005158224F2200B847002830D14B4642467D
:10D630009B58B4803360F3881B1BF3805B461B68E8
:10D64000002B05D05B4632001B680399029898476F
:10D65000009B2D1B9C46A44463460093019BADB2E6
:10D660001B78002B08D1002DBED0013300220021F1
:10D670000E4C0020A047B7E7002DB5D053469B883D
:10D68000EB1A1BB2002BC4DC2C000123C5E7084CAD
:10D690000848A04729000848A047084B0D20984794
:10D6A000A2E7C046980B0020480C00201DBA0000DD
:10D6B0002D370100D05801003863010061370100A7
:10D6C000F0B5D6464F464646C0B50D009AB0140098
:10D6D000412841D054283FD0422800D1E3E04328DC
:10D6E00051D0442800D1B9E04B2800D1B6E04A28F7
:10D6F00000D115E1462800D184E0482800D1EBE0B4
:10D700004D2800D17EE0452800D11EE1472800D1F8
:10D71000E5E04C2800D118E1522817D12000012360
:10D72000142209A99B4CA04700280FD10A9B039300
:10D73000039A994B1A601A68002A07D02C2102AA72
:10D7400052181B6812780B99099898471AB01CBC9C
:10D7500090469946A246F0BD20000023042209A964
:10D760008C4CA0470028F1D102AB5B7F05AA137057
:10D770008A4B19680029E9D01C2002A908561B68A9
:10D7800001219847E2E705AD200000230C22290083
:10D79000804CA0470028D9D10920285600281FDB3B
:10D7A0000822AA567E4B12019A18D27A040119193E
:10D7B000D2B2CA7201228A726A89083A92B20A8186
:10D7C000784A1188013189B211801188002903D16A
:10D7D0001188013189B2118012881B1992B2DA8046
:10D7E000022309AA107093806B88D3806B689360C2
:10D7F0006A4B19680029A9D008201B682856042103
:10D800009847A3E70623984605AE0023102231006F
:10D810002000604FB847002800D097E70C23F3564C
:10D820005F4A9C461B01D218F18910730823F05EF1
:10D8300002AB82467089D28881467088D88473682A
:10D8400003930C93914200D181E0102D00D87DE725
:10D850000123002200210020B84777E720000023A1
:10D86000042209A94B4CA047002800D06EE71C20D9
:10D8700002AB185605AD28705B7F5BB26B70002B56
:10D8800007D102ABDB8B464A083B01019BB2521821
:10D890001381424B1A68002A00D157E71B682A00FF
:10D8A0000521984752E720000023042209A9394C9A
:10D8B000A047002800D049E702AB5B7F05AA1370A0
:10D8C000364B1968002900D140E71C2002A90856F0
:10D8D0001B680221984739E70923984694E70825F1
:10D8E00020000023082209A92A4CA047002800D0C4
:10D8F0002CE71C2002AB1856198CDB8B05AA138071
:10D90000274B04011B19DB88994200D01EE7234BEB
:10D910001968002900D119E71B682900984715E705
:10D9200020000023442209A91A4CA047002800D057
:10D930000CE71D4B1A68002A00D107E7199A1B68EB
:10D94000110009A80392984700E70725C8E7534646
:10D95000002B0EDDAA450CDA6A4653469381938963
:10D960004C4400934246230009A960460F4CA0474F
:10D97000ECE6524602AB1A8400230993074B1A685F
:10D98000002A00D1E2E61B6809AA41466046984792
:10D99000DCE6C0461DBA00004C0C0020480C0020FC
:10D9A000980B0020FE060020500C0020ADD5000092
:10D9B00070B5094D2C78E4B2002C0CD1B0220021B6
:10D9C0000648074B9847074B074902209847012311
:10D9D0002B70064B1C8070BDFD060020980B0020AC
:10D9E00081B30000E5BA0000C1D60000FE060020A9
:10D9F000024B1860024B19607047C046480C00206B
:10DA0000500C0020F0B54F46D6464646C0B591466C
:10DA100086B0022803D101290AD0022922D001258B
:10DA20006D42280006B01CBC90469946A246F0BD47
:10DA3000324B07269A46324B324F98463D783C7817
:10DA4000387807210130D047E4B2C9B224013970D7
:10DA50004444A37AEDB2002B1AD0013EF6B2002E58
:10DA6000ECD1DCE7042203202749284E0D780C78FE
:10DA70000B7824010133034034190B70A37AEDB203
:10DA8000002B04D0013AD2B2002AEFD1C7E7073504
:10DA90006DB2002DC5DB1E4B1022002120009847DF
:10DAA00001231C4EA372338801339BB23380338829
:10DAB000002B03D1338801339BB233803388164F58
:10DAC0009BB2E3801548B8473288290092B21448C7
:10DAD000B847144B0D2098474B46DB07A1D52123AF
