S0140000426F6F746C6F616465725F312E7372656375
S1130000A8200020DD0E0000D90E0000D90E00004B
S113001000000000000000000000000000000000DC
S1130020000000000000000000000000D90E0000E5
S11300300000000000000000D90E0000D90E0000EE
S1130040D90E0000D90E0000D90E0000D90E000010
S113005025020000D90E0000D90E0000D90E0000C0
S1130060D90E0000AD010000C1010000D50100005F
S1130070E9010000FD01000011020000D90E00009A
S1130080D90E0000D90E0000D90E0000D90E0000D0
S1130090D90E00000000000000000000D90E00008E
S11300A0D90E0000D90E0000D90E0000D90E0000B0
S11300B00000000010B5064C2378002B07D1054B37
S11300C0002B02D0044800E000BF0123237010BDC0
S11300D00C0000200000000084120000084B10B542
S11300E0002B03D00749084800E000BF0748036815
S11300F0002B00D110BD064B002BFBD09847F9E72D
S1130100000000001000002084120000841200008F
S113011000000000044A137802210B431370537843
S11301205BB2002BFBDB70470018004010B584B0B5
S1130130164C7C44164A936940210B439361022375
S113014003A90B700520134BE3580193984705202E
S1130150114BE35801939847104A137801210B433C
S1130160137053785BB2002BFBDB0D4BE358190083
S11301704031002204C39942FCD11022094B1A6079
S1130180094B7B44984704B010BDC0464E11000093
S1130190000400401C00000068000000001800403B
S11301A04400000000E100E08FFFFFFF10B5034BA7
S11301B07B441B680020984710BDC04674FEFF1F97
S11301C010B5034B7B445B680120984710BDC046C3
S11301D060FEFF1F10B5034B7B449B6802209847C9
S11301E010BDC0464CFEFF1F10B5034B7B44DB68BB
S11301F00320984710BDC04638FEFF1F10B5034BBF
S11302007B441B690420984710BDC04624FEFF1F91
S113021010B5034B7B445B690520984710BDC0466D
S113022010FEFF1FF0B583B0164D7D44164BEB58FE
S113023001930023019A1370144A1F2701260024F6
S11302400CE0124A0AE0104BEA5813780133DBB28F
S113025013700F2B14D822001F2BF2D93900194028
S113026030008840010010690842ECD01161084A4E
S1130270AA5801929B009B58002BE4D09847E2E7D0
S113028003B0F0BD561000005400000000180040F8
S11302904400000030B583B00D4C7C4400200D4B6D
S11302A0E3580193984705000B4BE458FA21890061
S11302B0A0470A4B7B44186009492800A047094B12
S11302C07B4418600522084B1A6003B030BDC04659
S11302D0E60F0000280000005C00000048FDFF1F3E
S11302E040420F0040FDFF1F10E000E030B5094B15
S11302F07B441C68084A002580214902013807D341
S1130300002CFBD05460956013680B42FCD0F5E7D9
S113031030BDC0460CFDFF1F10E000E010B584B0F6
S1130320084A7A44802403AB1C700C785C704C78C7
S11303309C708978D9701900034BD358019398475E
S113034004B010BD5E0F000090000000F0B5CE4672
S1130350474680B585B0544B7B449946002603AC90
S1130360267001276770A670210013204F4B4A4660
S1130370D558A84721001020A84721001120A847DC
S113038021001220A84726706670A770210014204F
S1130390A84721001520A84726706770A770210080
S11303A01820A84721001920A84726700223984640
S11303B06370A77021003620A84721002220A84797
S11303C021003720A84721002320A84721002A2004
S11303D0A84726706770A67021000320A847210053
S11303E01F20A84726706670A77021000220A84726
S11303F026706670A77021002B20A84726704346FC
S11304006370A77021000420A84721000520A84795
S113041021000620A84721000720A8472100082022
S1130420A84721000920A84721000A20A847210045
S11304300B20A847267043466370A770210017203D
S1130440A847267043466370A77021000E20A84772
S113045021000F20A84721000C20A84721000D20CF
S1130460A84721002920A84721001620A8472100D9
S11304702820A84727706670A67000211B20A84773
S113048000211C20A84721001B20A84721001C2074
S1130490A847074B4A46D3580193984705B00CBC6C
S11304A090469946F0BDC046280F00006C0000003D
S11304B04000000082B0124B7B44124A7A44126816
S11304C0002A07D1EFF31082002A0AD000220E4B33
S11304D07B441A700D4A7A4413680133136002B0E6
S11304E0704772B6BFF35F8F094A9B58019300238C
S11304F0019A13700122074B7B441A70EAE7C04645
S1130500C80D000080FBFF1F70FBFF1F66FBFF1F71
S11305102C00000048FBFF1F82B00D4979440D4BAD
S11305207B441A68013A1A601B68002B0DD10A4BF0
S11305307B441B78002B08D0084BCB580193012334
S1130540019A1370BFF35F8F62B602B07047C04662
S1130550640D00001CFBFF1F10FBFF1F2C0000009C
S113056000B583B0234B7B44082806D800F0C0FDB7
S11305700705053E3E120B163400002038E01E4BE2
S11305807B44186934E01D4B1B6A9B059B0F1C4878
S1130590D8402DE01B4B7B44586929E01A4A7A4421
S11305A012680020920723D514481021C268114212
S11305B0FCD0164A7A441268520701D4144817E052
S11305C00020144A9B5801939847134B7B449B6823
S11305D01B041B0C58430BE05023084AD35C002037
S11305E05B0705D50D4B7B44D86801E080200002F1
S11305F003B000BD1A0D0000C4FAFF1F000800403C
S113060000127A00AEFAFF1FA6FAFF1F90FAFF1F2E
S1130610006CDC024800000078FAFF1F5EFAFF1F3E
S113062070B50C490B6A0478857840780122104033
S113063080014026B34303432A40D20180208343F0
S113064013430322224012020348034013430B6264
S113065070BDC04600080040FFFCFFFFF0B5DE4659
S113066057464E464546E0B50100274B9B469B8ABC
S1130670457800784242424191468878CA78944647
S11306800A7990464E7B0F7B8C7B8A681F4979449C
S11306904A6101214A4692009146042293434A4604
S11306A0134342460A40D2009046082293434246EE
S11306B0134362460A401201944610229343624651
S11306C01343084040012022934303430F40BF01DA
S11306D0402083433B430E40F60140308343334381
S11306E0793805402D020A4803402B432140090371
S11306F0084803400B435A4693823CBC90469946B3
S1130700A246AB46F0BDC04600080040B6F9FF1F44
S1130710FFF8FFFFFFEFFFFF10B5037A9B061B0CEA
S113072042899205920D13431A4979444B608379A7
S1130730C279134342888488224313434278D20106
S113074013430B600378042B12D0202B0FD1037BAF
S11307509B06028A1343C28912040F490A401343B9
S11307600E4A7A44936011680D4B0B43136010BD1D
S1130770037B9B06028A1343C289120406490A407A
S11307801343084A7A449360136804210B431360AB
S1130790EDE7C0461AF9FF1F0000FF03E2F8FF1F50
S11307A024040000C0F8FF1F00B5082806D800F094
S11307B09FFC1505054E0E1C07234600172047E035
S11307C0244A136A02210B431362002040E0214AA9
S11307D0936902210B439361002039E01D4A138A77
S11307E002210B431382002032E01A4A938A022129
S11307F00B43938200202BE0174979440B680222B3
S113080013430B60134B9A8419000E32CB681A42BF
S1130810FCD0124A7A4491680E4BD96252689A62AB
S113082000229A8419001032CB681A42FCD00C4B77
S11308307B441B689BB2074A9384002008E0054967
S113084044228B5C022003438B54002000E00020F0
S113085000BDC046000800404AF8FF1F30F8FF1FE3
S113086014F8FF1F00B5082808D800F041FC190748
S113087007220509170B0D00042312E0002017E0DE
S113088002230EE0D0230CE050230B4AD05C4D3BF6
S11308901840033843425841C0B209E0082300E03D
S11308A00123054AD0681840C01A43425841C0B2D7
S11308B000BD0120FCE7C04600080040F0B5C64674
S11308C000B592B0634F7F44C222D200624B9A605B
S11308D0624A53681E218B431C390B435360032225
S11308E005AB1A7000241E005D4BFD58E0B23100C8
S11308F0A8470134252CF9D100230EA803708022C7
S113090012028260C370012202718373022141705A
S1130910827043730273534BFB580193984705202D
S1130920514BFB5801939847504BFC580520A04766
S11309300028FBD0484A938A80210B4393820021EC
S1130940002209AB598099809A71DA713F3159813B
S11309503B3919705A70464B1B689B0E3F2B00D1D4
S113096076E009A80372434B0382072303733833E9
S1130970C381414BFB5801939847002608A8467051
S11309800125857006703D4BFB580193984706205E
S1130990354BFB5801939847394BF95802918847D6
S11309A005AC06956670267266720521884621702C
S11309B021000120334BFB5802939C46E047012061
S11309C0314BF9580391884766706672404620702F
S11309D020236360257221000220029EB04702207A
S11309E0039988472570210000201D4BFC58029470
S11309F0A0470020254BF958029188470720019A07
S1130A0090471A4BFC580720A0470028FBD0124AF5
S1130A10938C80210B4393841D4A002313725372D9
S1130A209372D372012205A94A604B700B724B7208
S1130A3007330B700020134BFB5801939847002099
S1130A40114BFB580193984712B004BC9046F0BD7B
S1130A50203B86E7BA09000000080040004000413E
S1130A601C00000064000000780000008400000006
S1130A7024608000DC0500000C0000003800000049
S1130A8094000000300000005000000068000000E6
S1130A9000040040064A936908210B439361012234
S1130AA0044B1A7019000B781342FCD17047C046EE
S1130AB000040040000C0040F0B583B007002C4E49
S1130AC07E4404000D782D0205434B78002B02D0A0
S1130AD08023DB021D434B7A002B02D080231B03AF
S1130AE01D434868012810D9431E184239D10228F1
S1130AF035D90223002201325B009842FBD812024E
S1130B003A43140080235B031D430B7A002B02D06D
S1130B1080239B031D43174A53785BB2002BFBDBF6
S1130B20154BF35801939847144B1F70114A53788F
S1130B305BB2002BFBDB0F4B9C601A0053785BB25B
S1130B40002BFBDB0B4A5368802149020B401D43F9
S1130B5055600B4BF3580193984703B0F0BD002246
S1130B60CDE704023C4380239B021D43CDE7C046EE
S1130B70C0070000000C004024000000080C0040E6
S1130B800000000030B583B005000F4C7C440F4AD0
S1130B9053785BB2002BFBDB0D4BE3580193984772
S1130BA00C4B1D70094A53785BB2002BFBDB074AE0
S1130BB0516880235B020B435360074BE358019356
S1130BC0984703B030BDC046F4060000000C004056
S1130BD024000000040C004000000000F0B583B0C5
S1130BE00600204C7C44204A53785BB2002BFBDB8C
S1130BF01E4BE358019398471D4B1E701A4A5378B5
S1130C005BB2002BFBDB184F7868C004C00E194B95
S1130C10E358019398470500154B1E707F68FF0247
S1130C20FF0F154B1E70104A53785BB2002BFBDB91
S1130C300D4B9E683602360C104BE35801939847CF
S1130C40002F09D1012E09D90D4BE358019331002E
S1130C5028009847050001E00136F540280003B05C
S1130C60F0BDC0469C060000000C004024000000BB
S1130C70040C00407C000000080C00400000000050
S1130C805C00000030B583B005000A4C7C440A4B7C
S1130C90E35801939847094B1D70094A53888021F2
S1130CA0C9010B435380074BE3580193984703B0A2
S1130CB030BDC046F405000024000000020C0040D2
S1130CC0000C00400000000030B583B00500134C58
S1130CD07C44134BE35801939847124B1D70124AFE
S1130CE050880005000F538810490B4053805388E7
S1130CF00F490B40538011008022D2014B881342CC
S1130D00FCD109494B8802020848034013434B8035
S1130D10084BE3580193984703B030BDB005000079
S1130D2024000000020C0040000C0040FFF0FFFF14
S1130D30FFBFFFFF0000000010B582B0064B7B44EC
S1130D400C7824020443054A9B5801939847A4B2A3
S1130D50034B5C8002B010BD420500008800000017
S1130D60000C004030B583B004000B4D7D440B4BA8
S1130D70EB58019398470A4B1C700A4B5C88240576
S1130D80240F094BEB58019398472000074BEB586D
S1130D900193984703B030BD1405000024000000FF
S1130DA0020C0040000C004000000000280000007D
S1130DB030B5D378002B35D11378802B29D01B067E
S1130DC080246402234354780225AC4306D19478EA
S1130DD0002C20D18024A402234341605478013C98
S1130DE0012C1CD90D042D0CA024E4052C431C4318
S1130DF084620D0CD02424062C431C438462D478D2
S1130E00002C22D15B031CD59378012B1ED04161A9
S1130E1017E00023D7E7C024E4022343DDE70D4CA9
S1130E202340DFE741600C04240CA023DB052343AB
S1130E3083620C0CD0231B0623438362D378002BDC
S1130E4003D15378013B012B02D930BD8161F8E70E
S1130E508160FAE7FFFFFBFF10B50A00C109002318
S1130E60002904D14309DB0105498C4663441F244E
S1130E702040012181401800024B7B44984710BD5B
S1130E800044004133FFFFFF7047000010B582B0FB
S1130E900B4C7C440B4BE358019398470A4BE358A3
S1130EA001939847094BE35801939847084BE3583B
S1130EB001939847074BE3580193984702B010BD3C
S1130EC0EE030000740000004C00000070000000FD
S1130ED03C00000020000000FEE70000F0B583B0F5
S1130EE0404C7C44404BE3580093404BE3580193FF
S1130EF0009B019A934222D03C4BE35800933C4B15
S1130F00E3580193009B019A934218D2384BE3585B
S1130F100093364BE3580193DB43009A94466344B1
S1130F209B0801339B0000223049615800912E49EF
S1130F30615800988D58855004329A42F9D12D4B4E
S1130F40E35800932C4BE3580193009B019A93427E
S1130F5010D2284BE258284BE3580093D34300990E
S1130F608C46634403218B4304339B18002102C243
S1130F709342FCD1214BE3580093FF23009A9A43F8
S1130F8013001F4A9360022190235B001D4AD15035
S1130F901D49CB780326B34302252B43CB70CB7872
S1130FA00C27BB4308221343CB70184B987B30218A
S1130FB08843202108439873997BB943114399735B
S1130FC09A7BB2432A439A73114A536880210B4394
S1130FD05360104BE358009398470F4BE35800932A
S1130FE09847FEE79E030000100000001800000070
S1130FF080000000140000006000000008000000F1
S113100000ED00E000700041005000410048004144
S1131010004000413400000058000000F0B5CE4606
S1131020474680B585B0274F7F44274BFB58019333
S113103098472648264BFB5801939847254BFB5865
S1131040994603AE0723984610E0234A1369042106
S11310500B431361214BFB5801930123019A137035
S1131060BFF35F8F62B6BFF34F8F30BF0124E5B289
S11310702800C8474346337031002800184BFB58FA
S1131080019398470134262CF1D1164B9A6900221A
S11310909A61D969DA61196A1A6272B6BFF35F8F0D
S11310A00E4BFB5801931A700F4B9B691B051B0FCA
S11310B0022BCAD80D4A5168C0239B000B435360CE
S11310C0C3E7C0465802000004000000B80B00004B
S11310D08C0000008800000000ED00E02C000000FF
S11310E01C000000000400400020004100400041BA
S11310F002B4714649084900095C49008E4402BCA7
S11311007047C046002243088B4274D303098B42C4
S11311105FD3030A8B4244D3030B8B4228D3030CC3
S11311208B420DD3FF22090212BA030C8B4202D365
S11311301212090265D0030B8B4219D300E0090A8D
S1131140C30B8B4201D3CB03C01A5241830B8B4296
S113115001D38B03C01A5241430B8B4201D34B037F
S1131160C01A5241030B8B4201D30B03C01A5241E4
S1131170C30A8B4201D3CB02C01A5241830A8B4269
S113118001D38B02C01A5241430A8B4201D34B0252
S1131190C01A5241030A8B4201D30B02C01A5241B6
S11311A0CDD2C3098B4201D3CB01C01A524183096A
S11311B08B4201D38B01C01A524143098B4201D3A4
S11311C04B01C01A524103098B4201D30B01C01ACF
S11311D05241C3088B4201D3CB00C01A5241830849
S11311E08B4201D38B00C01A524143088B4201D376
S11311F04B00C01A5241411A00D2014652411046D6
S11312007047FFE701B5002000F006F802BDC046B4
S11312100029F7D076E770477047C04670B50026BE
S11312200C4D0D4C641BA410A64209D1002600F0FD
S113123019F80A4D0A4C641BA410A64205D170BDCE
S1131240B300EB5898470136EEE7B300EB589847E4
S11312500136F2E7701200007012000070120000F4
S113126074120000F8B5C046F8BC08BC9E4670472E
S1131270DD000000F8B5C046F8BC08BC9E467047C7
S1071280B5000000B1
S1131284190500008D0E000000000000190700007D
S1131294281300000C00002000000020390D000079
S11312A4890E0000B5040000DD0B000008000020D6
S11312B4B90A00001D120000210600002D010000DF
S11312C49502000060000020650D00004D0300003D
S11312D4850B0000A00000201D1000000511000073
S11312E4A40000205D060000850C00001D0300001E
S11312F4890E0000BD080000A90700006105000074
S11313040C00002065080000C90C0000ED02000078
S10B1314590E0000950A0000C7
S10F131C000000000000000000000000C1
S10F1328401F000008000000010000004D
S9030EDD11
