S029000073616D7732355F78706C61696E65645F70726F5F73657269616C5F6272696467652E73726563CD
S113000000260020F9310000F5310000F531000030
S113001000000000000000000000000000000000DC
S1130020000000000000000000000000F5310000A6
S11300300000000000000000F5310000F531000070
S1130040F5310000F5310000F5310000F531000014
S1130050ED190000F5310000F5310000F531000024
S1130060F5310000C91E0000D91E0000E91E000081
S1130070F91E0000091F0000191F000031310000A3
S11300804131000051310000C5310000D53100007C
S1130090E5310000F5310000F5310000F5310000D4
S11300A0F5310000F5310000F5310000F5310000B4
S11300B010B5064C2378002B07D1054B002B02D03A
S11300C0044800E000BF0123237010BD7400002029
S11300D0000000003C4F0000084B10B5002B03D07B
S11300E00749084800E000BF07480368002B00D117
S11300F010BD064B002BFBD09847F9E70000000029
S1130100780000203C4F00003C4F0000000000003D
S113011001220A4B1A700A4B1A88436A9B1A094A2D
S11301201360094B1B78002B06D0084B1A78084B38
S11301301A700022044B1A707047C0460005002054
S1130140D0000020FC040020C4000020C5000020D2
S11301500105002010B5104B1B78002B0AD00F4B63
S11301601A88012A12D00E4B19680E4B98470022A8
S1130170094B1A700C4B1B78002B06D00B4B1A78CA
S11301800B4B1A700022084B1A7010BD044B1968EF
S1130190084B9847EBE7C046C8000020D000002079
S11301A0CC000020FD270000C4000020C500002072
S11301B001050020A927000070B582B005000E00DB
S11301C000226B46DA80064C6B46991D2800A04736
S11301D00028F9D16B4606331B88337002B070BD1A
S11301E0B926000070B505008CB2034E210028002A
S11301F0B0470028FAD170BD8D260000F0B591B04B
S11302008023DB05009300230193FF2269460A81C2
S113021000228B72CB72012524216C466554013176
S1130220655401316354013163540A9305316354B5
S11302300131635405932382E37622762277627632
S11302401323A3766277C4239B03039301235B42A6
S11302500C930D93224B0E93224B0F930890224C38
S1130260224B1C60224A234B1A60234A234B1A60F8
S11302706A4623492000234B9847234F3B689868DC
S11302800021224EB0473B6858680021B047012244
S11302901F4920001F4EB04700221F492000B047CD
S11302A03122A35C03210B43A354266830001B4B6B
S11302B098471F2318408540194B1D602268D36955
S11302C0002BFCD13368022213433360013A154BEF
S11302D01A8015490448154B984711B0F0BDC04623
S11302E0020018000200190090000020F40500200C
S11302F0E5010000F0050020B9010000EC05002034
S11303000014004249230000100000205936000068
S1130310110100005727000055010000991E00003C
S113032000E100E0D0000020E8000020A927000040
S1130330F0B5C64600B584B0D54B9847E1204002DD
S1130340D44B9847D44ED54DD54C0BE0B622520031
S1130350D449D548D54B9847D548D64B98470D2016
S1130360D54B9847B04701A900234B6001220A727C
S11303704A728B720233CB72273301930920A84748
S1130380A0470028E2D1CD4CCD4B1D1DE3E1002256
S1130390CA4B1A70CB4B1A78042A00D925E1930072
S11303A0C94AD3589F46C94B1B88012B11D0C44B53
S11303B0FF221A80C64A13600122C44B1A80C54B1F
S11303C01A70EA22C44B1A70EA21C448C44B9847F5
S11303D0C5E1C44B1B68197812290ED0B84ABC4B2E
S11303E01A600122B94B1A80BA4B1A70BA4B1970B1
S11303F089B2BA48BA4B9847B1E10123B14A1370A4
S1130400AF4AED311180B2490A60B04A1380B14B52
S113041001221A705B22B04B1A705B21AF48B04BBB
S113042098479CE1AF4B1B681B78A52B17D0122B68
S113043023D0AD4B1B78002B31D15A22A64B1A7016
S11304409F4BA5321A80A24A136001229F4B1A8047
S1130450A04B1A705A21A148A14B98477FE1022270
S1130460984B1A70FF23964A13710122974B1A80F6
S113047029009A489D4B984771E15B22964B1A706C
S11304808F4BA4321A80924A136001228F4B1A8038
S1130490904B1A705B219148914B98475FE1012280
S11304A08A4B1A8086498D48904B984757E103221E
S11304B0844B1A708B4B1A688D4B1A600B22834B3A
S11304C01A808648416A8B4B984748E1884B1968E3
S11304D00B000F000C37002000E010001E783200E3
S11304E04240D2B20133BB42F7D186421AD1824E86
S11304F00C223000814B984732683378032B26D086
S1130500012B3AD001237E4A13707E4A13700522D0
S11305107D4B1A70A732704B1A70AC216F48704B28
S113052098471CE10123674A1370654AFF21118033
S113053067490A60654A1380664B01221A705A2281
S1130540654B1A705A216548654B984707E10421A9
S11305505C4B1970120C6D4B1A8003395D4B19708A
S11305606B495B4B1960594B1A80AC225A4B1A7079
S1130570AC215A485A4B9847F1E00122604B1A705B
S11305800432504B1A70634B1B78002B00D1F3E0FC
S11305900022604B1A704B4B1A78042A74D89300CB
S11305A05D4AD3589F46494B1A88584B1B889A4238
S11305B014D00122434B1A705A21474B1970404BF7
S11305C0A531198041490A80414A1360414B0122F7
S11305D01A705A214148424B9847C0E00122484BC7
S11305E01A700432374B1A70CDE70122354B1A705A
S11305F0B5E0334BFF221A80354A13600122334B96
S11306001A80344B1A70EA22334B1A70EA213348A9
S1130610334B9847A8E001232A4A137028492C4AEF
S113062011602C4A1370294A1380EA222A4B1A704B
S1130630EA212A482A4B984796E00123214A13705D
S11306401F49234A1160234A1370204A1380EA2267
S1130650214B1A70EA212148214B984784E001225A
S1130660184B1A70EA211C4B1970154B153119805F
S113067016490A80164A1360164B01221A70EA21A1
S11306801648174B98476FE001220E4B1A7062E030
S1130690C1300000FD0100002509000075190000AB
S11306A0B50B0000BC460000DC4600002935000004
S11306B0F0460000453600005D35000000050020CE
S11306C0E80000200105002068460000D00000205A
S11306D0CC000020C8000020040500209000002069
S11306E06F270000FC040020E4000020A92700007C
S11306F0E0000020FD270000D400002005350000A4
S1130700D2000020C4000020C5000020C600002044
S1130710FC000020F80000207C460000594B58687B
S1130720594B9847594A5A4B1A600122594B1A801F
S1130730594B1A70594B1A705949030E0B70C870F3
S1130740030C4B70000A887004225648564B984795
S11307500022564B1A702378002B00D017E6544B16
S11307601B78002B00D013E7504B1B78002BF2D0E2
S11307704A4B1B78052BEED1424B1A681B780A2B87
S1130780E6D89B004B49CB589F463E4B9968586826
S1130790494B98473D4A3E4B1A6001223D4B1A8013
S11307A03D4B1A70AC223E4B1A703C4B01221A701E
S11307B0AC213C48414B9847CAE7120C404E314F9C
S11307C0310078683F4B9847304A314B1A60012218
S11307D0304B1A80304B1A70304B1A707A883100C3
S11307E03048314B9847B3E7120C264B58683449CC
S11307F0354B9847254A264B1A600122254B1A800F
S1130800254B1A70AC22264B1A70244B01221A7005
S1130810AC212448294B98479AE701261F4B1E70A8
S11308202A4B1E701F4B98461F683800284B984768
S11308301F23184086406133264AD65043461A681F
S1130840D369002BFCD13B68022293433B600D4BE0
S11308509868214B98477BE7204B196A8905C90F93
S11308600F4B1970094A0A4B1A600A4B01221A806D
S1130870094B1A70094B1A7089B20A480F4B9847F2
S113088066E7C046D4000020FD0C0000E80000200C
S1130890CC000020D0000020C8000020010500206A
S11308A00405002090000020C9270000D200002089
S11308B0F800002090460000150D00006F2700008E
S11308C0FC000020210D0000890D0000E400002040
S11308D0991E000000E100E0FD0100008044004199
S11308E070B5441E002804D0024D0120A847013CE5
S11308F0FBD270BD1D180000F8B5084C80277F0599
S113090067618026360566616420054DA847A761A6
S11309100A20A847A6616420A847F8BD0044004106
S1130920E108000070B582B00023134A136001ACE3
S113093001256570A370257021001B200F4EB04760
S113094021001C20B04721002820B0470C4B1B6815
S11309501D4203D00A4B1B689B0701D4094B9847DF
S1130960094B98470122094B1A70BFF35F8F62B697
S1130970002002B070BDC04614050020411A0000DA
S113098010E000E0DD170000F90800000C00002072
S113099010B590B02B4C0E23237000236370A3700A
S11309A001A901224A708B700A700E20264B9847C9
S11309B02278D1090023002904D15309DB012349FA
S11309C08C4663441F211140012210008840986125
S11309D002AC2270002303930493C0218903059180
S11309E023746374A274E27423752332A354183AF3
S11309F0002108A8164B9847164BA362164BE362D6
S1130A0001235B422363154B6363154BA3612200EF
S1130A1014491548154B9847002810D1124B1A68F1
S1130A20D369002BFCD1136802210B431360104BD4
S1130A30984701200F4B9847002010B010BD0620A6
S1130A404042FAE768050020411A000000440041D2
S1130A501735000002000C0002000D0002000F0018
S1130A6080969800001000426C050020291F0000A9
S1130A70F9080000E1080000F0B5DE4657464E468E
S1130A804546E0B585B0032800D072E00E684D6895
S1130A900C89002202ABDA71002E27D0002D65D11B
S1130AA0012398460023019302ABDD1D012238493E
S1130AB03848394B9847002C45D0364B9B46012784
S1130AC004229A4604239C46A946250030785B46B6
S1130AD01B68197E3942FCD0197E3942FCD09862D9
S1130AE0197E1142FCD051468C790CE000239846C3
S1130AF00133019302ABDE1DD8E7012C11D0996AB2
S1130B00C9B2002811D0197E1142FCD0598B0020A3
S1130B101142F2D0598B6046014389B259831E2099
S1130B20EBE7996AC905C90DEBE74B461970013D1E
S1130B30ADB2434659424B419944019B59424B4102
S1130B40F618002DC2D1134B196802220B7E1342F2
S1130B50FCD000220E490F480F4B9847002005B0E7
S1130B603CBC90469946A246AB46F0BD06204042A6
S1130B70F5E786225200094909480A4B98470A4872
S1130B800A4B98470D200A4B984701204042E6E75C
S1130B90680500206C050020512200002047000059
S1130BA0DC460000293500003047000045360000CF
S1130BB05D35000010B5044B9847041E01D0200099
S1130BC010BD024B9847FAE7F10D0000D10B00006D
S1130BD000B583B001A91748174B984700281DD1C9
S1130BE080214900019B194301911248134B9847F6
S1130BF0002816D101A9D02040010F4B98470028A6
S1130C0012D180214902019B19430191D020400156
S1130C100A4B984700280AD103B000BD0620404281
S1130C20FAE706204042F7E706204042F4E70620B0
S1130C304042F1E708140000090D0000150D000002
S1130C4010B582B0214B1C68002C04D01F4B1C68CB
S1130C50200002B010BD1900802040011C4B9847B1
S1130C60002803D00022194B1A60F1E701A91948A2
S1130C70174B9847002803D00022144B1A60E7E76B
S1130C80124B1B68144A93420BD0144A93420FD060
S1130C900E49134A0B681A40A023DB0213430B606E
S1130CA0D4E7019B012BF3D00E4A084B1A60EFE7FF
S1130CB0019B032BECD0042B03D00B4A034B1A608B
S1130CC0E6E70A4A014B1A60E2E7C046180500202D
S1130CD0090D0000F4130000A0021000B00210007F
S1130CE0FFFFF0FFA1021000B2021000B1021000D9
S1130CF010B5014B984710BD9109000010B5014B88
S1130D00984710BDE513000010B5014B984710BD7E
S1130D10F913000010B5014B984710BD11140000E1
S1130D20F0B5D6464F464646C0B582B080468946A1
S1130D301500134B1F88083FBBB201931E0004002B
S1130D409A421AD90F4B9A46371A4346E11A494434
S1130D50019A2000D047002809D1AD1B3919A419E4
S1130D60B542F2D8AAB249442000064B984702B0D3
S1130D701CBC90469946A246F0BD0021F2E7C0464D
S1130D800000002051150000F0B5D6464F464646F7
S1130D90C0B582B0804689461500134B1F88083FB2
S1130DA0BBB201931E0004009A421AD90F4B9A4613
S1130DB0371A4346E11A4944019A2000D0470028D3
S1130DC009D1AD1B3919A419B542F2D8AAB24944C4
S1130DD02000064B984702B01CBC90469946A24698
S1130DE0F0BD0021F2E7C0460000002029160000F3
S1130DF070B50020114B9847041E12D1104B984730
S1130E001048114DA847114B984701001048A847B6
S1130E100D20104B984700210F48104B9847200095
S1130E2070BD75220E490F48074B98470E480F4B6B
S1130E3098470D20074B9847F1E7C046F10C000096
S1130E40291400007C47000029350000410C0000F3
S1130E50884700005D35000000030200150D000006
S1130E6044470000DC4600006047000045360000AF
S1130E7000B585B001AB00220192029019811900DE
S1130E800320024B984705B000BDC046790A000014
S1130E90F0B5C64600B582B00700CF282BD00300BA
S1130EA03B33DBB2012B26D90B246B46DE1D264BCC
S1130EB0984601213000C047051E25D13378BB4236
S1130EC030D0013CE4B2002CF3D10B346B46DE1D70
S1130ED01D4F01213000B847002825D13378002B5D
S1130EE02FD0013CE4B2002CF3D10125280002B03C
S1130EF004BC9046F0BD01216B46D81D124B9847A7
S1130F0000250028D0D0F1E73C22FF320F491048D9
S1130F10104B98471048114B98470D20104B984799
S1130F200025E3E70B24D1E74A22FF3207490848AA
S1130F30084B98470848094B98470D20084B984799
S1130F40D4E70125D2E7C046710E0000DC4700005B
S1130F50DC46000029350000144C00004536000032
S1130F605D350000F0B5DE4657464E464546E0B5D1
S1130F7087B001908946029200239A4680239B0100
S1130F809B466A46D3813D4B98462FE06C22FF3244
S1130F903B493C483C4B98473C483D4B98470D20C7
S1130FA03C4B98470025280007B03CBC9046994626
S1130FB0A246AB46F0BD002C2EDD019B5344180025
S1130FC039002E4B9847041E34D1029B002B03D1C9
S1130FD0314B1B78002B3AD05346FB181BB29A4670
S1130FE04B46DF1BBBB29946002B44D04F46D94534
S1130FF001D96B46DF89BFB20A2404ABDE1C012190
S11310003000C047051EC1D133781B090F2BD2D045
S1131010013C24B2631CF2D17822FF3218491948EA
S1131020194CA04704ABD9781C48A0470D20194B94
S11310309847B8E7C022520011491248124B98470A
S11310401748134B98470D20124B9847ABE70221E2
S113105005A80A4B98470028BED08C22FF320849C5
S11310600848094B98470F48094B98470D20094BEE
S11310709847250097E7012595E7C046710E0000C3
S1131080E8470000DC46000029350000484C000019
S1131090453600005D3500001C0500207C4C000036
S11310A0AC4C0000DC4C000000B585B001AB0190F5
S11310B000220292198119000320024B984705B0BF
S11310C000BDC046790A000070B584B008AC25782C
S11310D001AC20703F30C4B20E2C00D984E0A000D3
S11310E04F4C2058874601AB0A0C5A700A0A9A7072
S11310F0D97005214B4B1B78002B77D00139C9B22D
S113110083E00B0ADBB2002D07D101AA537001ABB7
S113111099700022DA700521ECE7802252421343D1
S113112001AA5370F3E701AB00225A709A70DA7087
S11311300521DFE701AB00225A709A70DA700521AD
S1131140D8E701ABFF225A709A70DA700521D1E713
S113115001AA080C5070080A9070D170190A117114
S113116053710721C6E701AA080C5070080A907051
S1131170D170190C1171190A517193710821B9E7D1
S11311800B0ADBB2002D0CD101A8437001AB99709E
S1131190110ED970110C1971110A59719A71082123
S11311A0A8E780204042034301A84370EEE701AB67
S11311B0080C5870080A9870D970110E1971110C26
S11311C05971110A9971DA71092193E78E2252003B
S11311D015491648164B98471648174B98470D2043
S11311E0164B9847002317E0002315E04E1E01AA72
S11311F095197F23124C5B0010784340E35C013265
S1131200AA42F8D15B0001AA935589B201A80D4BFB
S1131210984701230028D9D1180004B070BDC046F6
S1131220984700001C050020D4470000DC4600005D
S113123029350000E84B0000453600005D3500000C
S113124050480000A910000070B582B004000A00E4
S1131250302817D90023C92500930423210028002E
S1131260164EB047012810D0154A16491648174D96
S1131270A84721001648A8470D20164B9847002080
S113128002B070BD0123C325E6E72800124B98473E
S11312900128F5D0114A0B490B480C4DA8472100F1
S11312A00F48A8470D200B4B9847002300930022BA
S11312B00021CF20014CA0470020E1E7C910000025
S11312C0FF01000008480000DC460000293500004A
S11312D0904D00005D350000910E000005020000F5
S11312E0BC4D0000F0B587B004000391FF2818D965
S11312F00027CA25009704230022210028002B4E32
S1131300B047012810D02A4A2A492B482B4DA84718
S113131021002B48A8470D202A4B9847002007B0EE
S1131320F0BD0127C425E5E72800274B984701288D
S113133013D0264A1F492048204DA847210024489D
S1131340A8470D201F4B984700230093002200213B
S1131350CF20164CA0470020E1E73A00042105A85D
S11313601C4B984701280DD105AA53781B0291788C
S113137009040B4311780B43D27812061343039AE2
S11313801360CCE7144A0B490B480C4B984713489D
S1131390134B98470D200B4B9847002300930022D2
S11313A00021CF20014CA0470020B8E7C91000005D
S11313B05902000028480000DC46000029350000DE
S11313C0104D00005D350000910E00005F0200002A
S11313D03C4D0000650F000067020000704D0000E6
S11313E04536000000B583B001A9024B9847019827
S11313F003B000BDE512000010B5044B984700236C
S1131400012801D1180010BD063BFBE7E5120000DE
S113141010B5044B98470023012801D1180010BDD2
S1131420063BFBE74912000010B582B0002300938D
S1131430364A137069463648364B9847002828D0F8
S1131440324B1B78002B0DD17C33009999432C3BF4
S1131450194300912E48304B9847041E3AD001227C
S11314602A4B1A7001A9802040012A4B9847002872
S11314703CD0274C2000294B984770230100994306
S1131480502001432000264B98470024200002B03E
S113149010BD01221D4B1A70224A23492348244BB4
S11314A098472448244B98470D20244B9847694675
S11314B01748184B9847041EC2D1B72292001A4904
S11314C01A481B4B98471E481B4B98470D201B4B33
S11314D09847DBE71B4A14491448154B98471A48A8
S11314E0154B98470D20154B9847CFE7BC22920027
S11314F00D490E480E4B984714480F4B98470D2042
S11315000E4B984706246442C0E7C0461C050020E1
S113151024E80000E512000049120000E513000071
S113152011140000D902000044480000DC46000009
S11315302935000050490000453600005D350000A3
S1131540A0490000E6020000CC490000004A000067
S1131550F0B583B004000E001500002300931300BF
S113156000220100C820244FB84701280FD0A2222E
S1131570920022492248234DA84721002248A84727
S11315800D20224B98470620404203B0F0BDC820EE
S11315901F4B9847012812D01E4A18491848194D64
S11315A0A84721001C48A8470D20184B9847002342
S11315B0009300220021CF200F4CA047E3E7002234
S11315C029003000154B984703000020012BDCD084
S11315D0A622920009490A480A4B98471048114B21
S11315E098470D20094B98470023009300220021BF
S11315F0CF20014CA047C6E7C910000038480000BE
S1131600DC46000029350000244A00005D35000056
S1131610910E00008E020000544A0000650F000085
S11316208C4A000045360000F0B5D64600B586B0B9
S113163004008A46150000230093130000220100D1
S1131640C720534EB047012810D0524A524953483C
S1131650534DA84721005348A8470D20524B9847A3
S11316600620404206B004BC9246F0BDC7204F4B52
S11316709847012812D04E4A47494848484DA84740
S113168021004C48A8470D20474B9847002300935E
S113169000220021CF203E4CA047E1E7002205AB09
S11316A01A8000268027BF016B46DF8121E00023DA
S11316B0AF425B4102330B2002AA944660441022DD
S11316C052421343037001213B4B984700281DD11C
S11316D0534698192100384B9847002836D1374B88
S11316E01B78002B3FD0A61936B22D1BADB2002DAE
S11316F04CD02C1CBD4201D96B46DC89A4B2002E0F
S1131700D5D10323BD42D6D9023BD4E7DE22520011
S11317102B492248224B98472A482B4B98470D20A7
S1131720214B9847294A1C491C481D4B9847284877
S1131730254B98470D201C4B98470023009300220B
S11317400021CF20124CA04700208BE7C622FF3295
S11317501B491248124B98471E481B4B98470D20B3
S1131760114B9847DEE7022105A8134B9847002840
S1131770B9D0D022FF3212490848094B984716487D
S1131780114B98470D20084B9847CBE7002069E799
S1131790C91000002302000018480000DC460000C5
S11317A029350000B44A00005D350000910E0000A8
S11317B029020000E44A0000A91000001C050020D2
S11317C0F84700001C4B0000453600003A020000B8
S11317D0C04B0000544B0000884B000070B5002043
S11317E0084B98470500084CFA218900A047074B8D
S11317F0186007492800A047064B18600522064BCD
S11318001A6070BD7D2E00005133000004000020DA
S113181040420F000800002010E000E030B5084B03
S11318201C68084A002580214902013807D3002C8E
S1131830FBD05460956013680B42FCD0F5E730BDD3
S11318400400002010E000E00C4B1B68002B06D1C4
S1131850EFF31083002B07D00022094B1A70074ABC
S1131860136801331360704772B6BFF35F8F0022B1
S1131870044B1A700132024B1A70F0E72005002065
S1131880240500200C000020084B1A68013A1A6055
S11318901B68002B09D1064B1B78002B05D00122B5
S11318A0044B1A70BFF35F8F62B6704720050020A7
S11318B0240500200C000020F0B583B001AC012504
S11318C065700027A770257021001720064EB047C9
S11318D080221204054B9A6127706570210037201D
S11318E0B04703B0F0BDC046411A000000440041B7
S11318F0044A137802210B43137053785BB2002B14
S1131900FBDB70470018004000B583B0124A9369AE
S113191040210B43936101A900230B7005200F4B59
S1131920984705200E4B98470E4A137801210B4324
S1131930137053785BB2002BFBDB0B4B1900403167
S1131940002204C39942FCD11022084B1A60084BB0
S1131950984703B000BDC04600040040952F000026
S1131960092F0000001800407805002000E100E085
S1131970F1180000F0B583B005000C0001A90023A4
S11319804B70CB7023790B70237A8B702078154BB6
S1131990984700201F2D00D8134807222A409200A0
S11319A0E77AA37A002B01D008231F43EB089B009E
S11319B0C31899690F269640B14397403A000A43E9
S11319C09A61637A002B06D143690122AA409343AA
S11319D0436103B0F0BD42690123AB40134343614B
S11319E0F7E7C0468D3000000018004070B50022B3
S11319F0104B1A70002310491F25104E0D4C0AE09D
S1131A000D4908E023780133DBB223700F2B10D883
S1131A1000211F2BF4D928001840012282400869B4
S1131A201042EFD00A619B009B59002BEAD09847E3
S1131A30E8E770BDB80500200018004078050020D4
S1131A4000B583B001AB80221A700A785A704A78C4
S1131A509A708A78DA701900014B984703B000BD78
S1131A608D30000010B5490840230024814202D281
S1131A70180010BD1C00091A631C9BB28842F9D9D6
S1131A804023FF2CF4D814800023F1E7F0B5DE46A0
S1131A9057464E464546E0B589B00C00059212AA59
S1131AA0117805004D434022A54207D9100009B022
S1131AB03CBC90469946A246AB46F0BD002B55D19E
S1131AC0020008000021634DA84783462600002732
S1131AD00023002400930194002200233F202021AE
S1131AE08C461F390296039714E06446241A0D00AD
S1131AF0E540A84615E0029C039D121BAB414D46F0
S1131B00009E019F35433C004646344300950194B2
S1131B1001381DD3202464420419E6D40D00A540E5
S1131B20A8460C008440A14692185B4114001D0095
S1131B3046465F463E4203D00E00264332002B0049
S1131B40029C039D9D42E3D8D5D19442E0D8D2E7CC
S1131B500022012300980199121A8B411900130CD9
S1131B600A041A43059B1A8000229FE70022012BD6
S1131B70F8D1630F0493E30098460A000023002180
S1131B80344CA04704000D0000239C4606932033E8
S1131B909B4601266346079348E05946C91B30001B
S1131BA0C840824610E000980199121A8B410299AC
S1131BB0484601430291013F25D320214942791827
S1131BC0EBD43000884082463100B94089469218EF
S1131BD05B411000190044464D462C40A44654462F
S1131BE0049D2C40A246644655462C4303D0340041
S1131BF0044322000B00009801999942DBD8D2D10A
S1131C009042D8D8CFE7009C019D0299079A8B1A7D
S1131C10DB0811498B4214D9069B0133DBB219004E
S1131C200693130001330793082908D00023029375
S1131C30002200233F21009401950F00BDE74022BC
S1131C4034E740220699082900D12FE74A031A43B2
S1131C5088E7C04669340000FF1F000010B582B059
S1131C6004000E4B1B78002B07D0002905D10B4B29
S1131C705B78834210D01D200CE001A90C70132066
S1131C80074B98471320074B9847044B5C7001227D
S1131C901A70002002B010BD0020FBE728050020C8
S1131CA0952F0000092F0000404B984231D00AD9EB
S1131CB03F4B98424DD03F4B98425AD03E4B9842AE
S1131CC037D0002070473D4B98420CD03C4B984293
S1131CD0F7D1012917D000295DD0022915D0032995
S1131CE015D00020EEE7012907D0002951D00229A0
S1131CF005D0032905D00020E4E73248E2E7324862
S1131D00E0E73248DEE73248DCE73248DAE73248D7
S1131D10D8E7012907D000293FD0022905D003299B
S1131D2005D00020CEE72D48CCE72D48CAE72D4842
S1131D30C8E7012907D0002931D0022905D0032999
S1131D4005D00020BEE72848BCE72848BAE7284861
S1131D50B8E7012907D0002923D0022905D0032997
S1131D6005D00020AEE72348ACE72348AAE7234880
S1131D70A8E7012907D0002915D0022905D0032995
S1131D8005D000209EE71E489CE71E489AE71E489F
S1131D9098E71E4896E7032094E71D4892E71D48FC
S1131DA090E71D488EE71D488CE7C04600100042AE
S1131DB000180042001C00420014004200080042C7
S1131DC0000C0042030005000300060003000700A6
S1131DD00300010003001E0003001F0003000900AC
S1131DE003000A0003000B000300110003001200AB
S1131DF00300130003000D0003000E0003000F0096
S1131E000300170003001800030019000300040076
S1131E10030008000300100003000C000300160078
S1131E207047000030B587B00B4B6A4632CB32C2E4
S1131E3032CB32C2009B83420BD001239A00694605
S1131E405258824206D00133062BF7D1002007B046
S1131E5030BD0023D8B2FAE7F44D0000F0B50A4BC8
S1131E601B78002B0CD1094F094E0A4D0024DE517A
S1131E705A1914600433182BF9D10122024B1A7039
S1131E808000024BC150F0BD2A0500202C05002023
S1131E90211E0000BC05002000B583B009236A465A
S1131EA0137001335370013393700133D3700133D2
S1131EB0137101335371034B98476B46185603B0A3
S1131EC000BDC046251E000010B5024B1B68002053
S1131ED0984710BD2C05002010B5024B5B6801200B
S1131EE0984710BD2C05002010B5024B9B680220BA
S1131EF0984710BD2C05002010B5024BDB68032069
S1131F00984710BD2C05002010B5024B1B69042016
S1131F10984710BD2C05002010B5024B5B690520C5
S1131F20984710BD2C050020F0B5D6464F4680B525
S1131F308BB081460F001400030019600B689B07E7
S1131F4009D40B680520DB0700D4B1E00BB00CBC4E
S1131F5091469A46F0BD936A0593D36A0693136B30
S1131F600793536B0893002605AB01930AE03800EE
S1131F70AC4B98470CE00F23184081422DD1013619
S1131F80042E2FD0F1B2B300019A98580028EED055
S1131F90431CF4D00104090C000CC3B29C4600237A
S1131FA0020605D463465B09DB019F4A924653440B
S1131FB01F226046024098184030007882468020F4
S1131FC05546ED07D9D552089B1830331878C0B25E
S1131FD06346DB07CFD50009CFE700234A461360E9
S1131FE01C20B3E71320914B984722780025012A3F
S1131FF016D02178002927D13B68E27F1204A07F04
S113200002431C209A42A1D1A369A28B0430205C14
S1132010002801D040200243082003431D4314E05C
S113202004AA0100A069824B984703001720002BE3
S113203000D08BE73B7BDBB204AA127805309A42CE
S113204000D083E70C35D4E700226368A06803431B
S1132050E06803432B43207C0243607C002801D0CA
S113206080200343A07C002802D080208002024309
S1132070E07C002802D0802080000243207D0028DC
S113208002D0802080010243386802252B4383421A
S113209004D000234A4613601C2057E77B68934210
S11320A0F7D14B465971237C4A46937100204DE782
S11320B00800604B9847604A116A851C0123AB40B5
S11320C00B43136209A92426A35D0B701430C5B217
S11320D028005A4B98472800594B9847A05D002187
S11320E0584B98472378012B1BD02378002B03D11E
S11320F03B68082213433B604B461E6804AB8022B6
S11321001A7000225A7001219970DA70A36A05933B
S1132110E36A0693236B0793636B0893002705AD6B
S113212011E03B680C2213433B60DEE730003D4B7B
S113213098470DE004A90870000CC0B2424B9847C0
S11321400137042F07D0F9B2BB0058590028EDD04D
S1132150431CEFD1F4E723784A465371237C9371EF
S1132160A37CD371237D1372002202ABDA8023781F
S1132170012B12D02378002B27D1A069A28B736A7C
S1132180E17F0904A57F2943194371622023E35C9D
S1132190002B1CD040231A4319E04B461868254BEA
S11321A098471430C0B2214B9847010002AB9A1DE6
S11321B0A0691F4B984703001720002B00D0C5E6E9
S11321C002AB06331B783373D4E700220020636824
S11321D0A1680B43E1680B430343217C0A43617C00
S11321E0002903D119498978890701D580210B4336
S11321F0A17C002902D0802189020A43E17C0029C4
S113220002D0802189000A43217D002902D0802147
S113221089010A4331680B43336073681A4372605F
S1132220002093E6A91C000000440041B12F0000E7
S1132230651A0000251E000000040040952F0000D0
S1132240092F00005D1C00008D30000000200041BB
S113225010B544791523012C01D0180010BD047A5F
S11322600023002CF9D1002A5AD04B78002B46D0F9
S113227003681B7EDB0710D40A78D10900230029E8
S113228004D15309DB012F498C4663441F211140BB
S113229001228A409A610523DFE70A78D4090023E2
S11322A0002C04D15309DB01264CA44663441F24AB
S11322B014400122A2405A6103681A7ED20701D554
S11322C08A789A62C2790023002AC6D1026804215E
S11322D0137E0B42FCD0117E00234907BDD5538BDE
S11322E05B0703D5538B04210B4353838379012B61
S11322F002D0936A0023B0E7936A0023ADE70A781B
S1132300D1090023002904D15309DB010D498C466E
S113231063441F21114001228A405A6100239CE733
S11323200A78D1090023002904D15309DB010549A6
S11323308C4663441F21114001228A409A61002384
S11323408BE7C04600440041F0B5DE4657464E4692
S11323504546E0B591B005000C0016002960080060
S1132360BC4B9847020023680520DB0706D511B053
S11323703CBC90469946A246AB46F0BD2368173054
S11323809B07F4D4B449086A971C0123BB40034358
S11323900B620FA92D27F35D0B701432D3B2039394
S11323A01800AE4B98470398AD4B9847F05D002159
S11323B0AC4B9847F37A6B712423F35CAB71252300
S11323C0F35CEB71F37E2B72337F6B722B68039398
S11323D01800A04B9847143000220E2306A98C46FF
S11323E063441A80338A98468023DB01984500D1E0
S11323F09FE00ED9C023DB01984500D194E08023EF
S11324001B02984500D01FE1032306930023079382
S113241008E080239B01984500D015E11023069322
S11324200F3B079333680593F368994673699B469A
S1132430337E04932623F35C9A467368002B00D101
S1132440A2E080225205934200D186E0737E002BE5
S113245002D0B37E039A93732A68039FD369002B37
S1132460FCD103970E3306A98C4663441B88BB81B9
S1132470059A4B461A435B461A4373681A4343460C
S11324801A43049B1B021A4353465B071A43272330
S1132490F35C002B01D104331A43717E8902337F2C
S11324A05B021943B37AF07A03431943737F1B0227
S11324B019432423F35C5B0419432523F35C1B04B5
S11324C019433389FF2B00D182E0F07E002802D02B
S11324D0A020C004024319432C23F35C002B03D136
S11324E0614B9B789B0701D580231A432868039F7F
S11324F0C369002BFCD179602968CB69002BFCD11E
S11325003A600EAB80221A7000225A70DA709A7008
S1132510336B0A93736B0B93B36B0C93F36B03934F
S11325200D9300270AAE61E008230693073B079347
S113253078E733680593F368994673699B46337E5D
S113254004932623F35C9A467368002B18D08022E8
S11325505205934201D0002025E02723F35C002B91
S113256000D073E7336A1F00C0B2404B98470100A4
S11325700E2206AB9C46624438003D4B984712E05D
S113258008230693002307932723F35C002B0ED024
S1132590069B0093079B0E2206A98C466244B16AEF
S11325A0306A344FB847002800D0E0E64EE7336A7B
S11325B01F00C0B22D4B98470100069B0093079B58
S11325C00E2206A88446624438002A4FB847EAE738
S11325D0F37E002B80D08023DB041A437CE72000A9
S11325E0254B984707E00137042F0DD0F9B2BB0003
S11325F098590028F3D0431CF5D00EA90870000C9C
S1132600C0B21E4B9847EEE70023EB602B616B6171
S1132610AB61EB612B62AB626B620022EB85AB8535
S11326203033EA540133EA540133EA540133EA54AF
S11326302868084B984704001149124B9847A40096
S1132640114BE550002092E61023069300230793D4
S1132650E8E6C046251E000000040040952F000057
S1132660092F00005D1C000000200041B12F000074
S1132670651A00008D1A0000A91C00008D300000AE
S1132680292800005D1E0000BC050020C2791C231F
S1132690002A01D118007047C28D92B2173B002A5C
S11326A0F8D10368DA69002AFCD1198502211A7E5F
S11326B00A42FCD00023EDE782791C23002A01D1D1
S11326C018007047828D92B2173B002AF8D1026835
S11326D0107E4007F4D5D369002BFCD1538BDBB2B9
S11326E0980621D0980703D5022353831833E7E7CC
S11326F0580703D5042353831A33E1E7D80703D5D6
S1132700012353831233DBE7D80605D5538B1021FD
S11327100B4353834223D3E79B0605D5538B2021D8
S11327200B4353834123CBE7138D0B800023C7E76F
S11327300368828541620521322281542E3A9A75BA
S1132740027A002A01D020229A75427A002A01D006
S113275008229A757047931C9B00C3185960302156
S1132760012393401A00435C13434354704782B0DF
S11327706B46D980C38D9BB20522002B02D010007A
S113278002B07047C3791732002BF8D003681B3AA4
S1132790C2856A46063282620521332281540122AF
S11327A09A750022EBE7000010B5838D9BB20522D9
S11327B0002B01D0100010BD043A024B98470022B0
S11327C0F8E7C0463127000010B51723002A01D1CD
S11327D0180010BDC48DA4B2123B002CF8D1C479EA
S11327E01733002CF4D00368C2858162052133229B
S11327F08154323A9A750023EAE7000010B5172392
S1132800002A01D1180010BD84790533002CF9D0B9
S1132810848DA4B2173B002CF4D1024B98470023BB
S1132820F0E7C04631270000F8B58000674BC55873
S11328302C68E369002BFCD1237EA67D1E40302347
S1132840EB5C3122AF5C1F40F30722D5EB8D9BB2CA
S1132850002B1CD0AA6A1378DBB2511CA9626979D7
S113286001290ED09BB2DB05DB0D2385EB8D013BEB
S11328709BB2EB85002B0CD1013323750133A37577
S113288007E0517809020B430232AA62EBE7012305
S11328902375B30706D50223237500223133EA5486
S11328A0FB071CD473076FD5AB8D9BB2002B69D08B
S11328B0638BDBB21A0716D43F221340002B3ED0A1
S11328C09A0713D51A223223EA54638B183A134316
S11328D063837B0758D528006B69984754E0280028
S11328E0EB689847DEE737221340E7E75A0707D536
S11328F01E223223EA54638B1A3A13436383E8E7B4
S1132900DA0707D513223223EA54638B123A1343AE
S11329106383DEE7DA0607D542223223EA54638B67
S1132920323A13436383D4E720221A42D1D02132AE
S11329303223EA54638B213A13436383C9E7238D1B
S1132940DB05DB0DDAB2696A0A706A6A511C6962D6
S11329506979012910D0AB8D013B9BB2AB85002B6B
S113296012D10433237500222E33EA54BB070BD54E
S113297028002B69984707E01B0A53706B6A0133E0
S11329806B62E8E704232375F30604D5102323754B
S11329902376FB060ED4B30604D5202323752376B1
S11329A03B070BD4330704D5082323752376BB06D2
S11329B008D4F8BD2800EB699847ECE72800AB6918
S11329C09847EFE72B6A28009847F2E7BC050020F8
S11329D010B5082803D880001B4B1B589F460020C5
S11329E030E01A4B18692DE0194B1B6A9B059B0FAD
S11329F01848D84026E0154B586923E0134B1B6850
S1132A0000209B071ED512491022CB681A42FCD025
S1132A100E4B1B685B0701D40F4813E000200F4BDB
S1132A2098470A4B9B681B041B0C58430AE050232D
S1132A30074AD35C00205B0704D5044BD86801E047
S1132A408020000210BDC0460C4E0000440500204A
S1132A500008004000127A00006CDC02B12F000074
S1132A6070B50C490B6A04788578407801221040CF
S1132A7080014026B34303432A40D201802083438C
S1132A8013430322224012020348034013430B6200
S1132A9070BDC04600080040FFFCFFFFF0B5CE4605
S1132AA0474680B5194B99469B6941788C46057811
S1132AB00679C7784479807801210840800004228F
S1132AC09343034360460840C000043293430343E6
S1132AD03800084080014027BB43034330000840CE
S1132AE0C0018026B3430343072005402D02084854
S1132AF003402B4321400903064803400B434A4645
S1132B0093610CBC90469946F0BDC0460008004055
S1132B10FFF8FFFFFFEFFFFF10B5037A9B061B0CC6
S1132B2042899205920D134315494B60438882886C
S1132B3013438279C479224313434278D201134365
S1132B400B600378042B0AD0202B07D1028A0C4B8C
S1132B509A6019688422D2000A431A6010BD037B6C
S1132B609B06028A1343C289120406490A4013438E
S1132B70034A9360136804210B431360EEE7C046D5
S1132B80440500200000FF03082803D88000224BDE
S1132B901B589F4617203EE0204A136A02210B432C
S1132BA01362002037E01D4A936902210B439361AD
S1132BB0002030E0194A138A02210B4313820020BB
S1132BC029E0164A938A02210B439382002022E0D3
S1132BD0134B1A6802210A431A601B68114A1340F6
S1132BE00E4A938411001022CB681A42FCD00C4A7E
S1132BF091680A4BD96251689962126892B29A84B8
S1132C00002008E0054944228B5C022003438B54D6
S1132C10002000E000207047304E00000008004013
S1132C20440500207FFF0000F0B5CE46474680B53E
S1132C308DB03C49C223DB008B603B4A53681E20A5
S1132C40834304273B435360384B1B68DB048A6986
S1132C505B0E1B043648024013438B610AA801250E
S1132C60457085700024C47005710723994603706C
S1132C704471304B984704202F4B9846984705A839
S1132C800026448084808671C6714B4603723F23BC
S1132C90438107704670B722D20002824A4602730B
S1132CA0C381264B984704A8857006704570244B51
S1132CB098470620C047234B984701AC029566709D
S1132CC0267266722770210001201F4B984701204D
S1132CD01E4B98472570210000201D4B984700206B
S1132CE01C4B98470720C0470E49D022CB6813409D
S1132CF0D02BFBD1184A002313725372937201A98B
S1132D0001224A604B700B724B7207330B70002028
S1132D100D4B984700200D4B98470DB00CBC9046C6
S1132D209946F0BD00080040004000412460800046
S1132D30FFFF80FF9D2A0000892B0000192B000053
S1132D40612A00005D2D0000812D0000392E000055
S1132D50952F0000092F000000040040064A9369E3
S1132D6008210B4393610122044B1A7019000B785C
S1132D701342FCD17047C04600040040000C0040E0
S1132D8070B5060004000D782D0205434B78002B26
S1132D9002D08023DB021D434B7A002B02D0802318
S1132DA01B031D434868012810D9431E184234D11F
S1132DB0022830D90223002201325B009842FBD85A
S1132DC012023243140080235B031D430B7A002B51
S1132DD002D080239B031D43134A53785BB2002B1C
S1132DE0FBDB124B9847124B1E700F4A53785BB2B1
S1132DF0002BFBDB0C4B9C601A0053785BB2002B5E
S1132E00FBDB094A5368802149020B401D4355608E
S1132E10084B984770BD0022D2E704023443802354
S1132E209B021D43D2E7C046000C00404918000035
S1132E30080C00408918000010B504000B4A5378B0
S1132E405BB2002BFBDB0A4B98470A4B1C70074A0A
S1132E5053785BB2002BFBDB044A516880235B028E
S1132E600B435360044B984710BDC046000C004010
S1132E7049180000040C00408918000070B50400D3
S1132E801A4A53785BB2002BFBDB194B9847194B5A
S1132E901C70164A53785BB2002BFBDB134E706830
S1132EA0C004C00E144B98470500124B1C70766882
S1132EB0F602F60F114B1C700C4A53785BB2002BD0
S1132EC0FBDB0A4B9C682402240C0D4B9847002E14
S1132ED007D1012C07D9210028000A4B9847050087
S1132EE001E00134E540280070BDC046000C0040FC
S1132EF049180000040C0040D1290000080C0040CF
S1132F00891800005133000010B50400064B98479F
S1132F10064B1C70064A53888021C9010B43538019
S1132F20044B984710BDC04649180000020C0040ED
S1132F30000C00408918000010B504000F4B98479E
S1132F400F4B1C700F4A53881B05180F53880E49EA
S1132F500B40538053880D490B405380110080224D
S1132F60D2014B881342FCD106494A880302064821
S1132F70024013434B80064B984710BD491800008C
S1132F80020C0040000C0040FFF0FFFFFFBFFFFFFA
S1132F908918000010B50C7824020443024B9847AA
S1132FA0A4B2024B5C8010BD392F0000000C00401D
S1132FB010B50400064B9847064B1C70064B5C8802
S1132FC02405240F054B98472000054B984710BD56
S1132FD049180000020C0040000C00408918000051
S1132FE07D2E000030B5D378002B39D11378802B97
S1132FF029D01B0680246402234354780225AC4361
S113300006D19478002C20D18024A402234341606B
S11330105478013C012C1CD90D042D0CA024E4058A
S11330202C431C4384620D0CD02424062C431C43E3
S11330308462D478002C25D15B031FD59378012BAF
S11330400AD041611AE00023D7E7C024E4022343F5
S1133050DDE70D4C2340DFE781610FE0816011E083
S11330600C04240CA023DB05234383620C0CD02323
S11330701B0623438362D378002B03D15378013B8F
S1133080012BEBD930BDC046FFFFFBFF10B50A0092
S1133090C1090023002904D14309DB0105498C46F9
S11330A063441F242040012181401800024B9847AB
S11330B010BDC04600440041E52F000070470000E9
S11330C010B5044B9847044B9847044B9847044B5E
S11330D0984710BD292C0000B9180000BD3000002D
S11330E009190000F0B5C64600B580000E4BC7585C
S11330F03B68DE6ABB6B7A6B13401E4000240B4BAB
S1133100984602E00434302C0AD04346E558354250
S1133110F8D03B195B68380098473B68DD62F1E7FB
S113312004BC9046F0BDC046D4050020544E0000B7
S113313010B50020014B984710BDC046E530000093
S113314010B50120014B984710BDC046E530000082
S113315010B50220014B984710BDC046E530000071
S113316070B58000164BC45823689D7B227E637E15
S113317013401D40EB0706D4AB070BD4EB0610D469
S1133180AB0615D470BD2000A368984701232268BC
S11331909373F1E72000E36898470223226893734E
S11331A0ECE7200023699847102322689373E7E72C
S11331B0200063699847236820229A73E2E7C04697
S11331C0E005002010B50020014B984710BDC04613
S11331D06131000010B50120014B984710BDC04675
S11331E06131000010B50220014B984710BDC04664
S11331F061310000FEE7000010B5174A174B9A42F0
S113320011D01A00164B9A420DD2164A03339B1A58
S11332109B0801339B00002210480F498C588450AE
S113322004329A42FAD1104A104B9A420AD2D3433A
S11332300E495B1803218B4304339B18002102C2FF
S11332409342FCD10A4A7F210A4B8B4393600A4B79
S113325098470A4B9847FEE73C4F000000000020C7
S1133260740000200400002074000020FC050020ED
S113327000ED00E000000000BD3400003103000058
S1133280F0B5C64600B50C00904600280FD1002AC0
S113329011DD8F18094E0A4D306821002B689847BC
S11332A00134BC42F8D1404604BC9046F0BD012331
S11332B05B429846F7E78046F5E7C046F4050020F0
S11332C0EC050020F0B5C64600B50E001500013827
S11332D0022810D8002A11D000240C4B98460C4F19
S11332E043461868315D3B689847002808DB013481
S11332F0A542F5D106E00124644203E0140001E094
S113330001246442200004BC9046F0BDF405002072
S1133310F00500200300064A1268002A04D0044A7B
S11333201068C318136070470249014A1160F6E738
S11333305C050020002600200120404270478023C5
S11333409B014B60002070470120704700207047AC
S1133350002243088B4274D303098B425FD3030AD0
S11333608B4244D3030B8B4228D3030C8B420DD3E3
S1133370FF22090212BA030C8B4202D31212090271
S113338065D0030B8B4219D300E0090AC30B8B42AF
S113339001D3CB03C01A5241830B8B4201D38B035D
S11333A0C01A5241430B8B4201D34B03C01A524102
S11333B0030B8B4201D30B03C01A5241C30A8B4245
S11333C001D3CB02C01A5241830A8B4201D38B0230
S11333D0C01A5241430A8B4201D34B02C01A5241D4
S11333E0030A8B4201D30B02C01A5241CDD2C30946
S11333F08B4201D3CB01C01A524183098B4201D3C2
S11334008B01C01A524143098B4201D34B01C01AAC
S1133410524103098B4201D30B01C01A5241C30824
S11334208B4201D3CB00C01A524183088B4201D393
S11334308B00C01A524143088B4201D34B00C01A7F
S11334405241411A00D20146524110467047FFE7EB
S113345001B5002000F006F802BDC0460029F7D0EF
S113346076E770477047C046F0B5CE464746150428
S11334702D0C2E0080B50704140C3F0C9946030C48
S11334807E435D43674363437F19340CE4199C46D0
S1133490A54203D980235B029846C4444B4651435A
S11334A043433604360C250C24046544A4195918E6
S11334B0491920000CBC90469946F0BD70B5002611
S11334C00C4D0D4C641BA410A64209D1002601F03A
S11334D025FD0A4D0A4C641BA410A64205D170BDFB
S11334E0B300EB5898470136EEE7B300EB58984722
S11334F00136F2E7284F0000284F0000284F000053
S11335002C4F0000002310B59A4200D110BDCC5CB2
S1133510C4540133F8E703008218934200D1704782
S113352019700133F9E700000FB40B4B13B51C6895
S1133530002C05D0A369002B02D1200000F006FB6B
S113354005AB049AA1682000019300F0D5FC16BCD9
S113355008BC04B01847C04610000020084B70B5E2
S11335601C680500002C05D0A369002B02D12000A3
S113357000F0ECFA2900A268200000F061FF70BDA1
S11335801000002070B505000E00002804D08369E7
S1133590002B01D100F0DAFAAB69AC68002B02D140
S11335A0280000F0D3FA244B9C420FD16C68A38905
S11335B01B0702D52369002B20D12100280000F02D
S11335C057F900281AD00120404270BD1B4B9C4281
S11335D001D1AC68EBE71A4B9C42E8D1EC68E6E712
S11335E0013B0136A360002B04DAA269934216DB87
S11335F00A2914D023685A1C226019703178A368F0
S11336000029EDD1013BA360002B0FDA22000A311F
S1133610280000F0D7F8431CD5D00A20D5E72200B3
S1133620280000F0CFF8431CE8D1CCE70A20236837
S11336305A1C22601870C8E7A84E0000C84E00004B
S1133640884E000010B5034B01001868FFF79AFF7D
S113365010BDC046100000204A424A41802310B5E4
S11336605200DB0000F002F810BD0000F0B51D00B0
S11336704F4B85B01E6804000F000092002E05D049
S1133680B369002B02D1300000F060FA494B9C4230
S113369050D17468009B022B05D0012B00D984E023
S11336A0002D00DA81E02100300000F0E1F9616BC7
S11336B0002908D023004433994202D0300000F09E
S11336C04BFB002363630023A3616360A3891B0690
S11336D003D52169300000F03FFBA389364A13402B
S11336E0A381009B022B5AD003AB02AA2100300015
S11336F000F0C2FAA3891843A081002D24D1029DB1
S1133700280000F01FFB0195071E42D1029B019384
S1133710AB4239D1012040420223A2891343A38141
S11337200023A360230047332360236101236361E3
S113373005B0F0BD214B9C4201D1B468AAE7204BEF
S11337409C42A7D1F468A5E7002FD9D0B369002B18
S113375002D1300000F0FAF9009B012B03D1A389B8
S1133760009A1A43A2810820A38927602761656112
S1133770184018D0012018400023984211D06D42FF
S1133780A360A5611800D3E7019800F0DBFA071ED7
S1133790C0D08023A289019D1343A381D6E70020D2
S11337A0BAE7A560C4E7A060C2E701204042BFE7D2
S11337B010000020A84E00005CF3FFFFC84E00007C
S11337C0884E0000F8B505000E001400002804D04F
S11337D08369002B01D100F0B9F9224B9C422DD111
S11337E06C68A369A360A3891B0731D52369002BE7
S11337F02ED023682269F7B2981A6369F6B2984208
S113380005DB2100280000F033F9002826D1A36845
S11338100130013BA36023685A1C22601F70636956
S1133820984204D0A389DB071AD50A2E18D12100A7
S1133830280000F01DF9002812D00FE00A4B9C422A
S113384001D1AC68CDE7094B9C42CAD1EC68C8E70A
S11338502100280000F00CF80028CAD00126764286
S11338603000F8BDA84E0000C84E0000884E00008D
S1133870364B70B51D6806000C00002D05D0AB69F1
S1133880002B02D1280000F061F9314B9C420FD18A
S11338906C680C23E25E93B219072DD4D90611D4B7
S11338A009230120336037331343A381404270BDA1
S11338B0284B9C4201D1AC68EBE7274B9C42E8D1F2
S11338C0EC68E6E75B0713D5616B002908D0230099
S11338D04433994202D0300000F03EFA002363637F
S11338E02422A3899343A381002363602369236073
S11338F00823A2891343A3812369002B0BD1A021A0
S11339008022A389890092000B40934203D02100B6
S1133910300000F0D9F90123A289134011D000230B
S1133920A36063695B42A361002023698342BED123
S11339300C23E25E1306BAD540231343A381013856
S1133940B5E7920700D46369A360EDE71000002097
S1133950A84E0000C84E0000884E0000F7B58A89C2
S113396005000C00130760D44B68002B04DC0B6CBF
S1133970002B01DC0020FEBDE76A002FFAD00023F3
S11339802E682B6080235B011A4034D0606DA389BC
S11339905B0706D56368C01A636B002B01D0236CE8
S11339A0C01A0200216A00232800E76AB847A189E7
S11339B0431C06D12B681D2B31D82C4ADA40D3077F
S11339C02DD50023636023692360CB0405D5431CF4
S11339D002D12B68002B00D16065616B2E60002939
S11339E0C8D023004433994202D0280000F0B4F92F
S11339F000206063BFE70123216A2800B847431C05
S1133A00C5D12B68002BC2D01D2B01D0162B01D1A0
S1133A102E60AFE74023A2891343A381ABE7402381
S1133A200B430120A3814042A5E70F69002FA1D0D9
S1133A300B680F60DB1B01930023920700D14B69D5
S1133A40A360019B002B00DC94E7019B3A00216AF0
S1133A502800A66AB047002803DC4023A289134348
S1133A60DFE7019B3F181B1A0193EAE7010040209E
S1133A700B6970B505000C00002B01D1002070BD4E
S1133A80002804D08369002B01D100F05FF80B4BB0
S1133A909C4209D16C680C22A35E002BEED021005D
S1133AA02800FFF75BFFEAE7054B9C4201D1AC68B5
S1133AB0F1E7044B9C42EED1EC68ECE7A84E000021
S1133AC0C84E0000884E000010B5024900F0B2F85C
S1133AD010BDC046713A0000002310B50400036015
S1133AE04360836081814366C28103614361836172
S1133AF0190008225C30FFF70EFD054B2462636257
S1133B00044BA362044BE362044B236310BDC04621
S1133B10D1440000F9440000314500005D45000037
S1133B2070B568254A1E55430E002900743100F013
S1133B305DF9041E08D000212A00016046600C30A3
S1133B40A0606832FFF7E7FC200070BD836913B5FD
S1133B500400002B28D18364C3640365134B144A07
S1133B601B6882620193984201D101238361200082
S1133B7000F020F86060200000F01CF8A060200035
S1133B8000F018F80022E06004216068FFF7A4FF49
S1133B9001220921A068FFF79FFF02221221E06899
S1133BA0FFF79AFF0123A36113BDC046844E0000B2
S1133BB0C93A0000F8B51E4B07001E68B369002B14
S1133BC002D13000FFF7C2FF4836B4687368013B86
S1133BD004D53368002B07D03668F6E70C22A55EBF
S1133BE0002D0DD06834F2E704213800FFF798FF68
S1133BF030600028F0D10C2304003B602000F8BDA5
S1133C00012320005B42E3810233A38165662560C2
S1133C10A560656025616561A561082229005C30A5
S1133C20FFF779FC6563A563A564E564E6E7C04630
S1133C30844E0000F7B504000700002601914834C3
S1133C40002C01D13000FEBD6368A5680093009B81
S1133C50013B009301D52468F2E7AB89012B08D915
S1133C600E22AB5E013304D029003800019B984733
S1133C7006436835EBE7000070B50E001D000E2307
S1133C80C95E90B01400002907DA00232B60B389C1
S1133C901B0611D48023DB000FE001AA00F08AFC8C
S1133CA00028F2DBF022029B12021340054A9B1803
S1133CB05A4253412B60EDE740230020236010B0AB
S1133CC070BDC04600E0FFFFF7B502268B890500F2
S1133CD00C00334206D023004733236023610123C1
S1133CE06361F7BD01AB6A46FFF7C6FF00990700A1
S1133CF0280000F07BF8002806D10C22A35E9A0568
S1133D00EFD41E43A681E6E70D4BAB628023A28964
S1133D1020601343A381009B20616361019B002BFE
S1133D200AD00E23E15E280000F056FC002803D0E0
S1133D300123A2891343A381A0893843A081D0E73A
S1133D40C93A000010B5034B0100186800F04EF8A2
S1133D5010BDC0461000002070B50500002910D029
S1133D600C1F2368002B00DAE418280000F065FC1F
S1133D701D4A1368002B05D163601460280000F00D
S1133D805DFC70BDA34209D9216860188342F3D158
S1133D9018685B6841182160EEE713005A68002A2E
S1133DA001D0A242F9D919685818A0420BD1206851
S1133DB00918581819608242E0D1106852684118F5
S1133DC019605A60DAE7A04202D90C232B60D5E7C8
S1133DD021686018824203D110685268411821603A
S1133DE062605C60CAE7C04660050020032370B5CA
S1133DF0CD1C9D43083506000C2D1ED20C25A9426E
S1133E001DD8300000F019FC254A1468210000294F
S1133E1019D1244C2368002B03D1300000F046FB59
S1133E2020602900300000F041FB431C2CD10C23FE
S1133E303000336000F002FC03E0002DDFDA0C23D5
S1133E403360002070BD0B685B1B1AD40B2B03D9A5
S1133E500B60CC18256003E08C420ED163681360BC
S1133E60300000F0EBFB200007220B30231D9043B1
S1133E70C31AE7D05A42E250E4E74B6863600C008F
S1133E80EEE70C004968C2E70323C41C9C43A0422C
S1133E90E0D0211A300000F009FB431CDAD1C6E758
S1133EA06005002064050020936810B5013B936011
S1133EB0002B05DA9469A34208DBCBB20A2B05D0A8
S1133EC01368581C10601970C8B210BDFFF77AFC53
S1133ED0FBE7F8B506000F001400D518AC4201D179
S1133EE0002007E021783A003000FFF7DDFF0134BD
S1133EF0431CF3D1F8BD0000F0B59FB006000F00DD
S1133F0014000593002804D08369002B01D1FFF726
S1133F101DFE7F4B9F425CD17768BB891B0762D52E
S1133F203B69002B5FD0002306AD6B6120336B76B9
S1133F301033AB760294029C2378002B5DD1029B54
S1133F40E31A04930DD0049B029A39003000FFF762
S1133F50C0FF431C00D1CCE06A69049B94466344CF
S1133F606B612378002B00D1C3E00122002352426D
S1133F706A6002A95432521801342B60EB60AB60C2
S1133F801370AB6521780522624800F04BFB631C7B
S1133F909C46002835D12968CB0604D5532302AAB0
S1133FA020309B1818700B0704D553232B2002AA2A
S1133FB09B18187023782A2B2CD000200A21099BE7
S1133FC02278303A092A00D86BE000282AD00993D5
S1133FD028E0514B9F4201D1B7689EE74F4B9F4267
S1133FE09BD1F76899E739003000FFF741FC0028BE
S1133FF099D0012040421FB0F0BD252B9FD0013441
S11340009AE7444B2968C01A012383400B432B6071
S11340106446B7E7059B181D1B680590002B3ADB27
S11340200993644623782E2B0BD16378621C2A2BC8
S11340303FD1059B02341A1D1B680592002B35DB0A
S1134040079321780322364800F0ECFA002807D0C1
S1134050334B2A68C01A4023834013432B60013436
S11340602178631C06222F480293297600F0DAFA9D
S1134070002844D02C4B002B2FD12968059B072204
S1134080C90528D59B189343083305936B69039A94
S11340909B186B614FE75B42EB6002230B432B6081
S11340A0BFE74B4301349B18012089E701235B429E
S11340B0C6E7002314000A201A006B602178303907
S11340C0092903D9002BBCD00792BAE74243013433
S11340D052180123F2E70733D5E705AB00933A0002
S11340E0124B2900300000E000BF0390039B013312
S11340F0CCD1BB895B0600D57BE70B987BE705AB8E
S113410000933A00094B2900300000F07FF8ECE7F7
S1134110A84E0000E84E0000C84E0000884E000083
S1134120EE4E0000F24E000000000000D33E0000FE
S1134130F7B5150001938A680B6900900C0093424F
S113414000DA130022002B6043321278002A01D0D7
S113415001332B6023689B0602D52B6802332B6046
S1134160062723681F4027D0230043331B785A1E99
S113417093412268920630D4220001994332009878
S1134180089EB047431C25D0062320682A68E168AE
S113419003400025042B03D18D1AEB43DB171D408C
S11341A0A3682269934201DD9B1AED180027BD42E2
S11341B020D1002010E00137E3682A689B1A9F424F
S11341C0D2DA22000123193201990098089EB047DF
S11341D0431CF0D101204042FEBD3020E1184331A0
S11341E0087021005A1C45310978A2184332023361
S11341F01170C1E7220001231A3201990098089E28
S1134200B047431CE6D00137D1E70000F0B58BB0CE
S113421006920A0043320793059004920A7E0C002A
S1134220109B6E2A00D18FE017D8632A2CD008D8AF
S1134230002A00D199E0582A54D026004236327020
S113424029E0642A01D0692AF7D121681A6808068E
S113425023D5111D1960156825E0732A00D188E063
S113426008D86F2A29D0702AE7D1202209680A4386
S1134270226003E0752A20D0782ADED1220078213A
S1134280453211706C4A30E00E001A684236111D36
S1134290196013683370012379E04906D9D5111DDB
S11342A019600023D55E002D03DA2D23049A6D4294
S11342B01370624B0A2703932FE0206819680506E0
S11342C003D5081D18600D6805E04006F9D50D6892
S11342D0081D1860ADB2594B082703936F2A18D0F4
S11342E00A2716E045310A70544A03921A68216875
S11342F0101D18601568080622D5CB0702D52023A7
S1134300194321601027002D03D1202322689A43EA
S113431022602300002243331A706368A360002BD9
S11343205CDB0422216891432160002D58D1049E56
S1134330002B64D02600039B42361B7833705EE06A
S11343404806DAD5ADB2D8E709681A68080605D573
S1134350111D1960136862691A6006E04906F7D5F1
S1134360111D19601368A28A1A800023049E236118
S113437054E01A68111D1960166800216268300043
S113438000F050F9002801D0801B6060636823614D
S11343900023049A137041E02369320006990598BA
S11343A0079DA847431C43D0236800259B070FD4CF
S11343B0099BE06898423DDA18003BE022000123A3
S11343C0193206990598079EB047431C30D0013531
S11343D0E368099A9B1A9D42F0DBE9E7002DA9D016
S11343E0049E28003900FFF739F8039B013E5B5C0B
S11343F0280033703900FEF7ABFF051EF1D1082FFA
S113440009D12368DB0706D563682269934202DC7D
S11344103023013E3370049B9B1B2361079B09AA35
S113442000932100069B0598FFF782FE431CB3D13D
S1134430012040420BB0F0BD0A4F0000F94E0000CD
S113444070B506000D001400002804D08369002B09
S113445001D1FFF77BFB124B9C4211D17468A36816
S1134460013BA360002B05DAA269934212DBEBB295
S11344700A2B0FD02368E8B25A1C22601D7070BD4D
S1134480084B9C4201D1B468E9E7074B9C42E6D152
S1134490F468E4E7220029003000FFF793F9EEE71F
S11344A0A84E0000C84E0000884E0000002370B5DE
S11344B0064C050008002360FEF72CFF431C03D1C3
S11344C02368002B00D02B6070BDC046F805002087
S11344D070B50C000E25495F00F0B2F8002803DB2C
S11344E0636D1B18636570BDA389024A1340A381E1
S11344F0F9E7C046FFEFFFFFF8B51F008B89050001
S11345000C001600DB0505D50E23C95E002202232C
S113451000F074F8A389054A28001340A3813200EF
S11345200E23E15E3B0000F01FF8F8BDFFEFFFFF34
S113453070B50C000E25495F00F060F8A389421C99
S113454003D1054A1340A38170BD80225201134355
S1134550A3816065F8E7C046FFEFFFFF10B50E23A7
S1134560C95E00F015F810BD70B505000800110013
S11345700022064C22601A00FEF7A4FE431C03D15D
S11345802368002B00D02B6070BDC046F8050020C6
S1134590002370B5064C050008002360FEF7CCFE2E
S11345A0431C03D12368002B00D02B6070BDC04690
S11345B0F8050020002370B5064C05000800110022
S11345C02360FEF7BCFE431C03D12368002B00D0FC
S11345D02B6070BDF8050020002370B5064C050063
S11345E008002360FEF7B0FE431C03D12368002BB0
S11345F000D02B6070BDC046F805002070B50500E2
S1134600080011000022064C22601A00FEF79EFEEC
S1134610431C03D12368002B00D02B6070BDC0461F
S1134620F8050020C9B28218904201D100207047D9
S113463003788B42FBD00130F6E7704770470000E7
S113464070B50500080011000022064C22601A0013
S1134650FEF716FE431C03D12368002B00D02B6009
S113466070BDC046F8050020A60300002404000025
S1134670AE040000CC040000A6050000F205000012
S113468068070000160600003A0600005E060000F7
S11346901C0700008A070000BA070000E8070000B2
S11346A0500700001A0800005007000050070000DF
S11346B0500700005007000058080000656E74653C
S11346C0725F776966695F6669726D776172655F4B
S11346D0646F776E6C6F6164000000002841505075
S11346E02928455252295B25735D5B25645D0000D2
S11346F04661696C656420746F20707574207468F9
S1134700652057694669204368697020696E206492
S11347106F776E6C6F6164206D6F646500000000DC
S11347206E6D5F6275735F696F63746C0000000087
S1134730696E76616C69646520696F636C7420636B
S11347406D6400006E6D5F6472765F696E69745F9C
S1134750646F776E6C6F61645F6D6F6465000000F9
S11347605B6E6D692073746172745D3A2066616971
S11347706C20696E69742062757300002841505082
S11347802928494E464F290043686970204944202E
S1134790256C780A00000000501100005011000040
S11347A080110000021100002611000034110000E5
S11347B06611000066110000AE110000E610000052
S11347C0E8110000E8110000E8110000E811000001
S11347D0421100007370695F636D64007370695FF8
S11347E0636D645F727370007370695F6461746198
S11347F05F726561640000007370695F6461746175
S11348005F777269746500007370695F77726974A9
S1134810655F7265670000006E6D5F7370695F7736
S113482072697465000000007370695F7265616489
S11348305F726567000000006E6D5F7370695F7280
S1134840656164006E6D5F7370695F696E697400A1
S11348500009121B242D363F48415A536C657E775C
S113486019100B023D342F265158434A757C676E4C
S1134870323B2029161F040D7A7368615E574C453C
S11348802B2239300F061D14636A7178474E555C2C
S1134890646D767F4049525B2C253E3708011A131C
S11348A07D746F6659504B42353C272E1118030A0C
S11348B0565F444D727B60691E170C053A332821FC
S11348C04F465D546B627970070E151C232A3138EC
S11348D04148535A656C777E09001B122D243F36DC
S11348E058514A437C756E671019020B343D262FCC
S11348F0737A6168575E454C3B3229201F160D04BC
S11349006A6378714E475C55222B3039060F141DAB
S1134910252C373E0108131A6D647F7649405B529B
S11349203C352E2718110A03747D666F5059424B8B
S1134930171E050C333A21285F564D447B7269607B
S11349400E071C152A233831464F545D626B70796B
S11349505B6E6D69207370695D3A204661696C65B0
S11349606420696E7465726E616C20726561642086
S113497070726F746F636F6C207769746820435230
S113498043206F6E2C207265747972696E6720778C
S113499069746820435243206F66662E2E2E0000F1
S11349A05B6E6D69207370695D3A204661696C6560
S11349B06420696E7465726E616C20726561642036
S11349C070726F746F636F6C2E2E2E005B6E6D6948
S11349D0207370695D3A204661696C656420696E74
S11349E07465726E616C2077726974652070726F81
S11349F0746F636F6C207265672E2E2E00000000AA
S1134A005B6E6D69207370695D3A204661696C2044
S1134A10636D6420726561642063686970206964F1
S1134A202E2E2E005B6E6D69207370695D3A2046F0
S1134A3061696C656420636D642C20726561642017
S1134A40626C6F636B202825303878292E2E2E0A4D
S1134A50000000005B6E6D69207370695D3A20464A
S1134A6061696C656420636D6420726573706F6E38
S1134A7073652C207265616420626C6F636B2028FF
S1134A8025303878292E2E2E0A0000005B6E6D69C1
S1134A90207370695D3A204661696C656420626CBC
S1134AA06F636B206461746120726561642E2E2EC5
S1134AB0000000005B6E6D69207370695D3A2046EA
S1134AC061696C656420636D642C20777269746518
S1134AD020626C6F636B202825303878292E2E2EA7
S1134AE00A0000005B6E6D6920737069205D3A20D6
S1134AF04661696C656420636D6420726573706FD0
S1134B006E73652C20777269746520626C6F636BB9
S1134B10202825303878292E2E2E0A005B6E6D69E8
S1134B20207370695D3A204661696C656420646134
S1134B30746120626C6F636B20636D6420777269AB
S1134B4074652C20627573206572726F722E2E2E1E
S1134B50000000005B6E6D69207370695D3A204649
S1134B6061696C6564206461746120626C6F636B5D
S1134B702077726974652C20627573206572726F78
S1134B80722E2E2E000000005B6E6D69207370691A
S1134B905D3A204661696C656420646174612062D9
S1134BA06C6F636B206372632077726974652C2069
S1134BB0627573206572726F722E2E2E00000000D3
S1134BC05B6E6D69207370695D3A204661696C653E
S1134BD06420626C6F636B20646174612077726916
S1134BE074652E2E2E0000005B6E6D692073706953
S1134BF05D3A204661696C656420636D6420777258
S1134C006974652C20627573206572726F722E2E22
S1134C102E0000005B6E6D69207370695D3A20465A
S1134C2061696C656420636D6420726573706F6E76
S1134C30736520726561642C2062757320657272DD
S1134C406F722E2E2E0000005B6E6D6920737069EA
S1134C505D3A204661696C65642064617461207208
S1134C606573706F6E736520726561642C20627564
S1134C7073206572726F722E2E2E00005B6E6D694A
S1134C80207370695D3A204661696C6564206461D3
S1134C90746120726573706F6E73652072656164F0
S1134CA02E2E2E2825303278290A00005B6E6D697D
S1134CB0207370695D3A204661696C6564206461A3
S1134CC0746120626C6F636B20726561642C206276
S1134CD07573206572726F722E2E2E005B6E6D6975
S1134CE0207370695D3A204661696C656420646173
S1134CF0746120626C6F636B206372632072656100
S1134D00642C20627573206572726F722E2E2E00D1
S1134D105B6E6D69207370695D3A204661696C65EC
S1134D206420636D642C2072656164207265672061
S1134D302825303878292E2E2E0A00005B6E6D69E6
S1134D40207370695D3A204661696C656420636D07
S1134D506420726573706F6E73652C207265616474
S1134D6020726567202825303878292E2E2E0A00D7
S1134D705B6E6D69207370695D3A204661696C658C
S1134D8064206461746120726561642E2E2E0000BB
S1134D905B6E6D69207370695D3A204661696C656C
S1134DA06420636D642C2077726974652072656772
S1134DB0202825303878292E2E2E0A005B6E6D6946
S1134DC0207370695D3A204661696C656420636D87
S1134DD06420726573706F6E73652C2077726974CA
S1134DE06520726567202825303878292E2E2E0AF2
S1134DF00000000000080042000C004200100042C5
S1134E000014004200180042001C0042E229000085
S1134E10DE290000DE290000402A0000402A0000AC
S1134E20F6290000E8290000FC2900002E2A0000D1
S1134E30B42B0000942B0000942B0000142C0000D1
S1134E40A62B0000C22B0000982B0000D02B0000E2
S1134E50042C000001000000020000000400000017
S1134E6008000000001000000020000000400000C6
S1134E7000800000000001000000020000000400A7
S1134E8000000800140000200000000000000000E2
S1134E90000000000000000000000000000000000E
S1134EA000000000000000000000000000000000FE
S1134EB000000000000000000000000000000000EE
S1134EC000000000000000000000000000000000DE
S1134ED000000000000000000000000000000000CE
S1134EE00000000000000000232D302B2000686C1F
S1134EF04C006566674546470030313233343536F9
S1134F003738394142434445460030313233343531
S1134F10363738396162636465660000F8B5C046A7
S1134F20F8BC08BC9E467047D9000000F8B5C046DE
S10F4F30F8BC08BC9E467047B1000000AD
S1134F3C00010000401F00000800000001000000F8
S1134F4C1400002000000000A84E0000C84E000011
S1134F5C884E00000000000000000000000000006B
S1134F6C0000000000000000000000000000000031
S1134F7C0000000000000000000000000000000021
S1134F8C0000000000000000000000000000000011
S1134F9C0000000000000000000000000000000001
S1074FAC00000000FD
S90331F9D2
