S01500004170706C69636174696F6E5F312E737265630B
S11380008822002085970000819700008197000056
S1138010000000000000000000000000000000005C
S11380200000000000000000000000008197000034
S1138030000000000000000081970000819700000C
S1138040819700008197000081970000118600004D
S1138050D984000081970000098400004D9000003D
S1138060819700005D86000071860000858600000F
S113807099860000AD860000C1860000819700004B
S1138080819700008197000081970000819700008C
S113809081970000000000000000000081970000AC
S11380A0819700008197000081970000819700006C
S11380B00000000010B5064C2378002B07D1054BB7
S11380C0002B02D0044800E000BF0123237010BD40
S11380D01000002000000000A89A0000084B10B512
S11380E0002B03D00749084800E000BF0748036895
S11380F0002B00D110BD064B002BFBD09847F9E7AD
S11381000000000014000020A89A0000A89A0000B3
S11381100000000070B584B0124D7D44124BEB5842
S113812001939847114BEB5801939847002303A9F7
S11381308B7001220A704B702B200D4BEB5801936E
S1138140984700240B4E0C4BED5804E080231B0190
S113815073616420A84701235C40F7D080231B018E
S1138160B361F6E78A190000100000005000000017
S11381707C00000080440041A0000000F0B5C64629
S113818000B582B0504B7B44002601AC2670012719
S11381906770A670210013204C4A9D58A8472100FF
S11381A01020A84721001120A84721001220A84729
S11381B026706670A77021001420A847210015209E
S11381C0A84726706770A77021001820A8472100CF
S11381D01920A8472670022398466370A7702100CF
S11381E03620A84721002220A84721003720A8478D
S11381F021002320A84721002A20A8472670677061
S1138200A67021000320A84721001F20A84726703C
S11382106670A77021000220A84726706670A770B8
S113822021002B20A847267043466370A7702100C5
S11382300420A84721000520A84721000620A847BC
S113824021000720A84721000820A8472100092071
S1138250A84721000A20A84721000B20A847267020
S113826043466370A77021001720A8472670434631
S11382706370A77021000E20A84721000F20A84793
S113828021000C20A84721000D20A8472100292007
S1138290A84721001620A84721002820A8472770B6
S11382A06670A6700A4B802212055A61802252051C
S11382B05A6121001B20A84721001C20A84702B0B6
S11382C004BC9046F0BDC0461E1900007C000000AE
S11382D00044004130B583B00D4C7C4400200D4B6C
S11382E0E3580193984705000B4BE458FA218900A1
S11382F0A0470A4B7B44186009492800A047094B52
S11383007B4418600522084B1A6003B030BDC04698
S1138310CA170000380000006C000000087DFF1F31
S113832040420F00007DFF1F10E000E030B5094B14
S11383307B441C68084A002580214902013807D380
S1138340002CFBD05460956013680B42FCD0F5E719
S113835030BDC046CC7CFF1F10E000E082B0124B61
S11383607B44124A7A441268002A07D1EFF3108240
S1138370002A0AD000220E4B7B441A700D4A7A441C
S113838013680133136002B0704772B6BFF35F8F96
S1138390094A9B5801930023019A13700122074B49
S11383A07B441A70EAE7C04644170000C47CFF1FF0
S11383B0B47CFF1FAA7CFF1F3C0000008C7CFF1FC5
S11383C082B00D4979440D4B7B441A68013A1A6016
S11383D01B68002B0DD10A4B7B441B78002B08D063
S11383E0084BCB5801930123019A1370BFF35F8F9D
S11383F062B602B07047C046E0160000607CFF1F02
S1138400547CFF1F3C00000030B583B02B4C7C44EF
S11384102B4BE358019398472A490B8C0F221340A6
S11384209B0029487844185803781A403F23CA54BB
S11384300F33CA5CD2B203782449615801911B01FD
S1138440C9184988224D7D44EB185B88CB1A4361D7
S1138450D30712D501214E231A4AD1543E3B43740B
S1138460037CDB0703D54368002B00D09847194BE6
S1138470E3580193984703B030BD93070DD502210B
S11384804E23104AD15400234374037C9B07EED53A
S11384908368002BEBD09847E9E75307E7D504211D
S11384A04E23084AD154483B4374037C5B07DED512
S11384B0C368002BDBD09847D9E7C0469616000066
S11384C034000000004800410C7CFF1F0C00000039
S11384D0067CFF1F00000000F0B583B0164D7D44FC
S11384E0164BEB5801930023019A1370144A1F276B
S11384F0012600240CE0124A0AE0104BEA581378D3
S11385000133DBB213700F2B14D822001F2BF2D9C6
S11385103900194030008840010010690842ECD04D
S11385201161084AAA5801929B009B58002BE4D081
S11385309847E2E703B0F0BDC615000064000000F0
S11385400018004054000000044A137802210B4331
S1138550137053785BB2002BFBDB704700180040AC
S113856010B584B0164C7C44164A936940210B43E1
S11385709361022303A90B700520134BE358019365
S113858098470520114BE35801939847104A1378F4
S113859001210B43137053785BB2002BFBDB0D4BB3
S11385A0E35819004031002204C39942FCD110223F
S11385B0094B1A60094B7B44984704B010BDC04670
S11385C03E150000000400402C000000780000006C
S11385D0001800405400000000E100E08FFFFFFF9E
S11385E010B584B0084A7A44802403AB1C700C781C
S11385F05C704C789C708978D9701900034BD358FF
S11386000193984704B010BDBE140000A4000000FC
S113861010B5104B7B44104A9B581A681468518A51
S1138620138A1940207AE379034058B2002806DB04
S1138630DB0703D5CB070AD40123237210BD8B07B4
S113864002D480232372F9E7D3689847F9E7936843
S11386509847F1E7901400000400000010B5034BA4
S11386607B441B680020984710BDC0463C7AFF1F1E
S113867010B5034B7B445B680120984710BDC0468E
S1138680287AFF1F10B5034B7B449B680220984750
S113869010BDC046147AFF1F10B5034B7B44DB6842
S11386A00320984710BDC046007AFF1F10B5034B46
S11386B07B441B690420984710BDC046EC79FF1F1A
S11386C010B5034B7B445B690520984710BDC04639
S11386D0D879FF1F00B583B0234B7B44082806D804
S11386E001F0F0F80705053E3E120B163400002099
S11386F038E01E4B7B44186934E01D4B1B6A9B0514
S11387009B0F1C48D8402DE01B4B7B44586929E043
S11387101A4A7A4412680020920723D5144810217B
S1138720C2681142FCD0164A7A441268520701D436
S1138730144817E00020144A9B5801939847134BA0
S11387407B449B681B041B0C58430BE05023084AD2
S1138750D35C00205B0705D50D4B7B44D86801E052
S11387608020000203B000BDCA130000C079FF1FBF
S11387700008004000127A00AA79FF1FA279FF1FA7
S11387808C79FF1F006CDC02580000007479FF1F15
S11387905A79FF1F70B50C490B6A047885784078C4
S11387A00122104080014026B34303432A40D201F2
S11387B080208343134303222240120203480340D0
S11387C013430B6270BDC04600080040FFFCFFFF6E
S11387D0F0B5DE4657464E464546E0B50100274B08
S11387E09B469B8A4578007842424241914688786C
S11387F0CA7894460A7990464E7B0F7B8C7B8A68B4
S11388001F4979444A6101214A4692009146042253
S113881093434A46134342460A40D20090460822F4
S113882093434246134362460A401201944610227F
S11388309343624613430840400120229343034379
S11388400F40BF01402083433B430E40F6014030BC
S113885083433343793805402D020A4803402B43B0
S113886021400903084803400B435A4693823CBC09
S113887090469946A246AB46F0BDC046000800406B
S1138880B278FF1FFFF8FFFFFFEFFFFF10B5037A79
S11388909B061B0C42899205920D13431A49794495
S11388A04B608379C27913434288848822431343FB
S11388B04278D20113430B600378042B12D0202B8F
S11388C00FD1037B9B06028A1343C28912040F490A
S11388D00A4013430E4A7A44936011680D4B0B43CC
S11388E0136010BD037B9B06028A1343C2891204E2
S11388F006490A401343084A7A44936013680421E2
S11389000B431360EDE7C0461678FF1F0000FF031A
S1138910DE77FF1F24040000BC77FF1F00B5082882
S113892006D800F0CFFF1505054E0E1C07234600A0
S1138930172047E0244A136A02210B4313620020E4
S113894040E0214A936902210B439361002039E0FE
S11389501D4A138A02210B431382002032E01A4A73
S1138960938A02210B43938200202BE01749794418
S11389700B68022213430B60134B9A8419000E32C6
S1138980CB681A42FCD0124A7A4491680E4BD962E1
S113899052689A6200229A8419001032CB681A42F3
S11389A0FCD00C4B7B441B689BB2074A9384002089
S11389B008E0054944228B5C022003438B540020C9
S11389C000E0002000BDC046000800404677FF1FBD
S11389D02C77FF1F1077FF1F00B5082808D800F078
S11389E071FF190707220509170B0D00042312E074
S11389F0002017E002230EE0D0230CE050230B4AA2
S1138A00D05C4D3B1840033843425841C0B209E0A2
S1138A10082300E00123054AD0681840C01A4342E5
S1138A205841C0B200BD0120FCE7C0460008004028
S1138A30F0B5C64600B592B0634F7F44C222D2005F
S1138A40624B9A60624A53681E218B431C390B4364
S1138A505360032205AB1A7000241E005D4BFD58C1
S1138A60E0B23100A8470134252CF9D100230EA827
S1138A700370802212028260C37001220271837328
S1138A8002214170827043730273534BFB5801936C
S1138A9098470520514BFB5801939847504BFC587D
S1138AA00520A0470028FBD0484A938A80210B4325
S1138AB093820021002209AB598099809A71DA715E
S1138AC03F3159813B3919705A70464B1B689B0ED4
S1138AD03F2B00D176E009A80372434B038207239E
S1138AE003733833C381414BFB58019398470026E5
S1138AF008A846700125857006703D4BFB5801930C
S1138B0098470620354BFB5801939847394BF95841
S1138B100291884705AC0695667026726672052137
S1138B208846217021000120334BFB5802939C4658
S1138B30E0470120314BF95803918847667066720B
S1138B404046207020236360257221000220029E8B
S1138B50B0470220039988472570210000201D4B4F
S1138B60FC580294A0470020254BF95802918847ED
S1138B700720019A90471A4BFC580720A047002869
S1138B80FBD0124A938C80210B4393841D4A00230B
S1138B90137253729372D372012205A94A604B7007
S1138BA00B724B7207330B700020134BFB5801936D
S1138BB098470020114BFB580193984712B004BC0E
S1138BC09046F0BD203B86E76A1000000008004094
S1138BD0004000412C0000007400000088000000E8
S1138BE09800000024608000DC05000018000000EC
S1138BF048000000A80000004000000060000000E1
S1138C007800000000040040064A936908210B43E1
S1138C1093610122044B1A7019000B781342FCD1A2
S1138C207047C04600040040000C0040F0B583B01B
S1138C3007002C4E7E4404000D782D0205434B782A
S1138C40002B02D08023DB021D434B7A002B02D081
S1138C5080231B031D434868012810D9431E184272
S1138C6039D1022835D90223002201325B0098420F
S1138C70FBD812023A43140080235B031D430B7A92
S1138C80002B02D080239B031D43174A53785BB209
S1138C90002BFBDB154BF35801939847144B1F70C3
S1138CA0114A53785BB2002BFBDB0F4B9C601A001C
S1138CB053785BB2002BFBDB0B4A536880214902DB
S1138CC00B401D4355600B4BF3580193984703B079
S1138CD0F0BD0022CDE704023C4380239B021D43E8
S1138CE0CDE7C046700E0000000C004034000000C8
S1138CF0080C00400000000030B583B005000F4CA4
S1138D007C440F4A53785BB2002BFBDB0D4BE358DA
S1138D10019398470C4B1D70094A53785BB2002BA2
S1138D20FBDB074A516880235B020B435360074B0C
S1138D30E3580193984703B030BDC046A40D00002A
S1138D40000C004034000000040C0040000000004F
S1138D50F0B583B00600204C7C44204A53785BB2C3
S1138D60002BFBDB1E4BE358019398471D4B1E70F1
S1138D701A4A53785BB2002BFBDB184F7868C004A7
S1138D80C00E194BE358019398470500154B1E700C
S1138D907F68FF02FF0F154B1E70104A53785BB2B9
S1138DA0002BFBDB0D4B9E683602360C104BE35850
S1138DB001939847002F09D1012E09D90D4BE3588F
S1138DC00193310028009847050001E00136F54081
S1138DD0280003B0F0BDC0464C0D0000000C00405C
S1138DE034000000040C00408C000000080C00401B
S1138DF0000000006C00000030B583B005000A4C90
S1138E007C440A4BE35801939847094B1D70094A67
S1138E1053888021C9010B435380074BE3580193C6
S1138E20984703B030BDC046A40C000034000000D5
S1138E30020C0040000C00400000000030B583B07C
S1138E400500134C7C44134BE35801939847124B91
S1138E501D70124A50880005000F538810490B40BA
S1138E60538053880F490B40538011008022D20154
S1138E704B881342FCD109494B880202084803403D
S1138E8013434B80084BE3580193984703B030BD1C
S1138E90600C000034000000020C0040000C004094
S1138EA0FFF0FFFFFFBFFFFF0000000010B582B01E
S1138EB0064B7B440C7824020443054A9B580193D7
S1138EC09847A4B2034B5C8002B010BDF20B0000C3
S1138ED09C000000000C004030B583B004000B4D32
S1138EE07D440B4BEB58019398470A4B1C700A4B7B
S1138EF05C882405240F094BEB5801939847200004
S1138F00074BEB580193984703B030BDC40B0000E6
S1138F1034000000020C0040000C0040000000007F
S1138F203800000030B5D378002B35D11378802B6E
S1138F3029D01B0680246402234354780225AC43C1
S1138F4006D19478002C20D18024A40223434160CC
S1138F505478013C012C1CD90D042D0CA024E405EB
S1138F602C431C4384620D0CD02424062C431C4344
S1138F708462D478002C22D15B031CD59378012B16
S1138F801ED0416117E00023D7E7C024E402234345
S1138F90DDE70D4C2340DFE741600C04240CA023E3
S1138FA0DB05234383620C0CD0231B06234383621B
S1138FB0D378002B03D15378013B012B02D930BD68
S1138FC08161F8E78160FAE7FFFFFBFF10B50A0053
S1138FD0C1090023002904D14309DB0105498C465A
S1138FE063441F242040012181401800024B7B442C
S1138FF0984710BD0044004133FFFFFF7047000055
S113900010B582B00B4C7C440B4BE358019398474A
S11390100A4BE35801939847094BE3580193984747
S1139020084BE35801939847074BE358019398473B
S113903002B010BD9E0A0000840000005C00000025
S1139040800000004C00000030000000F0B5DE4657
S113905057464E464546E0B583B09B4F7F449B4BF5
S11390607B441E6835682B78DB0920D12B8C9BB29E
S11390709C46002B00D008E2AB8B9BB29846AB23F6
S11390805B00F35AAA225200B55A1D4043461D40C4
S113909000248F4E7E448F4B7B44994680235B0093
S11390A09A4633002E004546B8461F00D5E12B8C66
S11390B09BB2002B00D131E1288C80B2864BFB5847
S11390C00093984704001F2800D927E103000833C0
S11390D05B01ED18ED79EDB2AB074FD07F4BFA5839
S11390E001238340116899431160030008335B0135
S11390F03268944663440322DA713318AE331B7822
S1139100DB073BD5764B7B44187032680300083389
S11391105B019B5C9B079B0F012B00D196E0714B7D
S1139120FB5800934301009A944663445A68120121
S1139130920C90B26C4979444A805A689204920C19
S11391408A805A6869490A405A6000280CD1654BE4
S1139150FB5800936301009A944663445B689B0444
S11391609B0C634A7A445380624B7B441868A31C6B
S11391701B01C3185B686049794498476B0710D595
S1139180564BFA580123A3401168994311605B4B75
S11391907B441B681B682200083252019B1804227E
S11391A0DA712B0716D54D4BFA580123A3401168E9
S11391B099431160524B7B441868230008335B01C8
S11391C00268944663440822DA710319AE331B78AB
S11391D09B0751D4EB0616D5404BFA580123A34004
S11391E0116899431160474B7B4418682300083386
S11391F05B010268944663441022DA710319AE33AA
S11392001B785B074BD4AB0600D4F9E0334BFA5818
S11392100123A3401168994311603B4B7B441868B8
S1139220230008335B010268944663442022DA7108
S11392300319AE331B781B0700D4E1E033497944AA
S11392400C7024010419236B9847D9E0254BFB5873
S113925000934301009A944663445A689204920C22
S11392602B4979444A805A681201920C8A805A68C0
S1139270920B92035A6077E7264979440C70194B94
S1139280FB5800936301009A94466344DB891F22D0
S113929013404B702301C3189B6A98479AE71E4AF0
S11392A07A4414700F4BFB580093630100998C4669
S11392B063445B681B019B0C53802301C318DB6A66
S11392C0002198479FE7C046480A00006C70FF1FC2
S11392D0E00900003470FF1F900000002800000027
S11392E0DA6FFF1F08000000AA6FFF1FFF3F00F0A6
S11392F07C6FFF1F626FFF1F686FFF1F3C6FFF1FB4
S1139300166FFF1FE46EFF1FB06EFF1FA26EFF1FDC
S11393107E6EFF1F666EFF1F406EFF1FAC8BA4B2F4
S1139320630706D50423AB83A133F35CDB0700D5C5
S11393306DE023070DD5C64BFB5800221A60C54BC0
S11393407B4418680823026893839D33C35C9B079E
S113935061D4630609D5C04B7B4418684023026876
S113936093836533C35CDB0658D4A30609D5BB4B92
S11393707B4418682023026893838533C35C1B07EE
S11393804FD4E30609D5B64B7B4418681023026812
S113939093839533C35C5B0746D423060DD5AC4B4E
S11393A0FB5800221A60AF4B7B4418688023026884
S11393B093832533C35C9B0639D4E3050ED5A44BB4
S11393C0FB5800221A60A84B7B44186880235B007A
S11393D0026893835B3BC35C5B062BD4A3050FD568
S11393E09B4BFB5800221A60A04B7B4418688023D7
S11393F09B00026893835C3BFF3BC35C7F2B1CD8C0
S113940003B03CBC90469946A246AB46F0BD736897
S1139410300098478DE7836898479AE743699847EF
S1139420A3E703699847ACE7C3689847B5E783693E
S11394309847C2E7C3699847D0E7036A9847DFE7CC
S11394408B4B7B44186823002E339B001B5889499F
S1139450794498470134072CD2D06300DB5B2B425C
S113946003D04A461268126893833342F2D0062C22
S1139470E6D1814B4246D35800931B891B095246BF
S113948013407E4A7A441360DAE734005934FF34D7
S11394900023012290465F329246503A9346B946E1
S11394A06746B4462E0000E1A946350066465B01D6
S11394B0ED180823FF33EB5C5B0618D54022082324
S11394C0FF33EA54883BFF3B4A4613436C4A7A44D1
S11394D0937160230B4200D192E7009B1B01F318A8
S11394E0E0331B68674979443000984788E70823CC
S11394F0FF33EB5C9B06ECD520220823FF33EA54B0
S1139500614B7B444A469A71E3E7350066464F4611
S1139510009A130008335B01ED181023EB71B318A4
S11395206133FF331B78DB0600D469E7524BFB58E9
S11395300193530101998C4663445B689B049B0C23
S1139540524979440B801301F318DC331B68300053
S1139550984755E74F46A946350066465B01ED1826
S11395600823FF33EB5C9B0724D502220823FF3337
S1139570EA54474A7A44883BFF3B48460343937185
S11395803D4BFB580193009B5B0101988446634467
S113959010335B689B049B0C53808B0700D12FE72F
S11395A0009B0D331B01F3185B683A497944300082
S11395B0984725E70823FF33EB5CDB07EDD5012251
S11395C00823FF33EA54344878444B4683712A4BCA
S11395D0FB580193009B5A01019B9C4662445368CB
S11395E09B049B0C038053681B019B0C8380D4E772
S11395F00823FF33EB5C5B0700D4ADE004220823AF
S1139600FF33EA541C4BFB580193009A5301019811
S1139610844663449B7A9B070AD5174BFB580193F6
S11396205301019A944663449A7A022082439A72BF
S11396301A4B7B444A469A71009B08335B0132689B
S113964094466344DB79DB0700D485E0D8E6C04662
S1139650280000008C6DFF1F746DFF1F5C6DFF1FE1
S1139660446DFF1F246DFF1F046DFF1FE26CFF1F7D
S11396708A6CFF1F806CFF1F080000004C6CFF1FEA
S1139680066CFF1FEE6BFF1FD26BFF1F926BFF1F59
S1139690606BFF1F286BFF1F0C6BFF1FA26AFF1F6D
S11396A001330134082B00D1AAE6DDB200933A005D
S11396B01A4141461142F3D01A0008325201B2183D
S11396C0D279D2B2217A114020780140504610421A
S11396D000D0E9E65846104200D016E703201042B5
S11396E000D037E70C201042DAD04F46A9463500A7
S11396F066465B01ED180823FF33EB5C1B0700D4BF
S113970076E708220823FF33EA541A4BFB580193E7
S1139710009A53010198844663449B7E9B070AD5B3
S1139720144BFB5801935301019A944663449A7E67
S1139730022082439A7680235B424A4613430E4AB0
S11397407A449371009B08335B0132689446634406
S1139750DB799B0700D553E60C230B4200D14FE67F
S1139760009B1B01F318D8331B680449794430006B
S1139770984745E6080000009469FF1F6869FF1FC9
S1139780FEE70000F0B583B0404C7C44404BE35806
S11397900093404BE3580193009B019A934222D0DB
S11397A03C4BE35800933C4BE3580193009B019AD4
S11397B0934218D2384BE3580093364BE358019345
S11397C0DB43009A944663449B0801339B000022C8
S11397D03049615800912E49615800988D58855040
S11397E004329A42F9D12D4BE35800932C4BE358A1
S11397F00193009B019A934210D2284BE258284BC4
S1139800E3580093D34300998C46634403218B436C
S113981004339B18002102C29342FCD1214BE3582C
S11398200093FF23009A9A4313001F4A9360022176
S113983090235B001D4AD1501D49CB780326B343C6
S113984002252B43CB70CB780C27BB430822134350
S1139850CB70184B987B30218843202108439873A0
S1139860997BB943114399739A7BB2432A439A7300
S1139870114A536880210B435360104BE358009303
S113988098470F4BE35800939847FEE71A030000EC
S11398901C000000240000009400000020000000D0
S11398A0700000001400000000ED00E000700041B2
S11398B000500041004800410040004144000000C5
S11398C06800000002B4714649084900095C490077
S11398D08E4402BC7047C046002243088B4274D3B6
S11398E003098B425FD3030A8B4244D3030B8B429D
S11398F028D3030C8B420DD3FF22090212BA030CA6
S11399008B4202D31212090265D0030B8B4219D386
S113991000E0090AC30B8B4201D3CB03C01A5241A6
S1139920830B8B4201D38B03C01A5241430B8B42EE
S113993001D34B03C01A5241030B8B4201D30B03D7
S1139940C01A5241C30A8B4201D3CB02C01A5241FE
S1139950830A8B4201D38B02C01A5241430A8B42C1
S113996001D34B02C01A5241030A8B4201D30B02AA
S1139970C01A5241CDD2C3098B4201D3CB01C01AC4
S1139980524183098B4201D38B01C01A52414309CE
S11399908B4201D34B01C01A524103098B4201D3BC
S11399A00B01C01A5241C3088B4201D3CB00C01A29
S11399B0524183088B4201D38B00C01A52414308A1
S11399C08B4201D34B00C01A5241411A00D20146C6
S11399D0524110467047FFE701B5002000F006F839
S11399E002BDC0460029F7D076E770477047C046ED
S11399F0414208401C2101231B04984201D3000C5E
S1139A0010391B0A984201D3000A08391B099842ED
S1139A1001D30009043902A2105C401A7047C04601
S1139A201B1C1D1D1E1E1E1E1F1F1F1F1F1F1F1F51
S1139A3070B500260C4D0D4C641BA410A64209D130
S1139A40002600F021F80A4D0A4C641BA410A6421B
S1139A5005D170BDB300EB5898470136EEE7B3006B
S1139A60EB5898470136F2E7949A0000949A000064
S1139A70949A0000989A0000040008007000800086
S1139A800100000100020000F8B5C046F8BC08BCA3
S1139A909E467047DD800000F8B5C046F8BC08BC9F
S10B9AA09E467047B5800000EA
S1139AA8C18300008401002088010020F000002008
S1139AB801900000008000008D880000609B000079
S1139AC81000002000000020E0000020AD8E0000FF
S1139AD8FD8F00005D830000518D00000800002008
S1139AE82D8C0000319A00009587000061850000E4
S1139AF8D582000044010020D98E00007D81000039
S1139B08F98C00004001002015810000D99800005C
S1139B1888020020D1870000F98D0000E18500004B
S1139B28FD8F0000318A00001D890000D5860000E1
S1139B38F19900000C000020D98900003D8E000036
S10F9B482D830000CD8F0000098C00006C
S10F9B5400000000000000000000000001
S10F9B60401F000008000000010000008D
S9039785E0
