:10000000C83200204DDC000049DC000049DC000063
:1000100000000000000000000000000000000000E0
:1000200000000000000000000000000049DC0000AB
:10003000000000000000000049DC000049DC000076
:1000400049DC0000BD2B000049DC000009A40000D1
:10005000C99E000049DC0000759D0000B9D9000070
:1000600049DC0000F9A600000DA7000021A7000050
:1000700035A7000049A700005DA70000AD0A0000F9
:10008000CD0A0000ED0A000049DC000049DC000058
:1000900049DC0000000000000000000049DC000016
:1000A00049DC000049DC000049DC000049DC0000BC
:1000B0000000000010B5064C2378002B07D1054B3B
:1000C000002B02D0044800E000BF0123237010BDC4
:1000D000F00300200000000090290100084B10B53B
:1000E000002B03D00749084800E000BF0748036819
:1000F000002B00D110BD064B002BFBD09847F9E731
:1001000000000000F4030020902901009029010064
:100110000000000030B583B00500144C7C44144B43
:10012000E35801939847012805D0002806D00228FB
:1001300016D0012000E0032003B030BD0D4B7B44FE
:100140005B5D002B01D00220F6E728000A4BE35844
:1001500001939847830701D10220EDE70020EBE7E8
:100160000022064B7B445A550220E5E77028010027
:10017000B8000000CA02002068010000A4020020AC
:1001800000B583B0044B7B440020044A9B58019384
:10019000984703B000BDC04606280100900000004B
:1001A00070B582B004000E00074D7D44074BEB583C
:1001B000019398474000013830602000044BEB5811
:1001C0000193984702B070BDE2270100EC040000E3
:1001D0009000000000B583B00100044B7B44002078
:1001E000034A9B580193984703B000BDB027010014
:1001F00018020000024B7B44195401207047C0468E
:100200001202002000B583B00100044B7B440020A3
:10021000034A9B580193984703B000BD8027010013
:10022000C402000000B583B0034B7B44034A9B58D3
:100230000193984703B000BD62270100100200003F
:1002400000B583B0044B7B440020044A9B580193C3
:10025000984703B000BDC04646270100DC020000FD
:100260000120704700B583B0044B7B440020044A52
:100270009B580193984703B000BDC0462227010058
:100280003803000030B583B01500114C7C440122C6
:10029000104BE35801939847002803D0022815D14A
:1002A00003B030BD012128000B4BE3580193984760
:1002B000002801D00120F3E7084BE3580193984749
:1002C000002801D10020EBE70120E9E70120E7E762
:1002D000002701004C020000A4010000E001000022
:1002E00010B582B00A00054B7B4401000020044C8D
:1002F0001B590193984702B010BDC046A4260100C7
:100300001C04000030B583B01500114C7C44012260
:10031000104BE35801939847002803D0022815D1C9
:1003200003B030BD012128000B4BE35801939847DF
:10033000002801D00120F3E7084BE35801939847C8
:10034000002801D10020EBE70120E9E70120E7E7E1
:1003500080260100CC04000004000000B000000072
:1003600010B582B00A00054B7B4401000020044C0C
:100370001B590193984702B010BDC04624260100C6
:100380006802000010B582B0094979440023022BAD
:100390000BD8084A8A5801929A00019C125982424D
:1003A00001D00133F3E7D8B200E0002002B010BD65
:1003B00002260100EC02000030B583B00400534D6A
:1003C0007D440800524BEB5801939847002323606B
:1003D000504AAA58800082586260A372E372237365
:1003E00063722372E36123626362A36223756375A0
:1003F000A375E3752376637623746374A374E3743F
:100400002C22A3540132A3540132A3540132A35429
:100410000132A3540132A3540132A3540132A35434
:100420000132A3540132A3540132A3540132A35424
:100430000132A3540132A3540132A3540132A35414
:100440000132A3540132A3540132A3540132A35404
:100450000132A3540132A3540132A3540132A354F4
:100460000132A3540132A3540132A3540132A354E4
:100470000132A3540132A3540132A3540132A354D4
:100480000132A3540132A3540132A3540132A354C4
:100490000132A3540132A3540132A3540132A354B4
:1004A0000132A3540132A3540132A3540132A354A4
:1004B0004132A354A365A3670132A354E365E36704
:1004C0000132A35423661A3AA3501B32A354636625
:1004D000173AA3501832A354A366143AA350153206
:1004E000A354E366113AA3501232A35423670E3A81
:1004F000A3500F32A35463670B3AA35001210C326F
:10050000A1540132A35403B030BDC046CC25010034
:100510008800000038040000F0B5DE4657464E461D
:100520004546E0B58DB002900F001600C44C7C44E7
:100530000800C44BE358009398470190C24BE3581E
:100540000093830000995B58C0490D6A2B430B62EE
:100550003B689B0708D51C2528000DB03CBC904685
:100560009946A246AB46F0BD3B6801210B4001D045
:100570001C25F1E7B649615800918100009D495959
:100580003568A94201D21725E6E77568A94201D26C
:100590001725E1E70025AC4662469C460300032A86
:1005A00008DC951DAD0075196D68A94200D2EFE118
:1005B0000132F4E702001800002103001000019A44
:1005C00000E0013107290CDC751898352D78002DD5
:1005D000F7D0A04D65590095AD5CA942F1DB172518
:1005E000BAE702001800634600210025AC46984691
:1005F00000E00131032910DC75182D7C012DF8D1A4
:10060000954D635900939D5CA9422EDC80256D04B5
:100610008D4063462B439C46EBE74346A122B25CE8
:10062000002A04D080221201614611438C46327B9D
:10063000120361460A43F17A09020A430492002533
:10064000002D00D088E7327A002A13D10692727A00
:10065000012A12D0804AA258125C0092002205950D
:10066000BC469946A046039048E0434600220492C7
:100670001725E5E704220692E9E706991143CAB275
:100680000692E7E749465EE0494666E049460D4383
:10069000AA4690008518690071180D0031352B7835
:1006A00003251D4053461D4332239A468A44534630
:1006B0001B785B019B4660239A465B4657463B404E
:1006C0001D4333239A468A4453461B781B029A469D
:1006D000C0239B009B4653465F463B401D4334313D
:1006E00009780903E023DB0119400D43A402C0216E
:1006F00009010C402C430AA90C500132012A37DCB5
:100700009400A4186100711835310C78009BA34245
:100710003ED99500AD18690071182C3109780F2960
:100720003BD80906F020000508409500AD18690087
:1007300071180D002D352D782D0405432E310978C3
:1007400000299FD080210D4390008018410071182E
:100750002F310978002997D008210D439000801887
:10076000410071183031097800298FD010218EE7AF
:10077000059D674644460398002D00D0ECE6354BB6
:10078000E3580093195C0023A4460C0019000EE006
:100790006746444603981725EEE7674644460398A4
:1007A0001725E9E70222FF329A4011430133072B54
:1007B00019D8F21850321278002A05D0A34226D256
:1007C000802252029A4011431A001C325200B21881
:1007D000527A002AEAD0A3421ED2022AE2D0012293
:1007E0009A401143E2E789466446002D00D0B3E603
:1007F000194BE35800931B5C9B46737E1B01302210
:100800001A40317E07230B401A4300230AE0644656
:10081000002399461725E8E76446002399461725E3
:10082000E3E70133032B19DCF118097D0029F8D027
:100830005B451CDA8021490299400A43F1E7C04632
:100840005E240100880000006804000000040040ED
:100850003804000000020000940400000792002DFC
:1008600000D079E60023A4460400029806E017258C
:10087000F5E79A0082180021516001330B2BF8DD57
:100880002000644600239A46029B52465A631A008F
:10089000514699633F4BE3580093830000995A50A7
:1008A00011001760A023F25C643BCA54B37A09A913
:1008B0000B70394BE3581B5C00931800374BE25820
:1008C000029290470098364BE35800939847029560
:1008D0005546BA462700019C00E00135314BFB58D4
:1008E00000931B5D9D4218DA731998331B78002B17
:1008F000F3D0012208A98A700023CB702B001E338D
:100900009B009B590B704A702B0016339B00F05CC8
:10091000254BFB5800939847DFE7029D5746049B01
:100920003B60BB685B07FCD4FF233B71BB685B0784
:10093000FCD46B461B7E7B710A9BFB600B9B3B616F
:100940004B46BB61BA68194B1A42FBD1079BFB634C
:10095000BB68DB06FCD433687B63BA68144B1A426D
:10096000FBD173683B64002158460EE0BA68114B16
:100970008B401342FAD18B1D9B00F3185A680B0071
:1009800010339B00FB185A6001318142EEDBE3E536
:100990001725E1E51C0000009C0400001401000084
:1009A00080030000000200006C0400004000020010
:1009B0008000040000010800014B7B44185670477A
:1009C0000E08010010B582B0074B7B4492008418DA
:1009D000616006495B580193D358426B13434363EC
:1009E000002002B010BDC046C21F0100740000000C
:1009F00070B582B004000D000D4E7E4400680D4BB2
:100A0000F358019398470C4B7B4498471F23184099
:100A10001E3B8340094A1360094BF3580193AD0014
:100A2000EA58A36B1343A36323689A6202B070BDB4
:100A3000921F010088000000ADFFFFFF00E100E011
:100A400074000000F0B5C64600B582B0144F7F4474
:100A5000144BFB5801938000C35898461B68DE6A0C
:100A600043465B6B1E4043469B6B1E40002400E0E8
:100A700001340B2C0FDC0C4BFB580193A300019AA3
:100A80009D583542F4D043445B68404698474346FE
:100A90001B68DD62ECE702B004BC9046F0BDC046C6
:100AA0003E1F01001C0000007400000000B583B070
:100AB000044B7B440020044A9B580193984703B0A1
:100AC00000BDC046DA1E01009400000000B583B0EE
:100AD000044B7B440120044A9B580193984703B080
:100AE00000BDC046BA1E01009400000000B583B0EE
:100AF000044B7B440220044A9B580193984703B05F
:100B000000BDC0469A1E010094000000002104E0D0
:100B1000002902D0002021E001210378002B1CD005
:100B200001301A00613AD2B2052AF5D91A00413AC9
:100B3000D2B2052A0BD93A2B0BD02F2B0BD02E2B50
:100B4000E6D030221340302BE7D0002006E0012110
:100B5000E3E70121E1E70121DFE701207047000021
:100B600070B582B00400164D7D444120235C0126FF
:100B70003343235492B2002020560023114EAE5925
:100B80000196B04700280FDA4122A35C01218B4374
:100B9000A35413E000200C4BEB5801939847606D71
:100BA0000A4BEB58019398474123E35CDB0704D5DC
:100BB000E36E022BEED8002000E0002002B070BDF2
:100BC000241E0100980100000003000048020000FC
:100BD0005023038000238370064A02814360C36070
:100BE0000133FF330361AE3B4361034B7B448361BD
:100BF0007047C046204E0000F806010070B582B074
:100C000004000D002D4E7E44002844D0002945D01C
:100C10000B69002B45D04B68002B45D04B69512BFD
:100C200045D9E8220021264BF3580193984720002C
:100C300050301C222900234BF35801939847E36D51
:100C4000002B09D02B89002B14D10023E366D82276
:100C5000A350002002B070BD28691B4BF3580193CC
:100C60009847E065002825D04122A35C04210B436E
:100C7000A354E7E7154BF35801936868002322005B
:100C80000199134D75590195A847A0640028DCDA35
:100C90001C204042DEE716204042DBE7162040429F
:100CA000D8E716204042D5E716204042D2E716206A
:100CB0004042CFE70C204042CCE7C046861D0100F1
:100CC00028030000EC0000001C010000E40000000C
:100CD00050010000002802D0C16400207047162097
:100CE0004042FBE7F0B587B004000F00204D7D4483
:100CF000C023C358002B02D0C4228058984720003C
:100D0000B030182200211B4BEB5801939847E36E3B
:100D1000002B26D10023E3569B000026164A7A4476
:100D20009E5020006C306C220021124BED58A847D9
:100D30002000D83010220021A847E666D823E650CC
:100D40004122A35C01218B4301318B43A3540397C0
:100D5000E36C002B03D003AA02312000984707B0B0
:100D6000F0BD00202056054BEB5801939847D1E782
:100D70009E1C010028030000EEF6FF1FD0040000B7
:100D8000F0B587B0050001911B4E7E44002413E0AE
:100D9000022302A90B804E33FB5A1A021B0A13438B
:100DA0004B80019B4B60002038561022134BF358A8
:100DB000009398471DE00134062C1ADCA300104A6A
:100DC0007A449F58002FF6D0791C28000D4BF35819
:100DD000009398470028EED1FB6E012BEBD1019BCD
:100DE000002BD5D1762149423800074BF3580093A8
:100DF000984707B0F0BDC046021C0100600000002B
:100E00004CF6FF1F78030000F004000000B583B02B
:100E1000064B7B44002A06D03E2149421000044A7A
:100E20009B580193984703B000BDC0467A1B010050
:100E3000F0040000F0B5DE4657464E464546E0B5A4
:100E400097B002AF0400CC4B7B449846EB4610228F
:100E5000CA497944102310203818C018C84B454699
:100E6000EB58FB609847626ED31DDB08DB006946D8
:100E7000CB1A9D4602AB9946002C00D153E2412388
:100E8000E35CDB0700D54EE2E36E032B04D0042BBA
:100E900000D149E1DD4647E20023CC216350043113
:100EA0006350B84BEB58FB600094FB6849462C201C
:100EB0001025AC46BC446044B34D46467559FD60B0
:100EC000A847C823E35C012B00D1ADE0022B00D181
:100ED000B6E0032B00D1BFE0042B00D1C8E0052B06
:100EE00000D1D1E0062B00D1DAE0250070352800D2
:100EF000A64B4246D358BB609847020029002C20DD
:100F0000844610239A46BA44D44463466646180081
:100F10009F4B4546ED58A8470B229E497944300027
:100F2000A8470C229C497944FE603000A847A16E76
:100F30000E000800BA68904702003100FE683000D9
:100F4000A847964B7B4402227B6019003000A847DB
:100F5000062293497944FE603000A847601C0600D1
:100F6000BA68904702003100FE683000A8470222AC
:100F700079683000A84718228A4979443000A84788
:100F80001322894979443000A847172287497944B8
:100F90003000A8472300B033DB68002B00D19AE073
:100FA000B023E35C002B00D086E02300B0339B68C5
:100FB000002B00D18FE02200B03250699847CC233B
:100FC000E050002800DAD4E0020079497944202377
:100FD0009C46103B9A46BA44D44463466646180081
:100FE000744B4546ED58A8471022734979442C208C
:100FF000844610239A46BA44D4446046F860644B51
:101000004546ED58A8473000604B4246D258BA607A
:10101000904702003100FE683000A847022267496D
:1010200079443000A84756E00422654979442B33BF
:1010300010203818C018564BF358FB60984754E7F7
:101040000522604979442A3310203818C018504BC3
:10105000F358FB60984748E707225B4979442933F6
:1010600010203818C0184A4BF358FB6098473CE7EB
:10107000042256497944283310203818C018444BAC
:10108000F358FB60984730E70822514979442733E9
:1010900010203818C0183E4BF358FB60984724E7DF
:1010A00005224C497944263310203818C018384B93
:1010B000F358FB60984718E701225242CC23E250D4
:1010C0001D3245497944A03B5046C018304B454637
:1010D000EB58FB609847D423E558002D10D028002A
:1010E0002A4B4246D358FB609847020029002C2324
:1010F00010203818C018264B4546EB58FB6098471F
:101100000222364979442C2310203818C5182800AB
:101110001F4B4646F358FB6098472800304BF35866
:10112000FB6098470423E366CC23E258002A59DB8E
:10113000002A00DC37E12300B033DD68002D00D148
:1011400031E1D023E3589A4200DDF5E0C023E358B3
:10115000002B02D0C422A05898470223E366E36C18
:10116000002B00D196E61422BA18012120009847DE
:1011700090E60022E250AEE7441B01007A03010032
:10118000EC00000030040000300000008404000087
:101190007004000024030100260301008C050100F7
:1011A00008030100EA020100FC020100060301003D
:1011B000000301009C030000E4020100B0040100F0
:1011C000E0010100D0010100C0010100B0010100F7
:1011D000A001010094010100E8010100CC0301001D
:1011E000480400002300B033DD68002DA0D058690A
:1011F0004B46591D636EDA1FD023E358A847F860A9
:10120000002800DA85E00A234A4613710D22494678
:10121000CA70F968053148464254FA680632835468
:10122000FB68002B10DB02234B443B60FB68DA17A2
:10123000120F99180F230B409B1A102210218C4675
:10124000BC446244D35C8370FB680F2B17DD012321
:101250004B443B60FB68DB170F221340F9688C4658
:1012600063441911DB171B0FC9180A40D31A102247
:1012700010218C46BC446244D35C4A465370FB68E0
:10128000FF2B15DDDA17FF231340FA6894466344F9
:101290001912DB171B0FC9180F220A40D31A10228C
:1012A00010218C46BC446244D35C4A4613703A60B9
:1012B0003B68DA1C4B46D21AFB689C46624492B2E9
:1012C000043292B200202056002339683C4E454635
:1012D000AE59BE60B04700281EDBD022A358F96883
:1012E0008C466344A3500B1E00D0D3E5C033E358B3
:1012F000002B02D00C3AA05898470223E366E36C17
:10130000002B00D1C6E51422BA180121200098470D
:10131000C0E50023FB6076E7052149422000294B08
:10132000EB58FB609847DD46BD4615B03CBC904687
:101330009946A246AB46F0BD2200B0325069626EBB
:101340004946A84700281DDBCC23E5580433E35861
:10135000EB1A9A46984200DC82465346BB819AB209
:101360000020205600234946154E4546AE59FE60E2
:10137000B04700280FDBD023E25894465546654419
:10138000E55087E50521494220000E4B4246D358DF
:10139000FB6098477EE5052149422000094BEB5848
:1013A000FB609847BFE70223E366E36C002B00D1A4
:1013B00070E51422BA180121200098476AE5C0465A
:1013C00098010000F0040000F0B5DE464F4680B5FD
:1013D00089B005008946934602938B4F7F440028CD
:1013E00000D1F8E0C36E022B00D9F8E0072287494C
:1013F00079444846864BFB580093984700280BD009
:101400000822844979444846814BFB580093984709
:10141000002815D0002400E007246B1C4A4616194A
:10142000019318007C4BFA5800929047020031005B
:101430000198774BFB58009398470090002205E0F5
:101440000824EAE7A9184B70013401324B461E19F3
:101450003378002B01D02F2BF4D1AA18002353701E
:101460006B78002B00D1BEE030006B4BFB58039330
:1014700098473F2800D9BAE0D423E858002803D081
:10148000664BFB5803939847109B002B32D01800F3
:10149000634BFB5803939847D423E850002800D1AE
:1014A000A9E04122AB5C01218B43AB5400236B6468
:1014B00033782F2B22D02F227023EA543378002B3D
:1014C00024D1029B002B29D02800B030182219000B
:1014D000544BFB5802939847C8235A46EA54EB6E84
:1014E000012B24D0002B2ED0022B23D00B235B42C8
:1014F00000935CE00022D423EA50D2E72800703049
:101500003100494BFB5803939847DAE73100280034
:101510007130454BFB5803939847D2E72800B03011
:1015200018220021414BFB5802939847D4E7009BB7
:10153000002B3CD0009B002B3FD0002128003C4BCF
:10154000FB58009398475223EA5C002A00D00122FE
:1015500001210220374BFB58009398472870002840
:101560004DDB8000344B7B44C550019E3000334B33
:101570007B449847002828D004AC022323804E33B4
:10158000EB5A1A021B0A1343638030002C4BFB58A2
:101590000093984760600020285610222100294BB4
:1015A000FB58009398470123EB66002300930098B3
:1015B00009B00CBC91469B46F0BD0333EB66280096
:1015C000214BFB5801939847F1E701981F4BFB58BB
:1015D00000939847E7E716235B420093E7E7102361
:1015E0005B420093E3E716235B420093DFE75B2354
:1015F0005B420093DBE70C235B420093D7E71C239D
:101600005B420093D3E7C046B015010000FF000025
:1016100090020000F4FE000084040000FC040000BE
:1016200010030000EC0000000C0000002803000084
:10163000F004000054010000A6EEFF1F99F5FFFF23
:101640006003000060000000E80400008803000060
:1016500030B583B00D4C7C4400280ED0436C026E34
:1016600093420CD2C16DC918D21A92B2007840B21E
:101670000023074D64590194A04703B030BD8B216E
:101680004942044BE35801939847F6E736130100AB
:101690005C000000F004000070B582B00500094B4A
:1016A0007B44C06D6A6C541A2418002C03DC0023A0
:1016B0006B6402B070BD2200034E9B5901939847A2
:1016C0006C64F6E7EC12010080000000F0B5C6463D
:1016D00000B586B007006D4E7E44C46D4DE021001C
:1016E00038006B4BF35801939847002398464046C7
:1016F00006B004BC9046F0BDA11C3800644BF35802
:1017000001939847FB6C002B0AD0E422B95A0029B8
:1017100006D0083AB858002808DB3A6E904211DC2F
:101720000122D823FA50D73B9846E0E703AA11805C
:10173000012191700021E020395091600231380080
:101740009847EDE703AA1180506000219160E020E6
:101750003950023138009847E2E7200010304D4BF5
:10176000F35801939847DC23F85005E0013433E047
:1017700001225242CC23FA50AC1C47497944200044
:10178000464BF35801939847051EA8D0FB6D7A6C21
:10179000944663449842A2D20222414979442000EF
:1017A000404BF358019398470028A5D010223E499A
:1017B000794420003B4BF358019398470028CCD044
:1017C00013223A4979442000364BF3580193984745
:1017D0008046002811D11334AC42CDD22378202B7F
:1017E000C4D0432BC4D0632BC2D0862149423800D9
:1017F0002F4BF3580193984779E70C222D497944F0
:101800002000284BF35801939847002817D10C3437
:10181000AC42B1D22378202B09D04B2B09D06B2BB3
:1018200007D04122BB5C02218B43BB54A4E70134A7
:10183000EEE74122BB5C02210B43BB549CE705222F
:101840001D4979442000174BF3580193984700280D
:1018500092D1200009300F4BF35801939847E423AD
:10186000F8520022083BFA506379312B02D8E37911
:10187000302B05D94122BB5C02210B43BB547BE7D3
:101880004122BB5C02218B43BB5475E7B4120100BB
:10189000940300005804000054FD00005C020000A6
:1018A00034FD00009002000020FB00001CFA000044
:1018B000F0040000F6F90000C2F90000F0B5CE46D1
:1018C000474680B587B00600514B7B449846446C30
:1018D000C56D00270DE04123F35C9B0720D5A91CB3
:1018E00030004C4B4246D35801939847736C002B01
:1018F0001DD0E023F358002B3EDB1DD10022D8334E
:10190000F2500C33F252012103AB1972039204928C
:10191000F36C002BDFD003AA023130009847DAE7DE
:10192000002130003C4B4246D3580193984707B002
:101930000CBC90469946F0BD9C42D7DB039303ABA9
:10194000049500221A72F36C002B03D003AA032122
:1019500030009847E0239946F358991C69183000E5
:101960002C4B4246D35801939847746CF56D012374
:101970005B424A46B350B9E70022E023F2501AE036
:101980000135013CE023F358326E934236DC002CE3
:10199000ACD101225242E023F250C8E71A00613A6A
:1019A000D2B2052A1AD8E02172581201D318613B2D
:1019B00073500135013C002CE4DD2B780A2BDFD07D
:1019C000002FF6D11A00303AD2B2092AE6D8E02127
:1019D00072581201D318303B7350EAE71A00413AAB
:1019E000D2B2052A06D8E02172581201D318413B21
:1019F0007350DEE73B2BDCD10127DAE78B2149422C
:101A00003000054B4246D358019398478FE7C046B4
:101A1000C210010094030000F0040000F0B587B08C
:101A20000400404E7E44C56DDC23C358002B31DBDF
:101A3000026E93422EDC426C934200DD6FE0C76C75
:101A4000002F03D0E422815A002910D10023D8228C
:101A5000A3500C32A3524133E35C9B0710D4002106
:101A60002000314BF3580193984700203DE003AA32
:101A7000118000219170536095600231B847E5E70D
:101A8000DC23E15869182000284BF358019398474C
:101A9000606C2AE0002B3CDB626C03920495E02131
:101AA0006058844662446250934220DC0023D8226E
:101AB000A3500C32A352E33A03AB1A72E36C002B2F
:101AC00003D003AA03212000984703AB1B7A012B04
:101AD00003D14033E35C9B070DD5636CE91820000C
:101AE000124BF35801939847002007B0F0BD002235
:101AF00003AB1A72E2E70E4878440E4BF358019399
:101B0000984700212000084BF35801939847002084
:101B1000EBE72000084B7B4498470020E5E70020D6
:101B2000E3E7C046680F0100F004000094030000E2
:101B3000E4F6000008010000A3FDFFFF00B583B03C
:101B40000A4B7B44D8228258002A03D0012A07D0AE
:101B5000002003E0064A9B580193984703B000BD5C
:101B6000044A9B5801939847F8E7C0464A0E010083
:101B700054000000EC03000030B583B004000D4DAC
:101B80007D44436C9C46614441645823C35A002BF6
:101B900008D12000084BEB58019398470028F8D152
:101BA00003B030BD816C406D044BEB5801939847F6
:101BB000EFE7C0460C0E01004C030000BC03000020
:101BC00030B587B07C4D7D4480007C4B7B44C4584D
:101BD000002C06D006295FD0072900D1A4E00529F2
:101BE00001D007B030BD01201056039000281BDB48
:101BF000E36C002B03D003AA0021200098470323A5
:101C0000E3665533E25AA16C606D6D4BEB5801935E
:101C1000984720006B4BEB580193984720006A4B84
:101C2000EB5801939847DCE703000E300E2824D8C8
:101C30000DF0F6FC201D1A172308231411230E0E95
:101C40000B2A08000521494220E0702149421DE08D
:101C50000C2149421AE01621494217E00C21494261
:101C600014E07921494211E0682149420EE00B213C
:101C700049420BE01021494208E0002B01DB002122
:101C800004E00521494201E00221494220004F4B76
:101C9000EB5801939847A4E70423D15E00290ADD9D
:101CA00020004B4BEB58019398472000454BEB58D5
:101CB0000193984795E70B000E3108000E2924D8B0
:101CC0000DF0AEFC201D1A172308231411230E0E4D
:101CD0000B2A08000521494220E0702149421DE0FD
:101CE0000C2149421AE01621494217E00C214942D1
:101CF00014E07921494211E0682149420EE00B21AC
:101D000049420BE01021494208E0002B01DB002191
:101D100004E00521494201E00221494220002B4B09
:101D2000EB5801939847C0E70023D05E00280ADBF8
:101D30002000254BEB58019398474122A35C0121D9
:101D40008B43A3544DE703000E300E2824D80DF02A
:101D500067FC201D1A172308231411230E0E0B2ACB
:101D600008000521494220E0702149421DE00C2174
:101D700049421AE01621494217E00C21494214E079
:101D80007921494211E0682149420EE00B21494284
:101D90000BE01021494208E0002B01DB002104E0A8
:101DA0000521494201E0022149422000074BEB583E
:101DB00001939847C1E7C046C60D010040E8FF1FE8
:101DC000E8020000F0010000E8040000F004000058
:101DD0002003000002600161002242608360009BDA
:101DE000C360704710B504004268002A00D110BDDE
:101DF0000169C068A368984700236360F7E70000A3
:101E000030B583B004000D00094A7A440368416884
:101E10005B1A002B06DD22696368591C6160D5548A
:101E200003B030BD034BD35801939847F3E7C04646
:101E3000820B010048040000F0B583B006000D00DD
:101E40001400084F7F4408E0002169563000064B1B
:101E5000FB5801939847013C0135002CF4D103B0A5
:101E6000F0BDC046480B0100D8030000024A7A4486
:101E70001368013313607047BAE5FF1F6423438082
:101E80000023037043707047F0B5CE4600B5AEB086
:101E900084460F00284C7C44284B7B4402AD2A002A
:101EA00043CB43C27B8862469366604628300090ED
:101EB0003B789B00595905AE3000214BE358019304
:101EC000984700201F4BE358019398471E4B1B7AFD
:101ED000DBB20200DA40914679881C4BE35801934B
:101EE000FA20000298470100194BE3580193484635
:101EF000984770600523F3723B789B005959320074
:101F0000009D2800134BE358009398477A780832D5
:101F1000D2B2114979442800104BE35800939847F6
:101F200079780831C9B228000D4BE35800939847DF
:101F30002EB004BC9146F0BDF60A01006AF4000020
:101F4000640100004C010000000400403402000065
:101F500040030000D400000055FFFFFF7C04000098
:101F60006C030000826A93689B07FCD4136802210B
:101F70000B43136070470000F0B5D6464F46464607
:101F8000C0B582B007001948784484460024012C6B
:101F900022DCA5002D19AE00F05DC00701D501348B
:101FA000F5E7A500BE197160281981008A46C95D50
:101FB0000220814308005146C855B2600C4A614670
:101FC0008A580192B96E18009047F0605346DA5D66
:101FD00001210A43DA5501E001246442200002B0E5
:101FE0001CBC90469946A246F0BDC046040A0100BA
:101FF00040030000F0B583B004000E000C487844A4
:102000008D0069188B00195D022739431955094B5A
:10201000C3580193A16E10009847074B7B441B687F
:10202000C018AD19AB00E418206103B0F0BDC04684
:102030008E090100400300000CE4FF1F8B005918BB
:102040008B001A5C02218A431A547047F8B50500C8
:10205000002417E0A3001B199A00535D02218B4353
:102060005355A60033199A00AA185768D368926886
:1020700021002800B8473619B3005A5D04218A436D
:102080005A550134012C27DCA3001B199A00535D1B
:10209000DB07F6D5535D9B07F3D5A2001219930019
:1020A000EB181B690D4A7A4412689B1AE9D5A30004
:1020B0001B1999004B5D5B07E3D4485D0426304350
:1020C00048556918CB68002BC4D0D218A100091953
:1020D0008B00EB181A61C4E7F8BDC04682E3FF1F0E
:1020E0000022024B7B441A707047C04648E3FF1F32
:1020F000024A7A4413788343137070473AE3FF1F10
:10210000024B7B441A781043187070472AE3FF1F74
:10211000F0B585B005000C000D4E7E440B0A080C8E
:102120000F0EFF210B400A00224001970140009151
:10213000290008487844084FF7590397B847210009
:102140002800064BF3580393984705B0F0BDC046EE
:102150007208010054F400003C000000CC010000B3
:1021600010B582B0034B7B44034C1B590193984735
:1021700002B010BD26080100E402000030B585B0B1
:102180001E4C7C441E4B7B441B78DA071AD59A07F9
:102190001FD55A0724D41B0729D41A4878441A4B50
:1021A000E35803939847194BE35803930023009394
:1021B0000122174979440398164D64590394A047A6
:1021C00005B030BD144878440F4BE358039398474B
:1021D000F6E7124878440C4BE35803939847EFE72F
:1021E0000F487844084BE35803939847E8E70D48B5
:1021F0007844054BE35803939847E1E70A08010048
:10220000A6E2FF1FC8F4000008010000240300003C
:10221000DCF4000084020000F2F300000CF4000083
:102220002AF4000048F4000030B585B02E4C7C4400
:102230002C2803D0322842D005B030BD0B78012BBA
:1022400022D0002BF8D129487844294BE358039336
:1022500098470220274B7B449847274B7B441B78A9
:102260001B071CD4254B7B441B785B0722D4FF2320
:102270000093234B7B440222062122487844224DBE
:1022800064590394A047D7E720487844184BE35893
:10229000039398471E4BE35803939847CCE71D4898
:1022A00078441D4BE3580393984708201B4B7B440D
:1022B0009847D7E704201A4B7B449847D7E708781C
:1022C0004A788B78C9780091010016487844164DF9
:1022D00064590394A0470220144B7B449847144B45
:1022E0007B449847A8E7C0465E070100FCF5000064
:1022F0000801000097FEFFFFD0E1FF1FC6E1FF1FAE
:10230000F0F50000F4F50000980300009AF50000D5
:10231000BC040000C0E3FF1F540200003FFEFFFFAB
:1023200035FEFFFFACF500003C00000023FEFFFF80
:1023300099FEFFFF00B585B0104B7B44002202A937
:102340000A8001328A710F320A710022CA7180221A
:1023500052004A80D83A4A710020094A9B5801939A
:102360009847084B5A6B02210A435A638022D200D5
:102370005A60054B196005B000BDC0465206010009
:10238000640300000008004000E100E0F0B58BB0FD
:102390002A4D7D442A4BEB582A4A1A6001201871B5
:1023A000FA21C900D980002202AB1A705A709A70C3
:1023B000DA7018715871D980A020000105AB18801F
:1023C0009A70DA701A71D9800024002C21D0012370
:1023D00005AC2371013304A90B7004201A4BEB5890
:1023E000009398470420194BEB5800939847144BDF
:1023F000EB580093220013491800154BEB5801933A
:1024000098470098134BEB580093984700200BB067
:10241000F0BDA7003B19580005AE3018083008225F
:1024200002A90D4BEB58009398473F197B00F61813
:10243000062333740134E4B2C7E7C046FA0501004D
:102440005800000000140040140100008003000048
:1024500040010000A4000000EC000000F0B587B0CF
:10246000164D7D4403AC2000154BEB580193984763
:102470000223E372013BA3726372032203920026DC
:1024800066602372210003200E4BEB58019398479E
:10249000002103200C4BEF58B84705001F2303937E
:1024A000666021000B20019A904700210B20B8475D
:1024B000002D00D10500280007B0F0BD2A0501005D
:1024C00040000000D4010000A802000030B585B033
:1024D0000B4C7C4403AD28000A4BE358009398470B
:1024E000094BE358009329001800084BE358019367
:1024F00098470098064BE3580093984705B030BDC5
:10250000BA04010034010000D40200005C010000A4
:102510007801000030B58BB0164C7C4403AD280028
:10252000154BE358019398478023DB002B61134B35
:10253000E35801936B60124BE35801932900180094
:10254000104BE35801939847011E0BDB0C4BE358EB
:1025500001930D49794418000C4BE35801939847B7
:102560000BB030BD0A4878440A4BE35801939847B2
:10257000FEE7C0467204010008000000D40200001B
:1025800024030000140400003D04000020040000A7
:10259000AAED00003C00000070B582B00E4E7E44F3
:1025A000002814D0002914D00C4D7D4400222800AE
:1025B0000B4BF3580193984704002800094BF3583C
:1025C0000193984760426041C0B202B070BD0020E4
:1025D000FBE70020F9E7C046EE030100B6E0FF1F6D
:1025E0004004000054020000F0B5CE4600B5CAB069
:1025F000070002900E0004910592674D7D44FB2276
:1026000000210BA8654BEC58A0470922002108A81F
:10261000A04700230793002E00D1B0E0310038001E
:102620005F4B7B44984701900390002800D1A9E0BC
:1026300030005C4BEA5800929047FA2800D9A8E095
:102640002E2104963000584BEA5800929047061EFF
:1026500044D0544BEA5800929047070084B2072CAC
:102660002AD8310008A8514BEA58009290470498A4
:102670004C4BEA58009290473F043F0CC71BF62F83
:102680000CD9F6273F1BBCB2220004990BA8484B7B
:10269000EE580096B047019B994617E0049BF21A4A
:1026A00094B21204120C19000BA8414BEB58009382
:1026B0009847019B994609E0F62204990BA83C4BE8
:1026C000EB580093984700239946F624671CBFB245
:1026D0002D220BAB1A550124002310E0F622049999
:1026E0000BA8334BEB580093984700239946F624E8
:1026F000ECE7A200A418620094B201339BB2022B53
:10270000F7D9012608E00BA902982A4B7B44984789
:10271000002822D00136B6B2A6422DD23200264978
:10272000794407AB00931800244BEB5801939C4667
:10273000E0470BA8C019032200991D4BEB580093EA
:1027400098474B46002BDED0FB1C0BA8C01808A9ED
:10275000164BEB5800939847D5E7059A0021049C47
:1027600020000E4BEB58009398470BA920000F4B0D
:10277000EB580093984707E00023039304E00023FD
:10278000039301E00123039303984AB004BC9146EC
:10279000F0BD00230393F7E7900301002803000036
:1027A00073FFFFFF84040000D00100000C00000054
:1027B000A402000089FEFFFF60EE00009C03000001
:1027C000F0B585B005000F00534E7E44002810D0B0
:1027D00000290ED0514B7B441B781B0745D4504B2E
:1027E0007B4430221A700A325A704E4C7C4430348A
:1027F00008E04D4878444D4BF3580093984705B096
:10280000F0BD013C23782F2BFBD12000484BF3581F
:1028100000939847012845D9611C464C7C44A01C74
:10282000454BF35800939847444B7B44FA222100D0
:1028300000931800424B7B4498472100414878445C
:10284000414BF258019290470A22210000983F4BD9
:10285000F3580093984700282FD100223C4B7B442B
:102860001A6008203B4B7B449847039703AB3A0020
:10287000290039487844394C34590094A04700283D
:1028800023D037487844374BF3580093984720209B
:10289000354B7B44984735487844244BF358009394
:1028A0009847ACE732487844204BF3580093984758
:1028B0002020304B7B449847A1E701002E48784404
:1028C000214BF3580093984799E72C4C7C4423689C
:1028D000039A9446634419002360294D7D442A6875
:1028E00028487844184BF3580093984722682B687F
:1028F0009A4200D283E7244878441A4BF358009355
:10290000984722487844094BF35800939847102081
:102910001F4B7B44984772E7C201010056DCFF1F42
:102920001CD8FF1FA4EE0000D0EE0000080100003C
:1029300084040000E0D7FF1F0C00000036DEFF1FFC
:10294000AFFDFFFFA6EE00003C00000040040000C9
:102950002AE0FF1F97F8FFFFECDDFF1F2C040000AB
:10296000DCDDFF1F540200006BF8FFFFE8EE000003
:1029700066EE000049F8FFFF8EEE0000BCDFFF1F8F
:10298000A8DFFF1FDAEE000068DDFF1FECEE00009D
:10299000EBF7FFFF30B583B015003B4C7C440429B6
:1029A0000BD808000CF03CFE030B163B48003748E0
:1029B0007844374BE3580193984703B030BD35480E
:1029C0007844334BE358019398470420324B7B44BF
:1029D0009847F2E71188526830487844304BE35802
:1029E000019398472B88C82B14D169682D4B7B44E1
:1029F000196000222C4B7B441A608023DB00994233
:102A0000DBD8A868294B7B4498471020284B7B448F
:102A10009847D2E72020274B7B449847CDE71168A1
:102A20005068254B7B4498472B7A002BC5D010204B
:102A3000224B7B449847C0E7116821487844184BE3
:102A4000E358019398472B680B33B6D11D4B7B4459
:102A50001B781B0708D41C4B7B441B785B070ED4E8
:102A60001A4B7B449847A8E719487844194BE35818
:102A7000019398470820184B7B449847EBE70420C4
:102A8000164B7B449847EBE7F0FF0000A8E90000F5
:102A900008010000D0E900002FF7FFFFE2E9000085
:102AA0003C00000096DEFF1F92DEFF1FB7FDFFFF18
:102AB000EFF6FFFFE5F6FFFF99FDFFFFCBF6FFFF07
:102AC000BCE90000DED9FF1FD4D9FF1F17F7FFFFB5
:102AD000F6DBFF1F5402000075F6FFFF6BF6FFFFE9
:102AE00070B582B0264D7D44264BEB580193984734
:102AF00001E0002C17D00020234BEB58019398479E
:102B000004000128F5D121487844214BEE58B04704
:102B100020487844B04700201F4BEB58019398475A
:102B20000228F8D1E5E71D487844194BEB5801938A
:102B300098471B4C7C448C22920000212000194BAA
:102B4000EB580193984721000020174BEB58019355
:102B500098470B280BD0154878440D4BEB58019340
:102B600098470120124B7B44984702B070BD01008A
:102B700010487844104BEB5801939847F5E7C0464E
:102B8000A6FE00008C0000009000000020E900007C
:102B9000080100003EE90000B800000058E900000C
:102BA000FCD8FF1F28030000540300007CE900004C
:102BB00097F5FFFF32E900003C000000054B9B68E1
:102BC0005B0506D58022D200024B9A60BFF34F8F7F
:102BD00030BF70470008004030B58BB04B4C7C4490
:102BE0004B4BE358039398474A4BE358039398475A
:102BF000494B7B449847494B7B449847484B7B441F
:102C00009847002307E0474AA258039200220399FD
:102C1000CA540133DBB2032BF5D9424BE35803937B
:102C200001251D71404BE358039398473F4BE358F0
:102C3000039398473E4BE35803931D70BFF35F8F98
:102C400062B6FA2040003B4BE358039398473A4B57
:102C50007B449847394B7B449847394B7B44984792
:102C6000384B7B449847384BE35803939847374B8E
:102C70007B44049304A8364BE35803939847011E02
:102C800006D034487844344BE35803939847FEE722
:102C9000324BE3580393984731497944314878449B
:102CA000314BE35803939847304D7D442900304819
:102CB0007844294BE35803939847FF2300932D4B07
:102CC0007B440222062128002B4D65590395A84715
:102CD0002A4B7B441B78DA060FD49B060DD40020C8
:102CE000274BE35803939847264BE3580393180068
:102CF000254BE35803939847EAE724487844244B4C
:102D0000E458A04723487844A047FEE7AEFD000002
:102D100098000000580200003FF7FFFF91F7FFFF07
:102D20005BF8FFFF5C030000A804000058030000EC
:102D30006C0100004C0400008DF4FFFF73F8FFFFEE
:102D4000B5F8FFFF7BFEFFFF78040000B5F5FFFF3D
:102D5000C002000074E800003C000000F401000024
:102D600073F4FFFFBFF4FFFFB4010000C6EB0000E7
:102D700074E80000A4EB0000980300005AD7FF1F7E
:102D800000030000D4020000480200004CE80000EC
:102D9000080100006AE80000F0B5C64600B582B040
:102DA000504B7B44002601AC267001276770A6704B
:102DB000210013204C4A9D58A84721001020A84705
:102DC00021001120A84721001220A8472670667014
:102DD000A77021001420A84721001520A8472670BD
:102DE0006770A77021001820A84721001920A84764
:102DF0002670022398466370A77021003620A847EA
:102E000021002220A84721003720A84721002320A5
:102E1000A84721002A20A84726706770A6702100C5
:102E20000320A84721001F20A84726706670A770BE
:102E300021000220A84726706670A77021002B2071
:102E4000A847267043466370A77021000420A84756
:102E500021000520A84721000620A84721000720BF
:102E6000A84721000820A84721000920A8472100E1
:102E70000A20A84721000B20A8472670434663700C
:102E8000A77021001720A847267043466370A770DB
:102E900021000E20A84721000F20A84721000C2068
:102EA000A84721000D20A84721002920A84721007C
:102EB0001620A84721002820A84727706670A67012
:102EC0000A4B802212055A61802252055A61210064
:102ED0001B20A84721001C20A84702B004BC904634
:102EE000F0BDC046EAFB0000900300000044004132
:102EF0000120704710B582B0284C7C44284B7B449D
:102F00001A68937B9B100F2018400138032803D8C0
:102F10000CF086FB383B3E4112231373537C072190
:102F2000194020482058019089000858D9080F23DB
:102F30000B401D49615801919B005B585843FA238F
:102F40009B0043431360937D9B11517D89000B438C
:102F5000117D89020B431B051B0D14498B420FD0B9
:102F60000133117EC911D07D400008430721014083
:102F700002318B40D07C0F2101408B409B0A536073
:102F800002B010BD14231373C8E722231373C5E7DF
:102F900030231373C2E740231373BFE792FA000094
:102FA0008ED9FF1FD0020000F4000000FF0F0000C8
:102FB00010B582B022487844224B7B441A68537C77
:102FC00007211940204C0459019489000C59D90853
:102FD0000F230B401D49415801919B005B585C43F6
:102FE000FA239B0063431360937B9B091BD1937D62
:102FF0009B11517D89000B43117D89020B431B05F9
:103000001B0D0133117EC911D07D400008430721FB
:10301000014002318B40D07C0F2101408B409B0A44
:10302000536002B010BDD37D917D09020B43517DE9
:1030300009040B439B029B0A01335B025360F0E7D8
:10304000D6F90000D2D8FF1FD0020000AC02000069
:1030500030B583B0094C7C44094B7B4419688B7FA5
:103060005A1E9341DBB24A7B0968064878440078CF
:10307000054D64590194A04703B030BD36F90000F6
:1030800032D8FF1F48D8FF1F4C00000010B50028A1
:1030900001D0042010BD4201134B7B449B189B7A46
:1030A000033BDBB2012B12D9104B7B44187040015B
:1030B0000F4C7C4424180F4B7B441C600E4B7B440C
:1030C0009847A07A023843425841C0B2E2E70B4B1E
:1030D0007B4411009A1802249472094CCC500123AD
:1030E000537300239377DFE7F6D7FF1F0AD8FF1F3C
:1030F000DED7FF1FD4D7FF1F8FFFFFFFC0D7FF1FF3
:10310000801A060070B582B00600114D7D44002380
:103110000370D52149000F480F4BEB580193984796
:10312000041E03D10124200002B070BD0B4BEB58EC
:1031300001939847431CF6D00005000DD5235B0092
:10314000984201D00024EEE7AA3BFF3B3370EAE748
:1031500080F8000008550000DC0300003C0400007B
:10316000F0B583B007001F4D7D441F4E12E0802153
:10317000C9051E481E4BEB5801939847041E1DD0ED
:103180001C4BEB5801939847C3070FD5731E002EB5
:1031900025D01E0000211848154BEB580193984785
:1031A000041E0BD0002FE2D10021E2E700211348DA
:1031B0000F4BEB5801939847041E02D1200003B037
:1031C000F0BD0C4BEB58019398474300F6D50C4BE0
:1031D0007B441A68D37A08210B43D372EEE70024AC
:1031E000ECE7C04624F80000EE1B000029110000A7
:1031F000DC0300003C040000371100003A05000029
:10320000BCD6FF1F70B582B01A4E7E441A4D002105
:103210001A481B4BF35801939847041E12D0194BC0
:10322000F35801939847C30704D56B1E002D1FD098
:103230001D00ECE700211448114BF3580193984707
:10324000041E02D1200002B070BD0E4BF358019352
:103250009847C023DB0518408023DB059842F1D155
:103260000A4B7B441A68D37A08210B43D372E9E7EF
:103270000024E7E782F70000EE1B000001110000C8
:10328000DC0300003C0400003A0500002AD6FF1FC2
:1032900070B582B00D4E7E440D4D00E01D00002142
:1032A0000C480D4BF35801939847041E0AD00B4B62
:1032B000F35801939847FF23034203D06B1E002D60
:1032C000ECD10024200002B070BDC046F6F600002C
:1032D000400D03000D1B0000DC0300003C04000057
:1032E000F0B587B006002B4F7F44002300930133D5
:1032F0008022920000212848284C3C590394A04782
:10330000051E40D00024312C09D805A8244BFB58B9
:1033100003939847002835D00134A4B2F3E7022381
:10332000059A134033701F4B7B441A68937D9B11A1
:10333000517D89000B43127D920213431B051B0D27
:10334000194A93420BD07F2C1DD804A8144BFB586C
:103350000393984700281BD00134A4B2F3E7352C1F
:1033600009D804A80E4BFB580393984700280DD0AA
:103370000134A4B2F3E70D4B7B441A68049B5B084D
:103380005360E0E70500280007B0F0BD0500FAE74C
:103390000500F8E7A4F6000008110800E4010000A9
:1033A0009001000064D5FF1FFF0F000014D5FF1F20
:1033B00030B585B0114C7C44114B7B441B68198996
:1033C00009040123009310220E480F4D65590395FF
:1033D000A847002801D105B030BD0C4B7B441868CC
:1033E0000E3001210A4BE358039398470028F2D08E
:1033F000084BE35803939847EDE7C046D6F5000025
:10340000D2D4FF1F09110800E4010000B0D4FF1F4F
:10341000480300006C02000030B585B0204D7D44AB
:103420000021882040011F4BEB5801939847041E50
:1034300002D1200005B030BD1B4B7B449847041ED1
:10344000F7D000211948174BEB5801939847041EF9
:10345000EFD0174B7B449847041EEAD0154B7B44B2
:103460009847154B7B441B681B7B3F2B06D902AB4F
:10347000D81D124B7B449847041EDAD08021890066
:103480000F48084BEB5801939847041ED1D00D4BC1
:103490007B449847041ECCD00B4B7B449847C8E72D
:1034A0006EF50000DC030000C7FDFFFF3B110000CC
:1034B00059FFFFFF93FAFFFF28D4FF1F69FEFFFFAC
:1034C00010110000FDFDFFFFB3FBFFFF30B587B01B
:1034D0002A4C7C442A4B7B441B68198909042948DF
:1034E000294BE35803939847002801D107B030BD1A
:1034F00001230093082200212448254D6559039596
:10350000A8470028F2D0012104A8224BE3580393D6
:1035100098470028EAD0204BE358039398470028A7
:10352000E4D004AB1A780F231340012B0FD0002BEB
:1035300007D0022B11D0194B7B441B6810221A7341
:10354000D4E7174B7B441B6810221A73CEE7154B48
:103550007B441B681A221A73C8E704AB9B78DB090B
:10356000012B05D0104B7B441B6820221A73BDE74A
:103570000E4B7B441B6830221A73B7E7BAF4000085
:10358000B6D3FF1F37110000DC0300003311080021
:10359000E4010000480300006C02000054D3FF1F48
:1035A00048D3FF1F3CD3FF1F26D3FF1F1AD3FF1F93
:1035B00030B585B0414D7D44002202ABDA71404BFD
:1035C0007B441B680121D9721A731A813D4BEB5859
:1035D000019398470021882040013B4BEB58019311
:1035E0009847041E02D1200005B030BD02ABD81DA3
:1035F000364B7B449847041EF5D0354B7B449847A7
:10360000041EF0D0334B7B441B68DB7ADB071CD4F1
:10361000314B7B441B68DB7ADB0731D42F4B7B4477
:103620001B68DA7A09231340012B3AD02C4B7B44D8
:103630001B68DB7ADB0704D52A4B7B4498470028BC
:103640003AD0294B7B449847CDE702ABD879274B3A
:103650007B449847002809D0002125481A4BEB5895
:10366000019398470028D3D10400BCE7214B7B4449
:103670001B680222DA72204B7B4498470400B2E7B1
:103680001E4B7B449847002801D10400ABE71C4B3C
:103690007B4498471B4B7B4498470028BED10400CD
:1036A000A1E7802189001848074BEB580193984700
:1036B0000028BBD1040096E7040094E7D6F300008D
:1036C000CCD2FF1FD8040000DC0300000FFBFFFF7B
:1036D000F1F8FFFF86D2FF1F7AD2FF1F6ED2FF1FC5
:1036E0005ED2FF1F53FCFFFF09FAFFFF0DFBFFFF38
:1036F0003B1100001ED2FF1F9DFDFFFF2BFDFFFFB2
:103700001DF9FFFF33FEFFFF1011000000B583B06D
:10371000064B7B44064A7A441078002801D003B057
:1037200000BD044A9B5801939847F8E77AF20000DD
:103730009ED1FF1FB804000000B583B00B49794447
:103740000023002B09D0FF22094B7B441A70094B40
:10375000CB580193984703B000BD5801064A7A44FC
:103760001218042090720133DBB2EAE74EF2000037
:103770006AD1FF1F6002000032D1FF1F10B5114B4C
:103780007B4498470400012804D00F4B7B449847A2
:10379000200010BD0D4B7B449847002809D10C4BED
:1037A0007B441B6803229A720A4B7B44984703248C
:1037B000EEE7094B7B441B6800229A72074B7B445F
:1037C0009847E5E709F9FFFF7DFFFFFF17FEFFFFC1
:1037D000ECD0FF1F5FFFFFFFD8D0FF1F4BFFFFFFA5
:1037E00010B5074B7B449847002801D0002010BD3E
:1037F000044B7B449847044B7B441B68D87AF6E71C
:10380000A5F8FFFF17FFFFFF94D0FF1F10B5074B70
:103810007B449847002801D0002010BD044B7B4416
:103820009847044B7B441B685868F6E779F8FFFF1C
:10383000EBFEFFFF68D0FF1F00207047F0B585B09A
:103840000F0016001B4D7D441B4B7B449847041E04
:1038500002D0200005B0F0BD184B7B4498470028EB
:103860001CD0012E1FD91648164B7B441B68DB7AEF
:103870001B0700D47F0201230093330080229200B3
:103880003900114FED590395A84700280DD00F4B73
:103890007B441E800E4B7B441E80DAE70D4B7B443D
:1038A00098470534D5E70C48DEE70C4B7B44984736
:1038B0000524CEE746F100003FF8FFFF33FAFFFF93
:1038C0001211100022D0FF1FE401000020D0FF1FC2
:1038D0001CD0FF1F6BFEFFFF111108005DFEFFFFF4
:1038E00010B582B00C000B4B7B440B4A9B580193E4
:1038F0009847002806D10022084B7B441A800530E7
:1039000002B010BD064A7A4413881C1B14800020A4
:10391000F6E7C046A4F0000048030000B6CFFF1F42
:10392000AACFFF1F30B583B005001B4C7C441B4B56
:10393000E35801939847002802D1052003B030BD19
:10394000002D15D00022164B7B441A80154B7B446A
:103950001B88012B13D000211348144BE35801930B
:103960009847002810D0124B7B4498470020E5E789
:10397000104B7B441B88002BE8D00020DEE70E4B69
:103980007B4498470020D9E700210748074BE358BC
:1039900001939847E7E7C04660F000006C02000022
:1039A00068CFFF1F64CFFF1F0C310000DC03000055
:1039B000A1FDFFFF3ECFFF1F89FDFFFFF0B585B0E2
:1039C00003900D0016001D4F7F441D4B7B4498470C
:1039D000041E02D0200005B0F0BD0398194BFB581F
:1039E0000393984700281CD1012E1FD91648174B66
:1039F0007B441B68DB7A1B0700D46D020123009314
:103A00003300802292002900114D7D590395A8476B
:103A100000280DD00F4B7B441E800F4B7B441E8033
:103A2000D8E70E4B7B4498470734D3E70C48DEE7D2
:103A30000C4B7B4498470524CCE7C046C4EF0000FC
:103A4000BDF6FFFF10020000199110009CCEFF1F71
:103A5000E40100009ACEFF1F96CEFF1FE5FCFFFF9A
:103A600018910800D7FCFFFF10B582B00C000B4B7B
:103A70007B440B4A9B5801939847002806D10022AB
:103A8000084B7B441A80053002B010BD064A7A44C8
:103A900013881C1B14800020F6E7C0461CEF0000B2
:103AA000F80200002ECEFF1F22CEFF1F10B582B0FD
:103AB0000400134B7B44134A9B58019398470028FA
:103AC00002D1052002B010BD002C0DD000220E4BFB
:103AD0007B441A800D4B7B441B88012B0BD00C4B75
:103AE0007B4498470020EDE70A4B7B441B88002B62
:103AF000F0D00020E6E7084B7B4498470020E1E740
:103B0000D8EE000084030000E0CDFF1FDCCDFF1FD6
:103B100029FCFFFFC6CDFF1F11FCFFFF30B50023BE
:103B200011E04900C9B20132D2B2072A09D85B00BC
:103B3000DBB2080058400006F3D509204340DBB251
:103B4000EFE7210028004C1EE4B2002903D0451CF9
:103B500001780022E9E75B0001201843C0B230BDC4
:103B600010B584B0114C7C44FF2302AAD11D0B7008
:103B700001220F4878440F4BE358019398470E4BAE
:103B80007B441B88012B0DD0FC2202AB9A710122D1
:103B900002AB991D09487844064BE35801939847B6
:103BA00004B010BDFE2202AB9A71F0E726EE0000D1
:103BB00044CDFF1FAC0400007CCDFF1F22CDFF1FB2
:103BC000F0B585B0154E7E44FF2302AAD41DD371F3
:103BD000134D7D44012221002800124FF759B847A8
:103BE000FF23012221002800B8470F4CFF230122A8
:103BF00002A907310D4878440A4D75590195A84727
:103C0000631E002C08D002AA073212781C00FF2A7B
:103C1000ECD1012005B0F0BD0020FBE7C6ED0000AF
:103C2000E6CCFF1F14030000400D0300C2CCFF1FB1
:103C300070B584B01A4C7C441A4B7B441D88012D0E
:103C40002BD0194B7B441988184BE3580193184B20
:103C50007B441868019B9847854202D9012004B033
:103C600070BDFF2302AAD51DD371124E7E440122DE
:103C700029003000104BE458A047FD232B7001228F
:103C800029003000A0470D4B7B4498470028E6D11F
:103C900005220B4B7B441A70E1E70120DFE7C046A9
:103CA00056ED0000C2CCFF1FB0CCFF1F4003000048
:103CB000B4CCFF1F4CCCFF1FAC04000035FFFFFF4E
:103CC00067CCFF1FF0B585B0194F7F44002202ABCF
:103CD000DA71184B5E1E002B15D0FF23012202A9BA
:103CE000CC1D210014487844144D7D590195A847F6
:103CF00022780F23110099430BD03300FE2AE9D11B
:103D0000012005B0F0BD04220D4B7B441A70002049
:103D1000F7E7530705D007220A4B7B441A700020AF
:103D2000EFE70B22084B7B441A700020E9E7C046FE
:103D3000C2EC000020A10700D2CBFF1F140300003B
:103D4000F1CBFF1FE1CBFF1FD5CBFF1F30B585B0F7
:103D5000064C7C44FF23022203A905487844054D04
:103D600064590194A04705B030BDC0463AEC00004C
:103D70005CCBFF1F1403000070B584B01B4E7E4463
:103D800001235B4203A90B80194D7D4402222800C8
:103D9000184BF35801939847FF23012202A9CC1D29
:103DA00021002800144D75590195A8472278112348
:103DB0001340012B06D00122104B7B441A700020C7
:103DC00004B070BD1E231A40042A0DD00A2A05D162
:103DD000023A0B4B7B441A700020F1E70A22094B90
:103DE0007B441A700020EBE70120E9E70EEC0000AD
:103DF0002ECBFF1FAC0400001403000041CBFF1FBB
:103E000027CBFF1F1BCBFF1FF0B5C64600B592B0F6
:103E10003B4E7E4400253B4B7B441D70012704AC88
:103E200027706560A560C0239B03E36025746574FB
:103E3000A774E774257524239846E5540C220021C5
:103E40000AA8314BF3580193984780239B02E36003
:103E50002E4BA3622E4BE3622E4B23632E4B6363E8
:103E60004346E5542D4BA3612D4B7B4422002D4945
:103E70001C0018002C4BF35801939847246820002D
:103E80002A4BF358019398471F2318408740284B2B
:103E90001F60284B7B441B68DB69002BF9D123682A
:103EA000022213432360244A7A4400235370937000
:103EB00022497158019108781070214C7C4420707F
:103EC0006370A370012203A94A708B700A701D4BA6
:103ED000F358019398472278D109530900290CD14E
:103EE000DB0119498C4663441F21114001228A409D
:103EF0009A6112B004BC9046F0BD0023F4E7C046BE
:103F00007AEB0000E3CAFF1F280300000200100044
:103F1000020011000200120002001300801A0600C5
:103F20004ECAFF1F000C00422001000004010000E7
:103F300000E100E024CAFF1F60CAFF1F0403000065
:103F40003CCAFF1F900300000044004170B582B0DE
:103F500006000C00114D7D440022114B7B441A7069
:103F6000104B994203D91C0001E0E308E41A210038
:103F70000D4878440D4BEB58019398471728F4D01F
:103F800071008E190A497944891901220948784437
:103F9000094BEB580193984702B070BD36EA000018
:103FA0009FC9FF1F00093D0046C9FF1FE003000035
:103FB00072C9FF1F2AC9FF1F1000000010B582B090
:103FC000094B7B440021094A7A44117041000818CA
:103FD000074979440918002206487844064C1B59C1
:103FE0000193984702B010BDCAE9000033C9FF1F12
:103FF00026C9FF1FDEC8FF1F1000000030B585B0C6
:104000000C4D7D44FF2202ABDA7100220A4B7B4447
:104010001A7000240AE0012202ABD91D0748784437
:10402000074BEB58019398470134E4B2092CF2D9BD
:1040300005B030BD8AE90000EDC8FF1F9AC8FF1F18
:10404000AC040000F0B5C64600B588B080460292C8
:104050000393574E7E44FF250F2304AA94466344DE
:1040600001931D700022534B7B441A703F23034081
:104070004022134306AF3B700B0E7B700B0CBB70E2
:104080000B0AFB703971052138004B4B7B44984774
:1040900078714A4C7C44012201992000484BF35826
:1040A00001939847062239002000019B984704ABF2
:1040B000D91D0D70FF2301222000424C3459019478
:1040C000A047F83DFF23012204A9CC1D21003E4852
:1040D00078443C4FF7590197B84723785AB2002AE1
:1040E0000CDA013DEDB2002DECD10222374B7B44BE
:1040F0001A70002008B004BC9046F0BD344A7A44DF
:1041000013601A071DD45A0721D40122934324D1E6
:1041100043469B0426D443469B052DD443465B056A
:1041200037D42C4B7B446A4612891A802A4B7B4435
:104130006A4692891A800022284B7B441A6001202B
:10414000D8E70622264B7B441A700020D2E70922CA
:10415000244B7B441A700020CCE7234B7B441A701D
:104160000020C7E7214B7B4498470028D3D1032286
:104170001F4B7B441A70BDE71E49794400230B6036
:10418000FF3301221C4878440E4C34590194A04757
:10419000C4E71A4C7C44FF230422210018487844C9
:1041A000084D75590195A84723681BBA2360B8E7E5
:1041B00038E9000093C8FF1F8DFAFFFF24C8FF1FD6
:1041C000AC04000014030000E8C7FF1F0DC8FF1F68
:1041D00002C8FF1FD0C7FF1FCEC7FF1FCAC7FF1FE0
:1041E000B5C7FF1FA9C7FF1F9FC7FF1F57FAFFFFD4
:1041F00089C7FF1F86C7FF1F32C7FF1F6CC7FF1F7E
:104200001AC7FF1F30B585B0054C7C4400230093CE
:104210000022044D64590394A04705B030BDC04648
:1042200082E70000E4010000014B7B4418687047FE
:10423000D6C6FF1F30B583B001901B4C7C440022D2
:104240001A4B7B441A701A4B7B441988194B7B44D8
:104250001868194BE35800939847002904D1174B6D
:104260007B449847002817D0FF23042201A9144853
:104270007844144D65590095A847134B7B441A6840
:10428000101D1860114B7B4419880B4BE3580093A9
:104290009847002902D0012003B030BD0C4B7B446D
:1042A00098470120F8E7C04650E70000B9C6FF1F55
:1042B000ACC6FF1FB6C6FF1FF003000061FAFFFF88
:1042C00048C6FF1F1403000088C6FF1F6EC6FF1FED
:1042D000ABFAFFFFF0B5CE46474680B583B08046C7
:1042E000174E7E440022174B7B441A7000254C1E4B
:1042F000A3B2994600291DD0134B7B449847002850
:1043000019D0124F7F443A8843465919FF23104869
:104310007844104C34590194A0473B88ED180E4A5C
:104320007A4411688C46634413600C4B7B44984775
:104330004946DCE7012003B00CBC90469946F0BD2D
:10434000AAE6000013C6FF1FC7F9FFFFF0C5FF1F55
:10435000A8C5FF1F14030000E4C5FF1F1DFAFFFFDF
:1043600001207047F0B5C64600B582B080461C4EAD
:104370007E4400221B4B7B441A70002500E0210084
:104380004C1EA4B2002926D0174B7B449847174FE8
:104390007F443A884346591915487844154BF358D9
:1043A000019398473B88ED18134A7A4411688C466C
:1043B00063441360114B7B44984700280CD0002CB9
:1043C000DDD00F4B7B4498470028D8D105220D4BF8
:1043D0007B441A7000E0012002B004BC9046F0BD9E
:1043E0001CE6000085C5FF1FD3F7FFFF64C5FF1F54
:1043F0001EC5FF1FAC0400005AC5FF1FBFF9FFFF19
:10440000F9F7FFFF2BC5FF1F10B5074B7B449847FB
:10441000002804D10522054B7B441A7010BD044BC3
:104420007B449847FAE7C046B1F7FFFFE3C4FF1F9C
:104430000DF8FFFF10B582B00C4C7C4400200C4BF3
:10444000E358019398470B4BE458FA218900A047A1
:10445000094B7B441860FA218900A047074B7B4435
:1044600018600522064B1A6002B010BD52E500002C
:104470004C01000040030000AABCFF1FA2BCFF1FAC
:1044800010E000E000E01000421E00280DD0074BB5
:104490007B441B68002BF6D005494B6000238B60E2
:1044A000034B1B68DB03FBD5EDE770476CBCFF1FBC
:1044B00010E000E010B5034B7B441B68002B00D0DC
:1044C000984710BD54C4FF1F30B583B00D4B7B44DB
:1044D000012201AC62700021A170227021001B201A
:1044E000094A9D58A84721001C20A84721002820E0
:1044F000A847064B802252055A61802212055A6154
:1045000003B030BDBEE40000900300000044004151
:1045100030B583B0064D7D4405E00120054BEB58D6
:10452000019398472000441E0028F6D103B030BD07
:1045300076E400004C040000F8B50A4B7B440A4CBA
:1045400080277F0567618026360566616420074AFB
:104550009D58A847A7616420A847A6616420A84782
:10456000F8BDC04650E40000004400416001000076
:1045700010B582B0124C7C440022124B7B441A606E
:10458000114B7B449847114B1B68DB0703D50F4B3E
:104590001B689B0703D40E4BE358019398470D4BC0
:1045A000E358019398470C4BE35801930123019A78
:1045B0001370BFF35F8F62B6002002B010BDC0461B
:1045C00016E4000090C3FF1F43FFFFFF10E000E070
:1045D00058020000280200006C01000030B587B0CE
:1045E000144C7C44144B7B44186003AD2800134BDF
:1045F000E358019398472923039300236B60013309
:104600002B720133EB72290009200D4BE358019303
:104610009847002209210B4878440B4BE35801933B
:10462000984700210920094BE3580193984707B0A8
:1046300030BDC046AAE3000026C3FF1F40000000B3
:10464000D401000099FEFFFFF4030000A80200005F
:1046500000B583B0094B7B44002807D10021092015
:10466000074A9B580193984703B000BD00210920D9
:10467000044A9B5801939847F6E7C04636E300008A
:104680001C020000A8020000F0B5CE46474680B5E7
:1046900085B007000E001500444C7C44002202AB9C
:1046A000DA71002933D0002D00D17CE0002F33D007
:1046B00000239846002E34D0002399463C4BE35803
:1046C00000933C4BE35801930122009918003A4BA8
:1046D000E358009398470021002D27D1354BE3582C
:1046E0001B681B7E9B07F9D5314BE3580093314B78
:1046F000E35801930022009918002F4BE3580093D0
:104700009847002005B00CBC90469946F0BD0028A3
:10471000C9D10F204042F5E70123984602ABDF1DC7
:10472000C8E70123994602ABDE1DC7E73B789C46EC
:10473000204BE3581B681A7ED207F9D51A7ED207A0
:1047400008D562469A6200200028F7D11A7E5207E7
:10475000FCD50AE00520F7E702000FE0996AC905D9
:10476000C90D00E01022002A11D01A7E5207F9D597
:104770005A8B5207F0D504225A831A320D496158D8
:10478000009189790129E9D0996AC9B2EBE73170C2
:10479000013DADB24B46002B00D101364346002B04
:1047A0009AD1013798E70F204042ABE7F2E20000D0
:1047B00084010000F404000010000000F0B593B084
:1047C0003E4C7C44002303AA537093700E21117059
:1047D0003B4AA55829706B70AB70012202A94A7040
:1047E0008B700A700E20374BE358019398472B7853
:1047F000D9095A0900295BD1D20133498C46624458
:104800001F211940012318008840906104AD2B70CE
:1048100000266E60AE60C027BF03EF602E746E741A
:10482000AB74EB742E752333EE540C2200210AA8CE
:10483000264BE35801939847EF60254BAB62254B1D
:10484000EB62254B2B63254B6B632E75244BAB61C1
:10485000244BE35801932A0023491800234BE358C3
:1048600001939847002825D11E4BE3581D68280066
:104870001F4BE358019398471F2318401E3B83406A
:104880001C4A1360174BE3581B68DB69002BF9D1F6
:104890002B68022213432B60174BE3580193984770
:1048A0000120164BE35801939847002013B0F0BD48
:1048B0000022A5E706204042F8E7C046CAE1000012
:1048C0008401000090030000004400412803000020
:1048D00002000C0002000D0002000E0002000F009A
:1048E000001BB700F404000000100042200100008B
:1048F0000401000000E100E0280200006001000067
:1049000010B582B0124C7C44032808D108684B686B
:104910000A8919000F4B7B44984702B010BD0E2244
:10492000FF320D4979440D4878440D4BE35801930B
:1049300098470C4878440C4BE358019398470D2056
:104940000A4BE3580193984701204042E5E7C046EF
:1049500086E000006FFDFFFF18D0000024D00000AB
:104960003C0000002CD00000080100000000000006
:1049700030B585B01A4C7C44002203AB1A709A7093
:104980005A70184BE3581D682800174BE3580193E1
:1049900098471F2318401E3B8340802213498B50A9
:1049A000104BE3581B68DB69002BF9D18F332B7553
:1049B0002B762B68022293432B6003AD29000C2039
:1049C0000B4BE458A04729000F20A04729000D20D9
:1049D000A04729000E20A047002005B030BDC046EA
:1049E00016E00000F40400000401000000E100E013
:1049F00090030000002A06D00B78037001300131CB
:104A0000013A002AF8D17047002A04D00170013021
:104A1000013A002AFAD170470300002002E0013079
:104A200080B201331A78002AF9D17047044B7B44D5
:104A3000044A9A58D3780133DBB2D3707047C0462A
:104A40005EDF0000C40000007047000010B584B0B5
:104A5000104C7C44104BE35801930023019A93704F
:104A600001200E4BE3580193984703A90C480D4BC6
:104A7000E35801939847002801D004B010BD0221EB
:104A8000039B194303910648074BE358019398474A
:104A9000F3E7C0463ADF0000C40000001001000048
:104AA0007010000044000000C4030000F0B589B09D
:104AB000BA4E7E4407A9BA48BA4BF35803939847B5
:104AC000041E00D044E2079BDB0700D42BE2002049
:104AD000B54BF358039398470123079999430791DE
:104AE000AF48B24BF35803939847041E00D043E2FB
:104AF000AF4BF35803930123039A9370079B9D08D0
:104B00002D052D0D00D1F6E10023059305A9A94837
:104B1000A44BF35803939847041E1AD0C822FF32BF
:104B2000A5497944A5487844A54BF3580393984781
:104B3000A4487844A44BF358039398470D20A34B03
:104B4000F358039398470120974BF35803939847E2
:104B500012E2974BF358059A5A609D60042206AF03
:104B6000390005989A4BF3580393984704007B88C3
:104B70009BB27B8000283DD106AB5B889BB29D42F7
:104B800004D006AB5B88EB1A042B4EDC06AB1B781B
:104B9000012B6BD006AB1B78022B00D1AEE006AB2D
:104BA0001B78042B00D1D1E006AB1B78062B00D17B
:104BB00040E106AB1B78072B00D162E106AB1B7806
:104BC000052B00D184E1834A8349794483487844A2
:104BD0007B4BF35803939847814878447A4BF358BA
:104BE000039398470D20794BF35803939847062475
:104BF0006442C1E1D222FF327A4979447A4878444A
:104C00006F4BF35803939847784878446E4BF358AA
:104C1000039398470D206D4BF35803939847012059
:104C2000614BF35803939847A6E1ED225200704977
:104C3000794470487844624BF458A04706A94A88E2
:104C400092B20B78DBB24978009129006A48784427
:104C5000A0470D205D4BF358039398470120524B1A
:104C6000F358039398470624644285E1504BF35868
:104C7000DB68002B2CD04E4BF358DB6806AA50782B
:104C8000C0B25188059A0832083989B29847484B12
:104C9000F35803939B78002B00D16DE1574A584994
:104CA000794458487844464BF458A04706AB1978E5
:104CB000C9B25A78D2B254487844A0470D20434B29
:104CC000F35803939847514B7B449847040053E1B2
:104CD000F32252004E4979444E487844384BF358F9
:104CE000039398474C487844374BF35803939847BD
:104CF0000D20364BF35803939847C8E72C4BF358D5
:104D00001B69002B0CD02A4BF3581B6906AA50785C
:104D1000C0B25188059A0832083989B29847B6E777
:104D2000F72252003D4979443D487844244BF358DA
:104D3000039398473B487844234BF3580393984791
:104D40000D20224BF35803939847A0E7184BF358D4
:104D50005B69002B0CD0164BF3585B6906AA5078A0
:104D6000C0B25188059A0832083989B298478EE74F
:104D7000FB2252002C4979442C487844104BF358BC
:104D8000039398472A4878440F4BF3580393984766
:104D90000D200E4BF3580393984778E7DADE0000B6
:104DA000701000004400000010010000C403000067
:104DB000C4000000841000005ECE000026CE00007B
:104DC0003C000000B2CE000008010000000000001E
:104DD000AC0300000F020000B6CD00007ECD000045
:104DE00032CF000086CD00004ECD0000FECD000089
:104DF00050CD000018CD0000D2CD000015020000FB
:104E0000E0CC0000A8CC00006CCE000081FDFFFFCC
:104E1000AACC000072CC00007ACD00005ACC000071
:104E200022CC00004ACD00000ACC0000D2CB00000A
:104E30001ECD0000524BF3581B6A002B0CD0504B78
:104E4000F3581B6A06AA5078C0B25188059A0832F6
:104E5000083989B298471AE74A4A4B4979444B487E
:104E600078444B4BF358039398474A4878444A4B4D
:104E7000F358039398470D20484BF35803939847F2
:104E800005E73F4BF3589B69002B0CD03C4BF35884
:104E90009B6906AA5078C0B25188059A0832083931
:104EA00089B29847F3E63E4A3E4979443E48784401
:104EB000374BF358039398473C487844364BF358A4
:104EC000039398470D20354BF35803939847DEE63C
:104ED0002B4BF3585B6A002B00D1D8E6284BF358D4
:104EE0005B6A06AA5078C0B25188059A0832083920
:104EF00089B29847CBE6872292002D4979442D4804
:104F00007844234BF358039398472B487844224B1B
:104F1000F358039398470D20204BF3580393984779
:104F20000224644228E089229200244979442448DA
:104F30007844174BF458A047079922487844A04773
:104F40000D20164BF358039398470C24644213E04A
:104F50001D4A1E4979441E4878440D4BF35803936B
:104F600098471C4878440C4BF358039398470D20FE
:104F70000A4BF35803939847200009B0F0BDC04690
:104F8000C4000000FF01000024CB0000ECCA0000B8
:104F90003C00000058CC00000801000000000000A8
:104FA00006020000D6CA00009ECA00002ECC0000F7
:104FB00084CA00004CCA000044CC000054CA00005F
:104FC0001CCA000028CC00002D0200002CCA0000E2
:104FD000F4C900001CCC000010B582B0134C7C4416
:104FE000134BE35801939B78002B1DD1104BE358D2
:104FF00001935B78002B0ED10D4BE35801931B7886
:10500000002B01D1002007E00A4BE3580193984799
:10501000002801D006E00020054BE2585378013308
:10502000DBB2537002B010BD0020FBE7AED9000028
:10503000C40000003404000082B0084B7B44084ADE
:105040009A5801925278002A05D0054A9A58537806
:10505000013BDBB25370002002B0704750D9000012
:10506000C400000000B583B0114B7B44114A9A582C
:1050700001925278002A05D00E4A99584A78013A8E
:10508000D2B24A700B4A9A5801925278002A0CD137
:10509000084A9A5801921278002A01D1002005E0AE
:1050A000054A9B580193984700E0002003B000BDDB
:1050B00022D90000C4000000D4030000F0B5D64699
:1050C0004F464646C0B58AB080460E000392029312
:1050D00012AB04CB91461F8814AB1B889A46884DAF
:1050E0007D447F220A4009AB5A70187008225A800A
:1050F0004B46002B3CD009A94B885246D21992B29C
:105100009B189BB24B807F4BEB5801939847041E32
:1051100000D0DEE00023079304AAD3800693069B09
:1051200042461A4306923602069B1E43069609AB78
:105130005B881B04069A1343069306997248734BC7
:10514000EB5801939847041E62D100230693069BF7
:1051500002221343069306996D486C4BEB5801935A
:105160009847041E54D10023079304AAD38015E066
:1051700009AA538802998C4663449BB25380C2E7C4
:105180000120644BEB5801939847069B9B0735D54C
:1051900004AB9A1DDB8801339BB2138004AB06334A
:1051A0001B889BB25C4A93423DD806A958485B4B8A
:1051B000EB5801939847002835D104AB06331B8880
:1051C0009BB2F422FF329342DFD904AB06331B8833
:1051D0009BB201329342D3D851487844514BEB589B
:1051E0000193984750487844504BEB5801939847A7
:1051F0000D204F4BEB5801939847C1E707A94D4845
:10520000464BEB5801939847041E0CD0002307939C
:10521000494BEB580193984720000AB01CBC9046BC
:105220009946A246F0BD079B002B4BD0079B0893E5
:1052300009A94B889BB24B80089808223F4BEB583A
:1052400001939847041EE3D1089B08330893039BFE
:10525000002B0DD00898029E32001900374BEB58F6
:1052600001939847041ED3D1089BB4466344089326
:105270004B46002B11D05346029A9B1A089A9B1852
:10528000089308983A0049462C4BEB5801939847ED
:10529000041EBDD1089BFB180893079B9B00069337
:1052A000069B02221343069306992548174BEB5899
:1052B00001939847041EABD1224BEB5801939847BA
:1052C0000400A9E71F4BEB5801939847032464425D
:1052D000A2E7CB2252001C4979441C487844114B68
:1052E000EB58019398471A487844104BEB580193B8
:1052F00098470D200E4BEB58019398478CE7C0461A
:10530000ACD80000FC0300008C100000C4030000B7
:105310007810000060010000E70300004400000076
:1053200082CA00003C00000082CA000008010000A0
:105330000000000000041500A002000004040000AA
:105340006C100000A80300009CC6000070C600009E
:1053500090C9000070B582B0134E7E440020134BFC
:10536000F3580193DB78002B1CD0104BF258D37804
:10537000013BDBB2D3700E4B7B449847041EEED04A
:105380000C4A0D4979440D4878440D4BF558A8470F
:1053900021000C487844A8470D200B4BF35801938B
:1053A0009847E8E702B070BD32D60000C4000000A4
:1053B00031F7FFFF4A02000004C60000C4C5000028
:1053C0003C00000020C6000000000000F0B583B0E3
:1053D00015001E003C4C7C44002803D0002901D05D
:1053E000002A1DD1002E04D0384B7B44984703B0CF
:1053F000F0BD374A3749794437487844374BE3584A
:105400000193984736487844364BE35801939847C0
:105410000D20354BE358019398470C204042E6E7B6
:10542000324BE3589B689A4220D8304BE3585B6874
:10543000984232D387182D4BE258536892689B18D4
:105440009F422AD82A002A4BE35801939847002804
:10545000CDD1264BE258536892689B189F4201D0E9
:10546000002EC4D0234B7B449847C0E7224A2349EF
:10547000794423487844194BE658B0471B4BE3580E
:105480009A6829001F487844B0470D20164BE3580E
:10549000019398470C204042A9E71B4A1B497944D5
:1054A0001B4878440D4BE3580193984719487844BA
:1054B0000C4BE358019398470D200B4BE358019395
:1054C00098470C20404292E7B6D500005FF6FFFFF8
:1054D0006B020000A2C5000052C500003C000000A5
:1054E0009EC700000801000000000000C40000008A
:1054F000AC030000E3F5FFFF7302000028C50000C5
:10550000D8C400003EC7000079020000FAC40000C1
:10551000AAC400005EC7000070B582B00500214C2F
:105520007C440138062829D80AF07AF80A04140FB6
:1055300023191E001C4BE3581961002002B070BDF6
:10554000194BE358D9600020F8E7174BE35859612D
:105550000020F3E7144BE358D9610020EEE7124B2B
:10556000E35819620020E9E70F4BE35899610020E6
:10557000E4E70D4BE35859620020DFE70B4A0C4982
:1055800079440C4878440C4BE658B04729000B4846
:105590007844B0470D200A4BE358019398470C20FC
:1055A0004042CBE76CD40000C4000000B102000010
:1055B00024C40000C8C300003C000000C0C60000B6
:1055C0000000000010B582B00D4C7C440D4BE35838
:1055D00001932822002118000B4BE35801939847B0
:1055E0000A4878440A4BE35801939847094979449B
:1055F0000320094BE35801939847002002B010BDE7
:10560000C2D30000C4000000B801000047F4FFFF4F
:105610002800000057F4FFFFF002000070B5A0B0B2
:1056200004001600BB4D7D442C2837D01B2848D0E1
:10563000062859D00E282FD0322800D167E02F2815
:1056400000D177E0342800D190E0112800D1B8E0F3
:10565000132800D1D3E0042800D1E5E0652800D16B
:10566000F7E0092800D109E12A2800D11BE1202810
:1056700000D12DE192225200A7497944A7487844ED
:10568000A74BEE58B0472100A6487844B0470D20FC
:10569000A54BEB580393984720B070BD002304221C
:1056A00005A93000A14C2C590394A0470028F3D140
:1056B0009F4B7B441B68002BEED005A92C309847EC
:1056C000EAE70023082205A93000984C2C590394DE
:1056D000A0470028E0D1974B7B441B68002BDBD010
:1056E00005A91B309847D7E70123302205A93000D0
:1056F0008E4C2C590394A0470028CDD18E4B7B446F
:105700001B68002BC8D005A906309847C4E70023C2
:10571000142205A93000854C2C590394A047002879
:10572000BAD1864B7B441B68002BB5D005A932301B
:105730009847B1E76422002105AC2000804BEB586C
:10574000039398470023642221003000774C2C59A2
:105750000394A04700289FD17A4B7B441B68002B01
:1057600000D199E705A92F30984795E70023042237
:1057700005A930006D4C2C590394A047002800D097
:105780008AE771487844664BEC58A047059E310E75
:10579000320C330AFF2003400240304000906B4837
:1057A0007844A0470D20604BEB5803939847684B13
:1057B0007B441B68002B00D16EE700213420984702
:1057C0006AE70022634B7B441A700023043205A968
:1057D0003000564C2C590394A047002800D05BE7BA
:1057E00005AB1A785C4B7B441A705C4B7B441B689E
:1057F000002B00D150E705A9113098474CE7002352
:105800002C2205A93000494C2C590394A0470028AC
:1058100000D041E7524B7B441B68002B00D13BE793
:1058200005A91330984737E7002304221EA930004A
:105830003E4C2C590394A047002800D02CE7494B3C
:105840007B441B68002B00D126E71EA90430984733
:1058500022E7002304221EA93000344C2C59039463
:10586000A047002800D017E73F4B7B441B68002B64
:1058700000D111E71EA9653098470DE70123642286
:1058800005A93000294C2C590394A047002800D0CA
:1058900002E7364B7B441B68002B00D1FCE605A9D0
:1058A00009309847F8E60123042205A930001F4C6F
:1058B0002C590394A047002800D0EDE62C4B7B44E4
:1058C0001B68002B00D1E7E605A92A309847E3E6DC
:1058D0000023082205A93000144C2C590394A0473A
:1058E000002800D0D8E605AB9A88300008300123A4
:1058F00005990E4C2C590394A047002800D0CBE604
:105900001C4B7B441B68002B00D1C5E605A9203049
:105910009847C1E666D300001AC60000CEC2000058
:105920003C000000F2C60000000000000802000079
:105930005EB2FF1F38B2FF1F12B2FF1FECB1FF1F94
:10594000B8010000B6B1FF1FD8C40000BCC50000FC
:1059500060B1FF1F4FB1FF1F2EB1FF1F24B1FF1F0A
:10596000FAB0FF1FD0B0FF1FA6B0FF1F7CB0FF1F13
:1059700052B0FF1F0EB0FF1FF0B5C64600B590B085
:105980004C4E7E4401220F2302A98C4663441A70B8
:10599000002800D18AE00268474B7B441A6000224D
:1059A000464B7B441A700F206044454BF3580393D9
:1059B0009847041E04D0200010B004BC9046F0BDEF
:1059C0000020404BF35803939847041E68D13E498A
:1059D000794401203D4BF3580393984706AF3800B4
:1059E0003B4BF3580393984704003A4B7B44039393
:1059F0001800394BF558A84739797A79BB79388C32
:105A0000009036487844A8470D20354BF258904610
:105A100090470398A847262202AB9C4662441A216D
:105A2000614430487844A8470D20C0470398A847F0
:105A3000F9793A7A7B7A2C487844A8470D20C047F8
:105A4000039F3800A84702230522132127487844E2
:105A5000A8470D20C0473800A847254A7A44254961
:105A6000794425487844A8470D20C04723000D33CA
:105A700000D0A0E7E822FF3220497944204878444A
:105A8000154BF358039398471E4878441E4BF35820
:105A9000039398470D20124BF358039398478AE7D6
:105AA00000201A4BF3580393984784E70C24644270
:105AB00081E7C0460AD0000076AFFF1F73AFFF1F1B
:105AC00094020000DC04000049FCFFFFF00200002B
:105AD000B803000070C200003C00000034C40000A5
