:10000000784B002055D6000065D7000065D700006A
:1000100000000000000000000000000000000000E0
:1000200000000000000000000000000065D7000094
:10003000000000000000000065D7000065D7000048
:1000400065D700008133000065D70000ED75000022
:10005000A56B000065D700006965000075D200003F
:100060003D1C0000717A0000897A0000A17A00002E
:10007000B97A0000D17A0000E97A0000A11F0000DF
:10008000C11F0000E11F000001210000212100002C
:1000900041210000000000000000000065D70000C2
:1000A00065D7000065D7000065D7000065D7000060
:1000B0000000000010B5064C2378002B07D1054B3B
:1000C000002B02D0044800E000BF0123237010BDC4
:1000D000900100200000000034F40000084B10B52F
:1000E000002B03D00749084800E000BF0748036819
:1000F000002B00D110BD064B002BFBD09847F9E731
:10010000000000009401002034F4000034F40000EA
:100110000000000080B584B000AF0200FB1D1A7023
:100120000F23FB18FA1D1278D2091A700E23FB1840
:10013000FA1D127852091A700D4BBB600F23FB1881
:100140001B78002B0FD10F23FB181B789B0010226C
:100150009446BC446344083B1A680E23FB181B7882
:10016000DB01D31800E000231800BD4604B080BDB9
:100170000044004180B582B000AF0200FB1D1A7040
:10018000FB1D1B781800044B7B44984703001800A4
:10019000BD4602B080BDC04689FFFFFF80B582B07A
:1001A00000AF78607B6800221A707B6801225A7069
:1001B0007B6800229A70C046BD4602B080BD000038
:1001C00080B584B000AF0200FB1D1A70BB1D0A1C75
:1001D0001A70FB1D1B7818000D4B7B4498470300D9
:1001E000FB60FB1D1B781F22134001229A40130065
:1001F000BB60BB1D1B78002B03D0FB68BA689A61FB
:1002000002E0FB68BA685A61C046BD4604B080BDD2
:1002100097FFFFFF90B583B000AF484C7C443B1D77
:100220001800474B7B4498473B1D01221A7001215F
:100230001720444B7B44984701213620424B7B4496
:1002400098473B1D19001720404BE35898473B1D2A
:10025000190036203D4BE35898473B1D19000420F8
:100260003A4BE35898473B1D19000520374BE3589C
:1002700098473B1D19000620344BE35898473B1D17
:1002800019000720314BE35898473B1D19000820FF
:100290002E4BE35898473B1D190009202B4BE35880
:1002A00098473B1D19000A20284BE35898473B1DEF
:1002B00019000B20254BE358984701210420244BBB
:1002C0007B44984701210520224B7B44984701211C
:1002D0000620214B7B449847012107201F4B7B447C
:1002E0009847012108201E4B7B4498470121092093
:1002F0001C4B7B44984701210A201B4B7B449847A9
:1003000001210B20194B7B4498473B1D00221A709A
:100310003B1D190014200D4BE35898473B1D190055
:1003200015200A4BE3589847FA23DB031800104BBB
:10033000E3589847C046BD4603B090BD14F2000094
:1003400075FFFFFF89FFFFFF7FFFFFFF64020000D3
:10035000FDFEFFFFF3FEFFFFE9FEFFFFDFFEFFFFF5
:10036000D5FEFFFFCBFEFFFFC1FEFFFFB7FEFFFF85
:100370007402000090B583B000AF78600A00FB1CE7
:100380001A70144B7B447A68127C51B2FA1C1278B2
:1003900001209040020052B20A4352B2D1B27A68B0
:1003A00011747A68127814007A68127811000A4A77
:1003B0009A58515CFA1C1278012090400200D2B287
:1003C0000A43D1B2044A9B580A1C1A55C046BD467E
:1003D00003B090BDACF000007400000080B584B0A4
:1003E00000AFF860B960FB1D1A70FB1D1B78FA683E
:1003F0009B00D3180433BA681A60C046BD4604B0E7
:1004000080BD80B582B000AF78607B6801221A7031
:100410007B6800225A707B6800229A707B680022F9
:10042000DA707B6801221A717B6801225A717B683D
:1004300000229A717B680022DA717B6800221A819F
:100440007B680022DA607B6800221A617B680022E8
:100450005A61C046BD4602B080BD80B582B000AFD3
:1004600078607B6801225A607B6800225A707B6842
:1004700006221A707B6800221A727B6800225A7268
:10048000C046BD4602B080BD80B582B000AF786086
:100490007B6880221A707B6800225A707B68012278
:1004A0009A707B680022DA70C046BD4602B080BDFB
:1004B00080B584B000AF0200FB1D1A700F23FB183B
:1004C000FA1D1278D2091A700E23FB18FA1D127841
:1004D00052091A700D4BBB600F23FB181B78002BC1
:1004E0000FD10F23FB181B789B0010229446BC44AD
:1004F0006344083B1A680E23FB181B78DB01D318F2
:1005000000E000231800BD4604B080BD0044004157
:1005100080B584B000AF0200FB1D1A70BB1D0A1C21
:100520001A70FB1D1B7818001A4B7B449847030078
:10053000FB60FB1D1B781F221340BB60BB1D1B789B
:10054000012B11D1FA684021BB68D3185B181B78C6
:10055000DBB240221343D8B2FA684021BB68D318FB
:100560005B18021C1A7010E0FA684021BB68D318AF
:100570005B181B78DBB240229343D8B2FA68402163
:10058000BB68D3185B18021C1A70C046BD4604B085
:1005900080BDC04683FFFFFF80B582B000AF020080
:1005A000FB1D1A70FB1D1B781800044B7B449847F9
:1005B00003001800BD4602B080BDC04601FFFFFF2A
:1005C00080B584B000AF0200FB1D1A70BB1D0A1C71
:1005D0001A70FB1D1B7818000D4B7B4498470300D5
:1005E000FB60FB1D1B781F22134001229A40130061
:1005F000BB60BB1D1B78002B03D0FB68BA689A61F7
:1006000002E0FB68BA685A61C046BD4604B080BDCE
:10061000BBFFFFFF80B582B000AF0200FB1D1A7068
:10062000064BFA1D127811001F220A400121914049
:100630000A001A60C046BD4602B080BD00E100E07D
:1006400080B584B000AF78607B681B68FB60FB6896
:10065000DB695A1E9341DBB21800BD4604B080BD71
:1006600090B583B000AF78601E4C7C447B6801225B
:100670001A707B6800225A607B6800229A607B684F
:10068000C0229203DA607B6800221A747B68002221
:100690005A747B6801229A747B680122DA747B6841
:1006A00000221A757B682422002199547B68183334
:1006B0000C22002118000C4BE35898477B680B4A2A
:1006C0009A617B6800229A627B680022DA627B680A
:1006D00000221A637B6800225A63C046BD4603B0FD
:1006E00090BDC046C6ED000020020000A0860100BB
:1006F00080B584B000AF7860104A7A447B681B688C
:10070000FB607B681B6818000D4BD35898470300AB
:1007100018000C4B7B449847C0467B6818000A4B76
:100720007B449847031EF8D1FB681B6802221A43DA
:10073000FB681A60C046BD4604B080BD36ED0000BF
:10074000CC000000FDFEFFFF1DFFFFFF80B584B061
:1007500000AF78607B681B68FB60FB68DB7BDBB20B
:100760001A00802313405A1E9341DBB21800BD4685
:1007700004B080BD80B582B000AF78607B68002295
:100780001A707B6800229A707B6800229A807B68CE
:1007900000229A717B6800221A817B6800225A70BD
:1007A0007B6800229A727B680022DA727B680022E2
:1007B0001A737B6800229A737B6800225A737B68E5
:1007C00000221A747B6800225A617B6800229A61B9
:1007D0007B6800221A777B6800221A627B680022FD
:1007E0005A627B6800221A857B6800225A857B68E2
:1007F00000229A85C046BD4602B080BD80B586B055
:1008000000AF786039607B681B68FB6000237B6108
:100810003B681B79002B03D07B69102213437B615B
:100820003B68DB78002B03D07B69202213437B617C
:100830003B689B78002B04D07B69802252001343D5
:100840007B611323FB1800221A7017E01323FB1897
:100850001B783A68D35C002B09D01323FB181B7854
:10086000802252019A4013007A6913437B6113235B
:10087000FB181A781323FB1801321A701323FB1884
:100880001B78012BE2D9FB685B899AB23B685B79E4
:1008900099B27B699BB20B439BB213439AB2FB683C
:1008A0005A81C046BD4606B080BD000080B584B008
:1008B00000AF78607B681B68FB60C0467B681800EF
:1008C000084B7B449847031EF8D1FB681B889BB2FA
:1008D000022213439AB2FB681A80C046BD4604B098
:1008E00080BDC04687FEFFFF80B582B000AF786054
:1008F000044A7A447B68D3181B785BB21800BD4663
:1009000002B080BD0AF7FF1F80B582B000AF7860EB
:100910000A00FB1C1A70264A7A447B681B68180080
:10092000244BD358984703001800234B7B44984727
:1009300003001800214B7B449847FB1C1B78022BBB
:100940000BD17B685B7E10221343DAB27B685A7648
:100950007B681B6810225A7326E0FB1C1B78032B54
:100960000BD17B685B7E20221343DAB27B685A7618
:100970007B681B6820225A7316E07B685B7E5AB244
:10098000FB1C1B78012199400B005BB213435BB247
:10099000DAB27B685A767B681B68FA1C12780121F0
:1009A00091400A00D2B25A73C046BD4602B080BD23
:1009B00018EB00003C010000B9FFFFFFDBFCFFFF6C
:1009C00080B582B000AF78607A6880239B010021F7
:1009D000D1507B68054A064999507B68054A002139
:1009E0009950C046BD4602B080BDC04604200000FC
:1009F000FF0300000820000080B582B000AF7860DF
:100A00007B68074A9B580122111C064A934201DC6D
:100A10000023191CCBB21800BD4602B080BDC046F1
:100A200008200000FF03000080B584B000AFF8602C
:100A3000B9607A601A4A7A44FB681800194BD35897
:100A40009847031E01D0002326E0FB68164A9B58F6
:100A50000133164A134003D5013B154A13430133B2
:100A60001900FB68104A9950FB680F4A9A58FB68B6
:100A7000D200B968D150FB680B4A9B58FA68DB007A
:100A8000D31804337A681A60FB680A4A9B585A1CC8
:100A9000FB6808495A5001231800BD4604B080BDC8
:100AA000FAE900001401000004200000FF030080A8
:100AB00000FCFFFF0820000090B583B000AF786015
:100AC0003960084B7B4438687968074A9A581400A3
:100AD00002002000054C1B59984703001800BD4632
:100AE00003B090BD6CE90000B800000030000000C9
:100AF00080B500AF054B7B44054A9A581000054A63
:100B00009B589847C046BD4680BDC0463AE90000A4
:100B1000B8000000E400000090B589B000AF786034
:100B2000194C7C440020194BE35898470300FB61A3
:100B3000174BE3587968F86998470300BB610C23A9
:100B4000FB181800134B7B4498470C23FB18072213
:100B50001A70BA690C23FB185A600C23FB18002288
:100B60001A720C23FB1801225A720C23FB1819006D
:100B70000420094BE35898470420084BE358984752
:100B8000C046BD4609B090BD0EE900000C01000052
:100B90009401000011F9FFFF20010000F0010000A6
:100BA00090B583B000AF0F4C7C443B1D18000E4B3A
:100BB0007B4498473B1D01225A703B1D00229A70CE
:100BC0003B1D07221A703B1D19002A20074BE358D2
:100BD000984701212A20064B7B449847C046BD46D2
:100BE00003B090BD88E80000D5F8FFFFDC020000EC
:100BF00035F9FFFF90B585B000AF0200FB1D1A70FC
:100C0000154C7C44FB1D1B7819003620134B7B448C
:100C100098470C23FB181800114B7B4498470C2372
:100C2000FB1801225A700C23FB1800229A700C2327
:100C3000FB1880221A700C23FB1819003620094B70
:100C4000E358984701213620074B7B449847C0461C
:100C5000BD4605B090BDC0462EE80000AFF9FFFFCD
:100C60006BF8FFFFDC020000C3F8FFFF90B585B012
:100C700000AF0200FB1D1A70124C7C44FB1D1B7858
:100C800019003620104B7B4498470C23FB181800A2
:100C90000E4B7B4498470C23FB1801225A700C23FF
:100CA000FB1800229A700C23FB1803221A700C23E5
:100CB000FB1819003620064BE3589847C046BD463E
:100CC00005B090BDB6E7000037F9FFFFF3F7FFFF6F
:100CD000DC02000090B593B000AF7860224C7C44F9
:100CE00000237B640C23FB181800204B7B4498479F
:100CF0000C23FB18802252059A600C23FB1801225A
:100D00001A757A680C23FB189A610C23FB18802251
:100D10009202DA600C23FB18154A9A620C23FB1826
:100D2000144ADA620C23FB18134A1A630C23FB18CB
:100D3000124A5A630C23FA181149124BE35818004F
:100D4000114BE358984703001A007B6C13437B64F4
:100D50000C4BE35818000D4B7B4498477B6C1800F4
:100D6000BD4613B090BDC04652E7000071F9FFFFC9
:100D700003002200030023000300360003003700B5
:100D8000001C004240020000DC00000095F9FFFF5B
:100D900090B595B000AF78603960524C7C44002328
:100DA000FB641823FB1818004F4B7B44984718230B
:100DB000FB1804221A701823FB1800229A701823BB
:100DC000FB1820229A711823FB1800221A857B68D1
:100DD0009AB21823FB185A857B689AB23B689BB27B
:100DE000D31A9AB21823FB189A851823FA183F4988
:100DF0003F4BE35818003F4BE358984703001A0055
:100E0000FB6C1343FB643C4BE3581900384BE3582D
:100E100003221800394BE358984703001A00FB6C73
:100E20001343FB64324BE35803211800344B7B44DB
:100E3000984700211220334BE358984703001A00CB
:100E4000FB6C1343FB641023FB1800225A71102320
:100E5000FB180022DA701023FB1800221A711023ED
:100E6000FB1800229A701023FB1801221A7010231D
:100E7000FB1800225A701023FA181D4BE35811007A
:100E80001800214B7B4498470C23FB1818001F4B7C
:100E9000E35898470C23FB1834229A700C23FB1854
:100EA00001225A700C23FA18194BE358110018004C
:100EB000184BE358984703001A00FB6C1343FB647C
:100EC000134BE35800211800134BE35898470300D5
:100ED0001A00FB6C1343FB64FB6C1800BD4615B095
:100EE00090BDC04694E60000C7F9FFFF002C004209
:100EF0009000000020030000580000007001000076
:100F0000D7FAFFFF0402000075F9FFFF7C02000022
:100F100088020000840000004402000090B583B005
:100F200000AF7F4C7C4400233B607E4BE3581800AD
:100F30007D4BE35898477D4BE35818007A4BE358B4
:100F40009847784BE3580C225A70764BE3580222AC
:100F50009A70744BE35803221A70724BE3580322C1
:100F6000DA70724BE3580B225A70704BE35802222E
:100F70009A706E4BE35803221A706C4BE3580022B0
:100F8000DA706B4BE35818006A4B7B4498476A4B06
:100F9000E3581800694B7B449847654BE35800229F
:100FA000DA70634BE3580C221A81654BE35818330F
:100FB0001A005F4BE358DA605D4BE358614A1A61EF
:100FC0005B4BE35801221A71594BE35800225A71C6
:100FD000594BE3580022DA70574BE3580C221A8120
:100FE000554BE358574ADA60574BE35818331A0009
:100FF000514BE3581A61504BE35800221A714E4B83
:10100000E35801225A71474BE3581A004F4BE358FB
:10101000110018004E4BE358984703001A003B6834
:1010200013433B60414BE3581A004A4BE35811000D
:101030001800474BE358984703001A003B681343D6
:101040003B603B4BE3581A00434BE3581100180038
:10105000424BE3589847384BE3581A00404BE3584B
:10106000110018003D4BE35898473B4BE3581A00DA
:10107000364BE358110018003A4BE35898470300E9
:101080001A003B6813433B60354BE3581A00314B61
:10109000E35811001800334BE358984703001A0037
:1010A0003B6813433B60304BE3581900274BE35830
:1010B000012218002D4B7B449847264BE358012111
:1010C00018002B4B7B449847204BE3580121180014
:1010D000284B7B44984700210620274BE35898472C
:1010E00003001A003B6813433B6000237B600EE063
:1010F000154BE3587A6852000021D152104BE35847
:101100007A6852000021D1527B6801337B607B6892
:101110000B2BEDD93B681800BD4603B090BDC0460F
:101120000CE5000080020000D00200003800000042
:10113000F801000075F4FFFF6001000069F4FFFF93
:1011400074010000281C004258010000F401000056
:101150001C030000EC02000044000000B40000008A
:1011600098000000400100001001000023F3FFFF81
:10117000ADF2FFFF9FF2FFFF0402000090B583B0C5
:1011800000AF164C7C4400237B600120144BE358D5
:101190009847144BE3589847134BE3581800134BE8
:1011A000E358984703001A007B6813437B60104B99
:1011B000E35818000D4BE358984703001A007B686A
:1011C00013437B600B4BE35818000B4B7B44984751
:1011D0007B681800BD4603B090BDC046ACE200007D
:1011E0009C010000FC000000F4010000A8000000C9
:1011F000EC02000090000000DDF6FFFF80B582B039
:1012000000AF7860044A7A440020044BD3589847D2
:10121000C046BD4602B080BD2AE200003002000098
:1012200090B587B000AF7860254C7C440120254BF9
:10123000E358984700237B6100233B610023FB6058
:1012400024E0FB68DA1C204BE3585200D35A9BB2CF
:101250001900FB680222D31ADB0099400B007A695F
:1012600013437B61FB689A1D174BE3585200D35A16
:101270009BB21900FB680222D31ADB0099400B00D5
:101280003A6913433B61FB680133FB60FB68022B47
:10129000D7DD3A697B69110018000C4BE358984779
:1012A0000B4BE35818000B4BE35898470A4BE35895
:1012B0001800084BE3589847C046BD4607B090BD9C
:1012C00006E200009C01000058010000C00200007E
:1012D000F4010000A8000000EC02000090B585B009
:1012E00000AF78601B4C7C440023FB607B68002BC4
:1012F00000DA01335B101800174BE35898470200DF
:10130000FB681343FB607B681800144BE358984755
:101310007868134BE3581A00FA23990090470300AA
:10132000172118000F4BE35898470200FB6813433E
:10133000FB600D4BE35898470200FB681343FB60CA
:1013400001200A4BE3589847FB681800BD4605B0DA
:1013500090BDC0464AE10000B40200001000000049
:1013600094010000F00000006C000000300200005A
:10137000B0B586B000AF0200BB1D1A80314C7C4472
:10138000314BE3581B78002B02D001235B4254E021
:101390001023FB18180003231A0000212B4BE358DD
:1013A00098470C23FB18180003231A000021274B31
:1013B000E3589847BB1D1B881B0A9BB2DAB2102367
:1013C000FB181A70BB1D1B88DAB21023FB185A7069
:1013D0001023FB1800229A70002136201C4B7B44FE
:1013E00098471023F9181B4BE358032218001A4B97
:1013F000E358984701213620184B7B449847002139
:101400003620174B7B4498470C23F918114BE358AF
:10141000180000230322134D6459A04701213620F0
:10142000114B7B4498470C23FB181B781B020C22A2
:10143000BA18527813437B617B691800BD4606B029
:10144000B0BDC046B2E0000018030000200200005A
:10145000DFF1FFFF4002000000030000C3F1FFFFC7
:10146000B9F1FFFF100200009BF1FFFF80B584B0CF
:1014700000AF0200FB1D1A70184B7B44184A9A58A3
:101480001278002A02D001235B4223E0FA1D127871
:10149000120211B28022920112B20A4311B20E223C
:1014A000BA1811800E22BA18128810000D4A9B58E3
:1014B00098470300BB60BB68FF2293431A000E23CA
:1014C000FB181B889A4202D001235B4202E0BB68F2
:1014D000FF2213401800BD4604B080BDB6DF0000F7
:1014E000180300000401000080B584B000AF0200C2
:1014F000FB1D1A70BB1D0A1C1A70214B7B44214A2C
:101500009A581278002A02D001235B4234E0FA1D77
:101510001278120211B28022D20112B20A4311B221
:10152000BA1D127812B20A4311B20E22BA181180F3
:101530000E22BA1812881000134A9B5898470300CD
:10154000BB60BB68FF221A40BB1D1B789A4202D0C9
:1015500001235B4210E0BB68FF2293431A00802303
:101560009B011900FB1D1B781B020B439A4202D002
:1015700001235B4200E000231800BD4604B080BD9B
:1015800034DF0000180300000401000080B584B0BF
:1015900000AF0200BB1D1A800F4B7B440F4A9A58C4
:1015A0001278002A02D001235B4210E0BA1D128893
:1015B00010000B4A9B5898470300FB60BB1D1A881C
:1015C000FB689A4202D001235B4200E0002318002E
:1015D000BD4604B080BDC04696DE00001803000082
:1015E0000401000090B583B000AF174C7C44174B4A
:1015F000E3581B78002B02D001235B4220E000233C
:101600007B6011231800124BE358984703003B609E
:1016100011E07B6801337B607A68FA235B009A42B1
:1016200002DD01235B420BE000231800084BE35866
:10163000984703003B603B68064A9342E9D1002388
:101640001800BD4603B090BD44DE00001803000042
:101650000401000002FF000090B585B000AF786083
:10166000984C7C44984BE3581B78002B02D0012304
:101670005B4223E17B6800221A6002231800934B2F
:10168000E35898470300FB60FB68013302D1012354
:101690005B4213E1FB68402213405A1E9341DAB2C9
:1016A0007B6801210A4010001A7801218A43111C2D
:1016B000021C0A431A70FB68202213405A1E9341F1
:1016C000DAB27B6801210A4090181A7802218A4315
:1016D000111C021C0A431A70FB68102213405A1E88
:1016E0009341DAB27B6801210A4090001A78042104
:1016F0008A43111C021C0A431A70FB68082213401B
:101700005A1E9341DAB27B6801210A40D0001A7850
:1017100008218A43111C021C0A431A70FB68042228
:1017200013405A1E9341DAB27B6801210A4010012E
:101730001A7810218A43111C021C0A431A70FB6894
:10174000022213405A1E9341DAB27B6801210A40FB
:1017500050011A7820218A43111C021C0A431A7076
:10176000FB68012213405A1E9341DAB27B680121C3
:101770000A4090011A7840218A43111C021C0A4336
:101780001A7003231800514BE35898470300FB607D
:10179000FB68013302D101235B428FE0FB68022228
:1017A00013405A1E9341DAB27B68D0011A787F2128
:1017B0000A40111C021C0A431A70FB6801221340E4
:1017C0005A1E9341DAB27B6801210A4010005A7810
:1017D00001218A43111C021C0A435A700423180079
:1017E0003A4BE35898470300FB60FB68013302D192
:1017F00001235B4262E0FB68022213405A1E9341C0
:10180000DAB27B6801210A4090185A7802218A4393
:10181000111C021C0A435A70FB68012213405A1E15
:101820009341DAB27B6801210A4090005A78042182
:101830008A43111C021C0A435A7005231800234BCB
:10184000E35898470300FB60FB68013302D1012392
:101850005B4233E0FB68042213405A1E9341DAB224
:101860007B6801210A40D0005A7808218A43111C64
:10187000021C0A435A70FB68022213405A1E93410D
:10188000DAB27B6801210A4010015A7810218A439C
:10189000111C021C0A435A70FB68012213405A1E95
:1018A0009341DAB27B6801210A4050015A78202125
:1018B0008A43111C021C0A435A7000231800BD46BB
:1018C00005B090BDCEDD0000180300000000000050
:1018D000B0B500AF2D4C7C442D4BE3581B78002B4A
:1018E00002D001235B424EE00B23E82211001800D6
:1018F000284BE35898470300013302D101235B4290
:1019000041E00C233C2211001800224BE358984779
:101910000300013302D101235B4234E00D23022294
:10192000110018001B4BE35898470300013302D104
:1019300001235B4227E00E23202211001800154BE3
:10194000E35898470300013302D101235B421AE0B8
:1019500011230122110018000E4BE3589847030091
:10196000013302D101235B420DE012230122110059
:101970001800084BE35898470300013302D10123B4
:101980005B4200E000231800BD46B0BD5ADB0000FA
:101990001803000014020000B0B500AF1B4C7C44DB
:1019A0001B4BE3581B78002B02D001235B4229E03C
:1019B000184B1800184BE35898470300013302D125
:1019C00001235B421EE00F2303211800134BE35851
:1019D00098470300013302D101235B4212E0104B10
:1019E00018000D4BE35898470300013302D101233F
:1019F0005B4207E00B4BE3589847054BE358012245
:101A00001A7000231800BD46B0BDC04692DA00002F
:101A10001803000055060000A40000001402000096
:101A200055050000E001000090B585B000AF020050
:101A3000FB1D1A70174C7C44174BE3581B78002B86
:101A400002D001235B4221E00F23FB1820221A70F1
:101A50000F23FB180F22B918FA1D097812780A43D0
:101A60001A700E220F23FB181B78190010000B4B65
:101A7000E35898470300013302D101235B4205E09C
:101A8000074BE358FA1D12781A7000231800BD4660
:101A900005B090BDFAD90000180300001402000040
:101AA000FC02000090B585B000AF78604B4C7C44E0
:101AB0004B4BE35898477B6818004A4BE3589847CC
:101AC000031E06D0484B7B4419000220474BE358C5
:101AD0009847474BE3589847031E06D0454B7B4435
:101AE00019000220414BE3589847434B1800434BE1
:101AF000E3589847031E06D0414B7B44190002204F
:101B00003A4BE35898473F4BE3589847031E06D09B
:101B10003D4B7B4419000220344BE3589847012089
:101B20003A4BE3589847031E06D0394B7B441900C3
:101B300002202E4BE3589847332318002F4BE358CD
:101B40009847031E06D0334B7B4419000220274BD5
:101B5000E3589847304B1800284BE3589847031E2A
:101B600006D02E4B7B4419000220204BE3589847A7
:101B70000023FB600C23FB181800294BE3589847FF
:101B8000031E06D0274B7B4419000220174BE35855
:101B900098470C23FB181800214BE3589847031E65
:101BA00006D0214B7B4419000220104BE358984784
:101BB000FB68002B08D0FB681C4A7A4411001A000D
:101BC00001200A4BE3589847194B7B441800194BE6
:101BD000E3589847184BE3589847FEE782D900002E
:101BE0001C02000004000000E6D10000E00200003A
:101BF00094020000EED1000055060000A400000091
:101C0000EAD1000090010000EED100004000000089
:101C1000F0D10000F4D1000055050000F4D100001F
:101C2000E4010000EAD10000CCD10000D6D10000D0
:101C3000EAD10000000200007C01000090B583B0F2
:101C400000AF194C7C44194BE3581B697B60184B5F
:101C50009B693B60154BE3589A683B681A43134BEA
:101C6000E3589A60124B134A9A6108E07B685A68FD
:101C70007B681B68180090477B689B687B607B686B
:101C8000002BF3D1094BE358DB683B60074BE3586B
:101C90009B683A68D2431A40044BE3589A60C046A6
:101CA000BD4603B090BDC046ECD700004800000020
:101CB00000040042FFFF0F0F80B582B000AF7860D4
:101CC0007B6800221A70C046BD4602B080BD00008D
:101CD00080B582B000AF02003960FB1D1A70FB1D99
:101CE0001B78012B0AD0022B0FD0002B14D10E4BE6
:101CF0000D4A91693A680A439A610FE00A4B0A4A11
:101D0000D1693A680A43DA6108E0074B064A116A6A
:101D10003A680A431A6201E0172300E00023180022
:101D2000BD4602B080BDC0460004004080B500AF93
:101D3000034A7A44034BD3589847C046BD4680BDFA
:101D4000FED600000801000080B500AF034A7A44C7
:101D5000034BD3589847C046BD4680BDE2D600002D
:101D60001400000090B585B000AF284C7C44FB1DEA
:101D700000221A70264B7B449847264BE3581B6879
:101D8000BB600F23FB1800221A7026E0BB680122FB
:101D9000134018D11F4BE3581B680F22BA18127852
:101DA000012191400A001A431A4BE3581A60194B5B
:101DB000E3581B79013BDAB2164BE3581A71FB1D4D
:101DC00001221A700EE0BB685B08BB600F23FB1892
:101DD0000F22BA18127801321A700F23FB181B78E1
:101DE0000B2BD3D90C4B7B449847FB1D1B7801224E
:101DF0005340DBB2002B01D0FF2302E00F23FB187E
:101E00001B781800BD4605B090BDC046C4D6000082
:101E1000B3FFFFFF480000005FFFFFFF80B500AF8A
:101E200002210220084B7B449847084B01221A707C
:101E3000C046064B1B78DBB21A0001231340F8D1D1
:101E4000C046BD4680BDC046A7FEFFFF000400425D
:101E500080B582B000AF78607B6801221A707B6821
:101E600000225A707B6800229A707B680022DA7028
:101E7000C046BD4602B080BDB0B584B000AF78604A
:101E800039602E4C7C440F23FD182D4B7B44984722
:101E900003002B700F23FB181B78FF2B01D1142399
:101EA00048E07B680F22BA1812781A703B685B789A
:101EB000022B1FD00C23FB181800224B7B449847A1
:101EC0003B68DA780C23FB181A700F23FB181B7879
:101ED0000733DBB20C22BA18110018001A4BE35872
:101EE00098470F23FB181B780733DBB21800174BFA
:101EF000E35898470F23FB181B780F221A403B68C2
:101F00009B781B041900FE23DB030B401A433B683C
:101F10005B781B061900C0239B040B401A433B68E7
:101F20001B789B061900C0231B050B401A437B68D6
:101F30005A6000231800BD4604B0B0BDACD5000007
:101F4000D5FEFFFFF9FDFFFFD40000006002000096
:101F500080B582B000AF78600A00FB1C1A700F4990
:101F60007B681B789BB201339BB21B029AB2F823A9
:101F70005B0113409AB2FB1C1B789BB21F200340ED
:101F80009BB213439BB20B81044A7B685B6853602E
:101F900000231800BD4602B080BDC04600040042C8
:101FA00080B500AF044A7A440020044BD3589847C8
:101FB000C046BD4680BDC0468AD400006400000013
:101FC00080B500AF044A7A440120044BD3589847A7
:101FD000C046BD4680BDC0466AD400006400000013
:101FE00080B500AF044A7A440220044BD358984786
:101FF000C046BD4680BDC0464AD400006400000013
:1020000090B587B000AF0200FB1D1A701C4C7C44D9
:10201000FB1D1A781B4BE3589200D3583B613B6978
:102020001B68DA6A3B695B6B1A403B699B6B134028
:10203000FB6000237B611BE0134BE3587A6992003D
:10204000D358FA68134010D03A697B699B00D318C3
:1020500004331B683A69100098473B691B680A4AB9
:10206000A258796989008A58DA627B6901337B61F9
:102070007B690B2BE0DDC046BD4607B090BDC04676
:1020800022D400000C0000005000000080B584B095
:1020900000AFF860B960FB1D1A70FB1D1A78FB6871
:1020A00002329200B968D150FB1D1B78022B07D178
:1020B000FB681B7E10221343DAB2FB681A7619E024
:1020C000FB1D1B78032B07D1FB681B7E20221343CB
:1020D000DAB2FB681A760DE0FB681B7E5AB2FB1D74
:1020E0001B78012199400B005BB213435BB2DAB25B
:1020F000FB681A7600231800BD4604B080BD0000BE
:1021000080B500AF044A7A440020044BD358984766
:10211000C046BD4680BDC0462AD30000A0000000D6
:1021200080B500AF044A7A440120044BD358984745
:10213000C046BD4680BDC0460AD30000A0000000D6
:1021400080B500AF044A7A440220044BD358984724
:10215000C046BD4680BDC046EAD20000A0000000D7
:1021600080B584B000AF0200FB1D1A702B49794482
:10217000FB1D1A782A4BCB589200D358FB60FB68A2
:102180001B689B7BDBB2FA68127E1340DAB2FB68F5
:10219000597E0B23FB180A401A700B23FB181B787F
:1021A0000122134008D0FB689B68FA68100098472A
:1021B000FB681B6801229A730B23FB181B78022211
:1021C000134008D0FB68DB68FA6810009847FB688A
:1021D0001B6802229A730B23FB181B7810221340F2
:1021E00008D0FB681B69FA6810009847FB681B68F9
:1021F00010229A730B23FB181B782022134008D05F
:10220000FB685B69FA6810009847FB681B6820222E
:102210009A73C046BD4604B080BDC046C2D200001D
:102220006C01000080B582B000AF78607B6800224E
:102230001A70C046BD4602B080BD000080B582B0B5
:1022400000AF02003960FB1D1A70FB1D1B78012BCB
:102250000AD0022B0FD0002B14D10E4B0D4A9169DE
:102260003A680A439A610FE00A4B0A4AD1693A6810
:102270000A43DA6108E0074B064A116A3A680A43E2
:102280001A6201E0172300E000231800BD4602B0E7
:1022900080BDC0460004004080B582B000AF7860C9
:1022A0007B6880221A707B6800225A707B6801224A
:1022B0009A707B680022DA70C046BD4602B080BDCD
:1022C00080B584B000AF78607B681B68FB60FB68FA
:1022D000DB7BDBB21A00802313405A1E9341DBB232
:1022E0001800BD4604B080BD90B587B000AF7860DF
:1022F0000823FB180E4A7A4413CA13C300237B61D8
:102300000DE00823FB187A699200D2587B689A4244
:1023100002D17B69DBB206E07B6901337B617B69BB
:10232000022BEED900231800BD4607B090BDC04671
:1023300002CB0000B0B58CB000AFF860B9607A6035
:10234000B14C7C442E23FB1800221A802D23FB184D
:1023500000221A702C23FB1800221A702923FD1862
:10236000BB681800A94BE358984703002B7024233F
:10237000FA18A74B7B441000190003231A00A54B41
:10238000E35898471C23FA18A34B7B44100019000C
:1023900006231A009F4BE35898472B23FB18002273
:1023A0001A700EE02B23FB181A78FB680232920099
:1023B0000021D1502B23FB181A782B23FB18013254
:1023C0001A702B23FB181B78032BEBD9FB68002218
:1023D0001A76FB6800225A762923FB181A788F4B4D
:1023E000E3589200F968D150FB68BA681A607B68BC
:1023F0009B78082B08D12923FB181B780333012273
:10240000134001D01723E5E17B689A78FB681A71C5
:10241000BB681B889BB21A000123134001D005231F
:10242000D8E1BB68DB7BDBB21A001023134001D07C
:102430001C23CFE1BB681B889BB21A000223134008
:1024400001D01C23C6E17B681B7C002B19D018230C
:10245000FB181800724B7B4498477B689B69DAB283
:102460001823FB181A701823FB1801225A707B6876
:102470005B69DBB21822BA1811001800694BE358E7
:1024800098477B681B7F002B19D01823FB18180076
:10249000654B7B4498477B685B6ADAB21823FB186C
:1024A0001A701823FB1801225A707B681B6ADBB272
:1024B0001822BA18110018005A4BE35898472923DC
:1024C000FB181A781C23FB185200D35A190002205B
:1024D000564B7B4498477B689B78082B0CD129236B
:1024E000FB181B785A1C1C23FB185200D35A1900E6
:1024F00002204F4B7B4498471423FB1818004D4B88
:102500007B4498477B681A781423FB181A70292398
:10251000FB181B782422BA18D35C1422BA181100B5
:102520001800454BE35898472923FB181B782422B1
:10253000BA18D35C1800414BE35898477B689A78E7
:102540007B689B791343DBB29AB27B681B89134388
:1025500099B27B689A882E23FB180A431A807B68FD
:102560005B78002B08D02E23FB182E22BA18128875
:10257000802109010A431A80C046FB681800304BCD
:102580007B449847031EF8D1BB682E22BA181288E4
:102590001A807B685B7B002B03D02D23FB18042261
:1025A0001A707B689B7B002B07D02D23FB182D22F4
:1025B000BA18127801210A431A70C046FB68180045
:1025C000204B7B449847031EF8D1BB68FF221A7149
:1025D0002D23FB181B78002B0CD0C046FB6818007D
:1025E000194B7B449847031EF8D1BB682D22BA18BB
:1025F00012785A712C23FB187A68927A1A702A235F
:10260000FB1800221A703EE0EED000003C010000F2
:1026100090CA0000BC0000007ECA00006C010000EF
:102620003FFEFFFFDC02000003FEFFFF67FDFFFF30
:1026300045FDFFFF21FDFFFFD40000006002000008
:102640003DFDFFFFFBFCFFFFDBFCFFFF2A23FB1828
:102650001B787A68D318DB7A002B0DD02A23FB185D
:102660001B7810229A401300D9B22C23FB182C227D
:10267000BA1812780A431A702A23FB181A782A23E8
:10268000FB1801321A702A23FB181B78012BDDD9A5
:10269000C046FB681800514B7B449847031EF8D195
:1026A000BB682C22BA1812789A71C046FB681800D1
:1026B0004B4B7B449847031EF8D1FB681B79042BD6
:1026C00005D0082B00D15EE0002B36D081E0C0465B
:1026D000FB681800434B7B449847031EF8D17B6886
:1026E00028229A5CBB681A74C046FB6818003E4BEF
:1026F0007B449847031EF8D17B6829229A5CBB680B
:102700001A75C046FB681800384B7B449847031E77
:10271000F8D17B682A229A5CBB681A76C046FB68AF
:102720001800334B7B449847031EF8D17B682B225B
:102730009A5CBB685A7600234CE0C046FB681800E0
:102740002C4B7B449847031EF8D17B681A8DBB68DD
:102750001A82C046FB681800274B7B449847031E2B
:10276000F8D17B685A8DBB681A83C046FB68180095
:10277000224B7B449847031EF8D17B689A8DBB6837
:102780005A83002326E0C046FB6818001C4B7B449C
:102790009847031EF8D17B689A6ABB681A61C046E5
:1027A000FB681800174B7B449847031EF8D17B68E1
:1027B000DA6ABB689A61C046FB681800124B7B441A
:1027C0009847031EF8D17B681A6BBB68DA61002357
:1027D00000E017231800BD460CB0B0BD25FCFFFF7C
:1027E0000BFCFFFFE7FBFFFFCDFBFFFFB3FBFFFF92
:1027F00099FBFFFF7BFBFFFF63FBFFFF4BFBFFFF33
:102800002FFBFFFF17FBFFFFFFFAFFFF80B500AFB5
:10281000BFF34F8F024B034ADA60BFF34F8FFEE7DF
:1028200000ED00E00400FA0580B582B000AF7860EA
:102830007B6800221A807B6800225A807B6808220D
:102840001A717B6827225A717B6801229A717B6812
:102850000122DA71C046BD4602B080BD80B582B0AB
:1028600000AF0200FB1D1A70FB1D1B78002B08D166
:10287000064B064A526B02210A435A63C0460023A4
:1028800000E017231800BD4602B080BD00080040DC
:1028900090B583B000AF78600A00FB1C1A70144B2F
:1028A0007B447A68127C51B2FA1C12780120904065
:1028B000020052B20A4352B2D1B27A6811747A68F5
:1028C000127814007A68127811000A4A9A58515CFA
:1028D000FA1C1278012090400200D2B20A43D1B211
:1028E000044A9B580A1C1A55C046BD4603B090BD09
:1028F00090CB00007400000080B584B000AFF86099
:10290000B960FB1D1A70FB1D1B78FA689B00D31879
:102910000433BA681A60C046BD4604B080BD80B5B5
:1029200082B000AF78607B6801221A707B68002259
:102930005A707B6800229A707B680022DA707B688C
:1029400001221A717B6801225A717B6800229A71F8
:102950007B680022DA717B6800221A817B68002282
:10296000DA607B6800221A617B6800225A61C046E7
:10297000BD4602B080BD80B582B000AF78607B6894
:1029800000221A70C046BD4602B080BD80B582B03C
:1029900000AF78607B6880221A707B6800225A70D2
:1029A0007B6801229A707B680022DA70C046BD46BF
:1029B00002B080BD80B584B000AF0200FB1D1A706C
:1029C0000F23FB18FA1D1278D2091A700E23FB1878
:1029D000FA1D127852091A700D4BBB600F23FB18B9
:1029E0001B78002B0FD10F23FB181B789B001022A4
:1029F0009446BC446344083B1A680E23FB181B78BA
:102A0000DB01D31800E000231800BD4604B080BDF0
:102A10000044004180B584B000AF0200FB1D1A7075
:102A2000BB1D0A1C1A70FB1D1B7818001A4B7B4437
:102A300098470300FB60FB1D1B781F221340BB60FF
:102A4000BB1D1B78012B11D1FA684021BB68D3183C
:102A50005B181B78DBB240221343D8B2FA684021DE
:102A6000BB68D3185B18021C1A7010E0FA6840218A
:102A7000BB68D3185B181B78DBB240229343D8B2F3
:102A8000FA684021BB68D3185B18021C1A70C04654
:102A9000BD4604B080BDC04683FFFFFF80B582B055
:102AA00000AF0200FB1D1A70FB1D1B781800044BC1
:102AB0007B44984703001800BD4602B080BDC04665
:102AC00001FFFFFF80B582B000AF78607B68002215
:102AD0001A707B6801225A707B6800229A70C04687
:102AE000BD4602B080BD000080B584B000AF0200DA
:102AF000FB1D1A70BB1D0A1C1A70FB1D1B781800E9
:102B00000D4B7B4498470300FB60FB1D1B781F2285
:102B1000134001229A401300BB60BB1D1B78002BA1
:102B200003D0FB68BA689A6102E0FB68BA685A6130
:102B3000C046BD4604B080BD97FFFFFF80B500AF23
:102B4000054A7A44054BD35801221A70BFF35F8FB0
:102B500062B6C046BD4680BDEEC800001801000048
:102B600080B500AF054A7A4472B6BFF35F8F044B5D
:102B7000D35800221A70C046BD4680BDCAC80000A6
:102B80001801000080B582B000AF0200FB1D1A7072
:102B9000064BFA1D127811001F220A4001219140B4
:102BA0000A001A60C046BD4602B080BD00E100E0E8
:102BB00080B582B000AF78607B6800221A707B68B5
:102BC00000225A707B6800229A707B680022DA70BB
:102BD0007B6801221A717B6801225A717B68FA2294
:102BE000D200DA80C046BD4602B080BD90B587B045
:102BF00000AF7860264C7C440C23FB181800254B52
:102C00007B4498477B68A02212011A807B680022CF
:102C10009A707B680022DA707B6800221A717B68E8
:102C2000FA22D200DA801723FB1800221A7026E05D
:102C30001723FB181A787968082013009B009B184B
:102C40005B00CB181A180C23FB181000190008237E
:102C50001A00114BE35898471723FB181A78796824
:102C600013009B009B185B00CB18103306221A70D0
:102C70001723FB181A781723FB1801321A70172331
:102C8000FB181B78002BD3D0C046BD4607B090BDC3
:102C90003AC80000ADFFFFFFBC00000080B584B063
:102CA00000AF0200FB1D1A701A4B9B69FB60FA68AB
:102CB000F0231B011340FB60FB681B0AFB60FB68F1
:102CC000022B05D8144A5368C02189000B43536076
:102CD000FB1D1B78002B16DB022B02DD032B0BD018
:102CE00011E00E4B0D4A126904218A431A610C4A05
:102CF000FB1D1B78537008E0084B084A1269042139
:102D00000A431A6101E0172300E000231800BD46C2
:102D100004B080BD002000410040004100ED00E013
:102D20000004004080B500AFBFF34F8F30BFC046F6
:102D3000BD4680BD80B500AF024B7B449847C0467E
:102D4000BD4680BDCFFAFFFF80B584B000AF78608C
:102D50007B681B68FB60FB68DB695A1E9341DBB232
:102D60001800BD4604B080BD90B583B000AF786058
:102D70001E4C7C447B6801221A707B6800225A60DA
:102D80007B6800229A607B68C0229203DA607B68CD
:102D900000221A747B6800225A747B6801229A749C
:102DA0007B680122DA747B6800221A757B68242212
:102DB000002199547B6818330C22002118000C4B19
:102DC000E35898477B680B4A9A617B6800229A62B5
:102DD0007B680022DA627B6800221A637B6800222B
:102DE0005A63C046BD4603B090BDC046BEC6000093
:102DF00020020000A086010080B584B000AF78609A
:102E0000104A7A447B681B68FB607B681B6818006B
:102E10000D4BD3589847030018000C4B7B44984740
:102E2000C0467B6818000A4B7B449847031EF8D1C4
:102E3000FB681B6802221A43FB681A60C046BD4645
:102E400004B080BD2EC60000CC00000065FDFFFF71
:102E50001DFFFFFF90B583B000AF0200FB1D1A708D
:102E60000F4C7C4472B6BFF35F8F0E4BE3580022C9
:102E70001A70FB1D1B78013BDBB218000A4B7B4428
:102E80009847084BE35801221A70BFF35F8F62B670
:102E9000064B7B449847C046BD4603B090BDC04634
:102EA000CEC50000180100001BFEFFFF8FFEFFFFD4
:102EB00080B582B000AF0E4B7B44FA1D002111702B
:102EC0000AE0FA1D12780B49595800208854FA1D5F
:102ED0001178FA1D01311170FA1D1278032AF0D908
:102EE000044A9B5801221A71C046BD4602B080BDFB
:102EF00078C500004802000080B584B000AF78605B
:102F00007B681B68FB60FB68DB7BDBB21A008023FD
:102F100013405A1E9341DBB21800BD4604B080BD79
:102F200080B582B000AF78607B6800221A707B6841
:102F300000229A707B6800229A807B6800229A7136
:102F40007B6800221A817B6800225A707B6800220D
:102F50009A727B680022DA727B6800221A737B689F
:102F600000229A737B6800225A737B6800221A74CD
:102F70007B6800225A617B6800229A617B6800228C
:102F80001A777B6800221A627B6800225A627B688B
:102F900000221A857B6800225A857B6800229A8568
:102FA000C046BD4602B080BD80B586B000AF786037
:102FB00039607B681B68FB6000237B613B681B7981
:102FC000002B03D07B69102213437B613B68DB78C5
:102FD000002B03D07B69202213437B613B689B78E5
:102FE000002B04D07B698022520013437B611323A2
:102FF000FB1800221A7017E01323FB181B783A689D
:10300000D35C002B09D01323FB181B7880225201BC
:103010009A4013007A6913437B611323FB181A78D3
:103020001323FB1801321A701323FB181B78012B92
:10303000E2D9FB685B899AB23B685B7999B27B699C
:103040009BB20B439BB213439AB2FB685A81C046B2
:10305000BD4606B080BD000080B584B000AF78608A
:103060007B681B68FB60C0467B681800084B7B448C
:103070009847031EF8D1FB681B889BB202221343BA
:103080009AB2FB681A80C046BD4604B080BDC046F7
:1030900087FEFFFF80B582B000AF7860044A7A44B3
:1030A0007B68D3181B785BB21800BD4602B080BDA8
:1030B00076CFFF1F80B582B000AF78600A00FB1C9E
:1030C0001A70264A7A447B681B681800244BD35830
:1030D000984703001800234B7B44984703001800CF
:1030E000214B7B449847FB1C1B78022B0BD17B6840
:1030F0005B7E10221343DAB27B685A767B681B68CA
:1031000010225A7326E0FB1C1B78032B0BD17B6823
:103110005B7E20221343DAB27B685A767B681B6899
:1031200020225A7316E07B685B7E5AB2FB1C1B7828
:10313000012199400B005BB213435BB2DAB27B68AA
:103140005A767B681B68FA1C1278012191400A00AC
:10315000D2B25A73C046BD4602B080BD6CC30000F7
:103160003C010000B9FFFFFF9FFAFFFFB0B584B03C
:1031700000AF2A4C7C443B001800294BE358984789
:103180003B000222DA723B0001229A723B000122CC
:103190005A723B0003221A603B0000225A603B0037
:1031A00001221A723B00190003201E4BE358984776
:1031B0000F23FD18002103201B4BE3589847030001
:1031C0002B703B001F221A603B0000225A603B001C
:1031D00019000B20134BE35898470E23FD180021CC
:1031E0000B20114BE358984703002B700F23FB185B
:1031F0001B78002B03D00F23FB181B7809E00E234C
:10320000FB181B78002B03D00E23FB181B7800E063
:1032100000231800BD4604B0B0BDC046BCC20000CB
:103220002C00000048010000D001000090B587B0DC
:1032300000AF1E4C7C441E4BE3581E4A1A601C4BC8
:10324000E35801221A711A4BE358FA22D200DA80AD
:103250003B1D1800184B7B4498473B1D01221A71F7
:103260003B001800154B7B4498473B0002221A7024
:103270003B0019000420124BE35898470420114BDF
:10328000E35898473A1D0B49094BE35818000E4B79
:10329000E3589847064BE35818000C4BE3589847FF
:1032A00000231800BD4607B090BDC046FCC1000019
:1032B0003C0000000014004093F9FFFF0DF7FFFFF2
:1032C000D400000060020000F80000007C00000054
:1032D000B0B584B000AF244D7D443B1D1800234B96
:1032E0007B4498473B1D10221A713B1D01229A71A5
:1032F0003B1D0022DA713B1D802252005A803B1D8B
:1033000028225A710F23FC183B1D19000020184B6E
:10331000EB589847030023700E23FC180020154B30
:103320007B44984703002370134B8022D2005A60DD
:103330000120124B7B4498470F23FB181B78002B6E
:1033400003D00F23FB181B7809E00E23FB181B7812
:10335000002B03D00E23FB181B7800E0002318007D
:10336000BD4604B0B0BDC04658C1000045F5FFFFE2
:103370004C02000039F5FFFF000800404DF8FFFF48
:1033800080B500AF074B9A688023DB00134006D05E
:10339000044B8022D2009A60034B7B449847C0467E
:1033A000BD4680BD0008004087F9FFFF90B585B09D
:1033B00000AF7860134C7C44134BE35801221A7021
:1033C00001213620114B7B4498470C23FB18180031
:1033D0000F4B7B4498470C23FB1801225A700C2397
:1033E000FB1800229A700C23FB1803221A700C237E
:1033F000FB1819003620074BE3589847C046BD46D6
:1034000005B090BD7AC00000CC0100001FF7FFFF9F
:10341000B7F5FFFFDC02000090B585B000AF786023
:10342000114C7C440C23FB181800104B7B4498472C
:103430000C23FB1801225A700C23FB1800229A70EF
:103440000C23FB1800221A7000213620084B7B4405
:1034500098470C23FB1819003620064BE358984771
:10346000C046BD4605B090BD0EC000005DF5FFFF33
:1034700097F6FFFFDC02000090B583B000AF184C58
:103480007C443B001800174BE35898473B000C2244
:103490005A703B0002229A703B0003221A703B00D4
:1034A0000322DA703A00104BE358110018000F4B5A
:1034B000E35898473B0003221A703B000B225A70D6
:1034C0003B000022DA703A00094BE3581100180063
:1034D000064BE3589847C046BD4603B090BDC04672
:1034E000B0BF0000D0020000F40100001C03000087
:1034F000EC02000090B587B000AF1F4C7C443B004D
:1035000018001E4B7B4498473B000022DA703B00BA
:1035100009221A811A4BE35809331A003B00DA607A
:103520003B00184A1A613B0000225A713B000122FD
:103530001A713A00144BE35811001800134BE3586A
:1035400098473B000F4ADA60114BE35809331A00E1
:103550003B001A613B0000221A713B0001225A71A4
:103560003A000C4BE35811001800084BE3589847F9
:10357000C046BD4607B090BD34BF000017F4FFFF42
:1035800074010000281C004244000000B400000048
:103590005801000098000000B0B5A4B000AFAC4CDA
:1035A0007C44AC4BE3589847AB4BE3589847AB4B44
:1035B0007B449847AA4B7B449847AA4B7B44984747
:1035C000A94B7B449847A94BE3589847A84BE3582D
:1035D0009847A84B7B44984700238C22BA18136065
:1035E0000FE08C23FB181B685BB203211800A24B71
:1035F000E35898478C23FB181B6801338C22BA18B8
:1036000013608C23FB181B681A2BEADD01235B4235
:1036100003211800984BE358984702235B4203218B
:103620001800954BE358984705235B420321180087
:10363000914BE35898470D235B42032118008E4BB2
:10364000E35898470E235B42032118008A4BE35846
:1036500098478A4B7B449847FA235B001800884BB5
:10366000E3589847874BE35898478023FB18180086
:10367000854B7B4498478023FB1801221A708023D6
:10368000FB1800225A708023FB18190036207F4B4C
:10369000E3589847012136207D4B7B4498474823C7
:1036A000FB1818007B4B7B4498474823FB1880226B
:1036B00052059A604823FB1801221A754823FB180B
:1036C000FA2292039A614823FB1880229202DA6060
:1036D0004823FB18704A9A624823FB186F4ADA6243
:1036E0004823FB186E4A1A634823FB186D4A5A6335
:1036F0008323FD184823FA186B496C4BE3581800D4
:103700006B4BE358984703002B708323FB181B78FF
:10371000002B06D0674B7B4419000020664BE35812
:103720009847624BE3581800644B7B449847142336
:10373000FB181800624B7B4498471423FB180422A3
:103740001A701423FB1800229A701423FB182022ED
:103750009A711423FB1800221A851423FB18802267
:1037600092015A851423FB18564A9A851423FA1895
:103770005549564BE3581800554BE3589847554B5D
:103780007B441900514BE35803221800524BE35875
:1037900098474E4BE35803211800504B7B44984701
:1037A00000211220344BE35898470C23FB180022C9
:1037B0005A710C23FB180022DA700C23FB1800222C
:1037C0001A710C23FB1800229A700C23FB1801229B
:1037D0001A700C23FB1800225A700C23FA183B4B6A
:1037E000E358110018003E4B7B4498470823FB1810
:1037F00018003C4BE35898470823FB1834229A7072
:103800000823FB1801225A700823FA18364BE35894
:1038100011001800354BE3589847334BE35800210B
:103820001800334BE358984700238822BA181360D6
:1038300079E08823FB181B68012213405CD12D4BD3
:10384000E2588823FB181B68D3183C221A705BE0EF
:1038500090BE000068000000A80100001DFDFFFFF1
:1038600073FCFFFFADFBFFFFEBF8FFFFF80200006A
:103870003C02000089F5FFFF04020000E5F4FFFFB1
:10388000BC0200001C0000004FF4FFFF64020000B7
:103890004BF4FFFFBFF6FFFF0300220003002300ED
:1038A0000300360003003700001C00424002000005
:1038B000DC00000002BC0000E0020000CBF6FFFFCD
:1038C000E7F7FFFFE91F0000002C00429000000016
:1038D0002003000095FCFFFF7001000015F9FFFFB9
:1038E000BDF7FFFF7C02000088020000840000009A
:1038F00044020000740100005C4BE2588823FB186E
:103900001B68D318C3221A70594BE2588823FB183E
:103910001B68D31855221A708823FB181B680133C3
:103920008822BA1813608823FB181B68082B00DC58
:103930007FE73B1D18004F4B7B4498473B1D0122FE
:103940005A703B1D00229A703B1D07221A703B1DC6
:1039500019002A20484BE358984701212A20474B59
:103960007B449847464BE3581800464B7B449847A6
:1039700000238422BA181360434B7B449847434B7F
:103980007B449847424BE3581A00424BE3581100DE
:103990001800414BE3589847404BE3581A00404BFE
:1039A000E358110018003C4BE35898473D4B7B44CB
:1039B0001900384BE358012218003B4B7B449847D1
:1039C000344BE35801211800384B7B449847344B63
:1039D000E35801211800364B7B449847002106200C
:1039E000344BE35898472B4BE3581800324BE358BD
:1039F00098472B4BE35818002F4BE35898472F4B11
:103A0000E35800221A70C0462C4BE3581B78DBB2F7
:103A100001225340DBB2002BF6D18423FB181B6834
:103A200001338422BA1813601A4BE3581800224B52
:103A3000E35898471A4BE35818001F4BE358984730
:103A40008423FB181A681E4BE35864211000984722
:103A50000B1ED4D18423FB181B681A4A7A44190020
:103A60001000194BE3589847C9E7C046740100009D
:103A70005801000051F0FFFFDC020000B1F0FFFF31
:103A800090000000E9F6FFFFFBFAFFFF71FBFFFF6C
:103A900044000000F4010000400100009800000014
:103AA000EC020000FBF9FFFF39EFFFFFC3EEFFFF61
:103AB000B5EEFFFF04020000A8000000CC010000EA
:103AC00014030000D4B800002800000090B587B0AF
:103AD00000AFF860B960FB1D1A70454C7C44172399
:103AE000FB1800221A701423FB181800414B7B446A
:103AF0009847FB685B00FB605FE01723FB181B78AF
:103B00005A1E9341DBB201225340DBB21A00172345
:103B1000FB181A701A7801210A401A701723FB1833
:103B20001B78002B20D01423FB1801221A701423B9
:103B3000FB1800225A70FB1D1B785A1E9341DBB202
:103B400001225340DBB21A1C01231340DBB21900DF
:103B50002B20294B7B4498471423FB1819002B205A
:103B6000264BE358984713E01423FB1800221A70E1
:103B70001423FB1800225A7000212B20204B7B4479
:103B800098471423FB1819002B201C4BE358984727
:103B9000BB680133022B09D9BB68002B00DA013363
:103BA0005B101800174BE358984703E00120164BB1
:103BB000E3589847FB68013BFB60FB68002B9CDCEB
:103BC0001423FB1800221A701423FB1800225A70C9
:103BD00000212B200D4B7B4498471423FB18190020
:103BE0002B20064BE3589847C046BD4607B090BD12
:103BF00054B90000D3EFFFFF91EFFFFF6402000014
:103C000067EFFFFFBC020000100300000FEFFFFF93
:103C10000EB490B584B000AF7860134C7C44202380
:103C2000FB18FB60FA68FB69110018000F4BE358A2
:103C300098477B680022C82118000D4B7B449847A9
:103C4000FA235B0018000B4BE358984704200A4BFB
:103C50007B449847094B7B449847C046BD4604B017
:103C600090BC08BC03B0184714B800000002000064
:103C70008DFEFFFFBC02000001F2FFFFDBF0FFFF43
:103C80000FB480B582B000AF084A7A441423FB1801
:103C90007B6079683B691800054BD3589847C0464C
:103CA000BD4602B080BC08BC04B01847A6B70000EF
:103CB0008401000080B584B000AF0200FB1D1A70C3
:103CC0000F23FB18FA1D1278D2091A700E23FB1865
:103CD000FA1D127852091A700D4BBB600F23FB18A6
:103CE0001B78002B0FD10F23FB181B789B00102291
:103CF0009446BC446344083B1A680E23FB181B78A7
:103D0000DB01D31800E000231800BD4604B080BDDD
:103D10000044004180B582B000AF0200FB1D1A7064
:103D2000FB1D1B781800044B7B44984703001800C8
:103D3000BD4602B080BDC04689FFFFFF80B582B09E
:103D400000AF78607B6800221A707B6801225A708D
:103D50007B6800229A70C046BD4602B080BD00005C
:103D600080B584B000AF0200FB1D1A70BB1D0A1C99
:103D70001A70FB1D1B7818000D4B7B4498470300FD
:103D8000FB60FB1D1B781F22134001229A40130089
:103D9000BB60BB1D1B78002B03D0FB68BA689A611F
:103DA00002E0FB68BA685A61C046BD4604B080BDF7
:103DB00097FFFFFF90B583B000AFA74C7C443B1D3D
:103DC0001800A64B7B4498473B1D00221A703B1DF0
:103DD00001225A703B1D00229A703B1D19001320CE
:103DE0009F4BE35898473B1D190010209C4BE3580C
:103DF00098473B1D19001120994BE35898473B1DEC
:103E000019001220964BE35898473B1D00221A7068
:103E10003B1D00225A703B1D01229A703B1D190068
:103E200014208F4BE35898473B1D190015208C4BED
:103E3000E35898473B1D00221A703B1D01225A701F
:103E40003B1D01229A703B1D19001820844BE3583A
:103E500098473B1D19001920814BE35898473B1D9B
:103E600000221A703B1D02225A703B1D01229A70DB
:103E70003B1D190036207A4BE35898473B1D19002B
:103E80002220774BE35898473B1D19003720744B8D
:103E9000E35898473B1D19002320714BE35898477E
:103EA0003B1D19002A206E4BE35898473B1D00220A
:103EB0001A703B1D01225A703B1D00229A703B1D57
:103EC00019000320664BE35898473B1D19001F203B
:103ED000634BE35898473B1D00221A703B1D00229C
:103EE0005A703B1D01229A703B1D190002205C4B49
:103EF000E35898473B1D00221A703B1D00225A7060
:103F00003B1D01229A703B1D19002B20544BE35896
:103F100098473B1D00221A703B1D02225A703B1D20
:103F200001229A703B1D190004204D4BE35898471D
:103F30003B1D190005204A4BE35898473B1D1900CB
:103F40000620474BE35898473B1D19000720444B78
:103F5000E35898473B1D19000820414BE358984708
:103F60003B1D190009203E4BE35898473B1D1900A3
:103F70000A203B4BE35898473B1D19000B20384B58
:103F8000E35898473B1D01221A703B1D02225A70CC
:103F90003B1D00229A703B1D19001720304BE3583F
:103FA0009847002117202F4B7B4498473B1D002248
:103FB0001A703B1D02225A703B1D01229A703B1D54
:103FC00019000E20264BE35898473B1D19000F207F
:103FD000234BE35898473B1D19000C20204BE35816
:103FE00098473B1D19000D201D4BE35898473B1D7A
:103FF000190029201A4BE35898473B1D1900162039
:10400000174BE35898473B1D19002820144BE358E1
:1040100098473B1D01221A703B1D00225A703B1D20
:1040200000229A7000211B200F4B7B4498470021EF
:104030001C200E4B7B4498473B1D19001B20084B4E
:10404000E35898473B1D19001C20054BE35898473F
:10405000C046BD4603B090BD74B6000075FFFFFFBB
:1040600064020000B5FDFFFF33FDFFFF29FDFFFFE8
:1040700080B582B000AF78607B68002B0CD0084B15
:104080007A685A60064B00229A60C046044B1A6850
:1040900080235B021340F9D0C046BD4602B080BD0C
:1040A00010E000E0B0B500AF154C7C440020154B8B
:1040B000E35898470200144B7B441A60134B7B442F
:1040C0001868134BE3581A00FA239900904703002D
:1040D0001A00104B7B441A600F4B7B4418680C4B42
:1040E000E3581A00FA239900904703001A000B4B7B
:1040F0007B441A600A4B05221A60C046BD46B0BD1B
:1041000086B300000C01000060BFFF1F5ABFFF1FF5
:104110003402000044BFFF1F3EBFFF1F2CBFFF1F24
:1041200010E000E080B582B000AF786006E0084B98
:104130007B441B681800074B7B4498477B685A1EDA
:104140007A60002BF3D1C046BD4602B080BDC046A8
:10415000ECBEFF1F35FFFFFF80B582B000AF786077
:1041600006E0084B7B441B681800074B7B449847CC
:104170007B685A1E7A60002BF3D1C046BD4602B060
:1041800080BDC046B4BEFF1F01FFFFFF80B582B0F7
:1041900000AF0B4A7A44EFF310837B607B6859428F
:1041A0004B41DBB23B6072B6BFF35F8F054BD35818
:1041B00000221A703B681800BD4602B080BDC046A0
:1041C0009CB200001801000080B582B000AF78609A
:1041D0007B685A1E9341DBB21800BD4602B080BD19
:1041E00090B583B000AF7860094C7C447B681800C0
:1041F000084B7B449847031E06D0074BE358012227
:104200001A70BFF35F8F62B6C046BD4603B090BD63
:1042100046B20000D3FFFFFF1801000090B583B045
:1042200000AFBB1D00221A70574B7B4400221A704E
:10423000BB1D1A78554B7B4452000021D152BB1D47
:104240001A785349794413009B009B185B00A12204
:104250005A54BB1D1A784F49794413009B009B1890
:104260005B00CB18013320221A70BB1D1A784A4913
:10427000794413009B009B185B00CB18023300228B
:104280001A80BB1D1B78002B03D1FB1D00221A7066
:1042900003E0FB1D00221A70C046BB1D1A78FB1DEF
:1042A0001B7898B23D49794413009B009B185B0032
:1042B000CB180433021C1A80BB1D1A783849794484
:1042C00013009B009B185B00CB18063302221A8058
:1042D000BB1D1A783349794413009B009B185B007F
:1042E000CB18083300221A80BB1D19782E4A7A4455
:1042F0000B00DB005B1A995C002001409954D11837
:10430000487800242040041C3E204042204348704E
:10431000D118887800242040041C01202043887094
:10432000D318DA7800210A40DA70BB1D1A781F49C9
:1043300079441300DB009B1ACB18043300221A7057
:10434000BB1D1A781A4979441300DB009B1ACB185D
:10435000053300221A70BB1D1A78164979441300E0
:10436000DB009B1ACB18063308221A70124B7B44D1
:104370001B78DBB20133DAB2104B7B441A70012395
:104380001800BD4603B090BD98BFFF1F7EBFFF1F42
:1043900074BFFF1F60BFFF1F48BFFF1F12BFFF1F7B
:1043A000FABEFF1FE2BEFF1FBEBEFF1F7CBEFF1F87
:1043B00066BEFF1F50BEFF1F54BEFF1F48BEFF1F3B
:1043C00080B582B000AFFB1D00221A703E4B7B44CB
:1043D00000221A70FB1D1B783C4A7A440021D154FC
:1043E000FB1D1B783A4A7A440021D154FB1D1B78EF
:1043F000384A7A440021D154FB1D1A78364B7B444D
:1044000092000021D152FB1D1B78344A7A449B0054
:10441000D318023300221A80FB1D1A78304B7B44DC
:1044200052000021D152FB1D1B7818002D4B7B44FC
:104430009847FB1D1B782C4A7A440021D154FB1D60
:104440001B782A4A7A440021D154FB1D1A78284B44
:104450007B4492000021D152FB1D1B78254A7A44EF
:104460009B00D318023300221A80FB1D1A78224BBE
:104470007B4452000021D152FB1D1B7818001F4BBA
:104480007B44984703001A0001235340DBB2002B02
:1044900001D0002313E01A4B7B441B78DBB20133BD
:1044A000DAB2184B7B441A70174B7B441B78DBB293
:1044B000012B03D1154B7B4401221A7001231800F4
:1044C000BD4602B080BDC046F5BDFF1F0ABFFF1F3D
:1044D00002BFFF1FEABEFF1FDABEFF1FCCBEFF1FD9
:1044E000C2BEFF1FBF0500001CBEFF1F08BEFF1F8E
:1044F000F8BDFF1FEABDFF1FE0BDFF1F81020000E6
:104500002BBDFF1F1FBDFF1F19BDFF1F0EBDFF1FCE
:1045100080B500AF054B7B441B78DBB2013BDAB2C0
:10452000034B7B441A70C046BD4680BDACBCFF1F28
:10453000A0BCFF1F80B582B000AF0B4B7B441B7843
:10454000DBB2013BDAB2094B7B441A70FB1D084A0F
:104550007A4412781A70074B7B4400221A70C046C6
:10456000BD4602B080BDC04687BCFF1F7BBCFF1F9D
:1045700073BCFF1F6CBCFF1FB0B582B000AF364CE0
:104580007C44FD1D354B7B44984703002B70344B16
:10459000E3581B785BB2002B24DA314BE3581B78CD
:1045A0001A0060231340202B1CD12D4BE3585B785D
:1045B000212B17D12A4BE358DB88072B01D000238E
:1045C00046E0FB1D1A781300DB009B1A254A7A444B
:1045D0009A18234BE3589A60214BE35807229A819B
:1045E000012335E01E4BE3581B785BB2002B2EDB1A
:1045F0001B4BE3581B781A0060231340202B26D155
:10460000174BE3585B78202B02D0222B1DD01EE0E5
:10461000134BE358DB88072B01D0002318E0104B25
:10462000E358114A7A441A61FB1D1A781300DB0023
:104630009B1A0E4A7A449A18094BE3589A60084B21
:10464000E35807229A81012302E0012300E00023BE
:104650001800BD4602B0B0BDB0AE00001F010000A2
:1046600008020000DEBBFF1FBD00000078BBFF1F7B
:1046700080B500AF00231800BD4680BD80B500AFF7
:1046800000231800BD4680BD80B500AF044B7B44BD
:104690001B781800034B7B449847C046BD4680BD3D
:1046A0005BBCFF1F5703000080B582B000AF0B4A10
:1046B0007A440B4BD3589B881A00FF23134003D135
:1046C000FB1D00221A7003E0FB1D00221A70C04679
:1046D000FB1D1B781800BD4602B080BD80AD0000F8
:1046E0000802000090B583B000AFFC1D044B7B4472
:1046F000984703002370C046BD4603B090BDC04636
:10470000B7FFFFFFB0B588B002AF0200FB1D1A7003
:10471000414C7C44FB1D00221A70404B7B4498475F
:1047200003003B61FB1D1A780F23FB183C497944B9
:104730008A5C1A70FB1D1B783A4A7A44D35CDBB260
:10474000002B14D1FB1D1A78374B7B445200D35AEF
:104750009AB2FB1D18780F23FB181978334B7B4452
:10476000400041184900CB5A9BB29A4206D23B699D
:1047700018002F4B7B449847002348E0FB1D1A7814
:104780002C4B7B4452000021D152FB1D1B780F2281
:10479000BA18127851424A41D2B21100264A7A44DC
:1047A000D154FB1D1B78254A7A440121D1543B6921
:1047B0001800234B7B449847FB1D1B781800214BA6
:1047C000E3589847FB1D1B78002B04D11723FB18D7
:1047D00002221A7004E01723FB1802221A70C04646
:1047E000FB1D1A780F23FB181B785200D3189B016E
:1047F000154A7A449A181723FB181878134B7B44F0
:10480000009340230121124D6459A0470300180072
:10481000BD4606B0B0BDC0461EAD00006DFAFFFF3C
:104820001EBBFF1F1ABBFF1F06BBFF1FEABAFF1FFD
:1048300069FAFFFFCEBAFF1FAEBAFF1FACBAFF1F67
:1048400029FAFFFFD4010000D6B9FF1F5300000072
:1048500094000000B0B586B002AF39601100FB1DB6
:10486000021C1A70BB1D0A1C1A702E4D7D44BB1D04
:104870001B78022B04D10F23FB1800221A7004E0CE
:104880000F23FB1800221A70C046FB1D1B78002B5B
:1048900044D10F23FB181B78234A7A44D35CDBB244
:1048A0005A425341DAB20E23FB181A703B68002BB0
:1048B00016D10F23FB181A780E23FB181B78520011
:1048C000D3189B01194A7A449A18BB1D1878184BC3
:1048D0007B44009340230121164C2C59A0471EE035
:1048E0000F23FB1819780E23FB181A783B6898B22F
:1048F000114B7B4449008A185200011CD1520F23EE
:10490000FB181B780D4A7A440021D1540F23FB1861
:104910001B7818000A4B7B44984700E0C046BD4610
:1049200004B0B0BDC4AB0000B2B9FF1F02B9FF1F95
:1049300081FFFFFF9400000056B9FF1F4EB9FF1F13
:10494000EBFDFFFF80B584B000AF39601100FB1DA7
:10495000021C1A70BB1D0A1C1A70BB1D1B78812B10
:1049600004D10F23FB1800221A7004E00F23FB1858
:1049700000221A70C046FB1D1B78002B2AD10F2382
:10498000FB181A780F23FB181B7814497944CB5C69
:10499000DBB259424B41DBB21900114B7B44520050
:1049A000521852000021D1520F23FB181B780D4AD8
:1049B0007A440021D1540F23FB181B780A4A7A4409
:1049C0000021D1540F23FB181B781800074B7B44A0
:1049D000984700E0C046BD4604B080BD50B9FF1FF7
:1049E0003CB9FF1F38B9FF1F26B9FF1F1F00000089
:1049F000B0B588B002AF0200FB1D1A70894C7C4430
:104A0000FB1D00221A70FB1D1B78874A7A44D35C79
:104A1000DBB2002B00D0FEE0844BE3589847031E26
:104A20000CD0FB1D1A78824B7B445200D55A814B27
:104A3000E358984703009D420DD1EFE0FB1D1A7823
:104A40007D4B7B445200D55A7C4BE358984703007A
:104A50009D4200D1E1E07A4B7B44984703003B61E3
:104A6000FB1D1A781723FB18764979448A5C1A7063
:104A7000FB1D19781723FB181A78734B7B444900E8
:104A80008A185200D35A002B27D1704B7B441B88C5
:104A900001339AB26E4B7B441A80644BE3589847BB
:104AA00003001A0001235340DBB2002B04D0694BF2
:104AB0007B441B88632B0AD95C4BE3589847031E41
:104AC0000BD0654B7B441B88644A934205D83B69F5
:104AD0001800634B7B449847A0E0624B7B44002264
:104AE0001A80FB1D1B78604A7A44D35CDBB201223A
:104AF0005340DBB2002B0CD0FB1D1B781722BA18D9
:104B0000127851424A41D2B21100584A7A44D154E3
:104B100008E01723FB181B785A425341DAB21723D7
:104B2000FB181A70FB1D1B78514A7A440121D1549D
:104B30003B6918004F4B7B449847FB1D197817239E
:104B4000FB181A784C4B7B4449008A185200D25A01
:104B50000F23FB18403A511E8A411A700F23FB188D
:104B60001B78002B1CD0314BE3589847031E0BD009
:104B7000FB1D1D782F4BE3589847030019003F4B4E
:104B80007B446A00D15212E0FB1D1D782B4BE35889
:104B90009847030019003A4B7B446A00D15206E063
:104BA000FB1D1A78374B7B4452000021D152FB1D6C
:104BB0001B78002B04D11623FB1881221A7004E005
:104BC0001623FB1881221A70C046FB1D1A78172382
:104BD000FB181B785200D3189B012B4A7A449D186E
:104BE000FB1D19781723FB181A78284B7B444900C2
:104BF0008A185200D35A1A000F23FB18197816236B
:104C0000FB181878224B7B44009313002A00214D97
:104C10006459A04702E0C04600E0C046BD4606B069
:104C2000B0BDC04632AA0000D8B8FF1FBC010000CA
:104C3000B8B8FF1F600000009EB8FF1FF40000001E
:104C400031F7FFFF72B8FF1F5CB8FF1F5EB8FF1F90
:104C500054B8FF1F3AB8FF1F26B8FF1F1F030000FC
:104C600009F7FFFF0EB8FF1F00B8FF1FD0B7FF1FE7
:104C7000BAB7FF1FA7F6FFFF92B7FF1F60B7FF1F6E
:104C800048B7FF1F3AB7FF1F7CB6FF1FECB6FF1FE8
:104C90003BFDFFFF9400000080B586B000AF02002E
:104CA000FB1D1A70FB1D00221A70174B7B4498479E
:104CB00003007B61FB1D19781223FB18134A7A4409
:104CC00049008A5A1A80FB1D1A78FB1D1B7810496F
:104CD0007944CB5CDBB219000E4B7B445200521876
:104CE0005200D35A9BB21A001223FB181B88D31A06
:104CF000FB607B691800084B7B449847FB681800F1
:104D0000BD4606B080BDC046DDF4FFFF92B5FF1F73
:104D10007CB5FF1F6EB5FF1FE5F4FFFF80B582B0C5
:104D200000AF0200FB1D1A70074A7A44FB1D1B7876
:104D30001800064BD358984703005A1E9341DBB224
:104D40001800BD4602B080BD06A700003400000078
:104D500080B586B000AF0200FB1D1A7000237B6196
:104D6000FB1D00221A70FB1D1A7845497944130077
:104D7000DB009B1ACB1806331A781323FB18093A69
:104D800051424A411A703F4B7B4498470300FB60F5
:104D9000FB1D19780A23FB183B4A7A4449008A5ABA
:104DA0001A80FB1D1A780923FB18384979448A5C5C
:104DB0001A70FB1D19780923FB181A78344B7B44B1
:104DC00049008A185200D35A99B20823FA180A23C4
:104DD000FB181888002388425B411370FB68180099
:104DE0002C4B7B4498470823FB181B78002B11D0D1
:104DF000294B7B441B78DBB201225340DBB2002BF2
:104E000001D0002338E01323FB181322BA181278BC
:104E10001A70B8E7FB1D18780923FB181A780A23C3
:104E2000FB181B881D4979444000821892018A189A
:104E3000D35C1A007B6913437B61FB1D1A780A233C
:104E4000FB181B88013399B2154B7B445200D15299
:104E5000FB1D1B781800134B7B4498471323FB184A
:104E60001B78002B07D01323FB1800221A707B69D4
:104E70001B027B6187E77B691800BD4606B080BDD9
:104E800040B4FF1F01F4FFFFB6B4FF1FA0B4FF1F23
:104E90008AB4FF1FFBF3FFFFD2B3FF1FA2B3FF1FB4
:104EA00006B4FF1FA9F8FFFF80B500AF044A7A449B
:104EB0000020044BD358984703001800BD4680BD1E
:104EC00082A500002402000080B586B000AF020079
:104ED000FB1D1A70FB1D00221A702A4B7B44984759
:104EE00003003B61FB1D1A780F23FB182649794408
:104EF0008A5C1A70FB1D19780F23FB181A78234B54
:104F00007B4449008A185200D35A7B617B69402B4D
:104F100029D1FB1D1B781E4A7A44D35CDBB20122E7
:104F20005340DBB2002B1ED0FB1D1B78194A7A447C
:104F3000D35CDBB201225340DBB2002B13D0FB1D4C
:104F40001B78154A7A440121D154FB1D1B780F228E
:104F5000BA18127851424A41D2B211000F4A7A442B
:104F6000D15400237B617B694022D31ABB603B692B
:104F700018000B4B7B449847BB681800BD4606B031
:104F800080BDC046ADF2FFFFEEB3FF1FD8B3FF1FD9
:104F9000CCB3FF1FBAB3FF1FA4B3FF1F7EB3FF1F25
:104FA00069F2FFFF80B582B000AF0200FB1D1A70EE
:104FB000074A7A44FB1D1B781800064BD3589847C4
:104FC00003005A1E9341DBB21800BD4602B080BDFB
:104FD0007EA40000E8010000F0B587B000AF020039
:104FE0003960FB1D1A703E4C7C44FB1D00221A7078
:104FF000FB1D1A783B4979441300DB009B1ACB1840
:1050000006331A781723FB18093A51424A411A709D
:10501000FB1D1B781800344BE358984703001A0017
:1050200001235340DBB2002B11D0304B7B441B7863
:10503000DBB201225340DBB2002B01D000234AE057
:105040001723FB181722BA1812781A70E0E7284BBA
:105050007B44984703003B61FB1D1A780F23FB1824
:10506000244979448A5C1A70FB1D1D780F23FB18B4
:105070001878FB1D1A780F23FB181B781E497944FA
:105080005600F6187600715A4E1CB6B2B4461B4E46
:105090007E445200D3185B0062469A533B68DEB2EE
:1050A000174A7A446B001B189B01D318321C5A54C0
:1050B0003B691800134B7B4498471723FB181B7858
:1050C000002B07D01723FB1800221A703B681B1215
:1050D0003B609DE701231800BD4607B0F0BDC04608
:1050E00048A40000B6B1FF1F0803000098B1FF1FDD
:1050F00039F1FFFF7AB2FF1F5AB2FF1F48B2FF1FFC
:10510000B6B1FF1F27F1FFFF80B582B000AF786016
:10511000064A7A447B6819000020054BD35898470B
:1051200003001800BD4602B080BDC0461EA30000AB
:105130005C02000080B500AF024B7B441800BD4606
:1051400080BDC046FEA1000080B500AF084B7B4487
:105150001B681A68074B7B441B681B689978DB78CF
:105160001B020B439BB2D3181800BD4680BDC0463E
:10517000AAB1FF1FA2B1FF1F80B584B000AF786055
:105180000A00FB1C1A70144B7B4498470300FB6019
:105190007B681B781A007B689B187B6011E07B683A
:1051A0005B78042B12D07B685B78FA1C12789A42E9
:1051B00001D17B680CE07B681B781A007B689B1828
:1051C0007B60FA687B689A42E9D800E0C046002319
:1051D0001800BD4604B080BDBDFFFFFF80B584B0A0
:1051E00000AF0200FB1D1A70BB1D0A1C1A70264B73
:1051F0007B441B78002B01D1002341E0234B7B44EF
:105200001B681B681B79FA1D12789A4201D3002390
:1052100036E01F4B7B441B681A681E4B7B441A60A8
:105220001D4B7B4498470300FB6022E01B4B7B44F3
:105230001B685B78042B11D1194B7B441B689B784E
:10524000FA1D12789A4209D1164B7B441B68DB7811
:10525000BA1D12789A4201D1012311E0124B7B440E
:105260001A68124B7B441B681B78D218104B7B4486
:105270001A60104B7B441B68FA689A42D6D8002308
:105280001800BD4604B080BD04B1FF1FFAB0FF1F77
:10529000E4B0FF1FE0B0FF1F23FFFFFFCEB0FF1FF2
:1052A000C2B0FF1FB2B0FF1F9EB0FF1F98B0FF1F1C
:1052B0008EB0FF1F88B0FF1F90B585B000AF020011
:1052C000FB1D1A70274C7C44FB1D1B780021180025
:1052D000254B7B44984703001A0001235340DBB25F
:1052E000002B01D0002339E0204B7B441B685A6817
:1052F000FB1D1B789B00D3181B68BB60BB68DB6879
:10530000984703001A00FB1D1B7811001800184B6A
:105310007B44984703001A0001235340DBB2002B63
:1053200001D000231AE0134B7B441B68FB60FB6831
:1053300005211800104B7B4498470300FB60FB6875
:10534000002B06D0FB689B7818000C4BE35898475D
:10535000EDE7C046BB685B68984701231800BD466F
:1053600005B090BD6AA1000007FFFFFF0EB0FF1F50
:10537000C9FEFFFFD4AFFF1F3FFEFFFFB0010000DB
:1053800090B585B000AF0200FB1D1A70BB1D0A1C52
:105390001A70254C7C44BB1D1A78FB1D1B7811002C
:1053A0001800224B7B44984703001A000123534006
:1053B000DBB2002B01D0002332E01D4B7B441B6885
:1053C000FB60FB68052118001A4B7B4498470300DB
:1053D000FB60FB68002B16D0FB689878FB68D978D7
:1053E000FB681A795B791B0213439BB21A00124BBC
:1053F000E358984703001A0001235340DBB2002B07
:10540000DFD000230CE0C0460C4B7B441B685A687D
:10541000FB1D1B789B00D3181B681B689847030073
:105420001800BD4605B090BD9CA0000035FEFFFFF2
:1054300040AFFF1FABFDFFFF0C020000EEAEFF1FF1
:1054400080B500AF034A7A44034BD3589847C0460F
:10545000BD4680BDEA9F0000C001000080B582B05B
:1054600000AF144B7B441B78002B17D0FB1D002290
:105470001A700AE0FB1D1B7818000F4B7B449847FD
:10548000FB1D1A78FB1D01321A700C4B7B441B6804
:105490001B681B79FA1D12789A42EBD3084B7B44A8
:1054A00000221A70074B7B4401221A80C046BD4679
:1054B00002B080BD90AEFF1F39FEFFFF6CAEFF1F34
:1054C00056AEFF1F46AEFF1F80B582B000AF194B2E
:1054D0007B441B78002B28D0FB1D00221A701BE098
:1054E000154B7B441B685A68FB1D1B789B00D31827
:1054F0001B681B69002B0AD0104B7B441B685A6841
:10550000FB1D1B789B00D3181B681B699847FB1D6C
:105510001A78FB1D01321A70094B7B441B681B680B
:105520001B79FA1D12789A42DAD3C046BD4602B002
:1055300080BDC04624AEFF1F16AEFF1FFEADFF1F8D
:10554000DEADFF1F80B500AF094B7B44094A9A5876
:10555000D288022A01D0002307E0074A7A440221B8
:105560001000064A9B58984701231800BD4680BD8D
:10557000E69E00000802000090ADFF1F80000000C2
:10558000B0B500AF104C7C44104BE358DB88022BC5
:1055900001D0002314E00D4BE3589B88DBB21800C8
:1055A0000B4BE358984703009AB20A4B7B441A808E
:1055B000094B7B4402211800084BE358984701230C
:1055C0001800BD46B0BDC046AA9E000008020000FB
:1055D000C801000054ADFF1F4EADFF1F800000004A
:1055E00080B500AF0E4B7B440E4A9A58D288002AF1
:1055F00001D0002310E00B4A9B585B88012B0AD195
:10560000094B7B441B88022293439AB2074B7B448D
:105610001A80012300E000231800BD4680BDC0466B
:105620004A9E000008020000EAACFF1FDEACFF1F2C
:1056300080B500AF0D4B7B440D4A9A58D288002AA2
:1056400001D000230FE00A4A9A585288002A09D153
:10565000074A9A589288D2B21000064A9B58984737
:10566000030000E000231800BD4680BDFA9D000045
:1056700008020000DC01000080B500AF0A4B7B444B
:105680000A4A9A58D288002A01D0002308E0074A23
:105690009B585B88012B02D0C046002300E000230A
:1056A0001800BD4680BDC046B29D00000802000043
:1056B000B0B500AF114C7C44114BE358DB88002B94
:1056C00001D0002317E00E4BE3585B88002B11D16B
:1056D0000B4BE3589B88DBB218000A4BE358984702
:1056E000074BE3589B88DBB21800074BE3589847F9
:1056F000030000E000231800BD46B0BD7A9D000005
:1057000008020000D80100004C01000080B500AF85
:10571000074B7B44074A9A585288D2B27F210A40ED
:10572000D2B21000044A9B589847C046BD4680BD7F
:105730001E9D0000080200000403000080B500AFB9
:10574000084B7B44084A9A58D288002A01D000238B
:1057500005E0054A9B58054A7A441A61012318005E
:10576000BD4680BDEE9C000008020000B1FFFFFFB7
:1057700090B585B000AF3D4C7C44FB1D00221A70F3
:105780003B4BE3585B881A00FF231340032B2AD8B6
:10579000180008F0B3F8C046100000002000000018
:1057A0002E0000003C000000324B7B440421180016
:1057B000314BE358984718E0FB1D0B221A702F4B12
:1057C0007B44BB6011E0FB1D10221A702C4B7B4404
:1057D000BB600AE0FB1D07221A702A4B7B449847E6
:1057E0000300BB6001E000233CE0FB1D1B78002BA5
:1057F00037D00F23FB1800221A7017E00F23FB1875
:105800001B780F22BA181278B9688A18127891B2E8
:105810001D4A7A445B00D31802330A1C1A800F23F6
:10582000FB181A780F23FB1801321A700F23FA188D
:10583000FB1D12781B789A42E0D3FB1D1B780133C5
:10584000DBB2DB18DAB2114B7B441A70104B7B448D
:105850001B789BB20F4A7A4419001000064BE3589C
:10586000984701231800BD4605B090BDB89C0000C4
:10587000080200001EA9FF1F800000000CA9FF1FE6
:105880000AA9FF1F55F9FFFFDAA8FF1FA4A8FF1FF1
:105890009EA8FF1F96A8FF1F90B583B000AF514C84
:1058A0007C44514BE3585A88FB1D1A704E4BE35809
:1058B0005B881B0A9BB2DBB2013B0E2B00D97BE05D
:1058C000180008F01BF8C0463C000000580000001B
:1058D000D8000000F0000000F0000000F000000020
:1058E000F0000000F0000000F0000000F0000000F8
:1058F000F0000000F0000000F0000000F0000000E8
:10590000AA000000394BE3581A68384BE3581B686B
:105910001B789BB219001000354BE35898474EE0B6
:10592000324BE3581B685B7CFA1D12789A4201D314
:10593000002353E02D4BE3585A68FB1D1B78DB0016
:10594000D3181868294BE3585A68FB1D1B78DB00F5
:10595000D3181B689A78DB781B0213439BB219009B
:10596000234BE3589847204BE3589B6802225A7018
:1059700025E01E4BE3589B68002B01D100232DE04E
:105980001A4BE3589868194BE3589B689A78DB7870
:105990001B0213439BB21900154BE35898470EE0C6
:1059A000144B7B44984703001A0001235340DBB299
:1059B000002B03D0002311E000230FE0C0460A4B68
:1059C000E358DA88084BE3589B899A4205D2064B84
:1059D000E358DA88044BE3589A8101231800BD4646
:1059E00003B090BD909B000008020000340100004D
:1059F00080000000CBFDFFFF80B500AF094B7B446A
:105A0000094A9A58D288012A01D0002307E0074AA0
:105A10007A4401211000064A9B5898470123180038
:105A2000BD4680BD329A000008020000E4A8FF1FB6
:105A30008000000090B583B000AF324C7C44324B04
:105A4000E358DB88002B01D0002356E02F4BE358AE
:105A50009847031E01D100234FE02B4BE3585B888E
:105A60001A00FF231A402A4BE3581B685B7C9A42BA
:105A700001DD002341E0274BE3589847224BE358D0
:105A80005B88DAB2244B7B441A70244B7B441B782E
:105A9000002B01D1012330E01D4BE3585A68204B05
:105AA0007B441B781F498C466344DB00D2181E4B95
:105AB0007B441A60FB1D00221A7014E0FB1D1B784A
:105AC00000211800194B7B44984703001A0001235A
:105AD0005340DBB2002B01D000230EE0FB1D1A78EF
